{
	"EVotingLingkungan.sol": {
		"EVotingLingkungan": {
			"abi": [
				{
					"inputs": [
						{
							"internalType": "string",
							"name": "_judul",
							"type": "string"
						}
					],
					"stateMutability": "nonpayable",
					"type": "constructor"
				},
				{
					"inputs": [],
					"name": "admin",
					"outputs": [
						{
							"internalType": "address",
							"name": "",
							"type": "address"
						}
					],
					"stateMutability": "view",
					"type": "function"
				},
				{
					"inputs": [],
					"name": "getJumlahOpsi",
					"outputs": [
						{
							"internalType": "uint256",
							"name": "",
							"type": "uint256"
						}
					],
					"stateMutability": "view",
					"type": "function"
				},
				{
					"inputs": [
						{
							"internalType": "uint256",
							"name": "index",
							"type": "uint256"
						}
					],
					"name": "getOpsi",
					"outputs": [
						{
							"internalType": "string",
							"name": "",
							"type": "string"
						},
						{
							"internalType": "uint256",
							"name": "",
							"type": "uint256"
						}
					],
					"stateMutability": "view",
					"type": "function"
				},
				{
					"inputs": [],
					"name": "getSemuaOpsi",
					"outputs": [
						{
							"components": [
								{
									"internalType": "string",
									"name": "nama",
									"type": "string"
								},
								{
									"internalType": "uint256",
									"name": "jumlahSuara",
									"type": "uint256"
								}
							],
							"internalType": "struct EVotingLingkungan.Opsi[]",
							"name": "",
							"type": "tuple[]"
						}
					],
					"stateMutability": "view",
					"type": "function"
				},
				{
					"inputs": [],
					"name": "judulVoting",
					"outputs": [
						{
							"internalType": "string",
							"name": "",
							"type": "string"
						}
					],
					"stateMutability": "view",
					"type": "function"
				},
				{
					"inputs": [
						{
							"internalType": "address",
							"name": "",
							"type": "address"
						}
					],
					"name": "sudahMemilih",
					"outputs": [
						{
							"internalType": "bool",
							"name": "",
							"type": "bool"
						}
					],
					"stateMutability": "view",
					"type": "function"
				},
				{
					"inputs": [
						{
							"internalType": "string",
							"name": "_namaOpsi",
							"type": "string"
						}
					],
					"name": "tambahOpsi",
					"outputs": [],
					"stateMutability": "nonpayable",
					"type": "function"
				},
				{
					"inputs": [],
					"name": "tutupVoting",
					"outputs": [],
					"stateMutability": "nonpayable",
					"type": "function"
				},
				{
					"inputs": [
						{
							"internalType": "uint256",
							"name": "_indexOpsi",
							"type": "uint256"
						}
					],
					"name": "vote",
					"outputs": [],
					"stateMutability": "nonpayable",
					"type": "function"
				},
				{
					"inputs": [],
					"name": "votingAktif",
					"outputs": [
						{
							"internalType": "bool",
							"name": "",
							"type": "bool"
						}
					],
					"stateMutability": "view",
					"type": "function"
				}
			],
			"devdoc": {
				"kind": "dev",
				"methods": {},
				"version": 1
			},
			"evm": {
				"assembly": "    /* \"EVotingLingkungan.sol\":61:2288  contract EVotingLingkungan {... */\n  mstore(0x40, 0x80)\n    /* \"EVotingLingkungan.sol\":440:571  constructor(string memory _judul) {... */\n  callvalue\n  dup1\n  iszero\n  tag_1\n  jumpi\n  revert(0x00, 0x00)\ntag_1:\n  pop\n  mload(0x40)\n  sub(codesize, bytecodeSize)\n  dup1\n  bytecodeSize\n  dup4\n  codecopy\n  dup2\n  dup2\n  add\n  0x40\n  mstore\n  dup2\n  add\n  swap1\n  tag_2\n  swap2\n  swap1\n  tag_3\n  jump\t// in\ntag_2:\n    /* \"EVotingLingkungan.sol\":493:503  msg.sender */\n  caller\n    /* \"EVotingLingkungan.sol\":485:490  admin */\n  0x00\n  0x00\n    /* \"EVotingLingkungan.sol\":485:503  admin = msg.sender */\n  0x0100\n  exp\n  dup2\n  sload\n  dup2\n  0xffffffffffffffffffffffffffffffffffffffff\n  mul\n  not\n  and\n  swap1\n  dup4\n  0xffffffffffffffffffffffffffffffffffffffff\n  and\n  mul\n  or\n  swap1\n  sstore\n  pop\n    /* \"EVotingLingkungan.sol\":528:534  _judul */\n  dup1\n    /* \"EVotingLingkungan.sol\":514:525  judulVoting */\n  0x01\n    /* \"EVotingLingkungan.sol\":514:534  judulVoting = _judul */\n  swap1\n  dup2\n  tag_6\n  swap2\n  swap1\n  tag_7\n  jump\t// in\ntag_6:\n  pop\n    /* \"EVotingLingkungan.sol\":559:563  true */\n  0x01\n    /* \"EVotingLingkungan.sol\":545:556  votingAktif */\n  0x02\n  0x00\n    /* \"EVotingLingkungan.sol\":545:563  votingAktif = true */\n  0x0100\n  exp\n  dup2\n  sload\n  dup2\n  0xff\n  mul\n  not\n  and\n  swap1\n  dup4\n  iszero\n  iszero\n  mul\n  or\n  swap1\n  sstore\n  pop\n    /* \"EVotingLingkungan.sol\":440:571  constructor(string memory _judul) {... */\n  pop\n    /* \"EVotingLingkungan.sol\":61:2288  contract EVotingLingkungan {... */\n  jump(tag_8)\n    /* \"#utility.yul\":7:82   */\ntag_9:\n    /* \"#utility.yul\":40:46   */\n  0x00\n    /* \"#utility.yul\":73:75   */\n  0x40\n    /* \"#utility.yul\":67:76   */\n  mload\n    /* \"#utility.yul\":57:76   */\n  swap1\n  pop\n    /* \"#utility.yul\":7:82   */\n  swap1\n  jump\t// out\n    /* \"#utility.yul\":88:205   */\ntag_10:\n    /* \"#utility.yul\":197:198   */\n  0x00\n    /* \"#utility.yul\":194:195   */\n  0x00\n    /* \"#utility.yul\":187:199   */\n  revert\n    /* \"#utility.yul\":211:328   */\ntag_11:\n    /* \"#utility.yul\":320:321   */\n  0x00\n    /* \"#utility.yul\":317:318   */\n  0x00\n    /* \"#utility.yul\":310:322   */\n  revert\n    /* \"#utility.yul\":334:451   */\ntag_12:\n    /* \"#utility.yul\":443:444   */\n  0x00\n    /* \"#utility.yul\":440:441   */\n  0x00\n    /* \"#utility.yul\":433:445   */\n  revert\n    /* \"#utility.yul\":457:574   */\ntag_13:\n    /* \"#utility.yul\":566:567   */\n  0x00\n    /* \"#utility.yul\":563:564   */\n  0x00\n    /* \"#utility.yul\":556:568   */\n  revert\n    /* \"#utility.yul\":580:682   */\ntag_14:\n    /* \"#utility.yul\":621:627   */\n  0x00\n    /* \"#utility.yul\":672:674   */\n  0x1f\n    /* \"#utility.yul\":668:675   */\n  not\n    /* \"#utility.yul\":663:665   */\n  0x1f\n    /* \"#utility.yul\":656:661   */\n  dup4\n    /* \"#utility.yul\":652:666   */\n  add\n    /* \"#utility.yul\":648:676   */\n  and\n    /* \"#utility.yul\":638:676   */\n  swap1\n  pop\n    /* \"#utility.yul\":580:682   */\n  swap2\n  swap1\n  pop\n  jump\t// out\n    /* \"#utility.yul\":688:868   */\ntag_15:\n    /* \"#utility.yul\":736:813   */\n  0x4e487b7100000000000000000000000000000000000000000000000000000000\n    /* \"#utility.yul\":733:734   */\n  0x00\n    /* \"#utility.yul\":726:814   */\n  mstore\n    /* \"#utility.yul\":833:837   */\n  0x41\n    /* \"#utility.yul\":830:831   */\n  0x04\n    /* \"#utility.yul\":823:838   */\n  mstore\n    /* \"#utility.yul\":857:861   */\n  0x24\n    /* \"#utility.yul\":854:855   */\n  0x00\n    /* \"#utility.yul\":847:862   */\n  revert\n    /* \"#utility.yul\":874:1155   */\ntag_16:\n    /* \"#utility.yul\":957:984   */\n  tag_50\n    /* \"#utility.yul\":979:983   */\n  dup3\n    /* \"#utility.yul\":957:984   */\n  tag_14\n  jump\t// in\ntag_50:\n    /* \"#utility.yul\":949:955   */\n  dup2\n    /* \"#utility.yul\":945:985   */\n  add\n    /* \"#utility.yul\":1087:1093   */\n  dup2\n    /* \"#utility.yul\":1075:1085   */\n  dup2\n    /* \"#utility.yul\":1072:1094   */\n  lt\n    /* \"#utility.yul\":1051:1069   */\n  0xffffffffffffffff\n    /* \"#utility.yul\":1039:1049   */\n  dup3\n    /* \"#utility.yul\":1036:1070   */\n  gt\n    /* \"#utility.yul\":1033:1095   */\n  or\n    /* \"#utility.yul\":1030:1118   */\n  iszero\n  tag_51\n  jumpi\n    /* \"#utility.yul\":1098:1116   */\n  tag_52\n  tag_15\n  jump\t// in\ntag_52:\n    /* \"#utility.yul\":1030:1118   */\ntag_51:\n    /* \"#utility.yul\":1138:1148   */\n  dup1\n    /* \"#utility.yul\":1134:1136   */\n  0x40\n    /* \"#utility.yul\":1127:1149   */\n  mstore\n    /* \"#utility.yul\":917:1155   */\n  pop\n    /* \"#utility.yul\":874:1155   */\n  pop\n  pop\n  jump\t// out\n    /* \"#utility.yul\":1161:1290   */\ntag_17:\n    /* \"#utility.yul\":1195:1201   */\n  0x00\n    /* \"#utility.yul\":1222:1242   */\n  tag_54\n  tag_9\n  jump\t// in\ntag_54:\n    /* \"#utility.yul\":1212:1242   */\n  swap1\n  pop\n    /* \"#utility.yul\":1251:1284   */\n  tag_55\n    /* \"#utility.yul\":1279:1283   */\n  dup3\n    /* \"#utility.yul\":1271:1277   */\n  dup3\n    /* \"#utility.yul\":1251:1284   */\n  tag_16\n  jump\t// in\ntag_55:\n    /* \"#utility.yul\":1161:1290   */\n  swap2\n  swap1\n  pop\n  jump\t// out\n    /* \"#utility.yul\":1296:1604   */\ntag_18:\n    /* \"#utility.yul\":1358:1362   */\n  0x00\n    /* \"#utility.yul\":1448:1466   */\n  0xffffffffffffffff\n    /* \"#utility.yul\":1440:1446   */\n  dup3\n    /* \"#utility.yul\":1437:1467   */\n  gt\n    /* \"#utility.yul\":1434:1490   */\n  iszero\n  tag_57\n  jumpi\n    /* \"#utility.yul\":1470:1488   */\n  tag_58\n  tag_15\n  jump\t// in\ntag_58:\n    /* \"#utility.yul\":1434:1490   */\ntag_57:\n    /* \"#utility.yul\":1508:1537   */\n  tag_59\n    /* \"#utility.yul\":1530:1536   */\n  dup3\n    /* \"#utility.yul\":1508:1537   */\n  tag_14\n  jump\t// in\ntag_59:\n    /* \"#utility.yul\":1500:1537   */\n  swap1\n  pop\n    /* \"#utility.yul\":1592:1596   */\n  0x20\n    /* \"#utility.yul\":1586:1590   */\n  dup2\n    /* \"#utility.yul\":1582:1597   */\n  add\n    /* \"#utility.yul\":1574:1597   */\n  swap1\n  pop\n    /* \"#utility.yul\":1296:1604   */\n  swap2\n  swap1\n  pop\n  jump\t// out\n    /* \"#utility.yul\":1610:1749   */\ntag_19:\n    /* \"#utility.yul\":1699:1705   */\n  dup3\n    /* \"#utility.yul\":1694:1697   */\n  dup2\n    /* \"#utility.yul\":1689:1692   */\n  dup4\n    /* \"#utility.yul\":1683:1706   */\n  mcopy\n    /* \"#utility.yul\":1740:1741   */\n  0x00\n    /* \"#utility.yul\":1731:1737   */\n  dup4\n    /* \"#utility.yul\":1726:1729   */\n  dup4\n    /* \"#utility.yul\":1722:1738   */\n  add\n    /* \"#utility.yul\":1715:1742   */\n  mstore\n    /* \"#utility.yul\":1610:1749   */\n  pop\n  pop\n  pop\n  jump\t// out\n    /* \"#utility.yul\":1755:2189   */\ntag_20:\n    /* \"#utility.yul\":1844:1849   */\n  0x00\n    /* \"#utility.yul\":1869:1935   */\n  tag_62\n    /* \"#utility.yul\":1885:1934   */\n  tag_63\n    /* \"#utility.yul\":1927:1933   */\n  dup5\n    /* \"#utility.yul\":1885:1934   */\n  tag_18\n  jump\t// in\ntag_63:\n    /* \"#utility.yul\":1869:1935   */\n  tag_17\n  jump\t// in\ntag_62:\n    /* \"#utility.yul\":1860:1935   */\n  swap1\n  pop\n    /* \"#utility.yul\":1958:1964   */\n  dup3\n    /* \"#utility.yul\":1951:1956   */\n  dup2\n    /* \"#utility.yul\":1944:1965   */\n  mstore\n    /* \"#utility.yul\":1996:2000   */\n  0x20\n    /* \"#utility.yul\":1989:1994   */\n  dup2\n    /* \"#utility.yul\":1985:2001   */\n  add\n    /* \"#utility.yul\":2034:2037   */\n  dup5\n    /* \"#utility.yul\":2025:2031   */\n  dup5\n    /* \"#utility.yul\":2020:2023   */\n  dup5\n    /* \"#utility.yul\":2016:2032   */\n  add\n    /* \"#utility.yul\":2013:2038   */\n  gt\n    /* \"#utility.yul\":2010:2122   */\n  iszero\n  tag_64\n  jumpi\n    /* \"#utility.yul\":2041:2120   */\n  tag_65\n  tag_13\n  jump\t// in\ntag_65:\n    /* \"#utility.yul\":2010:2122   */\ntag_64:\n    /* \"#utility.yul\":2131:2183   */\n  tag_66\n    /* \"#utility.yul\":2176:2182   */\n  dup5\n    /* \"#utility.yul\":2171:2174   */\n  dup3\n    /* \"#utility.yul\":2166:2169   */\n  dup6\n    /* \"#utility.yul\":2131:2183   */\n  tag_19\n  jump\t// in\ntag_66:\n    /* \"#utility.yul\":1850:2189   */\n  pop\n    /* \"#utility.yul\":1755:2189   */\n  swap4\n  swap3\n  pop\n  pop\n  pop\n  jump\t// out\n    /* \"#utility.yul\":2209:2564   */\ntag_21:\n    /* \"#utility.yul\":2276:2281   */\n  0x00\n    /* \"#utility.yul\":2325:2328   */\n  dup3\n    /* \"#utility.yul\":2318:2322   */\n  0x1f\n    /* \"#utility.yul\":2310:2316   */\n  dup4\n    /* \"#utility.yul\":2306:2323   */\n  add\n    /* \"#utility.yul\":2302:2329   */\n  slt\n    /* \"#utility.yul\":2292:2414   */\n  tag_68\n  jumpi\n    /* \"#utility.yul\":2333:2412   */\n  tag_69\n  tag_12\n  jump\t// in\ntag_69:\n    /* \"#utility.yul\":2292:2414   */\ntag_68:\n    /* \"#utility.yul\":2443:2449   */\n  dup2\n    /* \"#utility.yul\":2437:2450   */\n  mload\n    /* \"#utility.yul\":2468:2558   */\n  tag_70\n    /* \"#utility.yul\":2554:2557   */\n  dup5\n    /* \"#utility.yul\":2546:2552   */\n  dup3\n    /* \"#utility.yul\":2539:2543   */\n  0x20\n    /* \"#utility.yul\":2531:2537   */\n  dup7\n    /* \"#utility.yul\":2527:2544   */\n  add\n    /* \"#utility.yul\":2468:2558   */\n  tag_20\n  jump\t// in\ntag_70:\n    /* \"#utility.yul\":2459:2558   */\n  swap2\n  pop\n    /* \"#utility.yul\":2282:2564   */\n  pop\n    /* \"#utility.yul\":2209:2564   */\n  swap3\n  swap2\n  pop\n  pop\n  jump\t// out\n    /* \"#utility.yul\":2570:3094   */\ntag_3:\n    /* \"#utility.yul\":2650:2656   */\n  0x00\n    /* \"#utility.yul\":2699:2701   */\n  0x20\n    /* \"#utility.yul\":2687:2696   */\n  dup3\n    /* \"#utility.yul\":2678:2685   */\n  dup5\n    /* \"#utility.yul\":2674:2697   */\n  sub\n    /* \"#utility.yul\":2670:2702   */\n  slt\n    /* \"#utility.yul\":2667:2786   */\n  iszero\n  tag_72\n  jumpi\n    /* \"#utility.yul\":2705:2784   */\n  tag_73\n  tag_10\n  jump\t// in\ntag_73:\n    /* \"#utility.yul\":2667:2786   */\ntag_72:\n    /* \"#utility.yul\":2846:2847   */\n  0x00\n    /* \"#utility.yul\":2835:2844   */\n  dup3\n    /* \"#utility.yul\":2831:2848   */\n  add\n    /* \"#utility.yul\":2825:2849   */\n  mload\n    /* \"#utility.yul\":2876:2894   */\n  0xffffffffffffffff\n    /* \"#utility.yul\":2868:2874   */\n  dup2\n    /* \"#utility.yul\":2865:2895   */\n  gt\n    /* \"#utility.yul\":2862:2979   */\n  iszero\n  tag_74\n  jumpi\n    /* \"#utility.yul\":2898:2977   */\n  tag_75\n  tag_11\n  jump\t// in\ntag_75:\n    /* \"#utility.yul\":2862:2979   */\ntag_74:\n    /* \"#utility.yul\":3003:3077   */\n  tag_76\n    /* \"#utility.yul\":3069:3076   */\n  dup5\n    /* \"#utility.yul\":3060:3066   */\n  dup3\n    /* \"#utility.yul\":3049:3058   */\n  dup6\n    /* \"#utility.yul\":3045:3067   */\n  add\n    /* \"#utility.yul\":3003:3077   */\n  tag_21\n  jump\t// in\ntag_76:\n    /* \"#utility.yul\":2993:3077   */\n  swap2\n  pop\n    /* \"#utility.yul\":2796:3087   */\n  pop\n    /* \"#utility.yul\":2570:3094   */\n  swap3\n  swap2\n  pop\n  pop\n  jump\t// out\n    /* \"#utility.yul\":3100:3199   */\ntag_22:\n    /* \"#utility.yul\":3152:3158   */\n  0x00\n    /* \"#utility.yul\":3186:3191   */\n  dup2\n    /* \"#utility.yul\":3180:3192   */\n  mload\n    /* \"#utility.yul\":3170:3192   */\n  swap1\n  pop\n    /* \"#utility.yul\":3100:3199   */\n  swap2\n  swap1\n  pop\n  jump\t// out\n    /* \"#utility.yul\":3205:3385   */\ntag_23:\n    /* \"#utility.yul\":3253:3330   */\n  0x4e487b7100000000000000000000000000000000000000000000000000000000\n    /* \"#utility.yul\":3250:3251   */\n  0x00\n    /* \"#utility.yul\":3243:3331   */\n  mstore\n    /* \"#utility.yul\":3350:3354   */\n  0x22\n    /* \"#utility.yul\":3347:3348   */\n  0x04\n    /* \"#utility.yul\":3340:3355   */\n  mstore\n    /* \"#utility.yul\":3374:3378   */\n  0x24\n    /* \"#utility.yul\":3371:3372   */\n  0x00\n    /* \"#utility.yul\":3364:3379   */\n  revert\n    /* \"#utility.yul\":3391:3711   */\ntag_24:\n    /* \"#utility.yul\":3435:3441   */\n  0x00\n    /* \"#utility.yul\":3472:3473   */\n  0x02\n    /* \"#utility.yul\":3466:3470   */\n  dup3\n    /* \"#utility.yul\":3462:3474   */\n  div\n    /* \"#utility.yul\":3452:3474   */\n  swap1\n  pop\n    /* \"#utility.yul\":3519:3520   */\n  0x01\n    /* \"#utility.yul\":3513:3517   */\n  dup3\n    /* \"#utility.yul\":3509:3521   */\n  and\n    /* \"#utility.yul\":3540:3558   */\n  dup1\n    /* \"#utility.yul\":3530:3611   */\n  tag_80\n  jumpi\n    /* \"#utility.yul\":3596:3600   */\n  0x7f\n    /* \"#utility.yul\":3588:3594   */\n  dup3\n    /* \"#utility.yul\":3584:3601   */\n  and\n    /* \"#utility.yul\":3574:3601   */\n  swap2\n  pop\n    /* \"#utility.yul\":3530:3611   */\ntag_80:\n    /* \"#utility.yul\":3658:3660   */\n  0x20\n    /* \"#utility.yul\":3650:3656   */\n  dup3\n    /* \"#utility.yul\":3647:3661   */\n  lt\n    /* \"#utility.yul\":3627:3645   */\n  dup2\n    /* \"#utility.yul\":3624:3662   */\n  sub\n    /* \"#utility.yul\":3621:3705   */\n  tag_81\n  jumpi\n    /* \"#utility.yul\":3677:3695   */\n  tag_82\n  tag_23\n  jump\t// in\ntag_82:\n    /* \"#utility.yul\":3621:3705   */\ntag_81:\n    /* \"#utility.yul\":3442:3711   */\n  pop\n    /* \"#utility.yul\":3391:3711   */\n  swap2\n  swap1\n  pop\n  jump\t// out\n    /* \"#utility.yul\":3717:3858   */\ntag_25:\n    /* \"#utility.yul\":3766:3770   */\n  0x00\n    /* \"#utility.yul\":3789:3792   */\n  dup2\n    /* \"#utility.yul\":3781:3792   */\n  swap1\n  pop\n    /* \"#utility.yul\":3812:3815   */\n  dup2\n    /* \"#utility.yul\":3809:3810   */\n  0x00\n    /* \"#utility.yul\":3802:3816   */\n  mstore\n    /* \"#utility.yul\":3846:3850   */\n  0x20\n    /* \"#utility.yul\":3843:3844   */\n  0x00\n    /* \"#utility.yul\":3833:3851   */\n  keccak256\n    /* \"#utility.yul\":3825:3851   */\n  swap1\n  pop\n    /* \"#utility.yul\":3717:3858   */\n  swap2\n  swap1\n  pop\n  jump\t// out\n    /* \"#utility.yul\":3864:3957   */\ntag_26:\n    /* \"#utility.yul\":3901:3907   */\n  0x00\n    /* \"#utility.yul\":3948:3950   */\n  0x20\n    /* \"#utility.yul\":3943:3945   */\n  0x1f\n    /* \"#utility.yul\":3936:3941   */\n  dup4\n    /* \"#utility.yul\":3932:3946   */\n  add\n    /* \"#utility.yul\":3928:3951   */\n  div\n    /* \"#utility.yul\":3918:3951   */\n  swap1\n  pop\n    /* \"#utility.yul\":3864:3957   */\n  swap2\n  swap1\n  pop\n  jump\t// out\n    /* \"#utility.yul\":3963:4070   */\ntag_27:\n    /* \"#utility.yul\":4007:4015   */\n  0x00\n    /* \"#utility.yul\":4057:4062   */\n  dup3\n    /* \"#utility.yul\":4051:4055   */\n  dup3\n    /* \"#utility.yul\":4047:4063   */\n  shl\n    /* \"#utility.yul\":4026:4063   */\n  swap1\n  pop\n    /* \"#utility.yul\":3963:4070   */\n  swap3\n  swap2\n  pop\n  pop\n  jump\t// out\n    /* \"#utility.yul\":4076:4469   */\ntag_28:\n    /* \"#utility.yul\":4145:4151   */\n  0x00\n    /* \"#utility.yul\":4195:4196   */\n  0x08\n    /* \"#utility.yul\":4183:4193   */\n  dup4\n    /* \"#utility.yul\":4179:4197   */\n  mul\n    /* \"#utility.yul\":4218:4315   */\n  tag_87\n    /* \"#utility.yul\":4248:4314   */\n  0xffffffffffffffffffffffffffffffffffffffffffffffffffffffffffffffff\n    /* \"#utility.yul\":4237:4246   */\n  dup3\n    /* \"#utility.yul\":4218:4315   */\n  tag_27\n  jump\t// in\ntag_87:\n    /* \"#utility.yul\":4336:4375   */\n  tag_88\n    /* \"#utility.yul\":4366:4374   */\n  dup7\n    /* \"#utility.yul\":4355:4364   */\n  dup4\n    /* \"#utility.yul\":4336:4375   */\n  tag_27\n  jump\t// in\ntag_88:\n    /* \"#utility.yul\":4324:4375   */\n  swap6\n  pop\n    /* \"#utility.yul\":4408:4412   */\n  dup1\n    /* \"#utility.yul\":4404:4413   */\n  not\n    /* \"#utility.yul\":4397:4402   */\n  dup5\n    /* \"#utility.yul\":4393:4414   */\n  and\n    /* \"#utility.yul\":4384:4414   */\n  swap4\n  pop\n    /* \"#utility.yul\":4457:4461   */\n  dup1\n    /* \"#utility.yul\":4447:4455   */\n  dup7\n    /* \"#utility.yul\":4443:4462   */\n  and\n    /* \"#utility.yul\":4436:4441   */\n  dup5\n    /* \"#utility.yul\":4433:4463   */\n  or\n    /* \"#utility.yul\":4423:4463   */\n  swap3\n  pop\n    /* \"#utility.yul\":4152:4469   */\n  pop\n  pop\n    /* \"#utility.yul\":4076:4469   */\n  swap4\n  swap3\n  pop\n  pop\n  pop\n  jump\t// out\n    /* \"#utility.yul\":4475:4552   */\ntag_29:\n    /* \"#utility.yul\":4512:4519   */\n  0x00\n    /* \"#utility.yul\":4541:4546   */\n  dup2\n    /* \"#utility.yul\":4530:4546   */\n  swap1\n  pop\n    /* \"#utility.yul\":4475:4552   */\n  swap2\n  swap1\n  pop\n  jump\t// out\n    /* \"#utility.yul\":4558:4618   */\ntag_30:\n    /* \"#utility.yul\":4586:4589   */\n  0x00\n    /* \"#utility.yul\":4607:4612   */\n  dup2\n    /* \"#utility.yul\":4600:4612   */\n  swap1\n  pop\n    /* \"#utility.yul\":4558:4618   */\n  swap2\n  swap1\n  pop\n  jump\t// out\n    /* \"#utility.yul\":4624:4766   */\ntag_31:\n    /* \"#utility.yul\":4674:4683   */\n  0x00\n    /* \"#utility.yul\":4707:4760   */\n  tag_92\n    /* \"#utility.yul\":4725:4759   */\n  tag_93\n    /* \"#utility.yul\":4734:4758   */\n  tag_94\n    /* \"#utility.yul\":4752:4757   */\n  dup5\n    /* \"#utility.yul\":4734:4758   */\n  tag_29\n  jump\t// in\ntag_94:\n    /* \"#utility.yul\":4725:4759   */\n  tag_30\n  jump\t// in\ntag_93:\n    /* \"#utility.yul\":4707:4760   */\n  tag_29\n  jump\t// in\ntag_92:\n    /* \"#utility.yul\":4694:4760   */\n  swap1\n  pop\n    /* \"#utility.yul\":4624:4766   */\n  swap2\n  swap1\n  pop\n  jump\t// out\n    /* \"#utility.yul\":4772:4847   */\ntag_32:\n    /* \"#utility.yul\":4815:4818   */\n  0x00\n    /* \"#utility.yul\":4836:4841   */\n  dup2\n    /* \"#utility.yul\":4829:4841   */\n  swap1\n  pop\n    /* \"#utility.yul\":4772:4847   */\n  swap2\n  swap1\n  pop\n  jump\t// out\n    /* \"#utility.yul\":4853:5122   */\ntag_33:\n    /* \"#utility.yul\":4963:5002   */\n  tag_97\n    /* \"#utility.yul\":4994:5001   */\n  dup4\n    /* \"#utility.yul\":4963:5002   */\n  tag_31\n  jump\t// in\ntag_97:\n    /* \"#utility.yul\":5024:5115   */\n  tag_98\n    /* \"#utility.yul\":5073:5114   */\n  tag_99\n    /* \"#utility.yul\":5097:5113   */\n  dup3\n    /* \"#utility.yul\":5073:5114   */\n  tag_32\n  jump\t// in\ntag_99:\n    /* \"#utility.yul\":5065:5071   */\n  dup5\n    /* \"#utility.yul\":5058:5062   */\n  dup5\n    /* \"#utility.yul\":5052:5063   */\n  sload\n    /* \"#utility.yul\":5024:5115   */\n  tag_28\n  jump\t// in\ntag_98:\n    /* \"#utility.yul\":5018:5022   */\n  dup3\n    /* \"#utility.yul\":5011:5116   */\n  sstore\n    /* \"#utility.yul\":4929:5122   */\n  pop\n    /* \"#utility.yul\":4853:5122   */\n  pop\n  pop\n  pop\n  jump\t// out\n    /* \"#utility.yul\":5128:5201   */\ntag_34:\n    /* \"#utility.yul\":5173:5176   */\n  0x00\n    /* \"#utility.yul\":5194:5195   */\n  0x00\n    /* \"#utility.yul\":5187:5195   */\n  swap1\n  pop\n    /* \"#utility.yul\":5128:5201   */\n  swap1\n  jump\t// out\n    /* \"#utility.yul\":5207:5396   */\ntag_35:\n    /* \"#utility.yul\":5284:5316   */\n  tag_102\n  tag_34\n  jump\t// in\ntag_102:\n    /* \"#utility.yul\":5325:5390   */\n  tag_103\n    /* \"#utility.yul\":5383:5389   */\n  dup2\n    /* \"#utility.yul\":5375:5381   */\n  dup5\n    /* \"#utility.yul\":5369:5373   */\n  dup5\n    /* \"#utility.yul\":5325:5390   */\n  tag_33\n  jump\t// in\ntag_103:\n    /* \"#utility.yul\":5260:5396   */\n  pop\n    /* \"#utility.yul\":5207:5396   */\n  pop\n  pop\n  jump\t// out\n    /* \"#utility.yul\":5402:5616   */\ntag_36:\n    /* \"#utility.yul\":5487:5488   */\n  0x00\n    /* \"#utility.yul\":5472:5610   */\ntag_105:\n    /* \"#utility.yul\":5497:5506   */\n  dup3\n    /* \"#utility.yul\":5494:5495   */\n  dup2\n    /* \"#utility.yul\":5491:5507   */\n  lt\n    /* \"#utility.yul\":5472:5610   */\n  iszero\n  tag_107\n  jumpi\n    /* \"#utility.yul\":5549:5600   */\n  tag_108\n    /* \"#utility.yul\":5598:5599   */\n  0x00\n    /* \"#utility.yul\":5594:5595   */\n  dup3\n    /* \"#utility.yul\":5583:5592   */\n  dup5\n    /* \"#utility.yul\":5579:5596   */\n  add\n    /* \"#utility.yul\":5549:5600   */\n  tag_35\n  jump\t// in\ntag_108:\n    /* \"#utility.yul\":5522:5523   */\n  0x01\n    /* \"#utility.yul\":5519:5520   */\n  dup2\n    /* \"#utility.yul\":5515:5524   */\n  add\n    /* \"#utility.yul\":5510:5524   */\n  swap1\n  pop\n    /* \"#utility.yul\":5472:5610   */\n  jump(tag_105)\ntag_107:\n    /* \"#utility.yul\":5476:5490   */\n  pop\n    /* \"#utility.yul\":5402:5616   */\n  pop\n  pop\n  jump\t// out\n    /* \"#utility.yul\":5622:6368   */\ntag_37:\n    /* \"#utility.yul\":5723:5725   */\n  0x1f\n    /* \"#utility.yul\":5718:5721   */\n  dup3\n    /* \"#utility.yul\":5715:5726   */\n  gt\n    /* \"#utility.yul\":5712:6361   */\n  iszero\n  tag_110\n  jumpi\n    /* \"#utility.yul\":5752:5762   */\n  dup3\n    /* \"#utility.yul\":5747:5750   */\n  dup3\n    /* \"#utility.yul\":5744:5763   */\n  gt\n    /* \"#utility.yul\":5741:6351   */\n  iszero\n  tag_111\n  jumpi\n    /* \"#utility.yul\":5798:5836   */\n  tag_112\n    /* \"#utility.yul\":5830:5835   */\n  dup2\n    /* \"#utility.yul\":5798:5836   */\n  tag_25\n  jump\t// in\ntag_112:\n    /* \"#utility.yul\":5873:5895   */\n  tag_113\n    /* \"#utility.yul\":5891:5894   */\n  dup4\n    /* \"#utility.yul\":5873:5895   */\n  tag_26\n  jump\t// in\ntag_113:\n    /* \"#utility.yul\":5932:5961   */\n  tag_114\n    /* \"#utility.yul\":5950:5960   */\n  dup6\n    /* \"#utility.yul\":5932:5961   */\n  tag_26\n  jump\t// in\ntag_114:\n    /* \"#utility.yul\":6122:6124   */\n  0x20\n    /* \"#utility.yul\":6110:6120   */\n  dup7\n    /* \"#utility.yul\":6107:6125   */\n  lt\n    /* \"#utility.yul\":6104:6183   */\n  iszero\n  tag_115\n  jumpi\n    /* \"#utility.yul\":6164:6165   */\n  0x00\n    /* \"#utility.yul\":6148:6165   */\n  swap1\n  pop\n    /* \"#utility.yul\":6104:6183   */\ntag_115:\n    /* \"#utility.yul\":6233:6245   */\n  dup1\n    /* \"#utility.yul\":6223:6231   */\n  dup4\n    /* \"#utility.yul\":6219:6246   */\n  add\n    /* \"#utility.yul\":6263:6337   */\n  tag_116\n    /* \"#utility.yul\":6323:6335   */\n  dup3\n    /* \"#utility.yul\":6309:6321   */\n  dup5\n    /* \"#utility.yul\":6305:6336   */\n  sub\n    /* \"#utility.yul\":6292:6303   */\n  dup3\n    /* \"#utility.yul\":6263:6337   */\n  tag_36\n  jump\t// in\ntag_116:\n    /* \"#utility.yul\":5764:6351   */\n  pop\n  pop\n  pop\n  pop\n    /* \"#utility.yul\":5741:6351   */\ntag_111:\n    /* \"#utility.yul\":5712:6361   */\ntag_110:\n    /* \"#utility.yul\":5622:6368   */\n  pop\n  pop\n  pop\n  jump\t// out\n    /* \"#utility.yul\":6374:6491   */\ntag_38:\n    /* \"#utility.yul\":6428:6436   */\n  0x00\n    /* \"#utility.yul\":6478:6483   */\n  dup3\n    /* \"#utility.yul\":6472:6476   */\n  dup3\n    /* \"#utility.yul\":6468:6484   */\n  shr\n    /* \"#utility.yul\":6447:6484   */\n  swap1\n  pop\n    /* \"#utility.yul\":6374:6491   */\n  swap3\n  swap2\n  pop\n  pop\n  jump\t// out\n    /* \"#utility.yul\":6497:6666   */\ntag_39:\n    /* \"#utility.yul\":6541:6547   */\n  0x00\n    /* \"#utility.yul\":6574:6625   */\n  tag_119\n    /* \"#utility.yul\":6622:6623   */\n  0x00\n    /* \"#utility.yul\":6618:6624   */\n  not\n    /* \"#utility.yul\":6610:6615   */\n  dup5\n    /* \"#utility.yul\":6607:6608   */\n  0x08\n    /* \"#utility.yul\":6603:6616   */\n  mul\n    /* \"#utility.yul\":6574:6625   */\n  tag_38\n  jump\t// in\ntag_119:\n    /* \"#utility.yul\":6570:6626   */\n  not\n    /* \"#utility.yul\":6655:6659   */\n  dup1\n    /* \"#utility.yul\":6649:6653   */\n  dup4\n    /* \"#utility.yul\":6645:6660   */\n  and\n    /* \"#utility.yul\":6635:6660   */\n  swap2\n  pop\n    /* \"#utility.yul\":6548:6666   */\n  pop\n    /* \"#utility.yul\":6497:6666   */\n  swap3\n  swap2\n  pop\n  pop\n  jump\t// out\n    /* \"#utility.yul\":6671:6966   */\ntag_40:\n    /* \"#utility.yul\":6747:6751   */\n  0x00\n    /* \"#utility.yul\":6893:6922   */\n  tag_121\n    /* \"#utility.yul\":6918:6921   */\n  dup4\n    /* \"#utility.yul\":6912:6916   */\n  dup4\n    /* \"#utility.yul\":6893:6922   */\n  tag_39\n  jump\t// in\ntag_121:\n    /* \"#utility.yul\":6885:6922   */\n  swap2\n  pop\n    /* \"#utility.yul\":6955:6958   */\n  dup3\n    /* \"#utility.yul\":6952:6953   */\n  0x02\n    /* \"#utility.yul\":6948:6959   */\n  mul\n    /* \"#utility.yul\":6942:6946   */\n  dup3\n    /* \"#utility.yul\":6939:6960   */\n  or\n    /* \"#utility.yul\":6931:6960   */\n  swap1\n  pop\n    /* \"#utility.yul\":6671:6966   */\n  swap3\n  swap2\n  pop\n  pop\n  jump\t// out\n    /* \"#utility.yul\":6971:8366   */\ntag_7:\n    /* \"#utility.yul\":7088:7125   */\n  tag_123\n    /* \"#utility.yul\":7121:7124   */\n  dup3\n    /* \"#utility.yul\":7088:7125   */\n  tag_22\n  jump\t// in\ntag_123:\n    /* \"#utility.yul\":7190:7208   */\n  0xffffffffffffffff\n    /* \"#utility.yul\":7182:7188   */\n  dup2\n    /* \"#utility.yul\":7179:7209   */\n  gt\n    /* \"#utility.yul\":7176:7232   */\n  iszero\n  tag_124\n  jumpi\n    /* \"#utility.yul\":7212:7230   */\n  tag_125\n  tag_15\n  jump\t// in\ntag_125:\n    /* \"#utility.yul\":7176:7232   */\ntag_124:\n    /* \"#utility.yul\":7256:7294   */\n  tag_126\n    /* \"#utility.yul\":7288:7292   */\n  dup3\n    /* \"#utility.yul\":7282:7293   */\n  sload\n    /* \"#utility.yul\":7256:7294   */\n  tag_24\n  jump\t// in\ntag_126:\n    /* \"#utility.yul\":7341:7408   */\n  tag_127\n    /* \"#utility.yul\":7401:7407   */\n  dup3\n    /* \"#utility.yul\":7393:7399   */\n  dup3\n    /* \"#utility.yul\":7387:7391   */\n  dup6\n    /* \"#utility.yul\":7341:7408   */\n  tag_37\n  jump\t// in\ntag_127:\n    /* \"#utility.yul\":7435:7436   */\n  0x00\n    /* \"#utility.yul\":7459:7463   */\n  0x20\n    /* \"#utility.yul\":7446:7463   */\n  swap1\n  pop\n    /* \"#utility.yul\":7491:7493   */\n  0x1f\n    /* \"#utility.yul\":7483:7489   */\n  dup4\n    /* \"#utility.yul\":7480:7494   */\n  gt\n    /* \"#utility.yul\":7508:7509   */\n  0x01\n    /* \"#utility.yul\":7503:8121   */\n  dup2\n  eq\n  tag_129\n  jumpi\n    /* \"#utility.yul\":8165:8166   */\n  0x00\n    /* \"#utility.yul\":8182:8188   */\n  dup5\n    /* \"#utility.yul\":8179:8256   */\n  iszero\n  tag_130\n  jumpi\n    /* \"#utility.yul\":8231:8240   */\n  dup3\n    /* \"#utility.yul\":8226:8229   */\n  dup8\n    /* \"#utility.yul\":8222:8241   */\n  add\n    /* \"#utility.yul\":8216:8242   */\n  mload\n    /* \"#utility.yul\":8207:8242   */\n  swap1\n  pop\n    /* \"#utility.yul\":8179:8256   */\ntag_130:\n    /* \"#utility.yul\":8282:8349   */\n  tag_131\n    /* \"#utility.yul\":8342:8348   */\n  dup6\n    /* \"#utility.yul\":8335:8340   */\n  dup3\n    /* \"#utility.yul\":8282:8349   */\n  tag_40\n  jump\t// in\ntag_131:\n    /* \"#utility.yul\":8276:8280   */\n  dup7\n    /* \"#utility.yul\":8269:8350   */\n  sstore\n    /* \"#utility.yul\":8138:8360   */\n  pop\n    /* \"#utility.yul\":7473:8360   */\n  jump(tag_128)\n    /* \"#utility.yul\":7503:8121   */\ntag_129:\n    /* \"#utility.yul\":7555:7559   */\n  0x1f\n    /* \"#utility.yul\":7551:7560   */\n  not\n    /* \"#utility.yul\":7543:7549   */\n  dup5\n    /* \"#utility.yul\":7539:7561   */\n  and\n    /* \"#utility.yul\":7589:7626   */\n  tag_132\n    /* \"#utility.yul\":7621:7625   */\n  dup7\n    /* \"#utility.yul\":7589:7626   */\n  tag_25\n  jump\t// in\ntag_132:\n    /* \"#utility.yul\":7648:7649   */\n  0x00\n    /* \"#utility.yul\":7662:7870   */\ntag_133:\n    /* \"#utility.yul\":7676:7683   */\n  dup3\n    /* \"#utility.yul\":7673:7674   */\n  dup2\n    /* \"#utility.yul\":7670:7684   */\n  lt\n    /* \"#utility.yul\":7662:7870   */\n  iszero\n  tag_135\n  jumpi\n    /* \"#utility.yul\":7755:7764   */\n  dup5\n    /* \"#utility.yul\":7750:7753   */\n  dup10\n    /* \"#utility.yul\":7746:7765   */\n  add\n    /* \"#utility.yul\":7740:7766   */\n  mload\n    /* \"#utility.yul\":7732:7738   */\n  dup3\n    /* \"#utility.yul\":7725:7767   */\n  sstore\n    /* \"#utility.yul\":7806:7807   */\n  0x01\n    /* \"#utility.yul\":7798:7804   */\n  dup3\n    /* \"#utility.yul\":7794:7808   */\n  add\n    /* \"#utility.yul\":7784:7808   */\n  swap2\n  pop\n    /* \"#utility.yul\":7853:7855   */\n  0x20\n    /* \"#utility.yul\":7842:7851   */\n  dup6\n    /* \"#utility.yul\":7838:7856   */\n  add\n    /* \"#utility.yul\":7825:7856   */\n  swap5\n  pop\n    /* \"#utility.yul\":7699:7703   */\n  0x20\n    /* \"#utility.yul\":7696:7697   */\n  dup2\n    /* \"#utility.yul\":7692:7704   */\n  add\n    /* \"#utility.yul\":7687:7704   */\n  swap1\n  pop\n    /* \"#utility.yul\":7662:7870   */\n  jump(tag_133)\ntag_135:\n    /* \"#utility.yul\":7898:7904   */\n  dup7\n    /* \"#utility.yul\":7889:7896   */\n  dup4\n    /* \"#utility.yul\":7886:7905   */\n  lt\n    /* \"#utility.yul\":7883:8062   */\n  iszero\n  tag_136\n  jumpi\n    /* \"#utility.yul\":7956:7965   */\n  dup5\n    /* \"#utility.yul\":7951:7954   */\n  dup10\n    /* \"#utility.yul\":7947:7966   */\n  add\n    /* \"#utility.yul\":7941:7967   */\n  mload\n    /* \"#utility.yul\":7999:8047   */\n  tag_137\n    /* \"#utility.yul\":8041:8045   */\n  0x1f\n    /* \"#utility.yul\":8033:8039   */\n  dup10\n    /* \"#utility.yul\":8029:8046   */\n  and\n    /* \"#utility.yul\":8018:8027   */\n  dup3\n    /* \"#utility.yul\":7999:8047   */\n  tag_39\n  jump\t// in\ntag_137:\n    /* \"#utility.yul\":7991:7997   */\n  dup4\n    /* \"#utility.yul\":7984:8048   */\n  sstore\n    /* \"#utility.yul\":7906:8062   */\n  pop\n    /* \"#utility.yul\":7883:8062   */\ntag_136:\n    /* \"#utility.yul\":8108:8109   */\n  0x01\n    /* \"#utility.yul\":8104:8105   */\n  0x02\n    /* \"#utility.yul\":8096:8102   */\n  dup9\n    /* \"#utility.yul\":8092:8106   */\n  mul\n    /* \"#utility.yul\":8088:8110   */\n  add\n    /* \"#utility.yul\":8082:8086   */\n  dup9\n    /* \"#utility.yul\":8075:8111   */\n  sstore\n    /* \"#utility.yul\":7510:8121   */\n  pop\n  pop\n  pop\n    /* \"#utility.yul\":7473:8360   */\ntag_128:\n  pop\n    /* \"#utility.yul\":7063:8366   */\n  pop\n  pop\n  pop\n    /* \"#utility.yul\":6971:8366   */\n  pop\n  pop\n  jump\t// out\n    /* \"EVotingLingkungan.sol\":61:2288  contract EVotingLingkungan {... */\ntag_8:\n  dataSize(sub_0)\n  dup1\n  dataOffset(sub_0)\n  0x00\n  codecopy\n  0x00\n  return\nstop\n\nsub_0: assembly {\n        /* \"EVotingLingkungan.sol\":61:2288  contract EVotingLingkungan {... */\n      mstore(0x40, 0x80)\n      callvalue\n      dup1\n      iszero\n      tag_1\n      jumpi\n      revert(0x00, 0x00)\n    tag_1:\n      pop\n      jumpi(tag_2, lt(calldatasize, 0x04))\n      shr(0xe0, calldataload(0x00))\n      dup1\n      0x79abf651\n      gt\n      tag_13\n      jumpi\n      dup1\n      0x79abf651\n      eq\n      tag_8\n      jumpi\n      dup1\n      0x9558b3c7\n      eq\n      tag_9\n      jumpi\n      dup1\n      0xde603ce9\n      eq\n      tag_10\n      jumpi\n      dup1\n      0xf851a440\n      eq\n      tag_11\n      jumpi\n      dup1\n      0xfb61a561\n      eq\n      tag_12\n      jumpi\n      jump(tag_2)\n    tag_13:\n      dup1\n      0x0121b93f\n      eq\n      tag_3\n      jumpi\n      dup1\n      0x2a17b670\n      eq\n      tag_4\n      jumpi\n      dup1\n      0x58724b87\n      eq\n      tag_5\n      jumpi\n      dup1\n      0x621f3a8c\n      eq\n      tag_6\n      jumpi\n      dup1\n      0x77cd800b\n      eq\n      tag_7\n      jumpi\n    tag_2:\n      revert(0x00, 0x00)\n        /* \"EVotingLingkungan.sol\":1178:1463  function vote(uint _indexOpsi) public saatAktif {... */\n    tag_3:\n      tag_14\n      0x04\n      dup1\n      calldatasize\n      sub\n      dup2\n      add\n      swap1\n      tag_15\n      swap2\n      swap1\n      tag_16\n      jump\t// in\n    tag_15:\n      tag_17\n      jump\t// in\n    tag_14:\n      stop\n        /* \"EVotingLingkungan.sol\":124:149  string public judulVoting */\n    tag_4:\n      tag_18\n      tag_19\n      jump\t// in\n    tag_18:\n      mload(0x40)\n      tag_20\n      swap2\n      swap1\n      tag_21\n      jump\t// in\n    tag_20:\n      mload(0x40)\n      dup1\n      swap2\n      sub\n      swap1\n      return\n        /* \"EVotingLingkungan.sol\":2206:2285  function tutupVoting() public hanyaAdmin {... */\n    tag_5:\n      tag_22\n      tag_23\n      jump\t// in\n    tag_22:\n      stop\n        /* \"EVotingLingkungan.sol\":1760:1912  function getOpsi(uint index) public view returns (string memory, uint) {... */\n    tag_6:\n      tag_24\n      0x04\n      dup1\n      calldatasize\n      sub\n      dup2\n      add\n      swap1\n      tag_25\n      swap2\n      swap1\n      tag_16\n      jump\t// in\n    tag_25:\n      tag_26\n      jump\t// in\n    tag_24:\n      mload(0x40)\n      tag_27\n      swap3\n      swap2\n      swap1\n      tag_28\n      jump\t// in\n    tag_27:\n      mload(0x40)\n      dup1\n      swap2\n      sub\n      swap1\n      return\n        /* \"EVotingLingkungan.sol\":156:179  bool public votingAktif */\n    tag_7:\n      tag_29\n      tag_30\n      jump\t// in\n    tag_29:\n      mload(0x40)\n      tag_31\n      swap2\n      swap1\n      tag_32\n      jump\t// in\n    tag_31:\n      mload(0x40)\n      dup1\n      swap2\n      sub\n      swap1\n      return\n        /* \"EVotingLingkungan.sol\":299:343  mapping(address => bool) public sudahMemilih */\n    tag_8:\n      tag_33\n      0x04\n      dup1\n      calldatasize\n      sub\n      dup2\n      add\n      swap1\n      tag_34\n      swap2\n      swap1\n      tag_35\n      jump\t// in\n    tag_34:\n      tag_36\n      jump\t// in\n    tag_33:\n      mload(0x40)\n      tag_37\n      swap2\n      swap1\n      tag_32\n      jump\t// in\n    tag_37:\n      mload(0x40)\n      dup1\n      swap2\n      sub\n      swap1\n      return\n        /* \"EVotingLingkungan.sol\":2013:2109  function getSemuaOpsi() public view returns (Opsi[] memory) {... */\n    tag_9:\n      tag_38\n      tag_39\n      jump\t// in\n    tag_38:\n      mload(0x40)\n      tag_40\n      swap2\n      swap1\n      tag_41\n      jump\t// in\n    tag_40:\n      mload(0x40)\n      dup1\n      swap2\n      sub\n      swap1\n      return\n        /* \"EVotingLingkungan.sol\":970:1087  function tambahOpsi(string memory _namaOpsi) public hanyaAdmin {... */\n    tag_10:\n      tag_42\n      0x04\n      dup1\n      calldatasize\n      sub\n      dup2\n      add\n      swap1\n      tag_43\n      swap2\n      swap1\n      tag_44\n      jump\t// in\n    tag_43:\n      tag_45\n      jump\t// in\n    tag_42:\n      stop\n        /* \"EVotingLingkungan.sol\":97:117  address public admin */\n    tag_11:\n      tag_46\n      tag_47\n      jump\t// in\n    tag_46:\n      mload(0x40)\n      tag_48\n      swap2\n      swap1\n      tag_49\n      jump\t// in\n    tag_48:\n      mload(0x40)\n      dup1\n      swap2\n      sub\n      swap1\n      return\n        /* \"EVotingLingkungan.sol\":1565:1660  function getJumlahOpsi() public view returns (uint) {... */\n    tag_12:\n      tag_50\n      tag_51\n      jump\t// in\n    tag_50:\n      mload(0x40)\n      tag_52\n      swap2\n      swap1\n      tag_53\n      jump\t// in\n    tag_52:\n      mload(0x40)\n      dup1\n      swap2\n      sub\n      swap1\n      return\n        /* \"EVotingLingkungan.sol\":1178:1463  function vote(uint _indexOpsi) public saatAktif {... */\n    tag_17:\n        /* \"EVotingLingkungan.sol\":824:828  true */\n      0x01\n        /* \"EVotingLingkungan.sol\":809:828  votingAktif == true */\n      iszero\n      iszero\n        /* \"EVotingLingkungan.sol\":809:820  votingAktif */\n      0x02\n      0x00\n      swap1\n      sload\n      swap1\n      0x0100\n      exp\n      swap1\n      div\n      0xff\n      and\n        /* \"EVotingLingkungan.sol\":809:828  votingAktif == true */\n      iszero\n      iszero\n      eq\n        /* \"EVotingLingkungan.sol\":801:854  require(votingAktif == true, \"Voting sudah ditutup!\") */\n      tag_55\n      jumpi\n      mload(0x40)\n      0x08c379a000000000000000000000000000000000000000000000000000000000\n      dup2\n      mstore\n      0x04\n      add\n      tag_56\n      swap1\n      tag_57\n      jump\t// in\n    tag_56:\n      mload(0x40)\n      dup1\n      swap2\n      sub\n      swap1\n      revert\n    tag_55:\n        /* \"EVotingLingkungan.sol\":1246:1258  sudahMemilih */\n      0x04\n        /* \"EVotingLingkungan.sol\":1246:1270  sudahMemilih[msg.sender] */\n      0x00\n        /* \"EVotingLingkungan.sol\":1259:1269  msg.sender */\n      caller\n        /* \"EVotingLingkungan.sol\":1246:1270  sudahMemilih[msg.sender] */\n      0xffffffffffffffffffffffffffffffffffffffff\n      and\n      0xffffffffffffffffffffffffffffffffffffffff\n      and\n      dup2\n      mstore\n      0x20\n      add\n      swap1\n      dup2\n      mstore\n      0x20\n      add\n      0x00\n      keccak256\n      0x00\n      swap1\n      sload\n      swap1\n      0x0100\n      exp\n      swap1\n      div\n      0xff\n      and\n        /* \"EVotingLingkungan.sol\":1245:1270  !sudahMemilih[msg.sender] */\n      iszero\n        /* \"EVotingLingkungan.sol\":1237:1293  require(!sudahMemilih[msg.sender], \"Anda sudah voting!\") */\n      tag_59\n      jumpi\n      mload(0x40)\n      0x08c379a000000000000000000000000000000000000000000000000000000000\n      dup2\n      mstore\n      0x04\n      add\n      tag_60\n      swap1\n      tag_61\n      jump\t// in\n    tag_60:\n      mload(0x40)\n      dup1\n      swap2\n      sub\n      swap1\n      revert\n    tag_59:\n        /* \"EVotingLingkungan.sol\":1325:1335  daftarOpsi */\n      0x03\n        /* \"EVotingLingkungan.sol\":1325:1342  daftarOpsi.length */\n      dup1\n      sload\n      swap1\n      pop\n        /* \"EVotingLingkungan.sol\":1312:1322  _indexOpsi */\n      dup2\n        /* \"EVotingLingkungan.sol\":1312:1342  _indexOpsi < daftarOpsi.length */\n      lt\n        /* \"EVotingLingkungan.sol\":1304:1364  require(_indexOpsi < daftarOpsi.length, \"Opsi tidak valid!\") */\n      tag_62\n      jumpi\n      mload(0x40)\n      0x08c379a000000000000000000000000000000000000000000000000000000000\n      dup2\n      mstore\n      0x04\n      add\n      tag_63\n      swap1\n      tag_64\n      jump\t// in\n    tag_63:\n      mload(0x40)\n      dup1\n      swap2\n      sub\n      swap1\n      revert\n    tag_62:\n        /* \"EVotingLingkungan.sol\":1404:1408  true */\n      0x01\n        /* \"EVotingLingkungan.sol\":1377:1389  sudahMemilih */\n      0x04\n        /* \"EVotingLingkungan.sol\":1377:1401  sudahMemilih[msg.sender] */\n      0x00\n        /* \"EVotingLingkungan.sol\":1390:1400  msg.sender */\n      caller\n        /* \"EVotingLingkungan.sol\":1377:1401  sudahMemilih[msg.sender] */\n      0xffffffffffffffffffffffffffffffffffffffff\n      and\n      0xffffffffffffffffffffffffffffffffffffffff\n      and\n      dup2\n      mstore\n      0x20\n      add\n      swap1\n      dup2\n      mstore\n      0x20\n      add\n      0x00\n      keccak256\n      0x00\n        /* \"EVotingLingkungan.sol\":1377:1408  sudahMemilih[msg.sender] = true */\n      0x0100\n      exp\n      dup2\n      sload\n      dup2\n      0xff\n      mul\n      not\n      and\n      swap1\n      dup4\n      iszero\n      iszero\n      mul\n      or\n      swap1\n      sstore\n      pop\n        /* \"EVotingLingkungan.sol\":1419:1429  daftarOpsi */\n      0x03\n        /* \"EVotingLingkungan.sol\":1430:1440  _indexOpsi */\n      dup2\n        /* \"EVotingLingkungan.sol\":1419:1441  daftarOpsi[_indexOpsi] */\n      dup2\n      sload\n      dup2\n      lt\n      tag_65\n      jumpi\n      tag_66\n      tag_67\n      jump\t// in\n    tag_66:\n    tag_65:\n      swap1\n      0x00\n      mstore\n      keccak256(0x00, 0x20)\n      swap1\n      0x02\n      mul\n      add\n        /* \"EVotingLingkungan.sol\":1419:1453  daftarOpsi[_indexOpsi].jumlahSuara */\n      0x01\n      add\n      0x00\n        /* \"EVotingLingkungan.sol\":1419:1455  daftarOpsi[_indexOpsi].jumlahSuara++ */\n      dup2\n      sload\n      dup1\n      swap3\n      swap2\n      swap1\n      tag_69\n      swap1\n      tag_70\n      jump\t// in\n    tag_69:\n      swap2\n      swap1\n      pop\n      sstore\n      pop\n        /* \"EVotingLingkungan.sol\":1178:1463  function vote(uint _indexOpsi) public saatAktif {... */\n      pop\n      jump\t// out\n        /* \"EVotingLingkungan.sol\":124:149  string public judulVoting */\n    tag_19:\n      0x01\n      dup1\n      sload\n      tag_71\n      swap1\n      tag_72\n      jump\t// in\n    tag_71:\n      dup1\n      0x1f\n      add\n      0x20\n      dup1\n      swap2\n      div\n      mul\n      0x20\n      add\n      mload(0x40)\n      swap1\n      dup2\n      add\n      0x40\n      mstore\n      dup1\n      swap3\n      swap2\n      swap1\n      dup2\n      dup2\n      mstore\n      0x20\n      add\n      dup3\n      dup1\n      sload\n      tag_73\n      swap1\n      tag_72\n      jump\t// in\n    tag_73:\n      dup1\n      iszero\n      tag_74\n      jumpi\n      dup1\n      0x1f\n      lt\n      tag_75\n      jumpi\n      0x0100\n      dup1\n      dup4\n      sload\n      div\n      mul\n      dup4\n      mstore\n      swap2\n      0x20\n      add\n      swap2\n      jump(tag_74)\n    tag_75:\n      dup3\n      add\n      swap2\n      swap1\n      0x00\n      mstore\n      keccak256(0x00, 0x20)\n      swap1\n    tag_76:\n      dup2\n      sload\n      dup2\n      mstore\n      swap1\n      0x01\n      add\n      swap1\n      0x20\n      add\n      dup1\n      dup4\n      gt\n      tag_76\n      jumpi\n      dup3\n      swap1\n      sub\n      0x1f\n      and\n      dup3\n      add\n      swap2\n    tag_74:\n      pop\n      pop\n      pop\n      pop\n      pop\n      dup2\n      jump\t// out\n        /* \"EVotingLingkungan.sol\":2206:2285  function tutupVoting() public hanyaAdmin {... */\n    tag_23:\n        /* \"EVotingLingkungan.sol\":719:724  admin */\n      0x00\n      0x00\n      swap1\n      sload\n      swap1\n      0x0100\n      exp\n      swap1\n      div\n      0xffffffffffffffffffffffffffffffffffffffff\n      and\n        /* \"EVotingLingkungan.sol\":705:724  msg.sender == admin */\n      0xffffffffffffffffffffffffffffffffffffffff\n      and\n        /* \"EVotingLingkungan.sol\":705:715  msg.sender */\n      caller\n        /* \"EVotingLingkungan.sol\":705:724  msg.sender == admin */\n      0xffffffffffffffffffffffffffffffffffffffff\n      and\n      eq\n        /* \"EVotingLingkungan.sol\":697:741  require(msg.sender == admin, \"Hanya admin!\") */\n      tag_78\n      jumpi\n      mload(0x40)\n      0x08c379a000000000000000000000000000000000000000000000000000000000\n      dup2\n      mstore\n      0x04\n      add\n      tag_79\n      swap1\n      tag_80\n      jump\t// in\n    tag_79:\n      mload(0x40)\n      dup1\n      swap2\n      sub\n      swap1\n      revert\n    tag_78:\n        /* \"EVotingLingkungan.sol\":2272:2277  false */\n      0x00\n        /* \"EVotingLingkungan.sol\":2258:2269  votingAktif */\n      0x02\n      0x00\n        /* \"EVotingLingkungan.sol\":2258:2277  votingAktif = false */\n      0x0100\n      exp\n      dup2\n      sload\n      dup2\n      0xff\n      mul\n      not\n      and\n      swap1\n      dup4\n      iszero\n      iszero\n      mul\n      or\n      swap1\n      sstore\n      pop\n        /* \"EVotingLingkungan.sol\":2206:2285  function tutupVoting() public hanyaAdmin {... */\n      jump\t// out\n        /* \"EVotingLingkungan.sol\":1760:1912  function getOpsi(uint index) public view returns (string memory, uint) {... */\n    tag_26:\n        /* \"EVotingLingkungan.sol\":1810:1823  string memory */\n      0x60\n        /* \"EVotingLingkungan.sol\":1825:1829  uint */\n      0x00\n        /* \"EVotingLingkungan.sol\":1850:1860  daftarOpsi */\n      0x03\n        /* \"EVotingLingkungan.sol\":1861:1866  index */\n      dup4\n        /* \"EVotingLingkungan.sol\":1850:1867  daftarOpsi[index] */\n      dup2\n      sload\n      dup2\n      lt\n      tag_83\n      jumpi\n      tag_84\n      tag_67\n      jump\t// in\n    tag_84:\n    tag_83:\n      swap1\n      0x00\n      mstore\n      keccak256(0x00, 0x20)\n      swap1\n      0x02\n      mul\n      add\n        /* \"EVotingLingkungan.sol\":1850:1872  daftarOpsi[index].nama */\n      0x00\n      add\n        /* \"EVotingLingkungan.sol\":1874:1884  daftarOpsi */\n      0x03\n        /* \"EVotingLingkungan.sol\":1885:1890  index */\n      dup5\n        /* \"EVotingLingkungan.sol\":1874:1891  daftarOpsi[index] */\n      dup2\n      sload\n      dup2\n      lt\n      tag_86\n      jumpi\n      tag_87\n      tag_67\n      jump\t// in\n    tag_87:\n    tag_86:\n      swap1\n      0x00\n      mstore\n      keccak256(0x00, 0x20)\n      swap1\n      0x02\n      mul\n      add\n        /* \"EVotingLingkungan.sol\":1874:1903  daftarOpsi[index].jumlahSuara */\n      0x01\n      add\n      sload\n        /* \"EVotingLingkungan.sol\":1842:1904  return (daftarOpsi[index].nama, daftarOpsi[index].jumlahSuara) */\n      dup2\n      dup1\n      sload\n      tag_89\n      swap1\n      tag_72\n      jump\t// in\n    tag_89:\n      dup1\n      0x1f\n      add\n      0x20\n      dup1\n      swap2\n      div\n      mul\n      0x20\n      add\n      mload(0x40)\n      swap1\n      dup2\n      add\n      0x40\n      mstore\n      dup1\n      swap3\n      swap2\n      swap1\n      dup2\n      dup2\n      mstore\n      0x20\n      add\n      dup3\n      dup1\n      sload\n      tag_90\n      swap1\n      tag_72\n      jump\t// in\n    tag_90:\n      dup1\n      iszero\n      tag_91\n      jumpi\n      dup1\n      0x1f\n      lt\n      tag_92\n      jumpi\n      0x0100\n      dup1\n      dup4\n      sload\n      div\n      mul\n      dup4\n      mstore\n      swap2\n      0x20\n      add\n      swap2\n      jump(tag_91)\n    tag_92:\n      dup3\n      add\n      swap2\n      swap1\n      0x00\n      mstore\n      keccak256(0x00, 0x20)\n      swap1\n    tag_93:\n      dup2\n      sload\n      dup2\n      mstore\n      swap1\n      0x01\n      add\n      swap1\n      0x20\n      add\n      dup1\n      dup4\n      gt\n      tag_93\n      jumpi\n      dup3\n      swap1\n      sub\n      0x1f\n      and\n      dup3\n      add\n      swap2\n    tag_91:\n      pop\n      pop\n      pop\n      pop\n      pop\n      swap2\n      pop\n      swap2\n      pop\n      swap2\n      pop\n        /* \"EVotingLingkungan.sol\":1760:1912  function getOpsi(uint index) public view returns (string memory, uint) {... */\n      swap2\n      pop\n      swap2\n      jump\t// out\n        /* \"EVotingLingkungan.sol\":156:179  bool public votingAktif */\n    tag_30:\n      0x02\n      0x00\n      swap1\n      sload\n      swap1\n      0x0100\n      exp\n      swap1\n      div\n      0xff\n      and\n      dup2\n      jump\t// out\n        /* \"EVotingLingkungan.sol\":299:343  mapping(address => bool) public sudahMemilih */\n    tag_36:\n      mstore(0x20, 0x04)\n      dup1\n      0x00\n      mstore\n      keccak256(0x00, 0x40)\n      0x00\n      swap2\n      pop\n      sload\n      swap1\n      0x0100\n      exp\n      swap1\n      div\n      0xff\n      and\n      dup2\n      jump\t// out\n        /* \"EVotingLingkungan.sol\":2013:2109  function getSemuaOpsi() public view returns (Opsi[] memory) {... */\n    tag_39:\n        /* \"EVotingLingkungan.sol\":2058:2071  Opsi[] memory */\n      0x60\n        /* \"EVotingLingkungan.sol\":2091:2101  daftarOpsi */\n      0x03\n        /* \"EVotingLingkungan.sol\":2084:2101  return daftarOpsi */\n      dup1\n      sload\n      dup1\n      0x20\n      mul\n      0x20\n      add\n      mload(0x40)\n      swap1\n      dup2\n      add\n      0x40\n      mstore\n      dup1\n      swap3\n      swap2\n      swap1\n      dup2\n      dup2\n      mstore\n      0x20\n      add\n      0x00\n      swap1\n    tag_95:\n      dup3\n      dup3\n      lt\n      iszero\n      tag_96\n      jumpi\n      dup4\n      dup3\n      swap1\n      0x00\n      mstore\n      keccak256(0x00, 0x20)\n      swap1\n      0x02\n      mul\n      add\n      mload(0x40)\n      dup1\n      0x40\n      add\n      0x40\n      mstore\n      swap1\n      dup2\n      0x00\n      dup3\n      add\n      dup1\n      sload\n      tag_98\n      swap1\n      tag_72\n      jump\t// in\n    tag_98:\n      dup1\n      0x1f\n      add\n      0x20\n      dup1\n      swap2\n      div\n      mul\n      0x20\n      add\n      mload(0x40)\n      swap1\n      dup2\n      add\n      0x40\n      mstore\n      dup1\n      swap3\n      swap2\n      swap1\n      dup2\n      dup2\n      mstore\n      0x20\n      add\n      dup3\n      dup1\n      sload\n      tag_99\n      swap1\n      tag_72\n      jump\t// in\n    tag_99:\n      dup1\n      iszero\n      tag_100\n      jumpi\n      dup1\n      0x1f\n      lt\n      tag_101\n      jumpi\n      0x0100\n      dup1\n      dup4\n      sload\n      div\n      mul\n      dup4\n      mstore\n      swap2\n      0x20\n      add\n      swap2\n      jump(tag_100)\n    tag_101:\n      dup3\n      add\n      swap2\n      swap1\n      0x00\n      mstore\n      keccak256(0x00, 0x20)\n      swap1\n    tag_102:\n      dup2\n      sload\n      dup2\n      mstore\n      swap1\n      0x01\n      add\n      swap1\n      0x20\n      add\n      dup1\n      dup4\n      gt\n      tag_102\n      jumpi\n      dup3\n      swap1\n      sub\n      0x1f\n      and\n      dup3\n      add\n      swap2\n    tag_100:\n      pop\n      pop\n      pop\n      pop\n      pop\n      dup2\n      mstore\n      0x20\n      add\n      0x01\n      dup3\n      add\n      sload\n      dup2\n      mstore\n      pop\n      pop\n      dup2\n      mstore\n      0x20\n      add\n      swap1\n      0x01\n      add\n      swap1\n      jump(tag_95)\n    tag_96:\n      pop\n      pop\n      pop\n      pop\n      swap1\n      pop\n        /* \"EVotingLingkungan.sol\":2013:2109  function getSemuaOpsi() public view returns (Opsi[] memory) {... */\n      swap1\n      jump\t// out\n        /* \"EVotingLingkungan.sol\":970:1087  function tambahOpsi(string memory _namaOpsi) public hanyaAdmin {... */\n    tag_45:\n        /* \"EVotingLingkungan.sol\":719:724  admin */\n      0x00\n      0x00\n      swap1\n      sload\n      swap1\n      0x0100\n      exp\n      swap1\n      div\n      0xffffffffffffffffffffffffffffffffffffffff\n      and\n        /* \"EVotingLingkungan.sol\":705:724  msg.sender == admin */\n      0xffffffffffffffffffffffffffffffffffffffff\n      and\n        /* \"EVotingLingkungan.sol\":705:715  msg.sender */\n      caller\n        /* \"EVotingLingkungan.sol\":705:724  msg.sender == admin */\n      0xffffffffffffffffffffffffffffffffffffffff\n      and\n      eq\n        /* \"EVotingLingkungan.sol\":697:741  require(msg.sender == admin, \"Hanya admin!\") */\n      tag_104\n      jumpi\n      mload(0x40)\n      0x08c379a000000000000000000000000000000000000000000000000000000000\n      dup2\n      mstore\n      0x04\n      add\n      tag_105\n      swap1\n      tag_80\n      jump\t// in\n    tag_105:\n      mload(0x40)\n      dup1\n      swap2\n      sub\n      swap1\n      revert\n    tag_104:\n        /* \"EVotingLingkungan.sol\":1044:1054  daftarOpsi */\n      0x03\n        /* \"EVotingLingkungan.sol\":1060:1078  Opsi(_namaOpsi, 0) */\n      mload(0x40)\n      dup1\n      0x40\n      add\n      0x40\n      mstore\n      dup1\n        /* \"EVotingLingkungan.sol\":1065:1074  _namaOpsi */\n      dup4\n        /* \"EVotingLingkungan.sol\":1060:1078  Opsi(_namaOpsi, 0) */\n      dup2\n      mstore\n      0x20\n      add\n        /* \"EVotingLingkungan.sol\":1076:1077  0 */\n      0x00\n        /* \"EVotingLingkungan.sol\":1060:1078  Opsi(_namaOpsi, 0) */\n      dup2\n      mstore\n      pop\n        /* \"EVotingLingkungan.sol\":1044:1079  daftarOpsi.push(Opsi(_namaOpsi, 0)) */\n      swap1\n      dup1\n      0x01\n      dup2\n      sload\n      add\n      dup1\n      dup3\n      sstore\n      dup1\n      swap2\n      pop\n      pop\n      0x01\n      swap1\n      sub\n      swap1\n      0x00\n      mstore\n      keccak256(0x00, 0x20)\n      swap1\n      0x02\n      mul\n      add\n      0x00\n      swap1\n      swap2\n      swap1\n      swap2\n      swap1\n      swap2\n      pop\n      0x00\n      dup3\n      add\n      mload\n      dup2\n      0x00\n      add\n      swap1\n      dup2\n      tag_108\n      swap2\n      swap1\n      tag_109\n      jump\t// in\n    tag_108:\n      pop\n      0x20\n      dup3\n      add\n      mload\n      dup2\n      0x01\n      add\n      sstore\n      pop\n      pop\n        /* \"EVotingLingkungan.sol\":970:1087  function tambahOpsi(string memory _namaOpsi) public hanyaAdmin {... */\n      pop\n      jump\t// out\n        /* \"EVotingLingkungan.sol\":97:117  address public admin */\n    tag_47:\n      0x00\n      0x00\n      swap1\n      sload\n      swap1\n      0x0100\n      exp\n      swap1\n      div\n      0xffffffffffffffffffffffffffffffffffffffff\n      and\n      dup2\n      jump\t// out\n        /* \"EVotingLingkungan.sol\":1565:1660  function getJumlahOpsi() public view returns (uint) {... */\n    tag_51:\n        /* \"EVotingLingkungan.sol\":1611:1615  uint */\n      0x00\n        /* \"EVotingLingkungan.sol\":1635:1645  daftarOpsi */\n      0x03\n        /* \"EVotingLingkungan.sol\":1635:1652  daftarOpsi.length */\n      dup1\n      sload\n      swap1\n      pop\n        /* \"EVotingLingkungan.sol\":1628:1652  return daftarOpsi.length */\n      swap1\n      pop\n        /* \"EVotingLingkungan.sol\":1565:1660  function getJumlahOpsi() public view returns (uint) {... */\n      swap1\n      jump\t// out\n        /* \"#utility.yul\":7:82   */\n    tag_111:\n        /* \"#utility.yul\":40:46   */\n      0x00\n        /* \"#utility.yul\":73:75   */\n      0x40\n        /* \"#utility.yul\":67:76   */\n      mload\n        /* \"#utility.yul\":57:76   */\n      swap1\n      pop\n        /* \"#utility.yul\":7:82   */\n      swap1\n      jump\t// out\n        /* \"#utility.yul\":88:205   */\n    tag_112:\n        /* \"#utility.yul\":197:198   */\n      0x00\n        /* \"#utility.yul\":194:195   */\n      0x00\n        /* \"#utility.yul\":187:199   */\n      revert\n        /* \"#utility.yul\":211:328   */\n    tag_113:\n        /* \"#utility.yul\":320:321   */\n      0x00\n        /* \"#utility.yul\":317:318   */\n      0x00\n        /* \"#utility.yul\":310:322   */\n      revert\n        /* \"#utility.yul\":334:411   */\n    tag_114:\n        /* \"#utility.yul\":371:378   */\n      0x00\n        /* \"#utility.yul\":400:405   */\n      dup2\n        /* \"#utility.yul\":389:405   */\n      swap1\n      pop\n        /* \"#utility.yul\":334:411   */\n      swap2\n      swap1\n      pop\n      jump\t// out\n        /* \"#utility.yul\":417:539   */\n    tag_115:\n        /* \"#utility.yul\":490:514   */\n      tag_180\n        /* \"#utility.yul\":508:513   */\n      dup2\n        /* \"#utility.yul\":490:514   */\n      tag_114\n      jump\t// in\n    tag_180:\n        /* \"#utility.yul\":483:488   */\n      dup2\n        /* \"#utility.yul\":480:515   */\n      eq\n        /* \"#utility.yul\":470:533   */\n      tag_181\n      jumpi\n        /* \"#utility.yul\":529:530   */\n      0x00\n        /* \"#utility.yul\":526:527   */\n      0x00\n        /* \"#utility.yul\":519:531   */\n      revert\n        /* \"#utility.yul\":470:533   */\n    tag_181:\n        /* \"#utility.yul\":417:539   */\n      pop\n      jump\t// out\n        /* \"#utility.yul\":545:684   */\n    tag_116:\n        /* \"#utility.yul\":591:596   */\n      0x00\n        /* \"#utility.yul\":629:635   */\n      dup2\n        /* \"#utility.yul\":616:636   */\n      calldataload\n        /* \"#utility.yul\":607:636   */\n      swap1\n      pop\n        /* \"#utility.yul\":645:678   */\n      tag_183\n        /* \"#utility.yul\":672:677   */\n      dup2\n        /* \"#utility.yul\":645:678   */\n      tag_115\n      jump\t// in\n    tag_183:\n        /* \"#utility.yul\":545:684   */\n      swap3\n      swap2\n      pop\n      pop\n      jump\t// out\n        /* \"#utility.yul\":690:1019   */\n    tag_16:\n        /* \"#utility.yul\":749:755   */\n      0x00\n        /* \"#utility.yul\":798:800   */\n      0x20\n        /* \"#utility.yul\":786:795   */\n      dup3\n        /* \"#utility.yul\":777:784   */\n      dup5\n        /* \"#utility.yul\":773:796   */\n      sub\n        /* \"#utility.yul\":769:801   */\n      slt\n        /* \"#utility.yul\":766:885   */\n      iszero\n      tag_185\n      jumpi\n        /* \"#utility.yul\":804:883   */\n      tag_186\n      tag_112\n      jump\t// in\n    tag_186:\n        /* \"#utility.yul\":766:885   */\n    tag_185:\n        /* \"#utility.yul\":924:925   */\n      0x00\n        /* \"#utility.yul\":949:1002   */\n      tag_187\n        /* \"#utility.yul\":994:1001   */\n      dup5\n        /* \"#utility.yul\":985:991   */\n      dup3\n        /* \"#utility.yul\":974:983   */\n      dup6\n        /* \"#utility.yul\":970:992   */\n      add\n        /* \"#utility.yul\":949:1002   */\n      tag_116\n      jump\t// in\n    tag_187:\n        /* \"#utility.yul\":939:1002   */\n      swap2\n      pop\n        /* \"#utility.yul\":895:1012   */\n      pop\n        /* \"#utility.yul\":690:1019   */\n      swap3\n      swap2\n      pop\n      pop\n      jump\t// out\n        /* \"#utility.yul\":1025:1124   */\n    tag_117:\n        /* \"#utility.yul\":1077:1083   */\n      0x00\n        /* \"#utility.yul\":1111:1116   */\n      dup2\n        /* \"#utility.yul\":1105:1117   */\n      mload\n        /* \"#utility.yul\":1095:1117   */\n      swap1\n      pop\n        /* \"#utility.yul\":1025:1124   */\n      swap2\n      swap1\n      pop\n      jump\t// out\n        /* \"#utility.yul\":1130:1299   */\n    tag_118:\n        /* \"#utility.yul\":1214:1225   */\n      0x00\n        /* \"#utility.yul\":1248:1254   */\n      dup3\n        /* \"#utility.yul\":1243:1246   */\n      dup3\n        /* \"#utility.yul\":1236:1255   */\n      mstore\n        /* \"#utility.yul\":1288:1292   */\n      0x20\n        /* \"#utility.yul\":1283:1286   */\n      dup3\n        /* \"#utility.yul\":1279:1293   */\n      add\n        /* \"#utility.yul\":1264:1293   */\n      swap1\n      pop\n        /* \"#utility.yul\":1130:1299   */\n      swap3\n      swap2\n      pop\n      pop\n      jump\t// out\n        /* \"#utility.yul\":1305:1444   */\n    tag_119:\n        /* \"#utility.yul\":1394:1400   */\n      dup3\n        /* \"#utility.yul\":1389:1392   */\n      dup2\n        /* \"#utility.yul\":1384:1387   */\n      dup4\n        /* \"#utility.yul\":1378:1401   */\n      mcopy\n        /* \"#utility.yul\":1435:1436   */\n      0x00\n        /* \"#utility.yul\":1426:1432   */\n      dup4\n        /* \"#utility.yul\":1421:1424   */\n      dup4\n        /* \"#utility.yul\":1417:1433   */\n      add\n        /* \"#utility.yul\":1410:1437   */\n      mstore\n        /* \"#utility.yul\":1305:1444   */\n      pop\n      pop\n      pop\n      jump\t// out\n        /* \"#utility.yul\":1450:1552   */\n    tag_120:\n        /* \"#utility.yul\":1491:1497   */\n      0x00\n        /* \"#utility.yul\":1542:1544   */\n      0x1f\n        /* \"#utility.yul\":1538:1545   */\n      not\n        /* \"#utility.yul\":1533:1535   */\n      0x1f\n        /* \"#utility.yul\":1526:1531   */\n      dup4\n        /* \"#utility.yul\":1522:1536   */\n      add\n        /* \"#utility.yul\":1518:1546   */\n      and\n        /* \"#utility.yul\":1508:1546   */\n      swap1\n      pop\n        /* \"#utility.yul\":1450:1552   */\n      swap2\n      swap1\n      pop\n      jump\t// out\n        /* \"#utility.yul\":1558:1935   */\n    tag_121:\n        /* \"#utility.yul\":1646:1649   */\n      0x00\n        /* \"#utility.yul\":1674:1713   */\n      tag_193\n        /* \"#utility.yul\":1707:1712   */\n      dup3\n        /* \"#utility.yul\":1674:1713   */\n      tag_117\n      jump\t// in\n    tag_193:\n        /* \"#utility.yul\":1729:1800   */\n      tag_194\n        /* \"#utility.yul\":1793:1799   */\n      dup2\n        /* \"#utility.yul\":1788:1791   */\n      dup6\n        /* \"#utility.yul\":1729:1800   */\n      tag_118\n      jump\t// in\n    tag_194:\n        /* \"#utility.yul\":1722:1800   */\n      swap4\n      pop\n        /* \"#utility.yul\":1809:1874   */\n      tag_195\n        /* \"#utility.yul\":1867:1873   */\n      dup2\n        /* \"#utility.yul\":1862:1865   */\n      dup6\n        /* \"#utility.yul\":1855:1859   */\n      0x20\n        /* \"#utility.yul\":1848:1853   */\n      dup7\n        /* \"#utility.yul\":1844:1860   */\n      add\n        /* \"#utility.yul\":1809:1874   */\n      tag_119\n      jump\t// in\n    tag_195:\n        /* \"#utility.yul\":1899:1928   */\n      tag_196\n        /* \"#utility.yul\":1921:1927   */\n      dup2\n        /* \"#utility.yul\":1899:1928   */\n      tag_120\n      jump\t// in\n    tag_196:\n        /* \"#utility.yul\":1894:1897   */\n      dup5\n        /* \"#utility.yul\":1890:1929   */\n      add\n        /* \"#utility.yul\":1883:1929   */\n      swap2\n      pop\n        /* \"#utility.yul\":1650:1935   */\n      pop\n        /* \"#utility.yul\":1558:1935   */\n      swap3\n      swap2\n      pop\n      pop\n      jump\t// out\n        /* \"#utility.yul\":1941:2254   */\n    tag_21:\n        /* \"#utility.yul\":2054:2058   */\n      0x00\n        /* \"#utility.yul\":2092:2094   */\n      0x20\n        /* \"#utility.yul\":2081:2090   */\n      dup3\n        /* \"#utility.yul\":2077:2095   */\n      add\n        /* \"#utility.yul\":2069:2095   */\n      swap1\n      pop\n        /* \"#utility.yul\":2141:2150   */\n      dup2\n        /* \"#utility.yul\":2135:2139   */\n      dup2\n        /* \"#utility.yul\":2131:2151   */\n      sub\n        /* \"#utility.yul\":2127:2128   */\n      0x00\n        /* \"#utility.yul\":2116:2125   */\n      dup4\n        /* \"#utility.yul\":2112:2129   */\n      add\n        /* \"#utility.yul\":2105:2152   */\n      mstore\n        /* \"#utility.yul\":2169:2247   */\n      tag_198\n        /* \"#utility.yul\":2242:2246   */\n      dup2\n        /* \"#utility.yul\":2233:2239   */\n      dup5\n        /* \"#utility.yul\":2169:2247   */\n      tag_121\n      jump\t// in\n    tag_198:\n        /* \"#utility.yul\":2161:2247   */\n      swap1\n      pop\n        /* \"#utility.yul\":1941:2254   */\n      swap3\n      swap2\n      pop\n      pop\n      jump\t// out\n        /* \"#utility.yul\":2260:2378   */\n    tag_122:\n        /* \"#utility.yul\":2347:2371   */\n      tag_200\n        /* \"#utility.yul\":2365:2370   */\n      dup2\n        /* \"#utility.yul\":2347:2371   */\n      tag_114\n      jump\t// in\n    tag_200:\n        /* \"#utility.yul\":2342:2345   */\n      dup3\n        /* \"#utility.yul\":2335:2372   */\n      mstore\n        /* \"#utility.yul\":2260:2378   */\n      pop\n      pop\n      jump\t// out\n        /* \"#utility.yul\":2384:2807   */\n    tag_28:\n        /* \"#utility.yul\":2525:2529   */\n      0x00\n        /* \"#utility.yul\":2563:2565   */\n      0x40\n        /* \"#utility.yul\":2552:2561   */\n      dup3\n        /* \"#utility.yul\":2548:2566   */\n      add\n        /* \"#utility.yul\":2540:2566   */\n      swap1\n      pop\n        /* \"#utility.yul\":2612:2621   */\n      dup2\n        /* \"#utility.yul\":2606:2610   */\n      dup2\n        /* \"#utility.yul\":2602:2622   */\n      sub\n        /* \"#utility.yul\":2598:2599   */\n      0x00\n        /* \"#utility.yul\":2587:2596   */\n      dup4\n        /* \"#utility.yul\":2583:2600   */\n      add\n        /* \"#utility.yul\":2576:2623   */\n      mstore\n        /* \"#utility.yul\":2640:2718   */\n      tag_202\n        /* \"#utility.yul\":2713:2717   */\n      dup2\n        /* \"#utility.yul\":2704:2710   */\n      dup6\n        /* \"#utility.yul\":2640:2718   */\n      tag_121\n      jump\t// in\n    tag_202:\n        /* \"#utility.yul\":2632:2718   */\n      swap1\n      pop\n        /* \"#utility.yul\":2728:2800   */\n      tag_203\n        /* \"#utility.yul\":2796:2798   */\n      0x20\n        /* \"#utility.yul\":2785:2794   */\n      dup4\n        /* \"#utility.yul\":2781:2799   */\n      add\n        /* \"#utility.yul\":2772:2778   */\n      dup5\n        /* \"#utility.yul\":2728:2800   */\n      tag_122\n      jump\t// in\n    tag_203:\n        /* \"#utility.yul\":2384:2807   */\n      swap4\n      swap3\n      pop\n      pop\n      pop\n      jump\t// out\n        /* \"#utility.yul\":2813:2903   */\n    tag_123:\n        /* \"#utility.yul\":2847:2854   */\n      0x00\n        /* \"#utility.yul\":2890:2895   */\n      dup2\n        /* \"#utility.yul\":2883:2896   */\n      iszero\n        /* \"#utility.yul\":2876:2897   */\n      iszero\n        /* \"#utility.yul\":2865:2897   */\n      swap1\n      pop\n        /* \"#utility.yul\":2813:2903   */\n      swap2\n      swap1\n      pop\n      jump\t// out\n        /* \"#utility.yul\":2909:3018   */\n    tag_124:\n        /* \"#utility.yul\":2990:3011   */\n      tag_206\n        /* \"#utility.yul\":3005:3010   */\n      dup2\n        /* \"#utility.yul\":2990:3011   */\n      tag_123\n      jump\t// in\n    tag_206:\n        /* \"#utility.yul\":2985:2988   */\n      dup3\n        /* \"#utility.yul\":2978:3012   */\n      mstore\n        /* \"#utility.yul\":2909:3018   */\n      pop\n      pop\n      jump\t// out\n        /* \"#utility.yul\":3024:3234   */\n    tag_32:\n        /* \"#utility.yul\":3111:3115   */\n      0x00\n        /* \"#utility.yul\":3149:3151   */\n      0x20\n        /* \"#utility.yul\":3138:3147   */\n      dup3\n        /* \"#utility.yul\":3134:3152   */\n      add\n        /* \"#utility.yul\":3126:3152   */\n      swap1\n      pop\n        /* \"#utility.yul\":3162:3227   */\n      tag_208\n        /* \"#utility.yul\":3224:3225   */\n      0x00\n        /* \"#utility.yul\":3213:3222   */\n      dup4\n        /* \"#utility.yul\":3209:3226   */\n      add\n        /* \"#utility.yul\":3200:3206   */\n      dup5\n        /* \"#utility.yul\":3162:3227   */\n      tag_124\n      jump\t// in\n    tag_208:\n        /* \"#utility.yul\":3024:3234   */\n      swap3\n      swap2\n      pop\n      pop\n      jump\t// out\n        /* \"#utility.yul\":3240:3366   */\n    tag_125:\n        /* \"#utility.yul\":3277:3284   */\n      0x00\n        /* \"#utility.yul\":3317:3359   */\n      0xffffffffffffffffffffffffffffffffffffffff\n        /* \"#utility.yul\":3310:3315   */\n      dup3\n        /* \"#utility.yul\":3306:3360   */\n      and\n        /* \"#utility.yul\":3295:3360   */\n      swap1\n      pop\n        /* \"#utility.yul\":3240:3366   */\n      swap2\n      swap1\n      pop\n      jump\t// out\n        /* \"#utility.yul\":3372:3468   */\n    tag_126:\n        /* \"#utility.yul\":3409:3416   */\n      0x00\n        /* \"#utility.yul\":3438:3462   */\n      tag_211\n        /* \"#utility.yul\":3456:3461   */\n      dup3\n        /* \"#utility.yul\":3438:3462   */\n      tag_125\n      jump\t// in\n    tag_211:\n        /* \"#utility.yul\":3427:3462   */\n      swap1\n      pop\n        /* \"#utility.yul\":3372:3468   */\n      swap2\n      swap1\n      pop\n      jump\t// out\n        /* \"#utility.yul\":3474:3596   */\n    tag_127:\n        /* \"#utility.yul\":3547:3571   */\n      tag_213\n        /* \"#utility.yul\":3565:3570   */\n      dup2\n        /* \"#utility.yul\":3547:3571   */\n      tag_126\n      jump\t// in\n    tag_213:\n        /* \"#utility.yul\":3540:3545   */\n      dup2\n        /* \"#utility.yul\":3537:3572   */\n      eq\n        /* \"#utility.yul\":3527:3590   */\n      tag_214\n      jumpi\n        /* \"#utility.yul\":3586:3587   */\n      0x00\n        /* \"#utility.yul\":3583:3584   */\n      0x00\n        /* \"#utility.yul\":3576:3588   */\n      revert\n        /* \"#utility.yul\":3527:3590   */\n    tag_214:\n        /* \"#utility.yul\":3474:3596   */\n      pop\n      jump\t// out\n        /* \"#utility.yul\":3602:3741   */\n    tag_128:\n        /* \"#utility.yul\":3648:3653   */\n      0x00\n        /* \"#utility.yul\":3686:3692   */\n      dup2\n        /* \"#utility.yul\":3673:3693   */\n      calldataload\n        /* \"#utility.yul\":3664:3693   */\n      swap1\n      pop\n        /* \"#utility.yul\":3702:3735   */\n      tag_216\n        /* \"#utility.yul\":3729:3734   */\n      dup2\n        /* \"#utility.yul\":3702:3735   */\n      tag_127\n      jump\t// in\n    tag_216:\n        /* \"#utility.yul\":3602:3741   */\n      swap3\n      swap2\n      pop\n      pop\n      jump\t// out\n        /* \"#utility.yul\":3747:4076   */\n    tag_35:\n        /* \"#utility.yul\":3806:3812   */\n      0x00\n        /* \"#utility.yul\":3855:3857   */\n      0x20\n        /* \"#utility.yul\":3843:3852   */\n      dup3\n        /* \"#utility.yul\":3834:3841   */\n      dup5\n        /* \"#utility.yul\":3830:3853   */\n      sub\n        /* \"#utility.yul\":3826:3858   */\n      slt\n        /* \"#utility.yul\":3823:3942   */\n      iszero\n      tag_218\n      jumpi\n        /* \"#utility.yul\":3861:3940   */\n      tag_219\n      tag_112\n      jump\t// in\n    tag_219:\n        /* \"#utility.yul\":3823:3942   */\n    tag_218:\n        /* \"#utility.yul\":3981:3982   */\n      0x00\n        /* \"#utility.yul\":4006:4059   */\n      tag_220\n        /* \"#utility.yul\":4051:4058   */\n      dup5\n        /* \"#utility.yul\":4042:4048   */\n      dup3\n        /* \"#utility.yul\":4031:4040   */\n      dup6\n        /* \"#utility.yul\":4027:4049   */\n      add\n        /* \"#utility.yul\":4006:4059   */\n      tag_128\n      jump\t// in\n    tag_220:\n        /* \"#utility.yul\":3996:4059   */\n      swap2\n      pop\n        /* \"#utility.yul\":3952:4069   */\n      pop\n        /* \"#utility.yul\":3747:4076   */\n      swap3\n      swap2\n      pop\n      pop\n      jump\t// out\n        /* \"#utility.yul\":4082:4216   */\n    tag_129:\n        /* \"#utility.yul\":4169:4175   */\n      0x00\n        /* \"#utility.yul\":4203:4208   */\n      dup2\n        /* \"#utility.yul\":4197:4209   */\n      mload\n        /* \"#utility.yul\":4187:4209   */\n      swap1\n      pop\n        /* \"#utility.yul\":4082:4216   */\n      swap2\n      swap1\n      pop\n      jump\t// out\n        /* \"#utility.yul\":4222:4426   */\n    tag_130:\n        /* \"#utility.yul\":4341:4352   */\n      0x00\n        /* \"#utility.yul\":4375:4381   */\n      dup3\n        /* \"#utility.yul\":4370:4373   */\n      dup3\n        /* \"#utility.yul\":4363:4382   */\n      mstore\n        /* \"#utility.yul\":4415:4419   */\n      0x20\n        /* \"#utility.yul\":4410:4413   */\n      dup3\n        /* \"#utility.yul\":4406:4420   */\n      add\n        /* \"#utility.yul\":4391:4420   */\n      swap1\n      pop\n        /* \"#utility.yul\":4222:4426   */\n      swap3\n      swap2\n      pop\n      pop\n      jump\t// out\n        /* \"#utility.yul\":4432:4584   */\n    tag_131:\n        /* \"#utility.yul\":4519:4523   */\n      0x00\n        /* \"#utility.yul\":4542:4545   */\n      dup2\n        /* \"#utility.yul\":4534:4545   */\n      swap1\n      pop\n        /* \"#utility.yul\":4572:4576   */\n      0x20\n        /* \"#utility.yul\":4567:4570   */\n      dup3\n        /* \"#utility.yul\":4563:4577   */\n      add\n        /* \"#utility.yul\":4555:4577   */\n      swap1\n      pop\n        /* \"#utility.yul\":4432:4584   */\n      swap2\n      swap1\n      pop\n      jump\t// out\n        /* \"#utility.yul\":4590:4749   */\n    tag_132:\n        /* \"#utility.yul\":4664:4675   */\n      0x00\n        /* \"#utility.yul\":4698:4704   */\n      dup3\n        /* \"#utility.yul\":4693:4696   */\n      dup3\n        /* \"#utility.yul\":4686:4705   */\n      mstore\n        /* \"#utility.yul\":4738:4742   */\n      0x20\n        /* \"#utility.yul\":4733:4736   */\n      dup3\n        /* \"#utility.yul\":4729:4743   */\n      add\n        /* \"#utility.yul\":4714:4743   */\n      swap1\n      pop\n        /* \"#utility.yul\":4590:4749   */\n      swap3\n      swap2\n      pop\n      pop\n      jump\t// out\n        /* \"#utility.yul\":4755:5112   */\n    tag_133:\n        /* \"#utility.yul\":4833:4836   */\n      0x00\n        /* \"#utility.yul\":4861:4900   */\n      tag_226\n        /* \"#utility.yul\":4894:4899   */\n      dup3\n        /* \"#utility.yul\":4861:4900   */\n      tag_117\n      jump\t// in\n    tag_226:\n        /* \"#utility.yul\":4916:4977   */\n      tag_227\n        /* \"#utility.yul\":4970:4976   */\n      dup2\n        /* \"#utility.yul\":4965:4968   */\n      dup6\n        /* \"#utility.yul\":4916:4977   */\n      tag_132\n      jump\t// in\n    tag_227:\n        /* \"#utility.yul\":4909:4977   */\n      swap4\n      pop\n        /* \"#utility.yul\":4986:5051   */\n      tag_228\n        /* \"#utility.yul\":5044:5050   */\n      dup2\n        /* \"#utility.yul\":5039:5042   */\n      dup6\n        /* \"#utility.yul\":5032:5036   */\n      0x20\n        /* \"#utility.yul\":5025:5030   */\n      dup7\n        /* \"#utility.yul\":5021:5037   */\n      add\n        /* \"#utility.yul\":4986:5051   */\n      tag_119\n      jump\t// in\n    tag_228:\n        /* \"#utility.yul\":5076:5105   */\n      tag_229\n        /* \"#utility.yul\":5098:5104   */\n      dup2\n        /* \"#utility.yul\":5076:5105   */\n      tag_120\n      jump\t// in\n    tag_229:\n        /* \"#utility.yul\":5071:5074   */\n      dup5\n        /* \"#utility.yul\":5067:5106   */\n      add\n        /* \"#utility.yul\":5060:5106   */\n      swap2\n      pop\n        /* \"#utility.yul\":4837:5112   */\n      pop\n        /* \"#utility.yul\":4755:5112   */\n      swap3\n      swap2\n      pop\n      pop\n      jump\t// out\n        /* \"#utility.yul\":5118:5226   */\n    tag_134:\n        /* \"#utility.yul\":5195:5219   */\n      tag_231\n        /* \"#utility.yul\":5213:5218   */\n      dup2\n        /* \"#utility.yul\":5195:5219   */\n      tag_114\n      jump\t// in\n    tag_231:\n        /* \"#utility.yul\":5190:5193   */\n      dup3\n        /* \"#utility.yul\":5183:5220   */\n      mstore\n        /* \"#utility.yul\":5118:5226   */\n      pop\n      pop\n      jump\t// out\n        /* \"#utility.yul\":5302:5895   */\n    tag_135:\n        /* \"#utility.yul\":5401:5404   */\n      0x00\n        /* \"#utility.yul\":5437:5441   */\n      0x40\n        /* \"#utility.yul\":5432:5435   */\n      dup4\n        /* \"#utility.yul\":5428:5442   */\n      add\n        /* \"#utility.yul\":5524:5528   */\n      0x00\n        /* \"#utility.yul\":5517:5522   */\n      dup4\n        /* \"#utility.yul\":5513:5529   */\n      add\n        /* \"#utility.yul\":5507:5530   */\n      mload\n        /* \"#utility.yul\":5577:5580   */\n      dup5\n        /* \"#utility.yul\":5571:5575   */\n      dup3\n        /* \"#utility.yul\":5567:5581   */\n      sub\n        /* \"#utility.yul\":5560:5564   */\n      0x00\n        /* \"#utility.yul\":5555:5558   */\n      dup7\n        /* \"#utility.yul\":5551:5565   */\n      add\n        /* \"#utility.yul\":5544:5582   */\n      mstore\n        /* \"#utility.yul\":5603:5676   */\n      tag_233\n        /* \"#utility.yul\":5671:5675   */\n      dup3\n        /* \"#utility.yul\":5657:5669   */\n      dup3\n        /* \"#utility.yul\":5603:5676   */\n      tag_133\n      jump\t// in\n    tag_233:\n        /* \"#utility.yul\":5595:5676   */\n      swap2\n      pop\n        /* \"#utility.yul\":5452:5687   */\n      pop\n        /* \"#utility.yul\":5776:5780   */\n      0x20\n        /* \"#utility.yul\":5769:5774   */\n      dup4\n        /* \"#utility.yul\":5765:5781   */\n      add\n        /* \"#utility.yul\":5759:5782   */\n      mload\n        /* \"#utility.yul\":5795:5858   */\n      tag_234\n        /* \"#utility.yul\":5852:5856   */\n      0x20\n        /* \"#utility.yul\":5847:5850   */\n      dup7\n        /* \"#utility.yul\":5843:5857   */\n      add\n        /* \"#utility.yul\":5829:5841   */\n      dup3\n        /* \"#utility.yul\":5795:5858   */\n      tag_134\n      jump\t// in\n    tag_234:\n        /* \"#utility.yul\":5697:5868   */\n      pop\n        /* \"#utility.yul\":5885:5889   */\n      dup1\n        /* \"#utility.yul\":5878:5889   */\n      swap2\n      pop\n        /* \"#utility.yul\":5406:5895   */\n      pop\n        /* \"#utility.yul\":5302:5895   */\n      swap3\n      swap2\n      pop\n      pop\n      jump\t// out\n        /* \"#utility.yul\":5901:6137   */\n    tag_136:\n        /* \"#utility.yul\":6010:6020   */\n      0x00\n        /* \"#utility.yul\":6045:6131   */\n      tag_236\n        /* \"#utility.yul\":6127:6130   */\n      dup4\n        /* \"#utility.yul\":6119:6125   */\n      dup4\n        /* \"#utility.yul\":6045:6131   */\n      tag_135\n      jump\t// in\n    tag_236:\n        /* \"#utility.yul\":6031:6131   */\n      swap1\n      pop\n        /* \"#utility.yul\":5901:6137   */\n      swap3\n      swap2\n      pop\n      pop\n      jump\t// out\n        /* \"#utility.yul\":6143:6276   */\n    tag_137:\n        /* \"#utility.yul\":6233:6237   */\n      0x00\n        /* \"#utility.yul\":6265:6269   */\n      0x20\n        /* \"#utility.yul\":6260:6263   */\n      dup3\n        /* \"#utility.yul\":6256:6270   */\n      add\n        /* \"#utility.yul\":6248:6270   */\n      swap1\n      pop\n        /* \"#utility.yul\":6143:6276   */\n      swap2\n      swap1\n      pop\n      jump\t// out\n        /* \"#utility.yul\":6356:7427   */\n    tag_138:\n        /* \"#utility.yul\":6515:6518   */\n      0x00\n        /* \"#utility.yul\":6544:6618   */\n      tag_239\n        /* \"#utility.yul\":6612:6617   */\n      dup3\n        /* \"#utility.yul\":6544:6618   */\n      tag_129\n      jump\t// in\n    tag_239:\n        /* \"#utility.yul\":6634:6740   */\n      tag_240\n        /* \"#utility.yul\":6733:6739   */\n      dup2\n        /* \"#utility.yul\":6728:6731   */\n      dup6\n        /* \"#utility.yul\":6634:6740   */\n      tag_130\n      jump\t// in\n    tag_240:\n        /* \"#utility.yul\":6627:6740   */\n      swap4\n      pop\n        /* \"#utility.yul\":6766:6769   */\n      dup4\n        /* \"#utility.yul\":6811:6815   */\n      0x20\n        /* \"#utility.yul\":6803:6809   */\n      dup3\n        /* \"#utility.yul\":6799:6816   */\n      mul\n        /* \"#utility.yul\":6794:6797   */\n      dup6\n        /* \"#utility.yul\":6790:6817   */\n      add\n        /* \"#utility.yul\":6841:6917   */\n      tag_241\n        /* \"#utility.yul\":6911:6916   */\n      dup6\n        /* \"#utility.yul\":6841:6917   */\n      tag_131\n      jump\t// in\n    tag_241:\n        /* \"#utility.yul\":6940:6947   */\n      dup1\n        /* \"#utility.yul\":6971:6972   */\n      0x00\n        /* \"#utility.yul\":6956:7382   */\n    tag_242:\n        /* \"#utility.yul\":6981:6987   */\n      dup6\n        /* \"#utility.yul\":6978:6979   */\n      dup2\n        /* \"#utility.yul\":6975:6988   */\n      lt\n        /* \"#utility.yul\":6956:7382   */\n      iszero\n      tag_244\n      jumpi\n        /* \"#utility.yul\":7052:7061   */\n      dup5\n        /* \"#utility.yul\":7046:7050   */\n      dup5\n        /* \"#utility.yul\":7042:7062   */\n      sub\n        /* \"#utility.yul\":7037:7040   */\n      dup10\n        /* \"#utility.yul\":7030:7063   */\n      mstore\n        /* \"#utility.yul\":7103:7109   */\n      dup2\n        /* \"#utility.yul\":7097:7110   */\n      mload\n        /* \"#utility.yul\":7131:7235   */\n      tag_245\n        /* \"#utility.yul\":7230:7234   */\n      dup6\n        /* \"#utility.yul\":7215:7228   */\n      dup3\n        /* \"#utility.yul\":7131:7235   */\n      tag_136\n      jump\t// in\n    tag_245:\n        /* \"#utility.yul\":7123:7235   */\n      swap5\n      pop\n        /* \"#utility.yul\":7258:7338   */\n      tag_246\n        /* \"#utility.yul\":7331:7337   */\n      dup4\n        /* \"#utility.yul\":7258:7338   */\n      tag_137\n      jump\t// in\n    tag_246:\n        /* \"#utility.yul\":7248:7338   */\n      swap3\n      pop\n        /* \"#utility.yul\":7367:7371   */\n      0x20\n        /* \"#utility.yul\":7362:7365   */\n      dup11\n        /* \"#utility.yul\":7358:7372   */\n      add\n        /* \"#utility.yul\":7351:7372   */\n      swap10\n      pop\n        /* \"#utility.yul\":7016:7382   */\n      pop\n        /* \"#utility.yul\":7003:7004   */\n      0x01\n        /* \"#utility.yul\":7000:7001   */\n      dup2\n        /* \"#utility.yul\":6996:7005   */\n      add\n        /* \"#utility.yul\":6991:7005   */\n      swap1\n      pop\n        /* \"#utility.yul\":6956:7382   */\n      jump(tag_242)\n    tag_244:\n        /* \"#utility.yul\":6960:6974   */\n      pop\n        /* \"#utility.yul\":7398:7402   */\n      dup3\n        /* \"#utility.yul\":7391:7402   */\n      swap8\n      pop\n        /* \"#utility.yul\":7418:7421   */\n      dup8\n        /* \"#utility.yul\":7411:7421   */\n      swap6\n      pop\n        /* \"#utility.yul\":6520:7427   */\n      pop\n      pop\n      pop\n      pop\n      pop\n        /* \"#utility.yul\":6356:7427   */\n      swap3\n      swap2\n      pop\n      pop\n      jump\t// out\n        /* \"#utility.yul\":7433:7886   */\n    tag_41:\n        /* \"#utility.yul\":7616:7620   */\n      0x00\n        /* \"#utility.yul\":7654:7656   */\n      0x20\n        /* \"#utility.yul\":7643:7652   */\n      dup3\n        /* \"#utility.yul\":7639:7657   */\n      add\n        /* \"#utility.yul\":7631:7657   */\n      swap1\n      pop\n        /* \"#utility.yul\":7703:7712   */\n      dup2\n        /* \"#utility.yul\":7697:7701   */\n      dup2\n        /* \"#utility.yul\":7693:7713   */\n      sub\n        /* \"#utility.yul\":7689:7690   */\n      0x00\n        /* \"#utility.yul\":7678:7687   */\n      dup4\n        /* \"#utility.yul\":7674:7691   */\n      add\n        /* \"#utility.yul\":7667:7714   */\n      mstore\n        /* \"#utility.yul\":7731:7879   */\n      tag_248\n        /* \"#utility.yul\":7874:7878   */\n      dup2\n        /* \"#utility.yul\":7865:7871   */\n      dup5\n        /* \"#utility.yul\":7731:7879   */\n      tag_138\n      jump\t// in\n    tag_248:\n        /* \"#utility.yul\":7723:7879   */\n      swap1\n      pop\n        /* \"#utility.yul\":7433:7886   */\n      swap3\n      swap2\n      pop\n      pop\n      jump\t// out\n        /* \"#utility.yul\":7892:8009   */\n    tag_139:\n        /* \"#utility.yul\":8001:8002   */\n      0x00\n        /* \"#utility.yul\":7998:7999   */\n      0x00\n        /* \"#utility.yul\":7991:8003   */\n      revert\n        /* \"#utility.yul\":8015:8132   */\n    tag_140:\n        /* \"#utility.yul\":8124:8125   */\n      0x00\n        /* \"#utility.yul\":8121:8122   */\n      0x00\n        /* \"#utility.yul\":8114:8126   */\n      revert\n        /* \"#utility.yul\":8138:8318   */\n    tag_141:\n        /* \"#utility.yul\":8186:8263   */\n      0x4e487b7100000000000000000000000000000000000000000000000000000000\n        /* \"#utility.yul\":8183:8184   */\n      0x00\n        /* \"#utility.yul\":8176:8264   */\n      mstore\n        /* \"#utility.yul\":8283:8287   */\n      0x41\n        /* \"#utility.yul\":8280:8281   */\n      0x04\n        /* \"#utility.yul\":8273:8288   */\n      mstore\n        /* \"#utility.yul\":8307:8311   */\n      0x24\n        /* \"#utility.yul\":8304:8305   */\n      0x00\n        /* \"#utility.yul\":8297:8312   */\n      revert\n        /* \"#utility.yul\":8324:8605   */\n    tag_142:\n        /* \"#utility.yul\":8407:8434   */\n      tag_253\n        /* \"#utility.yul\":8429:8433   */\n      dup3\n        /* \"#utility.yul\":8407:8434   */\n      tag_120\n      jump\t// in\n    tag_253:\n        /* \"#utility.yul\":8399:8405   */\n      dup2\n        /* \"#utility.yul\":8395:8435   */\n      add\n        /* \"#utility.yul\":8537:8543   */\n      dup2\n        /* \"#utility.yul\":8525:8535   */\n      dup2\n        /* \"#utility.yul\":8522:8544   */\n      lt\n        /* \"#utility.yul\":8501:8519   */\n      0xffffffffffffffff\n        /* \"#utility.yul\":8489:8499   */\n      dup3\n        /* \"#utility.yul\":8486:8520   */\n      gt\n        /* \"#utility.yul\":8483:8545   */\n      or\n        /* \"#utility.yul\":8480:8568   */\n      iszero\n      tag_254\n      jumpi\n        /* \"#utility.yul\":8548:8566   */\n      tag_255\n      tag_141\n      jump\t// in\n    tag_255:\n        /* \"#utility.yul\":8480:8568   */\n    tag_254:\n        /* \"#utility.yul\":8588:8598   */\n      dup1\n        /* \"#utility.yul\":8584:8586   */\n      0x40\n        /* \"#utility.yul\":8577:8599   */\n      mstore\n        /* \"#utility.yul\":8367:8605   */\n      pop\n        /* \"#utility.yul\":8324:8605   */\n      pop\n      pop\n      jump\t// out\n        /* \"#utility.yul\":8611:8740   */\n    tag_143:\n        /* \"#utility.yul\":8645:8651   */\n      0x00\n        /* \"#utility.yul\":8672:8692   */\n      tag_257\n      tag_111\n      jump\t// in\n    tag_257:\n        /* \"#utility.yul\":8662:8692   */\n      swap1\n      pop\n        /* \"#utility.yul\":8701:8734   */\n      tag_258\n        /* \"#utility.yul\":8729:8733   */\n      dup3\n        /* \"#utility.yul\":8721:8727   */\n      dup3\n        /* \"#utility.yul\":8701:8734   */\n      tag_142\n      jump\t// in\n    tag_258:\n        /* \"#utility.yul\":8611:8740   */\n      swap2\n      swap1\n      pop\n      jump\t// out\n        /* \"#utility.yul\":8746:9054   */\n    tag_144:\n        /* \"#utility.yul\":8808:8812   */\n      0x00\n        /* \"#utility.yul\":8898:8916   */\n      0xffffffffffffffff\n        /* \"#utility.yul\":8890:8896   */\n      dup3\n        /* \"#utility.yul\":8887:8917   */\n      gt\n        /* \"#utility.yul\":8884:8940   */\n      iszero\n      tag_260\n      jumpi\n        /* \"#utility.yul\":8920:8938   */\n      tag_261\n      tag_141\n      jump\t// in\n    tag_261:\n        /* \"#utility.yul\":8884:8940   */\n    tag_260:\n        /* \"#utility.yul\":8958:8987   */\n      tag_262\n        /* \"#utility.yul\":8980:8986   */\n      dup3\n        /* \"#utility.yul\":8958:8987   */\n      tag_120\n      jump\t// in\n    tag_262:\n        /* \"#utility.yul\":8950:8987   */\n      swap1\n      pop\n        /* \"#utility.yul\":9042:9046   */\n      0x20\n        /* \"#utility.yul\":9036:9040   */\n      dup2\n        /* \"#utility.yul\":9032:9047   */\n      add\n        /* \"#utility.yul\":9024:9047   */\n      swap1\n      pop\n        /* \"#utility.yul\":8746:9054   */\n      swap2\n      swap1\n      pop\n      jump\t// out\n        /* \"#utility.yul\":9060:9208   */\n    tag_145:\n        /* \"#utility.yul\":9158:9164   */\n      dup3\n        /* \"#utility.yul\":9153:9156   */\n      dup2\n        /* \"#utility.yul\":9148:9151   */\n      dup4\n        /* \"#utility.yul\":9135:9165   */\n      calldatacopy\n        /* \"#utility.yul\":9199:9200   */\n      0x00\n        /* \"#utility.yul\":9190:9196   */\n      dup4\n        /* \"#utility.yul\":9185:9188   */\n      dup4\n        /* \"#utility.yul\":9181:9197   */\n      add\n        /* \"#utility.yul\":9174:9201   */\n      mstore\n        /* \"#utility.yul\":9060:9208   */\n      pop\n      pop\n      pop\n      jump\t// out\n        /* \"#utility.yul\":9214:9639   */\n    tag_146:\n        /* \"#utility.yul\":9292:9297   */\n      0x00\n        /* \"#utility.yul\":9317:9383   */\n      tag_265\n        /* \"#utility.yul\":9333:9382   */\n      tag_266\n        /* \"#utility.yul\":9375:9381   */\n      dup5\n        /* \"#utility.yul\":9333:9382   */\n      tag_144\n      jump\t// in\n    tag_266:\n        /* \"#utility.yul\":9317:9383   */\n      tag_143\n      jump\t// in\n    tag_265:\n        /* \"#utility.yul\":9308:9383   */\n      swap1\n      pop\n        /* \"#utility.yul\":9406:9412   */\n      dup3\n        /* \"#utility.yul\":9399:9404   */\n      dup2\n        /* \"#utility.yul\":9392:9413   */\n      mstore\n        /* \"#utility.yul\":9444:9448   */\n      0x20\n        /* \"#utility.yul\":9437:9442   */\n      dup2\n        /* \"#utility.yul\":9433:9449   */\n      add\n        /* \"#utility.yul\":9482:9485   */\n      dup5\n        /* \"#utility.yul\":9473:9479   */\n      dup5\n        /* \"#utility.yul\":9468:9471   */\n      dup5\n        /* \"#utility.yul\":9464:9480   */\n      add\n        /* \"#utility.yul\":9461:9486   */\n      gt\n        /* \"#utility.yul\":9458:9570   */\n      iszero\n      tag_267\n      jumpi\n        /* \"#utility.yul\":9489:9568   */\n      tag_268\n      tag_140\n      jump\t// in\n    tag_268:\n        /* \"#utility.yul\":9458:9570   */\n    tag_267:\n        /* \"#utility.yul\":9579:9633   */\n      tag_269\n        /* \"#utility.yul\":9626:9632   */\n      dup5\n        /* \"#utility.yul\":9621:9624   */\n      dup3\n        /* \"#utility.yul\":9616:9619   */\n      dup6\n        /* \"#utility.yul\":9579:9633   */\n      tag_145\n      jump\t// in\n    tag_269:\n        /* \"#utility.yul\":9298:9639   */\n      pop\n        /* \"#utility.yul\":9214:9639   */\n      swap4\n      swap3\n      pop\n      pop\n      pop\n      jump\t// out\n        /* \"#utility.yul\":9659:9999   */\n    tag_147:\n        /* \"#utility.yul\":9715:9720   */\n      0x00\n        /* \"#utility.yul\":9764:9767   */\n      dup3\n        /* \"#utility.yul\":9757:9761   */\n      0x1f\n        /* \"#utility.yul\":9749:9755   */\n      dup4\n        /* \"#utility.yul\":9745:9762   */\n      add\n        /* \"#utility.yul\":9741:9768   */\n      slt\n        /* \"#utility.yul\":9731:9853   */\n      tag_271\n      jumpi\n        /* \"#utility.yul\":9772:9851   */\n      tag_272\n      tag_139\n      jump\t// in\n    tag_272:\n        /* \"#utility.yul\":9731:9853   */\n    tag_271:\n        /* \"#utility.yul\":9889:9895   */\n      dup2\n        /* \"#utility.yul\":9876:9896   */\n      calldataload\n        /* \"#utility.yul\":9914:9993   */\n      tag_273\n        /* \"#utility.yul\":9989:9992   */\n      dup5\n        /* \"#utility.yul\":9981:9987   */\n      dup3\n        /* \"#utility.yul\":9974:9978   */\n      0x20\n        /* \"#utility.yul\":9966:9972   */\n      dup7\n        /* \"#utility.yul\":9962:9979   */\n      add\n        /* \"#utility.yul\":9914:9993   */\n      tag_146\n      jump\t// in\n    tag_273:\n        /* \"#utility.yul\":9905:9993   */\n      swap2\n      pop\n        /* \"#utility.yul\":9721:9999   */\n      pop\n        /* \"#utility.yul\":9659:9999   */\n      swap3\n      swap2\n      pop\n      pop\n      jump\t// out\n        /* \"#utility.yul\":10005:10514   */\n    tag_44:\n        /* \"#utility.yul\":10074:10080   */\n      0x00\n        /* \"#utility.yul\":10123:10125   */\n      0x20\n        /* \"#utility.yul\":10111:10120   */\n      dup3\n        /* \"#utility.yul\":10102:10109   */\n      dup5\n        /* \"#utility.yul\":10098:10121   */\n      sub\n        /* \"#utility.yul\":10094:10126   */\n      slt\n        /* \"#utility.yul\":10091:10210   */\n      iszero\n      tag_275\n      jumpi\n        /* \"#utility.yul\":10129:10208   */\n      tag_276\n      tag_112\n      jump\t// in\n    tag_276:\n        /* \"#utility.yul\":10091:10210   */\n    tag_275:\n        /* \"#utility.yul\":10277:10278   */\n      0x00\n        /* \"#utility.yul\":10266:10275   */\n      dup3\n        /* \"#utility.yul\":10262:10279   */\n      add\n        /* \"#utility.yul\":10249:10280   */\n      calldataload\n        /* \"#utility.yul\":10307:10325   */\n      0xffffffffffffffff\n        /* \"#utility.yul\":10299:10305   */\n      dup2\n        /* \"#utility.yul\":10296:10326   */\n      gt\n        /* \"#utility.yul\":10293:10410   */\n      iszero\n      tag_277\n      jumpi\n        /* \"#utility.yul\":10329:10408   */\n      tag_278\n      tag_113\n      jump\t// in\n    tag_278:\n        /* \"#utility.yul\":10293:10410   */\n    tag_277:\n        /* \"#utility.yul\":10434:10497   */\n      tag_279\n        /* \"#utility.yul\":10489:10496   */\n      dup5\n        /* \"#utility.yul\":10480:10486   */\n      dup3\n        /* \"#utility.yul\":10469:10478   */\n      dup6\n        /* \"#utility.yul\":10465:10487   */\n      add\n        /* \"#utility.yul\":10434:10497   */\n      tag_147\n      jump\t// in\n    tag_279:\n        /* \"#utility.yul\":10424:10497   */\n      swap2\n      pop\n        /* \"#utility.yul\":10220:10507   */\n      pop\n        /* \"#utility.yul\":10005:10514   */\n      swap3\n      swap2\n      pop\n      pop\n      jump\t// out\n        /* \"#utility.yul\":10520:10638   */\n    tag_148:\n        /* \"#utility.yul\":10607:10631   */\n      tag_281\n        /* \"#utility.yul\":10625:10630   */\n      dup2\n        /* \"#utility.yul\":10607:10631   */\n      tag_126\n      jump\t// in\n    tag_281:\n        /* \"#utility.yul\":10602:10605   */\n      dup3\n        /* \"#utility.yul\":10595:10632   */\n      mstore\n        /* \"#utility.yul\":10520:10638   */\n      pop\n      pop\n      jump\t// out\n        /* \"#utility.yul\":10644:10866   */\n    tag_49:\n        /* \"#utility.yul\":10737:10741   */\n      0x00\n        /* \"#utility.yul\":10775:10777   */\n      0x20\n        /* \"#utility.yul\":10764:10773   */\n      dup3\n        /* \"#utility.yul\":10760:10778   */\n      add\n        /* \"#utility.yul\":10752:10778   */\n      swap1\n      pop\n        /* \"#utility.yul\":10788:10859   */\n      tag_283\n        /* \"#utility.yul\":10856:10857   */\n      0x00\n        /* \"#utility.yul\":10845:10854   */\n      dup4\n        /* \"#utility.yul\":10841:10858   */\n      add\n        /* \"#utility.yul\":10832:10838   */\n      dup5\n        /* \"#utility.yul\":10788:10859   */\n      tag_148\n      jump\t// in\n    tag_283:\n        /* \"#utility.yul\":10644:10866   */\n      swap3\n      swap2\n      pop\n      pop\n      jump\t// out\n        /* \"#utility.yul\":10872:11094   */\n    tag_53:\n        /* \"#utility.yul\":10965:10969   */\n      0x00\n        /* \"#utility.yul\":11003:11005   */\n      0x20\n        /* \"#utility.yul\":10992:11001   */\n      dup3\n        /* \"#utility.yul\":10988:11006   */\n      add\n        /* \"#utility.yul\":10980:11006   */\n      swap1\n      pop\n        /* \"#utility.yul\":11016:11087   */\n      tag_285\n        /* \"#utility.yul\":11084:11085   */\n      0x00\n        /* \"#utility.yul\":11073:11082   */\n      dup4\n        /* \"#utility.yul\":11069:11086   */\n      add\n        /* \"#utility.yul\":11060:11066   */\n      dup5\n        /* \"#utility.yul\":11016:11087   */\n      tag_122\n      jump\t// in\n    tag_285:\n        /* \"#utility.yul\":10872:11094   */\n      swap3\n      swap2\n      pop\n      pop\n      jump\t// out\n        /* \"#utility.yul\":11100:11271   */\n    tag_149:\n        /* \"#utility.yul\":11240:11263   */\n      0x566f74696e672073756461682064697475747570210000000000000000000000\n        /* \"#utility.yul\":11236:11237   */\n      0x00\n        /* \"#utility.yul\":11228:11234   */\n      dup3\n        /* \"#utility.yul\":11224:11238   */\n      add\n        /* \"#utility.yul\":11217:11264   */\n      mstore\n        /* \"#utility.yul\":11100:11271   */\n      pop\n      jump\t// out\n        /* \"#utility.yul\":11277:11643   */\n    tag_150:\n        /* \"#utility.yul\":11419:11422   */\n      0x00\n        /* \"#utility.yul\":11440:11507   */\n      tag_288\n        /* \"#utility.yul\":11504:11506   */\n      0x15\n        /* \"#utility.yul\":11499:11502   */\n      dup4\n        /* \"#utility.yul\":11440:11507   */\n      tag_118\n      jump\t// in\n    tag_288:\n        /* \"#utility.yul\":11433:11507   */\n      swap2\n      pop\n        /* \"#utility.yul\":11516:11609   */\n      tag_289\n        /* \"#utility.yul\":11605:11608   */\n      dup3\n        /* \"#utility.yul\":11516:11609   */\n      tag_149\n      jump\t// in\n    tag_289:\n        /* \"#utility.yul\":11634:11636   */\n      0x20\n        /* \"#utility.yul\":11629:11632   */\n      dup3\n        /* \"#utility.yul\":11625:11637   */\n      add\n        /* \"#utility.yul\":11618:11637   */\n      swap1\n      pop\n        /* \"#utility.yul\":11277:11643   */\n      swap2\n      swap1\n      pop\n      jump\t// out\n        /* \"#utility.yul\":11649:12068   */\n    tag_57:\n        /* \"#utility.yul\":11815:11819   */\n      0x00\n        /* \"#utility.yul\":11853:11855   */\n      0x20\n        /* \"#utility.yul\":11842:11851   */\n      dup3\n        /* \"#utility.yul\":11838:11856   */\n      add\n        /* \"#utility.yul\":11830:11856   */\n      swap1\n      pop\n        /* \"#utility.yul\":11902:11911   */\n      dup2\n        /* \"#utility.yul\":11896:11900   */\n      dup2\n        /* \"#utility.yul\":11892:11912   */\n      sub\n        /* \"#utility.yul\":11888:11889   */\n      0x00\n        /* \"#utility.yul\":11877:11886   */\n      dup4\n        /* \"#utility.yul\":11873:11890   */\n      add\n        /* \"#utility.yul\":11866:11913   */\n      mstore\n        /* \"#utility.yul\":11930:12061   */\n      tag_291\n        /* \"#utility.yul\":12056:12060   */\n      dup2\n        /* \"#utility.yul\":11930:12061   */\n      tag_150\n      jump\t// in\n    tag_291:\n        /* \"#utility.yul\":11922:12061   */\n      swap1\n      pop\n        /* \"#utility.yul\":11649:12068   */\n      swap2\n      swap1\n      pop\n      jump\t// out\n        /* \"#utility.yul\":12074:12242   */\n    tag_151:\n        /* \"#utility.yul\":12214:12234   */\n      0x416e646120737564616820766f74696e67210000000000000000000000000000\n        /* \"#utility.yul\":12210:12211   */\n      0x00\n        /* \"#utility.yul\":12202:12208   */\n      dup3\n        /* \"#utility.yul\":12198:12212   */\n      add\n        /* \"#utility.yul\":12191:12235   */\n      mstore\n        /* \"#utility.yul\":12074:12242   */\n      pop\n      jump\t// out\n        /* \"#utility.yul\":12248:12614   */\n    tag_152:\n        /* \"#utility.yul\":12390:12393   */\n      0x00\n        /* \"#utility.yul\":12411:12478   */\n      tag_294\n        /* \"#utility.yul\":12475:12477   */\n      0x12\n        /* \"#utility.yul\":12470:12473   */\n      dup4\n        /* \"#utility.yul\":12411:12478   */\n      tag_118\n      jump\t// in\n    tag_294:\n        /* \"#utility.yul\":12404:12478   */\n      swap2\n      pop\n        /* \"#utility.yul\":12487:12580   */\n      tag_295\n        /* \"#utility.yul\":12576:12579   */\n      dup3\n        /* \"#utility.yul\":12487:12580   */\n      tag_151\n      jump\t// in\n    tag_295:\n        /* \"#utility.yul\":12605:12607   */\n      0x20\n        /* \"#utility.yul\":12600:12603   */\n      dup3\n        /* \"#utility.yul\":12596:12608   */\n      add\n        /* \"#utility.yul\":12589:12608   */\n      swap1\n      pop\n        /* \"#utility.yul\":12248:12614   */\n      swap2\n      swap1\n      pop\n      jump\t// out\n        /* \"#utility.yul\":12620:13039   */\n    tag_61:\n        /* \"#utility.yul\":12786:12790   */\n      0x00\n        /* \"#utility.yul\":12824:12826   */\n      0x20\n        /* \"#utility.yul\":12813:12822   */\n      dup3\n        /* \"#utility.yul\":12809:12827   */\n      add\n        /* \"#utility.yul\":12801:12827   */\n      swap1\n      pop\n        /* \"#utility.yul\":12873:12882   */\n      dup2\n        /* \"#utility.yul\":12867:12871   */\n      dup2\n        /* \"#utility.yul\":12863:12883   */\n      sub\n        /* \"#utility.yul\":12859:12860   */\n      0x00\n        /* \"#utility.yul\":12848:12857   */\n      dup4\n        /* \"#utility.yul\":12844:12861   */\n      add\n        /* \"#utility.yul\":12837:12884   */\n      mstore\n        /* \"#utility.yul\":12901:13032   */\n      tag_297\n        /* \"#utility.yul\":13027:13031   */\n      dup2\n        /* \"#utility.yul\":12901:13032   */\n      tag_152\n      jump\t// in\n    tag_297:\n        /* \"#utility.yul\":12893:13032   */\n      swap1\n      pop\n        /* \"#utility.yul\":12620:13039   */\n      swap2\n      swap1\n      pop\n      jump\t// out\n        /* \"#utility.yul\":13045:13212   */\n    tag_153:\n        /* \"#utility.yul\":13185:13204   */\n      0x4f70736920746964616b2076616c696421000000000000000000000000000000\n        /* \"#utility.yul\":13181:13182   */\n      0x00\n        /* \"#utility.yul\":13173:13179   */\n      dup3\n        /* \"#utility.yul\":13169:13183   */\n      add\n        /* \"#utility.yul\":13162:13205   */\n      mstore\n        /* \"#utility.yul\":13045:13212   */\n      pop\n      jump\t// out\n        /* \"#utility.yul\":13218:13584   */\n    tag_154:\n        /* \"#utility.yul\":13360:13363   */\n      0x00\n        /* \"#utility.yul\":13381:13448   */\n      tag_300\n        /* \"#utility.yul\":13445:13447   */\n      0x11\n        /* \"#utility.yul\":13440:13443   */\n      dup4\n        /* \"#utility.yul\":13381:13448   */\n      tag_118\n      jump\t// in\n    tag_300:\n        /* \"#utility.yul\":13374:13448   */\n      swap2\n      pop\n        /* \"#utility.yul\":13457:13550   */\n      tag_301\n        /* \"#utility.yul\":13546:13549   */\n      dup3\n        /* \"#utility.yul\":13457:13550   */\n      tag_153\n      jump\t// in\n    tag_301:\n        /* \"#utility.yul\":13575:13577   */\n      0x20\n        /* \"#utility.yul\":13570:13573   */\n      dup3\n        /* \"#utility.yul\":13566:13578   */\n      add\n        /* \"#utility.yul\":13559:13578   */\n      swap1\n      pop\n        /* \"#utility.yul\":13218:13584   */\n      swap2\n      swap1\n      pop\n      jump\t// out\n        /* \"#utility.yul\":13590:14009   */\n    tag_64:\n        /* \"#utility.yul\":13756:13760   */\n      0x00\n        /* \"#utility.yul\":13794:13796   */\n      0x20\n        /* \"#utility.yul\":13783:13792   */\n      dup3\n        /* \"#utility.yul\":13779:13797   */\n      add\n        /* \"#utility.yul\":13771:13797   */\n      swap1\n      pop\n        /* \"#utility.yul\":13843:13852   */\n      dup2\n        /* \"#utility.yul\":13837:13841   */\n      dup2\n        /* \"#utility.yul\":13833:13853   */\n      sub\n        /* \"#utility.yul\":13829:13830   */\n      0x00\n        /* \"#utility.yul\":13818:13827   */\n      dup4\n        /* \"#utility.yul\":13814:13831   */\n      add\n        /* \"#utility.yul\":13807:13854   */\n      mstore\n        /* \"#utility.yul\":13871:14002   */\n      tag_303\n        /* \"#utility.yul\":13997:14001   */\n      dup2\n        /* \"#utility.yul\":13871:14002   */\n      tag_154\n      jump\t// in\n    tag_303:\n        /* \"#utility.yul\":13863:14002   */\n      swap1\n      pop\n        /* \"#utility.yul\":13590:14009   */\n      swap2\n      swap1\n      pop\n      jump\t// out\n        /* \"#utility.yul\":14015:14195   */\n    tag_67:\n        /* \"#utility.yul\":14063:14140   */\n      0x4e487b7100000000000000000000000000000000000000000000000000000000\n        /* \"#utility.yul\":14060:14061   */\n      0x00\n        /* \"#utility.yul\":14053:14141   */\n      mstore\n        /* \"#utility.yul\":14160:14164   */\n      0x32\n        /* \"#utility.yul\":14157:14158   */\n      0x04\n        /* \"#utility.yul\":14150:14165   */\n      mstore\n        /* \"#utility.yul\":14184:14188   */\n      0x24\n        /* \"#utility.yul\":14181:14182   */\n      0x00\n        /* \"#utility.yul\":14174:14189   */\n      revert\n        /* \"#utility.yul\":14201:14381   */\n    tag_155:\n        /* \"#utility.yul\":14249:14326   */\n      0x4e487b7100000000000000000000000000000000000000000000000000000000\n        /* \"#utility.yul\":14246:14247   */\n      0x00\n        /* \"#utility.yul\":14239:14327   */\n      mstore\n        /* \"#utility.yul\":14346:14350   */\n      0x11\n        /* \"#utility.yul\":14343:14344   */\n      0x04\n        /* \"#utility.yul\":14336:14351   */\n      mstore\n        /* \"#utility.yul\":14370:14374   */\n      0x24\n        /* \"#utility.yul\":14367:14368   */\n      0x00\n        /* \"#utility.yul\":14360:14375   */\n      revert\n        /* \"#utility.yul\":14387:14620   */\n    tag_70:\n        /* \"#utility.yul\":14426:14429   */\n      0x00\n        /* \"#utility.yul\":14449:14473   */\n      tag_307\n        /* \"#utility.yul\":14467:14472   */\n      dup3\n        /* \"#utility.yul\":14449:14473   */\n      tag_114\n      jump\t// in\n    tag_307:\n        /* \"#utility.yul\":14440:14473   */\n      swap2\n      pop\n        /* \"#utility.yul\":14495:14561   */\n      0xffffffffffffffffffffffffffffffffffffffffffffffffffffffffffffffff\n        /* \"#utility.yul\":14488:14493   */\n      dup3\n        /* \"#utility.yul\":14485:14562   */\n      sub\n        /* \"#utility.yul\":14482:14585   */\n      tag_308\n      jumpi\n        /* \"#utility.yul\":14565:14583   */\n      tag_309\n      tag_155\n      jump\t// in\n    tag_309:\n        /* \"#utility.yul\":14482:14585   */\n    tag_308:\n        /* \"#utility.yul\":14612:14613   */\n      0x01\n        /* \"#utility.yul\":14605:14610   */\n      dup3\n        /* \"#utility.yul\":14601:14614   */\n      add\n        /* \"#utility.yul\":14594:14614   */\n      swap1\n      pop\n        /* \"#utility.yul\":14387:14620   */\n      swap2\n      swap1\n      pop\n      jump\t// out\n        /* \"#utility.yul\":14626:14806   */\n    tag_156:\n        /* \"#utility.yul\":14674:14751   */\n      0x4e487b7100000000000000000000000000000000000000000000000000000000\n        /* \"#utility.yul\":14671:14672   */\n      0x00\n        /* \"#utility.yul\":14664:14752   */\n      mstore\n        /* \"#utility.yul\":14771:14775   */\n      0x22\n        /* \"#utility.yul\":14768:14769   */\n      0x04\n        /* \"#utility.yul\":14761:14776   */\n      mstore\n        /* \"#utility.yul\":14795:14799   */\n      0x24\n        /* \"#utility.yul\":14792:14793   */\n      0x00\n        /* \"#utility.yul\":14785:14800   */\n      revert\n        /* \"#utility.yul\":14812:15132   */\n    tag_72:\n        /* \"#utility.yul\":14856:14862   */\n      0x00\n        /* \"#utility.yul\":14893:14894   */\n      0x02\n        /* \"#utility.yul\":14887:14891   */\n      dup3\n        /* \"#utility.yul\":14883:14895   */\n      div\n        /* \"#utility.yul\":14873:14895   */\n      swap1\n      pop\n        /* \"#utility.yul\":14940:14941   */\n      0x01\n        /* \"#utility.yul\":14934:14938   */\n      dup3\n        /* \"#utility.yul\":14930:14942   */\n      and\n        /* \"#utility.yul\":14961:14979   */\n      dup1\n        /* \"#utility.yul\":14951:15032   */\n      tag_312\n      jumpi\n        /* \"#utility.yul\":15017:15021   */\n      0x7f\n        /* \"#utility.yul\":15009:15015   */\n      dup3\n        /* \"#utility.yul\":15005:15022   */\n      and\n        /* \"#utility.yul\":14995:15022   */\n      swap2\n      pop\n        /* \"#utility.yul\":14951:15032   */\n    tag_312:\n        /* \"#utility.yul\":15079:15081   */\n      0x20\n        /* \"#utility.yul\":15071:15077   */\n      dup3\n        /* \"#utility.yul\":15068:15082   */\n      lt\n        /* \"#utility.yul\":15048:15066   */\n      dup2\n        /* \"#utility.yul\":15045:15083   */\n      sub\n        /* \"#utility.yul\":15042:15126   */\n      tag_313\n      jumpi\n        /* \"#utility.yul\":15098:15116   */\n      tag_314\n      tag_156\n      jump\t// in\n    tag_314:\n        /* \"#utility.yul\":15042:15126   */\n    tag_313:\n        /* \"#utility.yul\":14863:15132   */\n      pop\n        /* \"#utility.yul\":14812:15132   */\n      swap2\n      swap1\n      pop\n      jump\t// out\n        /* \"#utility.yul\":15138:15300   */\n    tag_157:\n        /* \"#utility.yul\":15278:15292   */\n      0x48616e79612061646d696e210000000000000000000000000000000000000000\n        /* \"#utility.yul\":15274:15275   */\n      0x00\n        /* \"#utility.yul\":15266:15272   */\n      dup3\n        /* \"#utility.yul\":15262:15276   */\n      add\n        /* \"#utility.yul\":15255:15293   */\n      mstore\n        /* \"#utility.yul\":15138:15300   */\n      pop\n      jump\t// out\n        /* \"#utility.yul\":15306:15672   */\n    tag_158:\n        /* \"#utility.yul\":15448:15451   */\n      0x00\n        /* \"#utility.yul\":15469:15536   */\n      tag_317\n        /* \"#utility.yul\":15533:15535   */\n      0x0c\n        /* \"#utility.yul\":15528:15531   */\n      dup4\n        /* \"#utility.yul\":15469:15536   */\n      tag_118\n      jump\t// in\n    tag_317:\n        /* \"#utility.yul\":15462:15536   */\n      swap2\n      pop\n        /* \"#utility.yul\":15545:15638   */\n      tag_318\n        /* \"#utility.yul\":15634:15637   */\n      dup3\n        /* \"#utility.yul\":15545:15638   */\n      tag_157\n      jump\t// in\n    tag_318:\n        /* \"#utility.yul\":15663:15665   */\n      0x20\n        /* \"#utility.yul\":15658:15661   */\n      dup3\n        /* \"#utility.yul\":15654:15666   */\n      add\n        /* \"#utility.yul\":15647:15666   */\n      swap1\n      pop\n        /* \"#utility.yul\":15306:15672   */\n      swap2\n      swap1\n      pop\n      jump\t// out\n        /* \"#utility.yul\":15678:16097   */\n    tag_80:\n        /* \"#utility.yul\":15844:15848   */\n      0x00\n        /* \"#utility.yul\":15882:15884   */\n      0x20\n        /* \"#utility.yul\":15871:15880   */\n      dup3\n        /* \"#utility.yul\":15867:15885   */\n      add\n        /* \"#utility.yul\":15859:15885   */\n      swap1\n      pop\n        /* \"#utility.yul\":15931:15940   */\n      dup2\n        /* \"#utility.yul\":15925:15929   */\n      dup2\n        /* \"#utility.yul\":15921:15941   */\n      sub\n        /* \"#utility.yul\":15917:15918   */\n      0x00\n        /* \"#utility.yul\":15906:15915   */\n      dup4\n        /* \"#utility.yul\":15902:15919   */\n      add\n        /* \"#utility.yul\":15895:15942   */\n      mstore\n        /* \"#utility.yul\":15959:16090   */\n      tag_320\n        /* \"#utility.yul\":16085:16089   */\n      dup2\n        /* \"#utility.yul\":15959:16090   */\n      tag_158\n      jump\t// in\n    tag_320:\n        /* \"#utility.yul\":15951:16090   */\n      swap1\n      pop\n        /* \"#utility.yul\":15678:16097   */\n      swap2\n      swap1\n      pop\n      jump\t// out\n        /* \"#utility.yul\":16103:16244   */\n    tag_159:\n        /* \"#utility.yul\":16152:16156   */\n      0x00\n        /* \"#utility.yul\":16175:16178   */\n      dup2\n        /* \"#utility.yul\":16167:16178   */\n      swap1\n      pop\n        /* \"#utility.yul\":16198:16201   */\n      dup2\n        /* \"#utility.yul\":16195:16196   */\n      0x00\n        /* \"#utility.yul\":16188:16202   */\n      mstore\n        /* \"#utility.yul\":16232:16236   */\n      0x20\n        /* \"#utility.yul\":16229:16230   */\n      0x00\n        /* \"#utility.yul\":16219:16237   */\n      keccak256\n        /* \"#utility.yul\":16211:16237   */\n      swap1\n      pop\n        /* \"#utility.yul\":16103:16244   */\n      swap2\n      swap1\n      pop\n      jump\t// out\n        /* \"#utility.yul\":16250:16343   */\n    tag_160:\n        /* \"#utility.yul\":16287:16293   */\n      0x00\n        /* \"#utility.yul\":16334:16336   */\n      0x20\n        /* \"#utility.yul\":16329:16331   */\n      0x1f\n        /* \"#utility.yul\":16322:16327   */\n      dup4\n        /* \"#utility.yul\":16318:16332   */\n      add\n        /* \"#utility.yul\":16314:16337   */\n      div\n        /* \"#utility.yul\":16304:16337   */\n      swap1\n      pop\n        /* \"#utility.yul\":16250:16343   */\n      swap2\n      swap1\n      pop\n      jump\t// out\n        /* \"#utility.yul\":16349:16456   */\n    tag_161:\n        /* \"#utility.yul\":16393:16401   */\n      0x00\n        /* \"#utility.yul\":16443:16448   */\n      dup3\n        /* \"#utility.yul\":16437:16441   */\n      dup3\n        /* \"#utility.yul\":16433:16449   */\n      shl\n        /* \"#utility.yul\":16412:16449   */\n      swap1\n      pop\n        /* \"#utility.yul\":16349:16456   */\n      swap3\n      swap2\n      pop\n      pop\n      jump\t// out\n        /* \"#utility.yul\":16462:16855   */\n    tag_162:\n        /* \"#utility.yul\":16531:16537   */\n      0x00\n        /* \"#utility.yul\":16581:16582   */\n      0x08\n        /* \"#utility.yul\":16569:16579   */\n      dup4\n        /* \"#utility.yul\":16565:16583   */\n      mul\n        /* \"#utility.yul\":16604:16701   */\n      tag_325\n        /* \"#utility.yul\":16634:16700   */\n      0xffffffffffffffffffffffffffffffffffffffffffffffffffffffffffffffff\n        /* \"#utility.yul\":16623:16632   */\n      dup3\n        /* \"#utility.yul\":16604:16701   */\n      tag_161\n      jump\t// in\n    tag_325:\n        /* \"#utility.yul\":16722:16761   */\n      tag_326\n        /* \"#utility.yul\":16752:16760   */\n      dup7\n        /* \"#utility.yul\":16741:16750   */\n      dup4\n        /* \"#utility.yul\":16722:16761   */\n      tag_161\n      jump\t// in\n    tag_326:\n        /* \"#utility.yul\":16710:16761   */\n      swap6\n      pop\n        /* \"#utility.yul\":16794:16798   */\n      dup1\n        /* \"#utility.yul\":16790:16799   */\n      not\n        /* \"#utility.yul\":16783:16788   */\n      dup5\n        /* \"#utility.yul\":16779:16800   */\n      and\n        /* \"#utility.yul\":16770:16800   */\n      swap4\n      pop\n        /* \"#utility.yul\":16843:16847   */\n      dup1\n        /* \"#utility.yul\":16833:16841   */\n      dup7\n        /* \"#utility.yul\":16829:16848   */\n      and\n        /* \"#utility.yul\":16822:16827   */\n      dup5\n        /* \"#utility.yul\":16819:16849   */\n      or\n        /* \"#utility.yul\":16809:16849   */\n      swap3\n      pop\n        /* \"#utility.yul\":16538:16855   */\n      pop\n      pop\n        /* \"#utility.yul\":16462:16855   */\n      swap4\n      swap3\n      pop\n      pop\n      pop\n      jump\t// out\n        /* \"#utility.yul\":16861:16921   */\n    tag_163:\n        /* \"#utility.yul\":16889:16892   */\n      0x00\n        /* \"#utility.yul\":16910:16915   */\n      dup2\n        /* \"#utility.yul\":16903:16915   */\n      swap1\n      pop\n        /* \"#utility.yul\":16861:16921   */\n      swap2\n      swap1\n      pop\n      jump\t// out\n        /* \"#utility.yul\":16927:17069   */\n    tag_164:\n        /* \"#utility.yul\":16977:16986   */\n      0x00\n        /* \"#utility.yul\":17010:17063   */\n      tag_329\n        /* \"#utility.yul\":17028:17062   */\n      tag_330\n        /* \"#utility.yul\":17037:17061   */\n      tag_331\n        /* \"#utility.yul\":17055:17060   */\n      dup5\n        /* \"#utility.yul\":17037:17061   */\n      tag_114\n      jump\t// in\n    tag_331:\n        /* \"#utility.yul\":17028:17062   */\n      tag_163\n      jump\t// in\n    tag_330:\n        /* \"#utility.yul\":17010:17063   */\n      tag_114\n      jump\t// in\n    tag_329:\n        /* \"#utility.yul\":16997:17063   */\n      swap1\n      pop\n        /* \"#utility.yul\":16927:17069   */\n      swap2\n      swap1\n      pop\n      jump\t// out\n        /* \"#utility.yul\":17075:17150   */\n    tag_165:\n        /* \"#utility.yul\":17118:17121   */\n      0x00\n        /* \"#utility.yul\":17139:17144   */\n      dup2\n        /* \"#utility.yul\":17132:17144   */\n      swap1\n      pop\n        /* \"#utility.yul\":17075:17150   */\n      swap2\n      swap1\n      pop\n      jump\t// out\n        /* \"#utility.yul\":17156:17425   */\n    tag_166:\n        /* \"#utility.yul\":17266:17305   */\n      tag_334\n        /* \"#utility.yul\":17297:17304   */\n      dup4\n        /* \"#utility.yul\":17266:17305   */\n      tag_164\n      jump\t// in\n    tag_334:\n        /* \"#utility.yul\":17327:17418   */\n      tag_335\n        /* \"#utility.yul\":17376:17417   */\n      tag_336\n        /* \"#utility.yul\":17400:17416   */\n      dup3\n        /* \"#utility.yul\":17376:17417   */\n      tag_165\n      jump\t// in\n    tag_336:\n        /* \"#utility.yul\":17368:17374   */\n      dup5\n        /* \"#utility.yul\":17361:17365   */\n      dup5\n        /* \"#utility.yul\":17355:17366   */\n      sload\n        /* \"#utility.yul\":17327:17418   */\n      tag_162\n      jump\t// in\n    tag_335:\n        /* \"#utility.yul\":17321:17325   */\n      dup3\n        /* \"#utility.yul\":17314:17419   */\n      sstore\n        /* \"#utility.yul\":17232:17425   */\n      pop\n        /* \"#utility.yul\":17156:17425   */\n      pop\n      pop\n      pop\n      jump\t// out\n        /* \"#utility.yul\":17431:17504   */\n    tag_167:\n        /* \"#utility.yul\":17476:17479   */\n      0x00\n        /* \"#utility.yul\":17497:17498   */\n      0x00\n        /* \"#utility.yul\":17490:17498   */\n      swap1\n      pop\n        /* \"#utility.yul\":17431:17504   */\n      swap1\n      jump\t// out\n        /* \"#utility.yul\":17510:17699   */\n    tag_168:\n        /* \"#utility.yul\":17587:17619   */\n      tag_339\n      tag_167\n      jump\t// in\n    tag_339:\n        /* \"#utility.yul\":17628:17693   */\n      tag_340\n        /* \"#utility.yul\":17686:17692   */\n      dup2\n        /* \"#utility.yul\":17678:17684   */\n      dup5\n        /* \"#utility.yul\":17672:17676   */\n      dup5\n        /* \"#utility.yul\":17628:17693   */\n      tag_166\n      jump\t// in\n    tag_340:\n        /* \"#utility.yul\":17563:17699   */\n      pop\n        /* \"#utility.yul\":17510:17699   */\n      pop\n      pop\n      jump\t// out\n        /* \"#utility.yul\":17705:17919   */\n    tag_169:\n        /* \"#utility.yul\":17790:17791   */\n      0x00\n        /* \"#utility.yul\":17775:17913   */\n    tag_342:\n        /* \"#utility.yul\":17800:17809   */\n      dup3\n        /* \"#utility.yul\":17797:17798   */\n      dup2\n        /* \"#utility.yul\":17794:17810   */\n      lt\n        /* \"#utility.yul\":17775:17913   */\n      iszero\n      tag_344\n      jumpi\n        /* \"#utility.yul\":17852:17903   */\n      tag_345\n        /* \"#utility.yul\":17901:17902   */\n      0x00\n        /* \"#utility.yul\":17897:17898   */\n      dup3\n        /* \"#utility.yul\":17886:17895   */\n      dup5\n        /* \"#utility.yul\":17882:17899   */\n      add\n        /* \"#utility.yul\":17852:17903   */\n      tag_168\n      jump\t// in\n    tag_345:\n        /* \"#utility.yul\":17825:17826   */\n      0x01\n        /* \"#utility.yul\":17822:17823   */\n      dup2\n        /* \"#utility.yul\":17818:17827   */\n      add\n        /* \"#utility.yul\":17813:17827   */\n      swap1\n      pop\n        /* \"#utility.yul\":17775:17913   */\n      jump(tag_342)\n    tag_344:\n        /* \"#utility.yul\":17779:17793   */\n      pop\n        /* \"#utility.yul\":17705:17919   */\n      pop\n      pop\n      jump\t// out\n        /* \"#utility.yul\":17925:18671   */\n    tag_170:\n        /* \"#utility.yul\":18026:18028   */\n      0x1f\n        /* \"#utility.yul\":18021:18024   */\n      dup3\n        /* \"#utility.yul\":18018:18029   */\n      gt\n        /* \"#utility.yul\":18015:18664   */\n      iszero\n      tag_347\n      jumpi\n        /* \"#utility.yul\":18055:18065   */\n      dup3\n        /* \"#utility.yul\":18050:18053   */\n      dup3\n        /* \"#utility.yul\":18047:18066   */\n      gt\n        /* \"#utility.yul\":18044:18654   */\n      iszero\n      tag_348\n      jumpi\n        /* \"#utility.yul\":18101:18139   */\n      tag_349\n        /* \"#utility.yul\":18133:18138   */\n      dup2\n        /* \"#utility.yul\":18101:18139   */\n      tag_159\n      jump\t// in\n    tag_349:\n        /* \"#utility.yul\":18176:18198   */\n      tag_350\n        /* \"#utility.yul\":18194:18197   */\n      dup4\n        /* \"#utility.yul\":18176:18198   */\n      tag_160\n      jump\t// in\n    tag_350:\n        /* \"#utility.yul\":18235:18264   */\n      tag_351\n        /* \"#utility.yul\":18253:18263   */\n      dup6\n        /* \"#utility.yul\":18235:18264   */\n      tag_160\n      jump\t// in\n    tag_351:\n        /* \"#utility.yul\":18425:18427   */\n      0x20\n        /* \"#utility.yul\":18413:18423   */\n      dup7\n        /* \"#utility.yul\":18410:18428   */\n      lt\n        /* \"#utility.yul\":18407:18486   */\n      iszero\n      tag_352\n      jumpi\n        /* \"#utility.yul\":18467:18468   */\n      0x00\n        /* \"#utility.yul\":18451:18468   */\n      swap1\n      pop\n        /* \"#utility.yul\":18407:18486   */\n    tag_352:\n        /* \"#utility.yul\":18536:18548   */\n      dup1\n        /* \"#utility.yul\":18526:18534   */\n      dup4\n        /* \"#utility.yul\":18522:18549   */\n      add\n        /* \"#utility.yul\":18566:18640   */\n      tag_353\n        /* \"#utility.yul\":18626:18638   */\n      dup3\n        /* \"#utility.yul\":18612:18624   */\n      dup5\n        /* \"#utility.yul\":18608:18639   */\n      sub\n        /* \"#utility.yul\":18595:18606   */\n      dup3\n        /* \"#utility.yul\":18566:18640   */\n      tag_169\n      jump\t// in\n    tag_353:\n        /* \"#utility.yul\":18067:18654   */\n      pop\n      pop\n      pop\n      pop\n        /* \"#utility.yul\":18044:18654   */\n    tag_348:\n        /* \"#utility.yul\":18015:18664   */\n    tag_347:\n        /* \"#utility.yul\":17925:18671   */\n      pop\n      pop\n      pop\n      jump\t// out\n        /* \"#utility.yul\":18677:18794   */\n    tag_171:\n        /* \"#utility.yul\":18731:18739   */\n      0x00\n        /* \"#utility.yul\":18781:18786   */\n      dup3\n        /* \"#utility.yul\":18775:18779   */\n      dup3\n        /* \"#utility.yul\":18771:18787   */\n      shr\n        /* \"#utility.yul\":18750:18787   */\n      swap1\n      pop\n        /* \"#utility.yul\":18677:18794   */\n      swap3\n      swap2\n      pop\n      pop\n      jump\t// out\n        /* \"#utility.yul\":18800:18969   */\n    tag_172:\n        /* \"#utility.yul\":18844:18850   */\n      0x00\n        /* \"#utility.yul\":18877:18928   */\n      tag_356\n        /* \"#utility.yul\":18925:18926   */\n      0x00\n        /* \"#utility.yul\":18921:18927   */\n      not\n        /* \"#utility.yul\":18913:18918   */\n      dup5\n        /* \"#utility.yul\":18910:18911   */\n      0x08\n        /* \"#utility.yul\":18906:18919   */\n      mul\n        /* \"#utility.yul\":18877:18928   */\n      tag_171\n      jump\t// in\n    tag_356:\n        /* \"#utility.yul\":18873:18929   */\n      not\n        /* \"#utility.yul\":18958:18962   */\n      dup1\n        /* \"#utility.yul\":18952:18956   */\n      dup4\n        /* \"#utility.yul\":18948:18963   */\n      and\n        /* \"#utility.yul\":18938:18963   */\n      swap2\n      pop\n        /* \"#utility.yul\":18851:18969   */\n      pop\n        /* \"#utility.yul\":18800:18969   */\n      swap3\n      swap2\n      pop\n      pop\n      jump\t// out\n        /* \"#utility.yul\":18974:19269   */\n    tag_173:\n        /* \"#utility.yul\":19050:19054   */\n      0x00\n        /* \"#utility.yul\":19196:19225   */\n      tag_358\n        /* \"#utility.yul\":19221:19224   */\n      dup4\n        /* \"#utility.yul\":19215:19219   */\n      dup4\n        /* \"#utility.yul\":19196:19225   */\n      tag_172\n      jump\t// in\n    tag_358:\n        /* \"#utility.yul\":19188:19225   */\n      swap2\n      pop\n        /* \"#utility.yul\":19258:19261   */\n      dup3\n        /* \"#utility.yul\":19255:19256   */\n      0x02\n        /* \"#utility.yul\":19251:19262   */\n      mul\n        /* \"#utility.yul\":19245:19249   */\n      dup3\n        /* \"#utility.yul\":19242:19263   */\n      or\n        /* \"#utility.yul\":19234:19263   */\n      swap1\n      pop\n        /* \"#utility.yul\":18974:19269   */\n      swap3\n      swap2\n      pop\n      pop\n      jump\t// out\n        /* \"#utility.yul\":19274:20669   */\n    tag_109:\n        /* \"#utility.yul\":19391:19428   */\n      tag_360\n        /* \"#utility.yul\":19424:19427   */\n      dup3\n        /* \"#utility.yul\":19391:19428   */\n      tag_117\n      jump\t// in\n    tag_360:\n        /* \"#utility.yul\":19493:19511   */\n      0xffffffffffffffff\n        /* \"#utility.yul\":19485:19491   */\n      dup2\n        /* \"#utility.yul\":19482:19512   */\n      gt\n        /* \"#utility.yul\":19479:19535   */\n      iszero\n      tag_361\n      jumpi\n        /* \"#utility.yul\":19515:19533   */\n      tag_362\n      tag_141\n      jump\t// in\n    tag_362:\n        /* \"#utility.yul\":19479:19535   */\n    tag_361:\n        /* \"#utility.yul\":19559:19597   */\n      tag_363\n        /* \"#utility.yul\":19591:19595   */\n      dup3\n        /* \"#utility.yul\":19585:19596   */\n      sload\n        /* \"#utility.yul\":19559:19597   */\n      tag_72\n      jump\t// in\n    tag_363:\n        /* \"#utility.yul\":19644:19711   */\n      tag_364\n        /* \"#utility.yul\":19704:19710   */\n      dup3\n        /* \"#utility.yul\":19696:19702   */\n      dup3\n        /* \"#utility.yul\":19690:19694   */\n      dup6\n        /* \"#utility.yul\":19644:19711   */\n      tag_170\n      jump\t// in\n    tag_364:\n        /* \"#utility.yul\":19738:19739   */\n      0x00\n        /* \"#utility.yul\":19762:19766   */\n      0x20\n        /* \"#utility.yul\":19749:19766   */\n      swap1\n      pop\n        /* \"#utility.yul\":19794:19796   */\n      0x1f\n        /* \"#utility.yul\":19786:19792   */\n      dup4\n        /* \"#utility.yul\":19783:19797   */\n      gt\n        /* \"#utility.yul\":19811:19812   */\n      0x01\n        /* \"#utility.yul\":19806:20424   */\n      dup2\n      eq\n      tag_366\n      jumpi\n        /* \"#utility.yul\":20468:20469   */\n      0x00\n        /* \"#utility.yul\":20485:20491   */\n      dup5\n        /* \"#utility.yul\":20482:20559   */\n      iszero\n      tag_367\n      jumpi\n        /* \"#utility.yul\":20534:20543   */\n      dup3\n        /* \"#utility.yul\":20529:20532   */\n      dup8\n        /* \"#utility.yul\":20525:20544   */\n      add\n        /* \"#utility.yul\":20519:20545   */\n      mload\n        /* \"#utility.yul\":20510:20545   */\n      swap1\n      pop\n        /* \"#utility.yul\":20482:20559   */\n    tag_367:\n        /* \"#utility.yul\":20585:20652   */\n      tag_368\n        /* \"#utility.yul\":20645:20651   */\n      dup6\n        /* \"#utility.yul\":20638:20643   */\n      dup3\n        /* \"#utility.yul\":20585:20652   */\n      tag_173\n      jump\t// in\n    tag_368:\n        /* \"#utility.yul\":20579:20583   */\n      dup7\n        /* \"#utility.yul\":20572:20653   */\n      sstore\n        /* \"#utility.yul\":20441:20663   */\n      pop\n        /* \"#utility.yul\":19776:20663   */\n      jump(tag_365)\n        /* \"#utility.yul\":19806:20424   */\n    tag_366:\n        /* \"#utility.yul\":19858:19862   */\n      0x1f\n        /* \"#utility.yul\":19854:19863   */\n      not\n        /* \"#utility.yul\":19846:19852   */\n      dup5\n        /* \"#utility.yul\":19842:19864   */\n      and\n        /* \"#utility.yul\":19892:19929   */\n      tag_369\n        /* \"#utility.yul\":19924:19928   */\n      dup7\n        /* \"#utility.yul\":19892:19929   */\n      tag_159\n      jump\t// in\n    tag_369:\n        /* \"#utility.yul\":19951:19952   */\n      0x00\n        /* \"#utility.yul\":19965:20173   */\n    tag_370:\n        /* \"#utility.yul\":19979:19986   */\n      dup3\n        /* \"#utility.yul\":19976:19977   */\n      dup2\n        /* \"#utility.yul\":19973:19987   */\n      lt\n        /* \"#utility.yul\":19965:20173   */\n      iszero\n      tag_372\n      jumpi\n        /* \"#utility.yul\":20058:20067   */\n      dup5\n        /* \"#utility.yul\":20053:20056   */\n      dup10\n        /* \"#utility.yul\":20049:20068   */\n      add\n        /* \"#utility.yul\":20043:20069   */\n      mload\n        /* \"#utility.yul\":20035:20041   */\n      dup3\n        /* \"#utility.yul\":20028:20070   */\n      sstore\n        /* \"#utility.yul\":20109:20110   */\n      0x01\n        /* \"#utility.yul\":20101:20107   */\n      dup3\n        /* \"#utility.yul\":20097:20111   */\n      add\n        /* \"#utility.yul\":20087:20111   */\n      swap2\n      pop\n        /* \"#utility.yul\":20156:20158   */\n      0x20\n        /* \"#utility.yul\":20145:20154   */\n      dup6\n        /* \"#utility.yul\":20141:20159   */\n      add\n        /* \"#utility.yul\":20128:20159   */\n      swap5\n      pop\n        /* \"#utility.yul\":20002:20006   */\n      0x20\n        /* \"#utility.yul\":19999:20000   */\n      dup2\n        /* \"#utility.yul\":19995:20007   */\n      add\n        /* \"#utility.yul\":19990:20007   */\n      swap1\n      pop\n        /* \"#utility.yul\":19965:20173   */\n      jump(tag_370)\n    tag_372:\n        /* \"#utility.yul\":20201:20207   */\n      dup7\n        /* \"#utility.yul\":20192:20199   */\n      dup4\n        /* \"#utility.yul\":20189:20208   */\n      lt\n        /* \"#utility.yul\":20186:20365   */\n      iszero\n      tag_373\n      jumpi\n        /* \"#utility.yul\":20259:20268   */\n      dup5\n        /* \"#utility.yul\":20254:20257   */\n      dup10\n        /* \"#utility.yul\":20250:20269   */\n      add\n        /* \"#utility.yul\":20244:20270   */\n      mload\n        /* \"#utility.yul\":20302:20350   */\n      tag_374\n        /* \"#utility.yul\":20344:20348   */\n      0x1f\n        /* \"#utility.yul\":20336:20342   */\n      dup10\n        /* \"#utility.yul\":20332:20349   */\n      and\n        /* \"#utility.yul\":20321:20330   */\n      dup3\n        /* \"#utility.yul\":20302:20350   */\n      tag_172\n      jump\t// in\n    tag_374:\n        /* \"#utility.yul\":20294:20300   */\n      dup4\n        /* \"#utility.yul\":20287:20351   */\n      sstore\n        /* \"#utility.yul\":20209:20365   */\n      pop\n        /* \"#utility.yul\":20186:20365   */\n    tag_373:\n        /* \"#utility.yul\":20411:20412   */\n      0x01\n        /* \"#utility.yul\":20407:20408   */\n      0x02\n        /* \"#utility.yul\":20399:20405   */\n      dup9\n        /* \"#utility.yul\":20395:20409   */\n      mul\n        /* \"#utility.yul\":20391:20413   */\n      add\n        /* \"#utility.yul\":20385:20389   */\n      dup9\n        /* \"#utility.yul\":20378:20414   */\n      sstore\n        /* \"#utility.yul\":19813:20424   */\n      pop\n      pop\n      pop\n        /* \"#utility.yul\":19776:20663   */\n    tag_365:\n      pop\n        /* \"#utility.yul\":19366:20669   */\n      pop\n      pop\n      pop\n        /* \"#utility.yul\":19274:20669   */\n      pop\n      pop\n      jump\t// out\n\n    auxdata: 0xa26469706673582212202d49862b793205abbc6e9d1c05c00532d3d54f9c3ce911cfc54c2a3bc93f9cbf64736f6c63430008220033\n}\n",
				"bytecode": {
					"linkReferences": {},
					"object": "608060405234801561000f575f5ffd5b5060405161177b38038061177b833981810160405281019061003191906101ed565b335f5f6101000a81548173ffffffffffffffffffffffffffffffffffffffff021916908373ffffffffffffffffffffffffffffffffffffffff160217905550806001908161007f9190610455565b50600160025f6101000a81548160ff02191690831515021790555050610524565b5f604051905090565b5f5ffd5b5f5ffd5b5f5ffd5b5f5ffd5b5f601f19601f8301169050919050565b7f4e487b71000000000000000000000000000000000000000000000000000000005f52604160045260245ffd5b6100ff826100b9565b810181811067ffffffffffffffff8211171561011e5761011d6100c9565b5b80604052505050565b5f6101306100a0565b905061013c82826100f6565b919050565b5f67ffffffffffffffff82111561015b5761015a6100c9565b5b610164826100b9565b9050602081019050919050565b8281835e5f83830152505050565b5f61019161018c84610141565b610127565b9050828152602081018484840111156101ad576101ac6100b5565b5b6101b8848285610171565b509392505050565b5f82601f8301126101d4576101d36100b1565b5b81516101e484826020860161017f565b91505092915050565b5f60208284031215610202576102016100a9565b5b5f82015167ffffffffffffffff81111561021f5761021e6100ad565b5b61022b848285016101c0565b91505092915050565b5f81519050919050565b7f4e487b71000000000000000000000000000000000000000000000000000000005f52602260045260245ffd5b5f600282049050600182168061028257607f821691505b6020821081036102955761029461023e565b5b50919050565b5f819050815f5260205f209050919050565b5f6020601f8301049050919050565b5f82821b905092915050565b5f600883026102f77fffffffffffffffffffffffffffffffffffffffffffffffffffffffffffffffff826102bc565b61030186836102bc565b95508019841693508086168417925050509392505050565b5f819050919050565b5f819050919050565b5f61034561034061033b84610319565b610322565b610319565b9050919050565b5f819050919050565b61035e8361032b565b61037261036a8261034c565b8484546102c8565b825550505050565b5f5f905090565b61038961037a565b610394818484610355565b505050565b5f5b828110156103ba576103af5f828401610381565b60018101905061039b565b505050565b601f82111561040d578282111561040c576103d98161029b565b6103e2836102ad565b6103eb856102ad565b60208610156103f8575f90505b80830161040782840382610399565b505050505b5b505050565b5f82821c905092915050565b5f61042d5f1984600802610412565b1980831691505092915050565b5f610445838361041e565b9150826002028217905092915050565b61045e82610234565b67ffffffffffffffff811115610477576104766100c9565b5b610481825461026b565b61048c8282856103bf565b5f60209050601f8311600181146104bd575f84156104ab578287015190505b6104b5858261043a565b86555061051c565b601f1984166104cb8661029b565b5f5b828110156104f2578489015182556001820191506020850194506020810190506104cd565b8683101561050f578489015161050b601f89168261041e565b8355505b6001600288020188555050505b505050505050565b61124a806105315f395ff3fe608060405234801561000f575f5ffd5b506004361061009c575f3560e01c806379abf6511161006457806379abf651146101335780639558b3c714610163578063de603ce914610181578063f851a4401461019d578063fb61a561146101bb5761009c565b80630121b93f146100a05780632a17b670146100bc57806358724b87146100da578063621f3a8c146100e457806377cd800b14610115575b5f5ffd5b6100ba60048036038101906100b59190610826565b6101d9565b005b6100c461038f565b6040516100d191906108c1565b60405180910390f35b6100e261041b565b005b6100fe60048036038101906100f99190610826565b6104c4565b60405161010c9291906108f0565b60405180910390f35b61011d6105a0565b60405161012a9190610938565b60405180910390f35b61014d600480360381019061014891906109ab565b6105b2565b60405161015a9190610938565b60405180910390f35b61016b6105cf565b6040516101789190610b22565b60405180910390f35b61019b60048036038101906101969190610c6e565b6106c4565b005b6101a56107b2565b6040516101b29190610cc4565b60405180910390f35b6101c36107d6565b6040516101d09190610cdd565b60405180910390f35b6001151560025f9054906101000a900460ff1615151461022e576040517f08c379a000000000000000000000000000000000000000000000000000000000815260040161022590610d40565b60405180910390fd5b60045f3373ffffffffffffffffffffffffffffffffffffffff1673ffffffffffffffffffffffffffffffffffffffff1681526020019081526020015f205f9054906101000a900460ff16156102b8576040517f08c379a00000000000000000000000000000000000000000000000000000000081526004016102af90610da8565b60405180910390fd5b60038054905081106102ff576040517f08c379a00000000000000000000000000000000000000000000000000000000081526004016102f690610e10565b60405180910390fd5b600160045f3373ffffffffffffffffffffffffffffffffffffffff1673ffffffffffffffffffffffffffffffffffffffff1681526020019081526020015f205f6101000a81548160ff0219169083151502179055506003818154811061036857610367610e2e565b5b905f5260205f2090600202016001015f81548092919061038790610e88565b919050555050565b6001805461039c90610efc565b80601f01602080910402602001604051908101604052809291908181526020018280546103c890610efc565b80156104135780601f106103ea57610100808354040283529160200191610413565b820191905f5260205f20905b8154815290600101906020018083116103f657829003601f168201915b505050505081565b5f5f9054906101000a900473ffffffffffffffffffffffffffffffffffffffff1673ffffffffffffffffffffffffffffffffffffffff163373ffffffffffffffffffffffffffffffffffffffff16146104a9576040517f08c379a00000000000000000000000000000000000000000000000000000000081526004016104a090610f76565b60405180910390fd5b5f60025f6101000a81548160ff021916908315150217905550565b60605f600383815481106104db576104da610e2e565b5b905f5260205f2090600202015f01600384815481106104fd576104fc610e2e565b5b905f5260205f2090600202016001015481805461051990610efc565b80601f016020809104026020016040519081016040528092919081815260200182805461054590610efc565b80156105905780601f1061056757610100808354040283529160200191610590565b820191905f5260205f20905b81548152906001019060200180831161057357829003601f168201915b5050505050915091509150915091565b60025f9054906101000a900460ff1681565b6004602052805f5260405f205f915054906101000a900460ff1681565b60606003805480602002602001604051908101604052809291908181526020015f905b828210156106bb578382905f5260205f2090600202016040518060400160405290815f8201805461062290610efc565b80601f016020809104026020016040519081016040528092919081815260200182805461064e90610efc565b80156106995780601f1061067057610100808354040283529160200191610699565b820191905f5260205f20905b81548152906001019060200180831161067c57829003601f168201915b50505050508152602001600182015481525050815260200190600101906105f2565b50505050905090565b5f5f9054906101000a900473ffffffffffffffffffffffffffffffffffffffff1673ffffffffffffffffffffffffffffffffffffffff163373ffffffffffffffffffffffffffffffffffffffff1614610752576040517f08c379a000000000000000000000000000000000000000000000000000000000815260040161074990610f76565b60405180910390fd5b600360405180604001604052808381526020015f815250908060018154018082558091505060019003905f5260205f2090600202015f909190919091505f820151815f0190816107a29190611145565b5060208201518160010155505050565b5f5f9054906101000a900473ffffffffffffffffffffffffffffffffffffffff1681565b5f600380549050905090565b5f604051905090565b5f5ffd5b5f5ffd5b5f819050919050565b610805816107f3565b811461080f575f5ffd5b50565b5f81359050610820816107fc565b92915050565b5f6020828403121561083b5761083a6107eb565b5b5f61084884828501610812565b91505092915050565b5f81519050919050565b5f82825260208201905092915050565b8281835e5f83830152505050565b5f601f19601f8301169050919050565b5f61089382610851565b61089d818561085b565b93506108ad81856020860161086b565b6108b681610879565b840191505092915050565b5f6020820190508181035f8301526108d98184610889565b905092915050565b6108ea816107f3565b82525050565b5f6040820190508181035f8301526109088185610889565b905061091760208301846108e1565b9392505050565b5f8115159050919050565b6109328161091e565b82525050565b5f60208201905061094b5f830184610929565b92915050565b5f73ffffffffffffffffffffffffffffffffffffffff82169050919050565b5f61097a82610951565b9050919050565b61098a81610970565b8114610994575f5ffd5b50565b5f813590506109a581610981565b92915050565b5f602082840312156109c0576109bf6107eb565b5b5f6109cd84828501610997565b91505092915050565b5f81519050919050565b5f82825260208201905092915050565b5f819050602082019050919050565b5f82825260208201905092915050565b5f610a1982610851565b610a2381856109ff565b9350610a3381856020860161086b565b610a3c81610879565b840191505092915050565b610a50816107f3565b82525050565b5f604083015f8301518482035f860152610a708282610a0f565b9150506020830151610a856020860182610a47565b508091505092915050565b5f610a9b8383610a56565b905092915050565b5f602082019050919050565b5f610ab9826109d6565b610ac381856109e0565b935083602082028501610ad5856109f0565b805f5b85811015610b105784840389528151610af18582610a90565b9450610afc83610aa3565b925060208a01995050600181019050610ad8565b50829750879550505050505092915050565b5f6020820190508181035f830152610b3a8184610aaf565b905092915050565b5f5ffd5b5f5ffd5b7f4e487b71000000000000000000000000000000000000000000000000000000005f52604160045260245ffd5b610b8082610879565b810181811067ffffffffffffffff82111715610b9f57610b9e610b4a565b5b80604052505050565b5f610bb16107e2565b9050610bbd8282610b77565b919050565b5f67ffffffffffffffff821115610bdc57610bdb610b4a565b5b610be582610879565b9050602081019050919050565b828183375f83830152505050565b5f610c12610c0d84610bc2565b610ba8565b905082815260208101848484011115610c2e57610c2d610b46565b5b610c39848285610bf2565b509392505050565b5f82601f830112610c5557610c54610b42565b5b8135610c65848260208601610c00565b91505092915050565b5f60208284031215610c8357610c826107eb565b5b5f82013567ffffffffffffffff811115610ca057610c9f6107ef565b5b610cac84828501610c41565b91505092915050565b610cbe81610970565b82525050565b5f602082019050610cd75f830184610cb5565b92915050565b5f602082019050610cf05f8301846108e1565b92915050565b7f566f74696e6720737564616820646974757475702100000000000000000000005f82015250565b5f610d2a60158361085b565b9150610d3582610cf6565b602082019050919050565b5f6020820190508181035f830152610d5781610d1e565b9050919050565b7f416e646120737564616820766f74696e672100000000000000000000000000005f82015250565b5f610d9260128361085b565b9150610d9d82610d5e565b602082019050919050565b5f6020820190508181035f830152610dbf81610d86565b9050919050565b7f4f70736920746964616b2076616c6964210000000000000000000000000000005f82015250565b5f610dfa60118361085b565b9150610e0582610dc6565b602082019050919050565b5f6020820190508181035f830152610e2781610dee565b9050919050565b7f4e487b71000000000000000000000000000000000000000000000000000000005f52603260045260245ffd5b7f4e487b71000000000000000000000000000000000000000000000000000000005f52601160045260245ffd5b5f610e92826107f3565b91507fffffffffffffffffffffffffffffffffffffffffffffffffffffffffffffffff8203610ec457610ec3610e5b565b5b600182019050919050565b7f4e487b71000000000000000000000000000000000000000000000000000000005f52602260045260245ffd5b5f6002820490506001821680610f1357607f821691505b602082108103610f2657610f25610ecf565b5b50919050565b7f48616e79612061646d696e2100000000000000000000000000000000000000005f82015250565b5f610f60600c8361085b565b9150610f6b82610f2c565b602082019050919050565b5f6020820190508181035f830152610f8d81610f54565b9050919050565b5f819050815f5260205f209050919050565b5f6020601f8301049050919050565b5f82821b905092915050565b5f60088302610ff07fffffffffffffffffffffffffffffffffffffffffffffffffffffffffffffffff82610fb5565b610ffa8683610fb5565b95508019841693508086168417925050509392505050565b5f819050919050565b5f61103561103061102b846107f3565b611012565b6107f3565b9050919050565b5f819050919050565b61104e8361101b565b61106261105a8261103c565b848454610fc1565b825550505050565b5f5f905090565b61107961106a565b611084818484611045565b505050565b5f5b828110156110aa5761109f5f828401611071565b60018101905061108b565b505050565b601f8211156110fd57828211156110fc576110c981610f94565b6110d283610fa6565b6110db85610fa6565b60208610156110e8575f90505b8083016110f782840382611089565b505050505b5b505050565b5f82821c905092915050565b5f61111d5f1984600802611102565b1980831691505092915050565b5f611135838361110e565b9150826002028217905092915050565b61114e82610851565b67ffffffffffffffff81111561116757611166610b4a565b5b6111718254610efc565b61117c8282856110af565b5f60209050601f8311600181146111ad575f841561119b578287015190505b6111a5858261112a565b86555061120c565b601f1984166111bb86610f94565b5f5b828110156111e2578489015182556001820191506020850194506020810190506111bd565b868310156111ff57848901516111fb601f89168261110e565b8355505b6001600288020188555050505b50505050505056fea26469706673582212202d49862b793205abbc6e9d1c05c00532d3d54f9c3ce911cfc54c2a3bc93f9cbf64736f6c63430008220033",
					"opcodes": "PUSH1 0x80 PUSH1 0x40 MSTORE CALLVALUE DUP1 ISZERO PUSH2 0xF JUMPI PUSH0 PUSH0 REVERT JUMPDEST POP PUSH1 0x40 MLOAD PUSH2 0x177B CODESIZE SUB DUP1 PUSH2 0x177B DUP4 CODECOPY DUP2 DUP2 ADD PUSH1 0x40 MSTORE DUP2 ADD SWAP1 PUSH2 0x31 SWAP2 SWAP1 PUSH2 0x1ED JUMP JUMPDEST CALLER PUSH0 PUSH0 PUSH2 0x100 EXP DUP2 SLOAD DUP2 PUSH20 0xFFFFFFFFFFFFFFFFFFFFFFFFFFFFFFFFFFFFFFFF MUL NOT AND SWAP1 DUP4 PUSH20 0xFFFFFFFFFFFFFFFFFFFFFFFFFFFFFFFFFFFFFFFF AND MUL OR SWAP1 SSTORE POP DUP1 PUSH1 0x1 SWAP1 DUP2 PUSH2 0x7F SWAP2 SWAP1 PUSH2 0x455 JUMP JUMPDEST POP PUSH1 0x1 PUSH1 0x2 PUSH0 PUSH2 0x100 EXP DUP2 SLOAD DUP2 PUSH1 0xFF MUL NOT AND SWAP1 DUP4 ISZERO ISZERO MUL OR SWAP1 SSTORE POP POP PUSH2 0x524 JUMP JUMPDEST PUSH0 PUSH1 0x40 MLOAD SWAP1 POP SWAP1 JUMP JUMPDEST PUSH0 PUSH0 REVERT JUMPDEST PUSH0 PUSH0 REVERT JUMPDEST PUSH0 PUSH0 REVERT JUMPDEST PUSH0 PUSH0 REVERT JUMPDEST PUSH0 PUSH1 0x1F NOT PUSH1 0x1F DUP4 ADD AND SWAP1 POP SWAP2 SWAP1 POP JUMP JUMPDEST PUSH32 0x4E487B7100000000000000000000000000000000000000000000000000000000 PUSH0 MSTORE PUSH1 0x41 PUSH1 0x4 MSTORE PUSH1 0x24 PUSH0 REVERT JUMPDEST PUSH2 0xFF DUP3 PUSH2 0xB9 JUMP JUMPDEST DUP2 ADD DUP2 DUP2 LT PUSH8 0xFFFFFFFFFFFFFFFF DUP3 GT OR ISZERO PUSH2 0x11E JUMPI PUSH2 0x11D PUSH2 0xC9 JUMP JUMPDEST JUMPDEST DUP1 PUSH1 0x40 MSTORE POP POP POP JUMP JUMPDEST PUSH0 PUSH2 0x130 PUSH2 0xA0 JUMP JUMPDEST SWAP1 POP PUSH2 0x13C DUP3 DUP3 PUSH2 0xF6 JUMP JUMPDEST SWAP2 SWAP1 POP JUMP JUMPDEST PUSH0 PUSH8 0xFFFFFFFFFFFFFFFF DUP3 GT ISZERO PUSH2 0x15B JUMPI PUSH2 0x15A PUSH2 0xC9 JUMP JUMPDEST JUMPDEST PUSH2 0x164 DUP3 PUSH2 0xB9 JUMP JUMPDEST SWAP1 POP PUSH1 0x20 DUP2 ADD SWAP1 POP SWAP2 SWAP1 POP JUMP JUMPDEST DUP3 DUP2 DUP4 MCOPY PUSH0 DUP4 DUP4 ADD MSTORE POP POP POP JUMP JUMPDEST PUSH0 PUSH2 0x191 PUSH2 0x18C DUP5 PUSH2 0x141 JUMP JUMPDEST PUSH2 0x127 JUMP JUMPDEST SWAP1 POP DUP3 DUP2 MSTORE PUSH1 0x20 DUP2 ADD DUP5 DUP5 DUP5 ADD GT ISZERO PUSH2 0x1AD JUMPI PUSH2 0x1AC PUSH2 0xB5 JUMP JUMPDEST JUMPDEST PUSH2 0x1B8 DUP5 DUP3 DUP6 PUSH2 0x171 JUMP JUMPDEST POP SWAP4 SWAP3 POP POP POP JUMP JUMPDEST PUSH0 DUP3 PUSH1 0x1F DUP4 ADD SLT PUSH2 0x1D4 JUMPI PUSH2 0x1D3 PUSH2 0xB1 JUMP JUMPDEST JUMPDEST DUP2 MLOAD PUSH2 0x1E4 DUP5 DUP3 PUSH1 0x20 DUP7 ADD PUSH2 0x17F JUMP JUMPDEST SWAP2 POP POP SWAP3 SWAP2 POP POP JUMP JUMPDEST PUSH0 PUSH1 0x20 DUP3 DUP5 SUB SLT ISZERO PUSH2 0x202 JUMPI PUSH2 0x201 PUSH2 0xA9 JUMP JUMPDEST JUMPDEST PUSH0 DUP3 ADD MLOAD PUSH8 0xFFFFFFFFFFFFFFFF DUP2 GT ISZERO PUSH2 0x21F JUMPI PUSH2 0x21E PUSH2 0xAD JUMP JUMPDEST JUMPDEST PUSH2 0x22B DUP5 DUP3 DUP6 ADD PUSH2 0x1C0 JUMP JUMPDEST SWAP2 POP POP SWAP3 SWAP2 POP POP JUMP JUMPDEST PUSH0 DUP2 MLOAD SWAP1 POP SWAP2 SWAP1 POP JUMP JUMPDEST PUSH32 0x4E487B7100000000000000000000000000000000000000000000000000000000 PUSH0 MSTORE PUSH1 0x22 PUSH1 0x4 MSTORE PUSH1 0x24 PUSH0 REVERT JUMPDEST PUSH0 PUSH1 0x2 DUP3 DIV SWAP1 POP PUSH1 0x1 DUP3 AND DUP1 PUSH2 0x282 JUMPI PUSH1 0x7F DUP3 AND SWAP2 POP JUMPDEST PUSH1 0x20 DUP3 LT DUP2 SUB PUSH2 0x295 JUMPI PUSH2 0x294 PUSH2 0x23E JUMP JUMPDEST JUMPDEST POP SWAP2 SWAP1 POP JUMP JUMPDEST PUSH0 DUP2 SWAP1 POP DUP2 PUSH0 MSTORE PUSH1 0x20 PUSH0 KECCAK256 SWAP1 POP SWAP2 SWAP1 POP JUMP JUMPDEST PUSH0 PUSH1 0x20 PUSH1 0x1F DUP4 ADD DIV SWAP1 POP SWAP2 SWAP1 POP JUMP JUMPDEST PUSH0 DUP3 DUP3 SHL SWAP1 POP SWAP3 SWAP2 POP POP JUMP JUMPDEST PUSH0 PUSH1 0x8 DUP4 MUL PUSH2 0x2F7 PUSH32 0xFFFFFFFFFFFFFFFFFFFFFFFFFFFFFFFFFFFFFFFFFFFFFFFFFFFFFFFFFFFFFFFF DUP3 PUSH2 0x2BC JUMP JUMPDEST PUSH2 0x301 DUP7 DUP4 PUSH2 0x2BC JUMP JUMPDEST SWAP6 POP DUP1 NOT DUP5 AND SWAP4 POP DUP1 DUP7 AND DUP5 OR SWAP3 POP POP POP SWAP4 SWAP3 POP POP POP JUMP JUMPDEST PUSH0 DUP2 SWAP1 POP SWAP2 SWAP1 POP JUMP JUMPDEST PUSH0 DUP2 SWAP1 POP SWAP2 SWAP1 POP JUMP JUMPDEST PUSH0 PUSH2 0x345 PUSH2 0x340 PUSH2 0x33B DUP5 PUSH2 0x319 JUMP JUMPDEST PUSH2 0x322 JUMP JUMPDEST PUSH2 0x319 JUMP JUMPDEST SWAP1 POP SWAP2 SWAP1 POP JUMP JUMPDEST PUSH0 DUP2 SWAP1 POP SWAP2 SWAP1 POP JUMP JUMPDEST PUSH2 0x35E DUP4 PUSH2 0x32B JUMP JUMPDEST PUSH2 0x372 PUSH2 0x36A DUP3 PUSH2 0x34C JUMP JUMPDEST DUP5 DUP5 SLOAD PUSH2 0x2C8 JUMP JUMPDEST DUP3 SSTORE POP POP POP POP JUMP JUMPDEST PUSH0 PUSH0 SWAP1 POP SWAP1 JUMP JUMPDEST PUSH2 0x389 PUSH2 0x37A JUMP JUMPDEST PUSH2 0x394 DUP2 DUP5 DUP5 PUSH2 0x355 JUMP JUMPDEST POP POP POP JUMP JUMPDEST PUSH0 JUMPDEST DUP3 DUP2 LT ISZERO PUSH2 0x3BA JUMPI PUSH2 0x3AF PUSH0 DUP3 DUP5 ADD PUSH2 0x381 JUMP JUMPDEST PUSH1 0x1 DUP2 ADD SWAP1 POP PUSH2 0x39B JUMP JUMPDEST POP POP POP JUMP JUMPDEST PUSH1 0x1F DUP3 GT ISZERO PUSH2 0x40D JUMPI DUP3 DUP3 GT ISZERO PUSH2 0x40C JUMPI PUSH2 0x3D9 DUP2 PUSH2 0x29B JUMP JUMPDEST PUSH2 0x3E2 DUP4 PUSH2 0x2AD JUMP JUMPDEST PUSH2 0x3EB DUP6 PUSH2 0x2AD JUMP JUMPDEST PUSH1 0x20 DUP7 LT ISZERO PUSH2 0x3F8 JUMPI PUSH0 SWAP1 POP JUMPDEST DUP1 DUP4 ADD PUSH2 0x407 DUP3 DUP5 SUB DUP3 PUSH2 0x399 JUMP JUMPDEST POP POP POP POP JUMPDEST JUMPDEST POP POP POP JUMP JUMPDEST PUSH0 DUP3 DUP3 SHR SWAP1 POP SWAP3 SWAP2 POP POP JUMP JUMPDEST PUSH0 PUSH2 0x42D PUSH0 NOT DUP5 PUSH1 0x8 MUL PUSH2 0x412 JUMP JUMPDEST NOT DUP1 DUP4 AND SWAP2 POP POP SWAP3 SWAP2 POP POP JUMP JUMPDEST PUSH0 PUSH2 0x445 DUP4 DUP4 PUSH2 0x41E JUMP JUMPDEST SWAP2 POP DUP3 PUSH1 0x2 MUL DUP3 OR SWAP1 POP SWAP3 SWAP2 POP POP JUMP JUMPDEST PUSH2 0x45E DUP3 PUSH2 0x234 JUMP JUMPDEST PUSH8 0xFFFFFFFFFFFFFFFF DUP2 GT ISZERO PUSH2 0x477 JUMPI PUSH2 0x476 PUSH2 0xC9 JUMP JUMPDEST JUMPDEST PUSH2 0x481 DUP3 SLOAD PUSH2 0x26B JUMP JUMPDEST PUSH2 0x48C DUP3 DUP3 DUP6 PUSH2 0x3BF JUMP JUMPDEST PUSH0 PUSH1 0x20 SWAP1 POP PUSH1 0x1F DUP4 GT PUSH1 0x1 DUP2 EQ PUSH2 0x4BD JUMPI PUSH0 DUP5 ISZERO PUSH2 0x4AB JUMPI DUP3 DUP8 ADD MLOAD SWAP1 POP JUMPDEST PUSH2 0x4B5 DUP6 DUP3 PUSH2 0x43A JUMP JUMPDEST DUP7 SSTORE POP PUSH2 0x51C JUMP JUMPDEST PUSH1 0x1F NOT DUP5 AND PUSH2 0x4CB DUP7 PUSH2 0x29B JUMP JUMPDEST PUSH0 JUMPDEST DUP3 DUP2 LT ISZERO PUSH2 0x4F2 JUMPI DUP5 DUP10 ADD MLOAD DUP3 SSTORE PUSH1 0x1 DUP3 ADD SWAP2 POP PUSH1 0x20 DUP6 ADD SWAP5 POP PUSH1 0x20 DUP2 ADD SWAP1 POP PUSH2 0x4CD JUMP JUMPDEST DUP7 DUP4 LT ISZERO PUSH2 0x50F JUMPI DUP5 DUP10 ADD MLOAD PUSH2 0x50B PUSH1 0x1F DUP10 AND DUP3 PUSH2 0x41E JUMP JUMPDEST DUP4 SSTORE POP JUMPDEST PUSH1 0x1 PUSH1 0x2 DUP9 MUL ADD DUP9 SSTORE POP POP POP JUMPDEST POP POP POP POP POP POP JUMP JUMPDEST PUSH2 0x124A DUP1 PUSH2 0x531 PUSH0 CODECOPY PUSH0 RETURN INVALID PUSH1 0x80 PUSH1 0x40 MSTORE CALLVALUE DUP1 ISZERO PUSH2 0xF JUMPI PUSH0 PUSH0 REVERT JUMPDEST POP PUSH1 0x4 CALLDATASIZE LT PUSH2 0x9C JUMPI PUSH0 CALLDATALOAD PUSH1 0xE0 SHR DUP1 PUSH4 0x79ABF651 GT PUSH2 0x64 JUMPI DUP1 PUSH4 0x79ABF651 EQ PUSH2 0x133 JUMPI DUP1 PUSH4 0x9558B3C7 EQ PUSH2 0x163 JUMPI DUP1 PUSH4 0xDE603CE9 EQ PUSH2 0x181 JUMPI DUP1 PUSH4 0xF851A440 EQ PUSH2 0x19D JUMPI DUP1 PUSH4 0xFB61A561 EQ PUSH2 0x1BB JUMPI PUSH2 0x9C JUMP JUMPDEST DUP1 PUSH4 0x121B93F EQ PUSH2 0xA0 JUMPI DUP1 PUSH4 0x2A17B670 EQ PUSH2 0xBC JUMPI DUP1 PUSH4 0x58724B87 EQ PUSH2 0xDA JUMPI DUP1 PUSH4 0x621F3A8C EQ PUSH2 0xE4 JUMPI DUP1 PUSH4 0x77CD800B EQ PUSH2 0x115 JUMPI JUMPDEST PUSH0 PUSH0 REVERT JUMPDEST PUSH2 0xBA PUSH1 0x4 DUP1 CALLDATASIZE SUB DUP2 ADD SWAP1 PUSH2 0xB5 SWAP2 SWAP1 PUSH2 0x826 JUMP JUMPDEST PUSH2 0x1D9 JUMP JUMPDEST STOP JUMPDEST PUSH2 0xC4 PUSH2 0x38F JUMP JUMPDEST PUSH1 0x40 MLOAD PUSH2 0xD1 SWAP2 SWAP1 PUSH2 0x8C1 JUMP JUMPDEST PUSH1 0x40 MLOAD DUP1 SWAP2 SUB SWAP1 RETURN JUMPDEST PUSH2 0xE2 PUSH2 0x41B JUMP JUMPDEST STOP JUMPDEST PUSH2 0xFE PUSH1 0x4 DUP1 CALLDATASIZE SUB DUP2 ADD SWAP1 PUSH2 0xF9 SWAP2 SWAP1 PUSH2 0x826 JUMP JUMPDEST PUSH2 0x4C4 JUMP JUMPDEST PUSH1 0x40 MLOAD PUSH2 0x10C SWAP3 SWAP2 SWAP1 PUSH2 0x8F0 JUMP JUMPDEST PUSH1 0x40 MLOAD DUP1 SWAP2 SUB SWAP1 RETURN JUMPDEST PUSH2 0x11D PUSH2 0x5A0 JUMP JUMPDEST PUSH1 0x40 MLOAD PUSH2 0x12A SWAP2 SWAP1 PUSH2 0x938 JUMP JUMPDEST PUSH1 0x40 MLOAD DUP1 SWAP2 SUB SWAP1 RETURN JUMPDEST PUSH2 0x14D PUSH1 0x4 DUP1 CALLDATASIZE SUB DUP2 ADD SWAP1 PUSH2 0x148 SWAP2 SWAP1 PUSH2 0x9AB JUMP JUMPDEST PUSH2 0x5B2 JUMP JUMPDEST PUSH1 0x40 MLOAD PUSH2 0x15A SWAP2 SWAP1 PUSH2 0x938 JUMP JUMPDEST PUSH1 0x40 MLOAD DUP1 SWAP2 SUB SWAP1 RETURN JUMPDEST PUSH2 0x16B PUSH2 0x5CF JUMP JUMPDEST PUSH1 0x40 MLOAD PUSH2 0x178 SWAP2 SWAP1 PUSH2 0xB22 JUMP JUMPDEST PUSH1 0x40 MLOAD DUP1 SWAP2 SUB SWAP1 RETURN JUMPDEST PUSH2 0x19B PUSH1 0x4 DUP1 CALLDATASIZE SUB DUP2 ADD SWAP1 PUSH2 0x196 SWAP2 SWAP1 PUSH2 0xC6E JUMP JUMPDEST PUSH2 0x6C4 JUMP JUMPDEST STOP JUMPDEST PUSH2 0x1A5 PUSH2 0x7B2 JUMP JUMPDEST PUSH1 0x40 MLOAD PUSH2 0x1B2 SWAP2 SWAP1 PUSH2 0xCC4 JUMP JUMPDEST PUSH1 0x40 MLOAD DUP1 SWAP2 SUB SWAP1 RETURN JUMPDEST PUSH2 0x1C3 PUSH2 0x7D6 JUMP JUMPDEST PUSH1 0x40 MLOAD PUSH2 0x1D0 SWAP2 SWAP1 PUSH2 0xCDD JUMP JUMPDEST PUSH1 0x40 MLOAD DUP1 SWAP2 SUB SWAP1 RETURN JUMPDEST PUSH1 0x1 ISZERO ISZERO PUSH1 0x2 PUSH0 SWAP1 SLOAD SWAP1 PUSH2 0x100 EXP SWAP1 DIV PUSH1 0xFF AND ISZERO ISZERO EQ PUSH2 0x22E JUMPI PUSH1 0x40 MLOAD PUSH32 0x8C379A000000000000000000000000000000000000000000000000000000000 DUP2 MSTORE PUSH1 0x4 ADD PUSH2 0x225 SWAP1 PUSH2 0xD40 JUMP JUMPDEST PUSH1 0x40 MLOAD DUP1 SWAP2 SUB SWAP1 REVERT JUMPDEST PUSH1 0x4 PUSH0 CALLER PUSH20 0xFFFFFFFFFFFFFFFFFFFFFFFFFFFFFFFFFFFFFFFF AND PUSH20 0xFFFFFFFFFFFFFFFFFFFFFFFFFFFFFFFFFFFFFFFF AND DUP2 MSTORE PUSH1 0x20 ADD SWAP1 DUP2 MSTORE PUSH1 0x20 ADD PUSH0 KECCAK256 PUSH0 SWAP1 SLOAD SWAP1 PUSH2 0x100 EXP SWAP1 DIV PUSH1 0xFF AND ISZERO PUSH2 0x2B8 JUMPI PUSH1 0x40 MLOAD PUSH32 0x8C379A000000000000000000000000000000000000000000000000000000000 DUP2 MSTORE PUSH1 0x4 ADD PUSH2 0x2AF SWAP1 PUSH2 0xDA8 JUMP JUMPDEST PUSH1 0x40 MLOAD DUP1 SWAP2 SUB SWAP1 REVERT JUMPDEST PUSH1 0x3 DUP1 SLOAD SWAP1 POP DUP2 LT PUSH2 0x2FF JUMPI PUSH1 0x40 MLOAD PUSH32 0x8C379A000000000000000000000000000000000000000000000000000000000 DUP2 MSTORE PUSH1 0x4 ADD PUSH2 0x2F6 SWAP1 PUSH2 0xE10 JUMP JUMPDEST PUSH1 0x40 MLOAD DUP1 SWAP2 SUB SWAP1 REVERT JUMPDEST PUSH1 0x1 PUSH1 0x4 PUSH0 CALLER PUSH20 0xFFFFFFFFFFFFFFFFFFFFFFFFFFFFFFFFFFFFFFFF AND PUSH20 0xFFFFFFFFFFFFFFFFFFFFFFFFFFFFFFFFFFFFFFFF AND DUP2 MSTORE PUSH1 0x20 ADD SWAP1 DUP2 MSTORE PUSH1 0x20 ADD PUSH0 KECCAK256 PUSH0 PUSH2 0x100 EXP DUP2 SLOAD DUP2 PUSH1 0xFF MUL NOT AND SWAP1 DUP4 ISZERO ISZERO MUL OR SWAP1 SSTORE POP PUSH1 0x3 DUP2 DUP2 SLOAD DUP2 LT PUSH2 0x368 JUMPI PUSH2 0x367 PUSH2 0xE2E JUMP JUMPDEST JUMPDEST SWAP1 PUSH0 MSTORE PUSH1 0x20 PUSH0 KECCAK256 SWAP1 PUSH1 0x2 MUL ADD PUSH1 0x1 ADD PUSH0 DUP2 SLOAD DUP1 SWAP3 SWAP2 SWAP1 PUSH2 0x387 SWAP1 PUSH2 0xE88 JUMP JUMPDEST SWAP2 SWAP1 POP SSTORE POP POP JUMP JUMPDEST PUSH1 0x1 DUP1 SLOAD PUSH2 0x39C SWAP1 PUSH2 0xEFC JUMP JUMPDEST DUP1 PUSH1 0x1F ADD PUSH1 0x20 DUP1 SWAP2 DIV MUL PUSH1 0x20 ADD PUSH1 0x40 MLOAD SWAP1 DUP2 ADD PUSH1 0x40 MSTORE DUP1 SWAP3 SWAP2 SWAP1 DUP2 DUP2 MSTORE PUSH1 0x20 ADD DUP3 DUP1 SLOAD PUSH2 0x3C8 SWAP1 PUSH2 0xEFC JUMP JUMPDEST DUP1 ISZERO PUSH2 0x413 JUMPI DUP1 PUSH1 0x1F LT PUSH2 0x3EA JUMPI PUSH2 0x100 DUP1 DUP4 SLOAD DIV MUL DUP4 MSTORE SWAP2 PUSH1 0x20 ADD SWAP2 PUSH2 0x413 JUMP JUMPDEST DUP3 ADD SWAP2 SWAP1 PUSH0 MSTORE PUSH1 0x20 PUSH0 KECCAK256 SWAP1 JUMPDEST DUP2 SLOAD DUP2 MSTORE SWAP1 PUSH1 0x1 ADD SWAP1 PUSH1 0x20 ADD DUP1 DUP4 GT PUSH2 0x3F6 JUMPI DUP3 SWAP1 SUB PUSH1 0x1F AND DUP3 ADD SWAP2 JUMPDEST POP POP POP POP POP DUP2 JUMP JUMPDEST PUSH0 PUSH0 SWAP1 SLOAD SWAP1 PUSH2 0x100 EXP SWAP1 DIV PUSH20 0xFFFFFFFFFFFFFFFFFFFFFFFFFFFFFFFFFFFFFFFF AND PUSH20 0xFFFFFFFFFFFFFFFFFFFFFFFFFFFFFFFFFFFFFFFF AND CALLER PUSH20 0xFFFFFFFFFFFFFFFFFFFFFFFFFFFFFFFFFFFFFFFF AND EQ PUSH2 0x4A9 JUMPI PUSH1 0x40 MLOAD PUSH32 0x8C379A000000000000000000000000000000000000000000000000000000000 DUP2 MSTORE PUSH1 0x4 ADD PUSH2 0x4A0 SWAP1 PUSH2 0xF76 JUMP JUMPDEST PUSH1 0x40 MLOAD DUP1 SWAP2 SUB SWAP1 REVERT JUMPDEST PUSH0 PUSH1 0x2 PUSH0 PUSH2 0x100 EXP DUP2 SLOAD DUP2 PUSH1 0xFF MUL NOT AND SWAP1 DUP4 ISZERO ISZERO MUL OR SWAP1 SSTORE POP JUMP JUMPDEST PUSH1 0x60 PUSH0 PUSH1 0x3 DUP4 DUP2 SLOAD DUP2 LT PUSH2 0x4DB JUMPI PUSH2 0x4DA PUSH2 0xE2E JUMP JUMPDEST JUMPDEST SWAP1 PUSH0 MSTORE PUSH1 0x20 PUSH0 KECCAK256 SWAP1 PUSH1 0x2 MUL ADD PUSH0 ADD PUSH1 0x3 DUP5 DUP2 SLOAD DUP2 LT PUSH2 0x4FD JUMPI PUSH2 0x4FC PUSH2 0xE2E JUMP JUMPDEST JUMPDEST SWAP1 PUSH0 MSTORE PUSH1 0x20 PUSH0 KECCAK256 SWAP1 PUSH1 0x2 MUL ADD PUSH1 0x1 ADD SLOAD DUP2 DUP1 SLOAD PUSH2 0x519 SWAP1 PUSH2 0xEFC JUMP JUMPDEST DUP1 PUSH1 0x1F ADD PUSH1 0x20 DUP1 SWAP2 DIV MUL PUSH1 0x20 ADD PUSH1 0x40 MLOAD SWAP1 DUP2 ADD PUSH1 0x40 MSTORE DUP1 SWAP3 SWAP2 SWAP1 DUP2 DUP2 MSTORE PUSH1 0x20 ADD DUP3 DUP1 SLOAD PUSH2 0x545 SWAP1 PUSH2 0xEFC JUMP JUMPDEST DUP1 ISZERO PUSH2 0x590 JUMPI DUP1 PUSH1 0x1F LT PUSH2 0x567 JUMPI PUSH2 0x100 DUP1 DUP4 SLOAD DIV MUL DUP4 MSTORE SWAP2 PUSH1 0x20 ADD SWAP2 PUSH2 0x590 JUMP JUMPDEST DUP3 ADD SWAP2 SWAP1 PUSH0 MSTORE PUSH1 0x20 PUSH0 KECCAK256 SWAP1 JUMPDEST DUP2 SLOAD DUP2 MSTORE SWAP1 PUSH1 0x1 ADD SWAP1 PUSH1 0x20 ADD DUP1 DUP4 GT PUSH2 0x573 JUMPI DUP3 SWAP1 SUB PUSH1 0x1F AND DUP3 ADD SWAP2 JUMPDEST POP POP POP POP POP SWAP2 POP SWAP2 POP SWAP2 POP SWAP2 POP SWAP2 JUMP JUMPDEST PUSH1 0x2 PUSH0 SWAP1 SLOAD SWAP1 PUSH2 0x100 EXP SWAP1 DIV PUSH1 0xFF AND DUP2 JUMP JUMPDEST PUSH1 0x4 PUSH1 0x20 MSTORE DUP1 PUSH0 MSTORE PUSH1 0x40 PUSH0 KECCAK256 PUSH0 SWAP2 POP SLOAD SWAP1 PUSH2 0x100 EXP SWAP1 DIV PUSH1 0xFF AND DUP2 JUMP JUMPDEST PUSH1 0x60 PUSH1 0x3 DUP1 SLOAD DUP1 PUSH1 0x20 MUL PUSH1 0x20 ADD PUSH1 0x40 MLOAD SWAP1 DUP2 ADD PUSH1 0x40 MSTORE DUP1 SWAP3 SWAP2 SWAP1 DUP2 DUP2 MSTORE PUSH1 0x20 ADD PUSH0 SWAP1 JUMPDEST DUP3 DUP3 LT ISZERO PUSH2 0x6BB JUMPI DUP4 DUP3 SWAP1 PUSH0 MSTORE PUSH1 0x20 PUSH0 KECCAK256 SWAP1 PUSH1 0x2 MUL ADD PUSH1 0x40 MLOAD DUP1 PUSH1 0x40 ADD PUSH1 0x40 MSTORE SWAP1 DUP2 PUSH0 DUP3 ADD DUP1 SLOAD PUSH2 0x622 SWAP1 PUSH2 0xEFC JUMP JUMPDEST DUP1 PUSH1 0x1F ADD PUSH1 0x20 DUP1 SWAP2 DIV MUL PUSH1 0x20 ADD PUSH1 0x40 MLOAD SWAP1 DUP2 ADD PUSH1 0x40 MSTORE DUP1 SWAP3 SWAP2 SWAP1 DUP2 DUP2 MSTORE PUSH1 0x20 ADD DUP3 DUP1 SLOAD PUSH2 0x64E SWAP1 PUSH2 0xEFC JUMP JUMPDEST DUP1 ISZERO PUSH2 0x699 JUMPI DUP1 PUSH1 0x1F LT PUSH2 0x670 JUMPI PUSH2 0x100 DUP1 DUP4 SLOAD DIV MUL DUP4 MSTORE SWAP2 PUSH1 0x20 ADD SWAP2 PUSH2 0x699 JUMP JUMPDEST DUP3 ADD SWAP2 SWAP1 PUSH0 MSTORE PUSH1 0x20 PUSH0 KECCAK256 SWAP1 JUMPDEST DUP2 SLOAD DUP2 MSTORE SWAP1 PUSH1 0x1 ADD SWAP1 PUSH1 0x20 ADD DUP1 DUP4 GT PUSH2 0x67C JUMPI DUP3 SWAP1 SUB PUSH1 0x1F AND DUP3 ADD SWAP2 JUMPDEST POP POP POP POP POP DUP2 MSTORE PUSH1 0x20 ADD PUSH1 0x1 DUP3 ADD SLOAD DUP2 MSTORE POP POP DUP2 MSTORE PUSH1 0x20 ADD SWAP1 PUSH1 0x1 ADD SWAP1 PUSH2 0x5F2 JUMP JUMPDEST POP POP POP POP SWAP1 POP SWAP1 JUMP JUMPDEST PUSH0 PUSH0 SWAP1 SLOAD SWAP1 PUSH2 0x100 EXP SWAP1 DIV PUSH20 0xFFFFFFFFFFFFFFFFFFFFFFFFFFFFFFFFFFFFFFFF AND PUSH20 0xFFFFFFFFFFFFFFFFFFFFFFFFFFFFFFFFFFFFFFFF AND CALLER PUSH20 0xFFFFFFFFFFFFFFFFFFFFFFFFFFFFFFFFFFFFFFFF AND EQ PUSH2 0x752 JUMPI PUSH1 0x40 MLOAD PUSH32 0x8C379A000000000000000000000000000000000000000000000000000000000 DUP2 MSTORE PUSH1 0x4 ADD PUSH2 0x749 SWAP1 PUSH2 0xF76 JUMP JUMPDEST PUSH1 0x40 MLOAD DUP1 SWAP2 SUB SWAP1 REVERT JUMPDEST PUSH1 0x3 PUSH1 0x40 MLOAD DUP1 PUSH1 0x40 ADD PUSH1 0x40 MSTORE DUP1 DUP4 DUP2 MSTORE PUSH1 0x20 ADD PUSH0 DUP2 MSTORE POP SWAP1 DUP1 PUSH1 0x1 DUP2 SLOAD ADD DUP1 DUP3 SSTORE DUP1 SWAP2 POP POP PUSH1 0x1 SWAP1 SUB SWAP1 PUSH0 MSTORE PUSH1 0x20 PUSH0 KECCAK256 SWAP1 PUSH1 0x2 MUL ADD PUSH0 SWAP1 SWAP2 SWAP1 SWAP2 SWAP1 SWAP2 POP PUSH0 DUP3 ADD MLOAD DUP2 PUSH0 ADD SWAP1 DUP2 PUSH2 0x7A2 SWAP2 SWAP1 PUSH2 0x1145 JUMP JUMPDEST POP PUSH1 0x20 DUP3 ADD MLOAD DUP2 PUSH1 0x1 ADD SSTORE POP POP POP JUMP JUMPDEST PUSH0 PUSH0 SWAP1 SLOAD SWAP1 PUSH2 0x100 EXP SWAP1 DIV PUSH20 0xFFFFFFFFFFFFFFFFFFFFFFFFFFFFFFFFFFFFFFFF AND DUP2 JUMP JUMPDEST PUSH0 PUSH1 0x3 DUP1 SLOAD SWAP1 POP SWAP1 POP SWAP1 JUMP JUMPDEST PUSH0 PUSH1 0x40 MLOAD SWAP1 POP SWAP1 JUMP JUMPDEST PUSH0 PUSH0 REVERT JUMPDEST PUSH0 PUSH0 REVERT JUMPDEST PUSH0 DUP2 SWAP1 POP SWAP2 SWAP1 POP JUMP JUMPDEST PUSH2 0x805 DUP2 PUSH2 0x7F3 JUMP JUMPDEST DUP2 EQ PUSH2 0x80F JUMPI PUSH0 PUSH0 REVERT JUMPDEST POP JUMP JUMPDEST PUSH0 DUP2 CALLDATALOAD SWAP1 POP PUSH2 0x820 DUP2 PUSH2 0x7FC JUMP JUMPDEST SWAP3 SWAP2 POP POP JUMP JUMPDEST PUSH0 PUSH1 0x20 DUP3 DUP5 SUB SLT ISZERO PUSH2 0x83B JUMPI PUSH2 0x83A PUSH2 0x7EB JUMP JUMPDEST JUMPDEST PUSH0 PUSH2 0x848 DUP5 DUP3 DUP6 ADD PUSH2 0x812 JUMP JUMPDEST SWAP2 POP POP SWAP3 SWAP2 POP POP JUMP JUMPDEST PUSH0 DUP2 MLOAD SWAP1 POP SWAP2 SWAP1 POP JUMP JUMPDEST PUSH0 DUP3 DUP3 MSTORE PUSH1 0x20 DUP3 ADD SWAP1 POP SWAP3 SWAP2 POP POP JUMP JUMPDEST DUP3 DUP2 DUP4 MCOPY PUSH0 DUP4 DUP4 ADD MSTORE POP POP POP JUMP JUMPDEST PUSH0 PUSH1 0x1F NOT PUSH1 0x1F DUP4 ADD AND SWAP1 POP SWAP2 SWAP1 POP JUMP JUMPDEST PUSH0 PUSH2 0x893 DUP3 PUSH2 0x851 JUMP JUMPDEST PUSH2 0x89D DUP2 DUP6 PUSH2 0x85B JUMP JUMPDEST SWAP4 POP PUSH2 0x8AD DUP2 DUP6 PUSH1 0x20 DUP7 ADD PUSH2 0x86B JUMP JUMPDEST PUSH2 0x8B6 DUP2 PUSH2 0x879 JUMP JUMPDEST DUP5 ADD SWAP2 POP POP SWAP3 SWAP2 POP POP JUMP JUMPDEST PUSH0 PUSH1 0x20 DUP3 ADD SWAP1 POP DUP2 DUP2 SUB PUSH0 DUP4 ADD MSTORE PUSH2 0x8D9 DUP2 DUP5 PUSH2 0x889 JUMP JUMPDEST SWAP1 POP SWAP3 SWAP2 POP POP JUMP JUMPDEST PUSH2 0x8EA DUP2 PUSH2 0x7F3 JUMP JUMPDEST DUP3 MSTORE POP POP JUMP JUMPDEST PUSH0 PUSH1 0x40 DUP3 ADD SWAP1 POP DUP2 DUP2 SUB PUSH0 DUP4 ADD MSTORE PUSH2 0x908 DUP2 DUP6 PUSH2 0x889 JUMP JUMPDEST SWAP1 POP PUSH2 0x917 PUSH1 0x20 DUP4 ADD DUP5 PUSH2 0x8E1 JUMP JUMPDEST SWAP4 SWAP3 POP POP POP JUMP JUMPDEST PUSH0 DUP2 ISZERO ISZERO SWAP1 POP SWAP2 SWAP1 POP JUMP JUMPDEST PUSH2 0x932 DUP2 PUSH2 0x91E JUMP JUMPDEST DUP3 MSTORE POP POP JUMP JUMPDEST PUSH0 PUSH1 0x20 DUP3 ADD SWAP1 POP PUSH2 0x94B PUSH0 DUP4 ADD DUP5 PUSH2 0x929 JUMP JUMPDEST SWAP3 SWAP2 POP POP JUMP JUMPDEST PUSH0 PUSH20 0xFFFFFFFFFFFFFFFFFFFFFFFFFFFFFFFFFFFFFFFF DUP3 AND SWAP1 POP SWAP2 SWAP1 POP JUMP JUMPDEST PUSH0 PUSH2 0x97A DUP3 PUSH2 0x951 JUMP JUMPDEST SWAP1 POP SWAP2 SWAP1 POP JUMP JUMPDEST PUSH2 0x98A DUP2 PUSH2 0x970 JUMP JUMPDEST DUP2 EQ PUSH2 0x994 JUMPI PUSH0 PUSH0 REVERT JUMPDEST POP JUMP JUMPDEST PUSH0 DUP2 CALLDATALOAD SWAP1 POP PUSH2 0x9A5 DUP2 PUSH2 0x981 JUMP JUMPDEST SWAP3 SWAP2 POP POP JUMP JUMPDEST PUSH0 PUSH1 0x20 DUP3 DUP5 SUB SLT ISZERO PUSH2 0x9C0 JUMPI PUSH2 0x9BF PUSH2 0x7EB JUMP JUMPDEST JUMPDEST PUSH0 PUSH2 0x9CD DUP5 DUP3 DUP6 ADD PUSH2 0x997 JUMP JUMPDEST SWAP2 POP POP SWAP3 SWAP2 POP POP JUMP JUMPDEST PUSH0 DUP2 MLOAD SWAP1 POP SWAP2 SWAP1 POP JUMP JUMPDEST PUSH0 DUP3 DUP3 MSTORE PUSH1 0x20 DUP3 ADD SWAP1 POP SWAP3 SWAP2 POP POP JUMP JUMPDEST PUSH0 DUP2 SWAP1 POP PUSH1 0x20 DUP3 ADD SWAP1 POP SWAP2 SWAP1 POP JUMP JUMPDEST PUSH0 DUP3 DUP3 MSTORE PUSH1 0x20 DUP3 ADD SWAP1 POP SWAP3 SWAP2 POP POP JUMP JUMPDEST PUSH0 PUSH2 0xA19 DUP3 PUSH2 0x851 JUMP JUMPDEST PUSH2 0xA23 DUP2 DUP6 PUSH2 0x9FF JUMP JUMPDEST SWAP4 POP PUSH2 0xA33 DUP2 DUP6 PUSH1 0x20 DUP7 ADD PUSH2 0x86B JUMP JUMPDEST PUSH2 0xA3C DUP2 PUSH2 0x879 JUMP JUMPDEST DUP5 ADD SWAP2 POP POP SWAP3 SWAP2 POP POP JUMP JUMPDEST PUSH2 0xA50 DUP2 PUSH2 0x7F3 JUMP JUMPDEST DUP3 MSTORE POP POP JUMP JUMPDEST PUSH0 PUSH1 0x40 DUP4 ADD PUSH0 DUP4 ADD MLOAD DUP5 DUP3 SUB PUSH0 DUP7 ADD MSTORE PUSH2 0xA70 DUP3 DUP3 PUSH2 0xA0F JUMP JUMPDEST SWAP2 POP POP PUSH1 0x20 DUP4 ADD MLOAD PUSH2 0xA85 PUSH1 0x20 DUP7 ADD DUP3 PUSH2 0xA47 JUMP JUMPDEST POP DUP1 SWAP2 POP POP SWAP3 SWAP2 POP POP JUMP JUMPDEST PUSH0 PUSH2 0xA9B DUP4 DUP4 PUSH2 0xA56 JUMP JUMPDEST SWAP1 POP SWAP3 SWAP2 POP POP JUMP JUMPDEST PUSH0 PUSH1 0x20 DUP3 ADD SWAP1 POP SWAP2 SWAP1 POP JUMP JUMPDEST PUSH0 PUSH2 0xAB9 DUP3 PUSH2 0x9D6 JUMP JUMPDEST PUSH2 0xAC3 DUP2 DUP6 PUSH2 0x9E0 JUMP JUMPDEST SWAP4 POP DUP4 PUSH1 0x20 DUP3 MUL DUP6 ADD PUSH2 0xAD5 DUP6 PUSH2 0x9F0 JUMP JUMPDEST DUP1 PUSH0 JUMPDEST DUP6 DUP2 LT ISZERO PUSH2 0xB10 JUMPI DUP5 DUP5 SUB DUP10 MSTORE DUP2 MLOAD PUSH2 0xAF1 DUP6 DUP3 PUSH2 0xA90 JUMP JUMPDEST SWAP5 POP PUSH2 0xAFC DUP4 PUSH2 0xAA3 JUMP JUMPDEST SWAP3 POP PUSH1 0x20 DUP11 ADD SWAP10 POP POP PUSH1 0x1 DUP2 ADD SWAP1 POP PUSH2 0xAD8 JUMP JUMPDEST POP DUP3 SWAP8 POP DUP8 SWAP6 POP POP POP POP POP POP SWAP3 SWAP2 POP POP JUMP JUMPDEST PUSH0 PUSH1 0x20 DUP3 ADD SWAP1 POP DUP2 DUP2 SUB PUSH0 DUP4 ADD MSTORE PUSH2 0xB3A DUP2 DUP5 PUSH2 0xAAF JUMP JUMPDEST SWAP1 POP SWAP3 SWAP2 POP POP JUMP JUMPDEST PUSH0 PUSH0 REVERT JUMPDEST PUSH0 PUSH0 REVERT JUMPDEST PUSH32 0x4E487B7100000000000000000000000000000000000000000000000000000000 PUSH0 MSTORE PUSH1 0x41 PUSH1 0x4 MSTORE PUSH1 0x24 PUSH0 REVERT JUMPDEST PUSH2 0xB80 DUP3 PUSH2 0x879 JUMP JUMPDEST DUP2 ADD DUP2 DUP2 LT PUSH8 0xFFFFFFFFFFFFFFFF DUP3 GT OR ISZERO PUSH2 0xB9F JUMPI PUSH2 0xB9E PUSH2 0xB4A JUMP JUMPDEST JUMPDEST DUP1 PUSH1 0x40 MSTORE POP POP POP JUMP JUMPDEST PUSH0 PUSH2 0xBB1 PUSH2 0x7E2 JUMP JUMPDEST SWAP1 POP PUSH2 0xBBD DUP3 DUP3 PUSH2 0xB77 JUMP JUMPDEST SWAP2 SWAP1 POP JUMP JUMPDEST PUSH0 PUSH8 0xFFFFFFFFFFFFFFFF DUP3 GT ISZERO PUSH2 0xBDC JUMPI PUSH2 0xBDB PUSH2 0xB4A JUMP JUMPDEST JUMPDEST PUSH2 0xBE5 DUP3 PUSH2 0x879 JUMP JUMPDEST SWAP1 POP PUSH1 0x20 DUP2 ADD SWAP1 POP SWAP2 SWAP1 POP JUMP JUMPDEST DUP3 DUP2 DUP4 CALLDATACOPY PUSH0 DUP4 DUP4 ADD MSTORE POP POP POP JUMP JUMPDEST PUSH0 PUSH2 0xC12 PUSH2 0xC0D DUP5 PUSH2 0xBC2 JUMP JUMPDEST PUSH2 0xBA8 JUMP JUMPDEST SWAP1 POP DUP3 DUP2 MSTORE PUSH1 0x20 DUP2 ADD DUP5 DUP5 DUP5 ADD GT ISZERO PUSH2 0xC2E JUMPI PUSH2 0xC2D PUSH2 0xB46 JUMP JUMPDEST JUMPDEST PUSH2 0xC39 DUP5 DUP3 DUP6 PUSH2 0xBF2 JUMP JUMPDEST POP SWAP4 SWAP3 POP POP POP JUMP JUMPDEST PUSH0 DUP3 PUSH1 0x1F DUP4 ADD SLT PUSH2 0xC55 JUMPI PUSH2 0xC54 PUSH2 0xB42 JUMP JUMPDEST JUMPDEST DUP2 CALLDATALOAD PUSH2 0xC65 DUP5 DUP3 PUSH1 0x20 DUP7 ADD PUSH2 0xC00 JUMP JUMPDEST SWAP2 POP POP SWAP3 SWAP2 POP POP JUMP JUMPDEST PUSH0 PUSH1 0x20 DUP3 DUP5 SUB SLT ISZERO PUSH2 0xC83 JUMPI PUSH2 0xC82 PUSH2 0x7EB JUMP JUMPDEST JUMPDEST PUSH0 DUP3 ADD CALLDATALOAD PUSH8 0xFFFFFFFFFFFFFFFF DUP2 GT ISZERO PUSH2 0xCA0 JUMPI PUSH2 0xC9F PUSH2 0x7EF JUMP JUMPDEST JUMPDEST PUSH2 0xCAC DUP5 DUP3 DUP6 ADD PUSH2 0xC41 JUMP JUMPDEST SWAP2 POP POP SWAP3 SWAP2 POP POP JUMP JUMPDEST PUSH2 0xCBE DUP2 PUSH2 0x970 JUMP JUMPDEST DUP3 MSTORE POP POP JUMP JUMPDEST PUSH0 PUSH1 0x20 DUP3 ADD SWAP1 POP PUSH2 0xCD7 PUSH0 DUP4 ADD DUP5 PUSH2 0xCB5 JUMP JUMPDEST SWAP3 SWAP2 POP POP JUMP JUMPDEST PUSH0 PUSH1 0x20 DUP3 ADD SWAP1 POP PUSH2 0xCF0 PUSH0 DUP4 ADD DUP5 PUSH2 0x8E1 JUMP JUMPDEST SWAP3 SWAP2 POP POP JUMP JUMPDEST PUSH32 0x566F74696E672073756461682064697475747570210000000000000000000000 PUSH0 DUP3 ADD MSTORE POP JUMP JUMPDEST PUSH0 PUSH2 0xD2A PUSH1 0x15 DUP4 PUSH2 0x85B JUMP JUMPDEST SWAP2 POP PUSH2 0xD35 DUP3 PUSH2 0xCF6 JUMP JUMPDEST PUSH1 0x20 DUP3 ADD SWAP1 POP SWAP2 SWAP1 POP JUMP JUMPDEST PUSH0 PUSH1 0x20 DUP3 ADD SWAP1 POP DUP2 DUP2 SUB PUSH0 DUP4 ADD MSTORE PUSH2 0xD57 DUP2 PUSH2 0xD1E JUMP JUMPDEST SWAP1 POP SWAP2 SWAP1 POP JUMP JUMPDEST PUSH32 0x416E646120737564616820766F74696E67210000000000000000000000000000 PUSH0 DUP3 ADD MSTORE POP JUMP JUMPDEST PUSH0 PUSH2 0xD92 PUSH1 0x12 DUP4 PUSH2 0x85B JUMP JUMPDEST SWAP2 POP PUSH2 0xD9D DUP3 PUSH2 0xD5E JUMP JUMPDEST PUSH1 0x20 DUP3 ADD SWAP1 POP SWAP2 SWAP1 POP JUMP JUMPDEST PUSH0 PUSH1 0x20 DUP3 ADD SWAP1 POP DUP2 DUP2 SUB PUSH0 DUP4 ADD MSTORE PUSH2 0xDBF DUP2 PUSH2 0xD86 JUMP JUMPDEST SWAP1 POP SWAP2 SWAP1 POP JUMP JUMPDEST PUSH32 0x4F70736920746964616B2076616C696421000000000000000000000000000000 PUSH0 DUP3 ADD MSTORE POP JUMP JUMPDEST PUSH0 PUSH2 0xDFA PUSH1 0x11 DUP4 PUSH2 0x85B JUMP JUMPDEST SWAP2 POP PUSH2 0xE05 DUP3 PUSH2 0xDC6 JUMP JUMPDEST PUSH1 0x20 DUP3 ADD SWAP1 POP SWAP2 SWAP1 POP JUMP JUMPDEST PUSH0 PUSH1 0x20 DUP3 ADD SWAP1 POP DUP2 DUP2 SUB PUSH0 DUP4 ADD MSTORE PUSH2 0xE27 DUP2 PUSH2 0xDEE JUMP JUMPDEST SWAP1 POP SWAP2 SWAP1 POP JUMP JUMPDEST PUSH32 0x4E487B7100000000000000000000000000000000000000000000000000000000 PUSH0 MSTORE PUSH1 0x32 PUSH1 0x4 MSTORE PUSH1 0x24 PUSH0 REVERT JUMPDEST PUSH32 0x4E487B7100000000000000000000000000000000000000000000000000000000 PUSH0 MSTORE PUSH1 0x11 PUSH1 0x4 MSTORE PUSH1 0x24 PUSH0 REVERT JUMPDEST PUSH0 PUSH2 0xE92 DUP3 PUSH2 0x7F3 JUMP JUMPDEST SWAP2 POP PUSH32 0xFFFFFFFFFFFFFFFFFFFFFFFFFFFFFFFFFFFFFFFFFFFFFFFFFFFFFFFFFFFFFFFF DUP3 SUB PUSH2 0xEC4 JUMPI PUSH2 0xEC3 PUSH2 0xE5B JUMP JUMPDEST JUMPDEST PUSH1 0x1 DUP3 ADD SWAP1 POP SWAP2 SWAP1 POP JUMP JUMPDEST PUSH32 0x4E487B7100000000000000000000000000000000000000000000000000000000 PUSH0 MSTORE PUSH1 0x22 PUSH1 0x4 MSTORE PUSH1 0x24 PUSH0 REVERT JUMPDEST PUSH0 PUSH1 0x2 DUP3 DIV SWAP1 POP PUSH1 0x1 DUP3 AND DUP1 PUSH2 0xF13 JUMPI PUSH1 0x7F DUP3 AND SWAP2 POP JUMPDEST PUSH1 0x20 DUP3 LT DUP2 SUB PUSH2 0xF26 JUMPI PUSH2 0xF25 PUSH2 0xECF JUMP JUMPDEST JUMPDEST POP SWAP2 SWAP1 POP JUMP JUMPDEST PUSH32 0x48616E79612061646D696E210000000000000000000000000000000000000000 PUSH0 DUP3 ADD MSTORE POP JUMP JUMPDEST PUSH0 PUSH2 0xF60 PUSH1 0xC DUP4 PUSH2 0x85B JUMP JUMPDEST SWAP2 POP PUSH2 0xF6B DUP3 PUSH2 0xF2C JUMP JUMPDEST PUSH1 0x20 DUP3 ADD SWAP1 POP SWAP2 SWAP1 POP JUMP JUMPDEST PUSH0 PUSH1 0x20 DUP3 ADD SWAP1 POP DUP2 DUP2 SUB PUSH0 DUP4 ADD MSTORE PUSH2 0xF8D DUP2 PUSH2 0xF54 JUMP JUMPDEST SWAP1 POP SWAP2 SWAP1 POP JUMP JUMPDEST PUSH0 DUP2 SWAP1 POP DUP2 PUSH0 MSTORE PUSH1 0x20 PUSH0 KECCAK256 SWAP1 POP SWAP2 SWAP1 POP JUMP JUMPDEST PUSH0 PUSH1 0x20 PUSH1 0x1F DUP4 ADD DIV SWAP1 POP SWAP2 SWAP1 POP JUMP JUMPDEST PUSH0 DUP3 DUP3 SHL SWAP1 POP SWAP3 SWAP2 POP POP JUMP JUMPDEST PUSH0 PUSH1 0x8 DUP4 MUL PUSH2 0xFF0 PUSH32 0xFFFFFFFFFFFFFFFFFFFFFFFFFFFFFFFFFFFFFFFFFFFFFFFFFFFFFFFFFFFFFFFF DUP3 PUSH2 0xFB5 JUMP JUMPDEST PUSH2 0xFFA DUP7 DUP4 PUSH2 0xFB5 JUMP JUMPDEST SWAP6 POP DUP1 NOT DUP5 AND SWAP4 POP DUP1 DUP7 AND DUP5 OR SWAP3 POP POP POP SWAP4 SWAP3 POP POP POP JUMP JUMPDEST PUSH0 DUP2 SWAP1 POP SWAP2 SWAP1 POP JUMP JUMPDEST PUSH0 PUSH2 0x1035 PUSH2 0x1030 PUSH2 0x102B DUP5 PUSH2 0x7F3 JUMP JUMPDEST PUSH2 0x1012 JUMP JUMPDEST PUSH2 0x7F3 JUMP JUMPDEST SWAP1 POP SWAP2 SWAP1 POP JUMP JUMPDEST PUSH0 DUP2 SWAP1 POP SWAP2 SWAP1 POP JUMP JUMPDEST PUSH2 0x104E DUP4 PUSH2 0x101B JUMP JUMPDEST PUSH2 0x1062 PUSH2 0x105A DUP3 PUSH2 0x103C JUMP JUMPDEST DUP5 DUP5 SLOAD PUSH2 0xFC1 JUMP JUMPDEST DUP3 SSTORE POP POP POP POP JUMP JUMPDEST PUSH0 PUSH0 SWAP1 POP SWAP1 JUMP JUMPDEST PUSH2 0x1079 PUSH2 0x106A JUMP JUMPDEST PUSH2 0x1084 DUP2 DUP5 DUP5 PUSH2 0x1045 JUMP JUMPDEST POP POP POP JUMP JUMPDEST PUSH0 JUMPDEST DUP3 DUP2 LT ISZERO PUSH2 0x10AA JUMPI PUSH2 0x109F PUSH0 DUP3 DUP5 ADD PUSH2 0x1071 JUMP JUMPDEST PUSH1 0x1 DUP2 ADD SWAP1 POP PUSH2 0x108B JUMP JUMPDEST POP POP POP JUMP JUMPDEST PUSH1 0x1F DUP3 GT ISZERO PUSH2 0x10FD JUMPI DUP3 DUP3 GT ISZERO PUSH2 0x10FC JUMPI PUSH2 0x10C9 DUP2 PUSH2 0xF94 JUMP JUMPDEST PUSH2 0x10D2 DUP4 PUSH2 0xFA6 JUMP JUMPDEST PUSH2 0x10DB DUP6 PUSH2 0xFA6 JUMP JUMPDEST PUSH1 0x20 DUP7 LT ISZERO PUSH2 0x10E8 JUMPI PUSH0 SWAP1 POP JUMPDEST DUP1 DUP4 ADD PUSH2 0x10F7 DUP3 DUP5 SUB DUP3 PUSH2 0x1089 JUMP JUMPDEST POP POP POP POP JUMPDEST JUMPDEST POP POP POP JUMP JUMPDEST PUSH0 DUP3 DUP3 SHR SWAP1 POP SWAP3 SWAP2 POP POP JUMP JUMPDEST PUSH0 PUSH2 0x111D PUSH0 NOT DUP5 PUSH1 0x8 MUL PUSH2 0x1102 JUMP JUMPDEST NOT DUP1 DUP4 AND SWAP2 POP POP SWAP3 SWAP2 POP POP JUMP JUMPDEST PUSH0 PUSH2 0x1135 DUP4 DUP4 PUSH2 0x110E JUMP JUMPDEST SWAP2 POP DUP3 PUSH1 0x2 MUL DUP3 OR SWAP1 POP SWAP3 SWAP2 POP POP JUMP JUMPDEST PUSH2 0x114E DUP3 PUSH2 0x851 JUMP JUMPDEST PUSH8 0xFFFFFFFFFFFFFFFF DUP2 GT ISZERO PUSH2 0x1167 JUMPI PUSH2 0x1166 PUSH2 0xB4A JUMP JUMPDEST JUMPDEST PUSH2 0x1171 DUP3 SLOAD PUSH2 0xEFC JUMP JUMPDEST PUSH2 0x117C DUP3 DUP3 DUP6 PUSH2 0x10AF JUMP JUMPDEST PUSH0 PUSH1 0x20 SWAP1 POP PUSH1 0x1F DUP4 GT PUSH1 0x1 DUP2 EQ PUSH2 0x11AD JUMPI PUSH0 DUP5 ISZERO PUSH2 0x119B JUMPI DUP3 DUP8 ADD MLOAD SWAP1 POP JUMPDEST PUSH2 0x11A5 DUP6 DUP3 PUSH2 0x112A JUMP JUMPDEST DUP7 SSTORE POP PUSH2 0x120C JUMP JUMPDEST PUSH1 0x1F NOT DUP5 AND PUSH2 0x11BB DUP7 PUSH2 0xF94 JUMP JUMPDEST PUSH0 JUMPDEST DUP3 DUP2 LT ISZERO PUSH2 0x11E2 JUMPI DUP5 DUP10 ADD MLOAD DUP3 SSTORE PUSH1 0x1 DUP3 ADD SWAP2 POP PUSH1 0x20 DUP6 ADD SWAP5 POP PUSH1 0x20 DUP2 ADD SWAP1 POP PUSH2 0x11BD JUMP JUMPDEST DUP7 DUP4 LT ISZERO PUSH2 0x11FF JUMPI DUP5 DUP10 ADD MLOAD PUSH2 0x11FB PUSH1 0x1F DUP10 AND DUP3 PUSH2 0x110E JUMP JUMPDEST DUP4 SSTORE POP JUMPDEST PUSH1 0x1 PUSH1 0x2 DUP9 MUL ADD DUP9 SSTORE POP POP POP JUMPDEST POP POP POP POP POP POP JUMP INVALID LOG2 PUSH5 0x6970667358 0x22 SLT KECCAK256 0x2D BLOBHASH DUP7 0x2B PUSH26 0x3205ABBC6E9D1C05C00532D3D54F9C3CE911CFC54C2A3BC93F9C 0xBF PUSH5 0x736F6C6343 STOP ADDMOD 0x22 STOP CALLER "
				},
				"gasEstimates": {
					"creation": {
						"codeDepositCost": "936400",
						"executionCost": "infinite",
						"totalCost": "infinite"
					},
					"external": {
						"admin()": "2573",
						"getJumlahOpsi()": "2528",
						"getOpsi(uint256)": "infinite",
						"getSemuaOpsi()": "infinite",
						"judulVoting()": "infinite",
						"sudahMemilih(address)": "2833",
						"tambahOpsi(string)": "infinite",
						"tutupVoting()": "26621",
						"vote(uint256)": "infinite",
						"votingAktif()": "2555"
					}
				},
				"methodIdentifiers": {
					"admin()": "f851a440",
					"getJumlahOpsi()": "fb61a561",
					"getOpsi(uint256)": "621f3a8c",
					"getSemuaOpsi()": "9558b3c7",
					"judulVoting()": "2a17b670",
					"sudahMemilih(address)": "79abf651",
					"tambahOpsi(string)": "de603ce9",
					"tutupVoting()": "58724b87",
					"vote(uint256)": "0121b93f",
					"votingAktif()": "77cd800b"
				}
			},
			"storageLayout": {
				"storage": [
					{
						"astId": 3,
						"contract": "EVotingLingkungan.sol:EVotingLingkungan",
						"label": "admin",
						"offset": 0,
						"slot": "0",
						"type": "t_address"
					},
					{
						"astId": 5,
						"contract": "EVotingLingkungan.sol:EVotingLingkungan",
						"label": "judulVoting",
						"offset": 0,
						"slot": "1",
						"type": "t_string_storage"
					},
					{
						"astId": 7,
						"contract": "EVotingLingkungan.sol:EVotingLingkungan",
						"label": "votingAktif",
						"offset": 0,
						"slot": "2",
						"type": "t_bool"
					},
					{
						"astId": 16,
						"contract": "EVotingLingkungan.sol:EVotingLingkungan",
						"label": "daftarOpsi",
						"offset": 0,
						"slot": "3",
						"type": "t_array(t_struct(Opsi)12_storage)dyn_storage"
					},
					{
						"astId": 20,
						"contract": "EVotingLingkungan.sol:EVotingLingkungan",
						"label": "sudahMemilih",
						"offset": 0,
						"slot": "4",
						"type": "t_mapping(t_address,t_bool)"
					}
				],
				"types": {
					"t_address": {
						"encoding": "inplace",
						"label": "address",
						"numberOfBytes": "20"
					},
					"t_array(t_struct(Opsi)12_storage)dyn_storage": {
						"base": "t_struct(Opsi)12_storage",
						"encoding": "dynamic_array",
						"label": "struct EVotingLingkungan.Opsi[]",
						"numberOfBytes": "32"
					},
					"t_bool": {
						"encoding": "inplace",
						"label": "bool",
						"numberOfBytes": "1"
					},
					"t_mapping(t_address,t_bool)": {
						"encoding": "mapping",
						"key": "t_address",
						"label": "mapping(address => bool)",
						"numberOfBytes": "32",
						"value": "t_bool"
					},
					"t_string_storage": {
						"encoding": "bytes",
						"label": "string",
						"numberOfBytes": "32"
					},
					"t_struct(Opsi)12_storage": {
						"encoding": "inplace",
						"label": "struct EVotingLingkungan.Opsi",
						"members": [
							{
								"astId": 9,
								"contract": "EVotingLingkungan.sol:EVotingLingkungan",
								"label": "nama",
								"offset": 0,
								"slot": "0",
								"type": "t_string_storage"
							},
							{
								"astId": 11,
								"contract": "EVotingLingkungan.sol:EVotingLingkungan",
								"label": "jumlahSuara",
								"offset": 0,
								"slot": "1",
								"type": "t_uint256"
							}
						],
						"numberOfBytes": "64"
					},
					"t_uint256": {
						"encoding": "inplace",
						"label": "uint256",
						"numberOfBytes": "32"
					}
				}
			},
			"userdoc": {
				"kind": "user",
				"methods": {},
				"version": 1
			}
		}
	}
}