{
	"EVotingLingkungan.sol": {
		"EVotingLingkungan": {
			"abi": [
				{
					"inputs": [],
					"stateMutability": "nonpayable",
					"type": "constructor"
				},
				{
					"anonymous": false,
					"inputs": [
						{
							"indexed": true,
							"internalType": "uint256",
							"name": "votingId",
							"type": "uint256"
						},
						{
							"indexed": false,
							"internalType": "uint256",
							"name": "pilihanId",
							"type": "uint256"
						},
						{
							"indexed": false,
							"internalType": "string",
							"name": "namaPemenang",
							"type": "string"
						},
						{
							"indexed": false,
							"internalType": "uint256",
							"name": "jumlahSuara",
							"type": "uint256"
						}
					],
					"name": "PemenangTerpilih",
					"type": "event"
				},
				{
					"anonymous": false,
					"inputs": [
						{
							"indexed": true,
							"internalType": "uint256",
							"name": "votingId",
							"type": "uint256"
						},
						{
							"indexed": true,
							"internalType": "address",
							"name": "pemilih",
							"type": "address"
						},
						{
							"indexed": true,
							"internalType": "uint256",
							"name": "pilihanId",
							"type": "uint256"
						},
						{
							"indexed": false,
							"internalType": "string",
							"name": "namaPilihan",
							"type": "string"
						}
					],
					"name": "SuaraDiberikan",
					"type": "event"
				},
				{
					"anonymous": false,
					"inputs": [
						{
							"indexed": true,
							"internalType": "uint256",
							"name": "votingId",
							"type": "uint256"
						},
						{
							"indexed": false,
							"internalType": "string",
							"name": "judul",
							"type": "string"
						},
						{
							"indexed": false,
							"internalType": "uint256",
							"name": "waktuMulai",
							"type": "uint256"
						}
					],
					"name": "VotingDibuat",
					"type": "event"
				},
				{
					"anonymous": false,
					"inputs": [
						{
							"indexed": true,
							"internalType": "uint256",
							"name": "votingId",
							"type": "uint256"
						},
						{
							"indexed": false,
							"internalType": "string",
							"name": "judul",
							"type": "string"
						},
						{
							"indexed": false,
							"internalType": "uint256",
							"name": "totalSuara",
							"type": "uint256"
						}
					],
					"name": "VotingDitutup",
					"type": "event"
				},
				{
					"inputs": [
						{
							"internalType": "uint256",
							"name": "_votingId",
							"type": "uint256"
						},
						{
							"internalType": "uint256",
							"name": "_pilihanId",
							"type": "uint256"
						}
					],
					"name": "berikanSuara",
					"outputs": [],
					"stateMutability": "nonpayable",
					"type": "function"
				},
				{
					"inputs": [
						{
							"internalType": "string",
							"name": "_judul",
							"type": "string"
						},
						{
							"internalType": "string",
							"name": "_deskripsi",
							"type": "string"
						},
						{
							"internalType": "string[]",
							"name": "_pilihan",
							"type": "string[]"
						},
						{
							"internalType": "uint256",
							"name": "_durasiJam",
							"type": "uint256"
						}
					],
					"name": "buatVoting",
					"outputs": [],
					"stateMutability": "nonpayable",
					"type": "function"
				},
				{
					"inputs": [],
					"name": "daftarSemuaVoting",
					"outputs": [
						{
							"internalType": "uint256[]",
							"name": "ids",
							"type": "uint256[]"
						},
						{
							"internalType": "string[]",
							"name": "juduls",
							"type": "string[]"
						},
						{
							"internalType": "bool[]",
							"name": "statusAktif",
							"type": "bool[]"
						},
						{
							"internalType": "uint256[]",
							"name": "totalSuaras",
							"type": "uint256[]"
						}
					],
					"stateMutability": "view",
					"type": "function"
				},
				{
					"inputs": [
						{
							"internalType": "uint256",
							"name": "_votingId",
							"type": "uint256"
						}
					],
					"name": "infoVoting",
					"outputs": [
						{
							"internalType": "string",
							"name": "judul",
							"type": "string"
						},
						{
							"internalType": "string",
							"name": "deskripsi",
							"type": "string"
						},
						{
							"internalType": "bool",
							"name": "aktif",
							"type": "bool"
						},
						{
							"internalType": "uint256",
							"name": "totalSuara",
							"type": "uint256"
						},
						{
							"internalType": "uint256",
							"name": "waktuMulai",
							"type": "uint256"
						},
						{
							"internalType": "uint256",
							"name": "waktuSelesai",
							"type": "uint256"
						},
						{
							"internalType": "uint256",
							"name": "jumlahPilihan",
							"type": "uint256"
						}
					],
					"stateMutability": "view",
					"type": "function"
				},
				{
					"inputs": [],
					"name": "jumlahVoting",
					"outputs": [
						{
							"internalType": "uint256",
							"name": "",
							"type": "uint256"
						}
					],
					"stateMutability": "view",
					"type": "function"
				},
				{
					"inputs": [
						{
							"internalType": "uint256",
							"name": "_votingId",
							"type": "uint256"
						}
					],
					"name": "lihatHasil",
					"outputs": [
						{
							"internalType": "string[]",
							"name": "namaPilihan",
							"type": "string[]"
						},
						{
							"internalType": "uint256[]",
							"name": "jumlahSuaraPerPilihan",
							"type": "uint256[]"
						}
					],
					"stateMutability": "view",
					"type": "function"
				},
				{
					"inputs": [],
					"name": "owner",
					"outputs": [
						{
							"internalType": "address",
							"name": "",
							"type": "address"
						}
					],
					"stateMutability": "view",
					"type": "function"
				},
				{
					"inputs": [
						{
							"internalType": "uint256",
							"name": "_votingId",
							"type": "uint256"
						}
					],
					"name": "pemenangSementara",
					"outputs": [
						{
							"internalType": "uint256",
							"name": "pilihanId",
							"type": "uint256"
						},
						{
							"internalType": "string",
							"name": "namaPemenang",
							"type": "string"
						},
						{
							"internalType": "uint256",
							"name": "jumlahSuara",
							"type": "uint256"
						},
						{
							"internalType": "bool",
							"name": "adaSeri",
							"type": "bool"
						}
					],
					"stateMutability": "view",
					"type": "function"
				},
				{
					"inputs": [
						{
							"internalType": "uint256",
							"name": "_votingId",
							"type": "uint256"
						},
						{
							"internalType": "address",
							"name": "_alamat",
							"type": "address"
						}
					],
					"name": "sudahVoting",
					"outputs": [
						{
							"internalType": "bool",
							"name": "",
							"type": "bool"
						}
					],
					"stateMutability": "view",
					"type": "function"
				},
				{
					"inputs": [
						{
							"internalType": "uint256",
							"name": "_votingId",
							"type": "uint256"
						}
					],
					"name": "tutupVoting",
					"outputs": [],
					"stateMutability": "nonpayable",
					"type": "function"
				}
			],
			"devdoc": {
				"details": "Sistem e-voting untuk keputusan warga lingkungan      1 alamat wallet = 1 suara per topik voting",
				"kind": "dev",
				"methods": {
					"berikanSuara(uint256,uint256)": {
						"details": "Warga memberikan suara",
						"params": {
							"_pilihanId": "Index pilihan (mulai dari 0)",
							"_votingId": "ID voting yang diikuti"
						}
					},
					"buatVoting(string,string,string[],uint256)": {
						"details": "Buat topik voting baru",
						"params": {
							"_deskripsi": "Penjelasan singkat topik voting",
							"_durasiJam": "Durasi voting dalam jam (0 = tidak terbatas)",
							"_judul": "Judul voting (misal: \"Jadwal Kerja Bakti Bulan Ini\")",
							"_pilihan": "Array nama-nama pilihan (min 2)"
						}
					},
					"daftarSemuaVoting()": {
						"details": "Lihat daftar semua voting (id, judul, status)"
					},
					"infoVoting(uint256)": {
						"details": "Ambil info dasar sebuah voting"
					},
					"lihatHasil(uint256)": {
						"details": "Lihat semua pilihan dan jumlah suaranya"
					},
					"pemenangSementara(uint256)": {
						"details": "Ambil pemenang voting (bisa dipanggil saat voting masih aktif)"
					},
					"sudahVoting(uint256,address)": {
						"details": "Cek apakah sebuah alamat sudah voting"
					},
					"tutupVoting(uint256)": {
						"details": "Tutup voting secara manual oleh owner",
						"params": {
							"_votingId": "ID voting yang ingin ditutup"
						}
					}
				},
				"title": "EVotingLingkungan",
				"version": 1
			},
			"evm": {
				"assembly": "    /* \"EVotingLingkungan.sol\":210:10697  contract EVotingLingkungan {... */\n  mstore(0x40, 0x80)\n    /* \"EVotingLingkungan.sol\":2752:2803  constructor() {... */\n  callvalue\n  dup1\n  iszero\n  tag_1\n  jumpi\n  revert(0x00, 0x00)\ntag_1:\n  pop\n    /* \"EVotingLingkungan.sol\":2785:2795  msg.sender */\n  caller\n    /* \"EVotingLingkungan.sol\":2777:2782  owner */\n  0x00\n  0x00\n    /* \"EVotingLingkungan.sol\":2777:2795  owner = msg.sender */\n  0x0100\n  exp\n  dup2\n  sload\n  dup2\n  0xffffffffffffffffffffffffffffffffffffffff\n  mul\n  not\n  and\n  swap1\n  dup4\n  0xffffffffffffffffffffffffffffffffffffffff\n  and\n  mul\n  or\n  swap1\n  sstore\n  pop\n    /* \"EVotingLingkungan.sol\":210:10697  contract EVotingLingkungan {... */\n  dataSize(sub_0)\n  dup1\n  dataOffset(sub_0)\n  0x00\n  codecopy\n  0x00\n  return\nstop\n\nsub_0: assembly {\n        /* \"EVotingLingkungan.sol\":210:10697  contract EVotingLingkungan {... */\n      mstore(0x40, 0x80)\n      callvalue\n      dup1\n      iszero\n      tag_1\n      jumpi\n      revert(0x00, 0x00)\n    tag_1:\n      pop\n      jumpi(tag_2, lt(calldatasize, 0x04))\n      shr(0xe0, calldataload(0x00))\n      dup1\n      0x6b2e5374\n      gt\n      tag_13\n      jumpi\n      dup1\n      0x6b2e5374\n      eq\n      tag_8\n      jumpi\n      dup1\n      0x8da5cb5b\n      eq\n      tag_9\n      jumpi\n      dup1\n      0x905775f3\n      eq\n      tag_10\n      jumpi\n      dup1\n      0xa3c5e01c\n      eq\n      tag_11\n      jumpi\n      dup1\n      0xf87e56b2\n      eq\n      tag_12\n      jumpi\n      jump(tag_2)\n    tag_13:\n      dup1\n      0x1ba2ff0a\n      eq\n      tag_3\n      jumpi\n      dup1\n      0x2189083e\n      eq\n      tag_4\n      jumpi\n      dup1\n      0x3b4b375a\n      eq\n      tag_5\n      jumpi\n      dup1\n      0x503c6124\n      eq\n      tag_6\n      jumpi\n      dup1\n      0x5c7f1b3f\n      eq\n      tag_7\n      jumpi\n    tag_2:\n      revert(0x00, 0x00)\n        /* \"EVotingLingkungan.sol\":3279:4408  function buatVoting(... */\n    tag_3:\n      tag_14\n      0x04\n      dup1\n      calldatasize\n      sub\n      dup2\n      add\n      swap1\n      tag_15\n      swap2\n      swap1\n      tag_16\n      jump\t// in\n    tag_15:\n      tag_17\n      jump\t// in\n    tag_14:\n      stop\n        /* \"EVotingLingkungan.sol\":995:1022  uint256 public jumlahVoting */\n    tag_4:\n      tag_18\n      tag_19\n      jump\t// in\n    tag_18:\n      mload(0x40)\n      tag_20\n      swap2\n      swap1\n      tag_21\n      jump\t// in\n    tag_20:\n      mload(0x40)\n      dup1\n      swap2\n      sub\n      swap1\n      return\n        /* \"EVotingLingkungan.sol\":5553:6285  function berikanSuara(uint256 _votingId, uint256 _pilihanId)... */\n    tag_5:\n      tag_22\n      0x04\n      dup1\n      calldatasize\n      sub\n      dup2\n      add\n      swap1\n      tag_23\n      swap2\n      swap1\n      tag_24\n      jump\t// in\n    tag_23:\n      tag_25\n      jump\t// in\n    tag_22:\n      stop\n        /* \"EVotingLingkungan.sol\":6511:7156  function infoVoting(uint256 _votingId)... */\n    tag_6:\n      tag_26\n      0x04\n      dup1\n      calldatasize\n      sub\n      dup2\n      add\n      swap1\n      tag_27\n      swap2\n      swap1\n      tag_28\n      jump\t// in\n    tag_27:\n      tag_29\n      jump\t// in\n    tag_26:\n      mload(0x40)\n      tag_30\n      swap8\n      swap7\n      swap6\n      swap5\n      swap4\n      swap3\n      swap2\n      swap1\n      tag_31\n      jump\t// in\n    tag_30:\n      mload(0x40)\n      dup1\n      swap2\n      sub\n      swap1\n      return\n        /* \"EVotingLingkungan.sol\":8893:9620  function daftarSemuaVoting()... */\n    tag_7:\n      tag_32\n      tag_33\n      jump\t// in\n    tag_32:\n      mload(0x40)\n      tag_34\n      swap5\n      swap4\n      swap3\n      swap2\n      swap1\n      tag_35\n      jump\t// in\n    tag_34:\n      mload(0x40)\n      dup1\n      swap2\n      sub\n      swap1\n      return\n        /* \"EVotingLingkungan.sol\":4539:5236  function tutupVoting(uint256 _votingId)... */\n    tag_8:\n      tag_36\n      0x04\n      dup1\n      calldatasize\n      sub\n      dup2\n      add\n      swap1\n      tag_37\n      swap2\n      swap1\n      tag_28\n      jump\t// in\n    tag_37:\n      tag_38\n      jump\t// in\n    tag_36:\n      stop\n        /* \"EVotingLingkungan.sol\":968:988  address public owner */\n    tag_9:\n      tag_39\n      tag_40\n      jump\t// in\n    tag_39:\n      mload(0x40)\n      tag_41\n      swap2\n      swap1\n      tag_42\n      jump\t// in\n    tag_41:\n      mload(0x40)\n      dup1\n      swap2\n      sub\n      swap1\n      return\n        /* \"EVotingLingkungan.sol\":7908:8128  function sudahVoting(uint256 _votingId, address _alamat)... */\n    tag_10:\n      tag_43\n      0x04\n      dup1\n      calldatasize\n      sub\n      dup2\n      add\n      swap1\n      tag_44\n      swap2\n      swap1\n      tag_45\n      jump\t// in\n    tag_44:\n      tag_46\n      jump\t// in\n    tag_43:\n      mload(0x40)\n      tag_47\n      swap2\n      swap1\n      tag_48\n      jump\t// in\n    tag_47:\n      mload(0x40)\n      dup1\n      swap2\n      sub\n      swap1\n      return\n        /* \"EVotingLingkungan.sol\":8230:8808  function pemenangSementara(uint256 _votingId)... */\n    tag_11:\n      tag_49\n      0x04\n      dup1\n      calldatasize\n      sub\n      dup2\n      add\n      swap1\n      tag_50\n      swap2\n      swap1\n      tag_28\n      jump\t// in\n    tag_50:\n      tag_51\n      jump\t// in\n    tag_49:\n      mload(0x40)\n      tag_52\n      swap5\n      swap4\n      swap3\n      swap2\n      swap1\n      tag_53\n      jump\t// in\n    tag_52:\n      mload(0x40)\n      dup1\n      swap2\n      sub\n      swap1\n      return\n        /* \"EVotingLingkungan.sol\":7235:7831  function lihatHasil(uint256 _votingId)... */\n    tag_12:\n      tag_54\n      0x04\n      dup1\n      calldatasize\n      sub\n      dup2\n      add\n      swap1\n      tag_55\n      swap2\n      swap1\n      tag_28\n      jump\t// in\n    tag_55:\n      tag_56\n      jump\t// in\n    tag_54:\n      mload(0x40)\n      tag_57\n      swap3\n      swap2\n      swap1\n      tag_58\n      jump\t// in\n    tag_57:\n      mload(0x40)\n      dup1\n      swap2\n      sub\n      swap1\n      return\n        /* \"EVotingLingkungan.sol\":3279:4408  function buatVoting(... */\n    tag_17:\n        /* \"EVotingLingkungan.sol\":2054:2059  owner */\n      0x00\n      0x00\n      swap1\n      sload\n      swap1\n      0x0100\n      exp\n      swap1\n      div\n      0xffffffffffffffffffffffffffffffffffffffff\n      and\n        /* \"EVotingLingkungan.sol\":2040:2059  msg.sender == owner */\n      0xffffffffffffffffffffffffffffffffffffffff\n      and\n        /* \"EVotingLingkungan.sol\":2040:2050  msg.sender */\n      caller\n        /* \"EVotingLingkungan.sol\":2040:2059  msg.sender == owner */\n      0xffffffffffffffffffffffffffffffffffffffff\n      and\n      eq\n        /* \"EVotingLingkungan.sol\":2032:2099  require(msg.sender == owner, \"Hanya owner yang bisa melakukan ini\") */\n      tag_60\n      jumpi\n      mload(0x40)\n      0x08c379a000000000000000000000000000000000000000000000000000000000\n      dup2\n      mstore\n      0x04\n      add\n      tag_61\n      swap1\n      tag_62\n      jump\t// in\n    tag_61:\n      mload(0x40)\n      dup1\n      swap2\n      sub\n      swap1\n      revert\n    tag_60:\n        /* \"EVotingLingkungan.sol\":3498:3499  0 */\n      0x00\n        /* \"EVotingLingkungan.sol\":3481:3487  _judul */\n      dup5\n        /* \"EVotingLingkungan.sol\":3475:3495  bytes(_judul).length */\n      mload\n        /* \"EVotingLingkungan.sol\":3475:3499  bytes(_judul).length > 0 */\n      gt\n        /* \"EVotingLingkungan.sol\":3467:3528  require(bytes(_judul).length > 0, \"Judul tidak boleh kosong\") */\n      tag_64\n      jumpi\n      mload(0x40)\n      0x08c379a000000000000000000000000000000000000000000000000000000000\n      dup2\n      mstore\n      0x04\n      add\n      tag_65\n      swap1\n      tag_66\n      jump\t// in\n    tag_65:\n      mload(0x40)\n      dup1\n      swap2\n      sub\n      swap1\n      revert\n    tag_64:\n        /* \"EVotingLingkungan.sol\":3566:3567  2 */\n      0x02\n        /* \"EVotingLingkungan.sol\":3547:3555  _pilihan */\n      dup3\n        /* \"EVotingLingkungan.sol\":3547:3562  _pilihan.length */\n      mload\n        /* \"EVotingLingkungan.sol\":3547:3567  _pilihan.length >= 2 */\n      lt\n      iszero\n        /* \"EVotingLingkungan.sol\":3539:3600  require(_pilihan.length >= 2, \"Minimal 2 pilihan diperlukan\") */\n      tag_67\n      jumpi\n      mload(0x40)\n      0x08c379a000000000000000000000000000000000000000000000000000000000\n      dup2\n      mstore\n      0x04\n      add\n      tag_68\n      swap1\n      tag_69\n      jump\t// in\n    tag_68:\n      mload(0x40)\n      dup1\n      swap2\n      sub\n      swap1\n      revert\n    tag_67:\n        /* \"EVotingLingkungan.sol\":3638:3640  10 */\n      0x0a\n        /* \"EVotingLingkungan.sol\":3619:3627  _pilihan */\n      dup3\n        /* \"EVotingLingkungan.sol\":3619:3634  _pilihan.length */\n      mload\n        /* \"EVotingLingkungan.sol\":3619:3640  _pilihan.length <= 10 */\n      gt\n      iszero\n        /* \"EVotingLingkungan.sol\":3611:3664  require(_pilihan.length <= 10, \"Maksimal 10 pilihan\") */\n      tag_70\n      jumpi\n      mload(0x40)\n      0x08c379a000000000000000000000000000000000000000000000000000000000\n      dup2\n      mstore\n      0x04\n      add\n      tag_71\n      swap1\n      tag_72\n      jump\t// in\n    tag_71:\n      mload(0x40)\n      dup1\n      swap2\n      sub\n      swap1\n      revert\n    tag_70:\n        /* \"EVotingLingkungan.sol\":3677:3689  jumlahVoting */\n      0x01\n      0x00\n        /* \"EVotingLingkungan.sol\":3677:3691  jumlahVoting++ */\n      dup2\n      sload\n      dup1\n      swap3\n      swap2\n      swap1\n      tag_73\n      swap1\n      tag_74\n      jump\t// in\n    tag_73:\n      swap2\n      swap1\n      pop\n      sstore\n      pop\n        /* \"EVotingLingkungan.sol\":3702:3718  Voting storage v */\n      0x00\n        /* \"EVotingLingkungan.sol\":3721:3733  daftarVoting */\n      0x02\n        /* \"EVotingLingkungan.sol\":3721:3747  daftarVoting[jumlahVoting] */\n      0x00\n        /* \"EVotingLingkungan.sol\":3734:3746  jumlahVoting */\n      sload(0x01)\n        /* \"EVotingLingkungan.sol\":3721:3747  daftarVoting[jumlahVoting] */\n      dup2\n      mstore\n      0x20\n      add\n      swap1\n      dup2\n      mstore\n      0x20\n      add\n      0x00\n      keccak256\n        /* \"EVotingLingkungan.sol\":3702:3747  Voting storage v = daftarVoting[jumlahVoting] */\n      swap1\n      pop\n        /* \"EVotingLingkungan.sol\":3767:3779  jumlahVoting */\n      sload(0x01)\n        /* \"EVotingLingkungan.sol\":3760:3761  v */\n      dup2\n        /* \"EVotingLingkungan.sol\":3760:3764  v.id */\n      0x00\n      add\n        /* \"EVotingLingkungan.sol\":3760:3779  v.id = jumlahVoting */\n      dup2\n      swap1\n      sstore\n      pop\n        /* \"EVotingLingkungan.sol\":3800:3806  _judul */\n      dup5\n        /* \"EVotingLingkungan.sol\":3790:3791  v */\n      dup2\n        /* \"EVotingLingkungan.sol\":3790:3797  v.judul */\n      0x01\n      add\n        /* \"EVotingLingkungan.sol\":3790:3806  v.judul = _judul */\n      swap1\n      dup2\n      tag_75\n      swap2\n      swap1\n      tag_76\n      jump\t// in\n    tag_75:\n      pop\n        /* \"EVotingLingkungan.sol\":3831:3841  _deskripsi */\n      dup4\n        /* \"EVotingLingkungan.sol\":3817:3818  v */\n      dup2\n        /* \"EVotingLingkungan.sol\":3817:3828  v.deskripsi */\n      0x02\n      add\n        /* \"EVotingLingkungan.sol\":3817:3841  v.deskripsi = _deskripsi */\n      swap1\n      dup2\n      tag_77\n      swap2\n      swap1\n      tag_76\n      jump\t// in\n    tag_77:\n      pop\n        /* \"EVotingLingkungan.sol\":3862:3866  true */\n      0x01\n        /* \"EVotingLingkungan.sol\":3852:3853  v */\n      dup2\n        /* \"EVotingLingkungan.sol\":3852:3859  v.aktif */\n      0x04\n      add\n      0x00\n        /* \"EVotingLingkungan.sol\":3852:3866  v.aktif = true */\n      0x0100\n      exp\n      dup2\n      sload\n      dup2\n      0xff\n      mul\n      not\n      and\n      swap1\n      dup4\n      iszero\n      iszero\n      mul\n      or\n      swap1\n      sstore\n      pop\n        /* \"EVotingLingkungan.sol\":3892:3893  0 */\n      0x00\n        /* \"EVotingLingkungan.sol\":3877:3878  v */\n      dup2\n        /* \"EVotingLingkungan.sol\":3877:3889  v.totalSuara */\n      0x05\n      add\n        /* \"EVotingLingkungan.sol\":3877:3893  v.totalSuara = 0 */\n      dup2\n      swap1\n      sstore\n      pop\n        /* \"EVotingLingkungan.sol\":3919:3934  block.timestamp */\n      timestamp\n        /* \"EVotingLingkungan.sol\":3904:3905  v */\n      dup2\n        /* \"EVotingLingkungan.sol\":3904:3916  v.waktuMulai */\n      0x06\n      add\n        /* \"EVotingLingkungan.sol\":3904:3934  v.waktuMulai = block.timestamp */\n      dup2\n      swap1\n      sstore\n      pop\n        /* \"EVotingLingkungan.sol\":3975:3976  0 */\n      0x00\n        /* \"EVotingLingkungan.sol\":3962:3972  _durasiJam */\n      dup3\n        /* \"EVotingLingkungan.sol\":3962:3976  _durasiJam > 0 */\n      gt\n        /* \"EVotingLingkungan.sol\":3962:4049  _durasiJam > 0... */\n      tag_78\n      jumpi\n        /* \"EVotingLingkungan.sol\":4048:4049  0 */\n      0x00\n        /* \"EVotingLingkungan.sol\":3962:4049  _durasiJam > 0... */\n      jump(tag_79)\n    tag_78:\n        /* \"EVotingLingkungan.sol\":4024:4031  1 hours */\n      0x0e10\n        /* \"EVotingLingkungan.sol\":4011:4021  _durasiJam */\n      dup3\n        /* \"EVotingLingkungan.sol\":4011:4031  _durasiJam * 1 hours */\n      tag_80\n      swap2\n      swap1\n      tag_81\n      jump\t// in\n    tag_80:\n        /* \"EVotingLingkungan.sol\":3992:4007  block.timestamp */\n      timestamp\n        /* \"EVotingLingkungan.sol\":3992:4032  block.timestamp + (_durasiJam * 1 hours) */\n      tag_82\n      swap2\n      swap1\n      tag_83\n      jump\t// in\n    tag_82:\n        /* \"EVotingLingkungan.sol\":3962:4049  _durasiJam > 0... */\n    tag_79:\n        /* \"EVotingLingkungan.sol\":3945:3946  v */\n      dup2\n        /* \"EVotingLingkungan.sol\":3945:3959  v.waktuSelesai */\n      0x07\n      add\n        /* \"EVotingLingkungan.sol\":3945:4049  v.waktuSelesai = _durasiJam > 0... */\n      dup2\n      swap1\n      sstore\n      pop\n        /* \"EVotingLingkungan.sol\":4067:4076  uint256 i */\n      0x00\n        /* \"EVotingLingkungan.sol\":4079:4080  0 */\n      0x00\n        /* \"EVotingLingkungan.sol\":4067:4080  uint256 i = 0 */\n      swap1\n      pop\n        /* \"EVotingLingkungan.sol\":4062:4332  for (uint256 i = 0; i < _pilihan.length; i++) {... */\n    tag_84:\n        /* \"EVotingLingkungan.sol\":4086:4094  _pilihan */\n      dup4\n        /* \"EVotingLingkungan.sol\":4086:4101  _pilihan.length */\n      mload\n        /* \"EVotingLingkungan.sol\":4082:4083  i */\n      dup2\n        /* \"EVotingLingkungan.sol\":4082:4101  i < _pilihan.length */\n      lt\n        /* \"EVotingLingkungan.sol\":4062:4332  for (uint256 i = 0; i < _pilihan.length; i++) {... */\n      iszero\n      tag_85\n      jumpi\n        /* \"EVotingLingkungan.sol\":4159:4160  0 */\n      0x00\n        /* \"EVotingLingkungan.sol\":4137:4145  _pilihan */\n      dup5\n        /* \"EVotingLingkungan.sol\":4146:4147  i */\n      dup3\n        /* \"EVotingLingkungan.sol\":4137:4148  _pilihan[i] */\n      dup2\n      mload\n      dup2\n      lt\n      tag_87\n      jumpi\n      tag_88\n      tag_89\n      jump\t// in\n    tag_88:\n    tag_87:\n      0x20\n      mul\n      0x20\n      add\n      add\n      mload\n        /* \"EVotingLingkungan.sol\":4131:4156  bytes(_pilihan[i]).length */\n      mload\n        /* \"EVotingLingkungan.sol\":4131:4160  bytes(_pilihan[i]).length > 0 */\n      gt\n        /* \"EVotingLingkungan.sol\":4123:4196  require(bytes(_pilihan[i]).length > 0, \"Nama pilihan tidak boleh kosong\") */\n      tag_90\n      jumpi\n      mload(0x40)\n      0x08c379a000000000000000000000000000000000000000000000000000000000\n      dup2\n      mstore\n      0x04\n      add\n      tag_91\n      swap1\n      tag_92\n      jump\t// in\n    tag_91:\n      mload(0x40)\n      dup1\n      swap2\n      sub\n      swap1\n      revert\n    tag_90:\n        /* \"EVotingLingkungan.sol\":4211:4212  v */\n      dup2\n        /* \"EVotingLingkungan.sol\":4211:4220  v.pilihan */\n      0x03\n      add\n        /* \"EVotingLingkungan.sol\":4226:4319  Pilihan({... */\n      mload(0x40)\n      dup1\n      0x40\n      add\n      0x40\n      mstore\n      dup1\n        /* \"EVotingLingkungan.sol\":4259:4267  _pilihan */\n      dup7\n        /* \"EVotingLingkungan.sol\":4268:4269  i */\n      dup5\n        /* \"EVotingLingkungan.sol\":4259:4270  _pilihan[i] */\n      dup2\n      mload\n      dup2\n      lt\n      tag_93\n      jumpi\n      tag_94\n      tag_89\n      jump\t// in\n    tag_94:\n    tag_93:\n      0x20\n      mul\n      0x20\n      add\n      add\n      mload\n        /* \"EVotingLingkungan.sol\":4226:4319  Pilihan({... */\n      dup2\n      mstore\n      0x20\n      add\n        /* \"EVotingLingkungan.sol\":4302:4303  0 */\n      0x00\n        /* \"EVotingLingkungan.sol\":4226:4319  Pilihan({... */\n      dup2\n      mstore\n      pop\n        /* \"EVotingLingkungan.sol\":4211:4320  v.pilihan.push(Pilihan({... */\n      swap1\n      dup1\n      0x01\n      dup2\n      sload\n      add\n      dup1\n      dup3\n      sstore\n      dup1\n      swap2\n      pop\n      pop\n      0x01\n      swap1\n      sub\n      swap1\n      0x00\n      mstore\n      keccak256(0x00, 0x20)\n      swap1\n      0x02\n      mul\n      add\n      0x00\n      swap1\n      swap2\n      swap1\n      swap2\n      swap1\n      swap2\n      pop\n      0x00\n      dup3\n      add\n      mload\n      dup2\n      0x00\n      add\n      swap1\n      dup2\n      tag_96\n      swap2\n      swap1\n      tag_76\n      jump\t// in\n    tag_96:\n      pop\n      0x20\n      dup3\n      add\n      mload\n      dup2\n      0x01\n      add\n      sstore\n      pop\n      pop\n        /* \"EVotingLingkungan.sol\":4103:4106  i++ */\n      dup1\n      dup1\n      0x01\n      add\n      swap2\n      pop\n      pop\n        /* \"EVotingLingkungan.sol\":4062:4332  for (uint256 i = 0; i < _pilihan.length; i++) {... */\n      jump(tag_84)\n    tag_85:\n      pop\n        /* \"EVotingLingkungan.sol\":4362:4374  jumlahVoting */\n      sload(0x01)\n        /* \"EVotingLingkungan.sol\":4349:4400  VotingDibuat(jumlahVoting, _judul, block.timestamp) */\n      0x8ddb0ec4ffe63388d893a796f8dd2ebbd1f0d8cfca1448552392c773364180ea\n        /* \"EVotingLingkungan.sol\":4376:4382  _judul */\n      dup7\n        /* \"EVotingLingkungan.sol\":4384:4399  block.timestamp */\n      timestamp\n        /* \"EVotingLingkungan.sol\":4349:4400  VotingDibuat(jumlahVoting, _judul, block.timestamp) */\n      mload(0x40)\n      tag_97\n      swap3\n      swap2\n      swap1\n      tag_98\n      jump\t// in\n    tag_97:\n      mload(0x40)\n      dup1\n      swap2\n      sub\n      swap1\n      log2\n        /* \"EVotingLingkungan.sol\":3456:4408  {... */\n      pop\n        /* \"EVotingLingkungan.sol\":3279:4408  function buatVoting(... */\n      pop\n      pop\n      pop\n      pop\n      jump\t// out\n        /* \"EVotingLingkungan.sol\":995:1022  uint256 public jumlahVoting */\n    tag_19:\n      sload(0x01)\n      dup2\n      jump\t// out\n        /* \"EVotingLingkungan.sol\":5553:6285  function berikanSuara(uint256 _votingId, uint256 _pilihanId)... */\n    tag_25:\n        /* \"EVotingLingkungan.sol\":5653:5662  _votingId */\n      dup2\n        /* \"EVotingLingkungan.sol\":2198:2199  0 */\n      0x00\n        /* \"EVotingLingkungan.sol\":2186:2195  _votingId */\n      dup2\n        /* \"EVotingLingkungan.sol\":2186:2199  _votingId > 0 */\n      gt\n        /* \"EVotingLingkungan.sol\":2186:2228  _votingId > 0 && _votingId <= jumlahVoting */\n      dup1\n      iszero\n      tag_100\n      jumpi\n      pop\n        /* \"EVotingLingkungan.sol\":2216:2228  jumlahVoting */\n      sload(0x01)\n        /* \"EVotingLingkungan.sol\":2203:2212  _votingId */\n      dup2\n        /* \"EVotingLingkungan.sol\":2203:2228  _votingId <= jumlahVoting */\n      gt\n      iszero\n        /* \"EVotingLingkungan.sol\":2186:2228  _votingId > 0 && _votingId <= jumlahVoting */\n    tag_100:\n        /* \"EVotingLingkungan.sol\":2178:2254  require(_votingId > 0 && _votingId <= jumlahVoting, \"ID voting tidak valid\") */\n      tag_101\n      jumpi\n      mload(0x40)\n      0x08c379a000000000000000000000000000000000000000000000000000000000\n      dup2\n      mstore\n      0x04\n      add\n      tag_102\n      swap1\n      tag_103\n      jump\t// in\n    tag_102:\n      mload(0x40)\n      dup1\n      swap2\n      sub\n      swap1\n      revert\n    tag_101:\n        /* \"EVotingLingkungan.sol\":5690:5699  _votingId */\n      dup3\n        /* \"EVotingLingkungan.sol\":2338:2354  Voting storage v */\n      0x00\n        /* \"EVotingLingkungan.sol\":2357:2369  daftarVoting */\n      0x02\n        /* \"EVotingLingkungan.sol\":2357:2380  daftarVoting[_votingId] */\n      0x00\n        /* \"EVotingLingkungan.sol\":2370:2379  _votingId */\n      dup4\n        /* \"EVotingLingkungan.sol\":2357:2380  daftarVoting[_votingId] */\n      dup2\n      mstore\n      0x20\n      add\n      swap1\n      dup2\n      mstore\n      0x20\n      add\n      0x00\n      keccak256\n        /* \"EVotingLingkungan.sol\":2338:2380  Voting storage v = daftarVoting[_votingId] */\n      swap1\n      pop\n        /* \"EVotingLingkungan.sol\":2399:2400  v */\n      dup1\n        /* \"EVotingLingkungan.sol\":2399:2406  v.aktif */\n      0x04\n      add\n      0x00\n      swap1\n      sload\n      swap1\n      0x0100\n      exp\n      swap1\n      div\n      0xff\n      and\n        /* \"EVotingLingkungan.sol\":2391:2431  require(v.aktif, \"Voting sudah ditutup\") */\n      tag_105\n      jumpi\n      mload(0x40)\n      0x08c379a000000000000000000000000000000000000000000000000000000000\n      dup2\n      mstore\n      0x04\n      add\n      tag_106\n      swap1\n      tag_107\n      jump\t// in\n    tag_106:\n      mload(0x40)\n      dup1\n      swap2\n      sub\n      swap1\n      revert\n    tag_105:\n        /* \"EVotingLingkungan.sol\":2463:2464  0 */\n      0x00\n        /* \"EVotingLingkungan.sol\":2446:2447  v */\n      dup2\n        /* \"EVotingLingkungan.sol\":2446:2460  v.waktuSelesai */\n      0x07\n      add\n      sload\n        /* \"EVotingLingkungan.sol\":2446:2464  v.waktuSelesai > 0 */\n      gt\n        /* \"EVotingLingkungan.sol\":2442:2563  if (v.waktuSelesai > 0) {... */\n      iszero\n      tag_108\n      jumpi\n        /* \"EVotingLingkungan.sol\":2508:2509  v */\n      dup1\n        /* \"EVotingLingkungan.sol\":2508:2522  v.waktuSelesai */\n      0x07\n      add\n      sload\n        /* \"EVotingLingkungan.sol\":2489:2504  block.timestamp */\n      timestamp\n        /* \"EVotingLingkungan.sol\":2489:2522  block.timestamp <= v.waktuSelesai */\n      gt\n      iszero\n        /* \"EVotingLingkungan.sol\":2481:2551  require(block.timestamp <= v.waktuSelesai, \"Waktu voting sudah habis\") */\n      tag_109\n      jumpi\n      mload(0x40)\n      0x08c379a000000000000000000000000000000000000000000000000000000000\n      dup2\n      mstore\n      0x04\n      add\n      tag_110\n      swap1\n      tag_111\n      jump\t// in\n    tag_110:\n      mload(0x40)\n      dup1\n      swap2\n      sub\n      swap1\n      revert\n    tag_109:\n        /* \"EVotingLingkungan.sol\":2442:2563  if (v.waktuSelesai > 0) {... */\n    tag_108:\n        /* \"EVotingLingkungan.sol\":5717:5733  Voting storage v */\n      0x00\n        /* \"EVotingLingkungan.sol\":5736:5748  daftarVoting */\n      0x02\n        /* \"EVotingLingkungan.sol\":5736:5759  daftarVoting[_votingId] */\n      0x00\n        /* \"EVotingLingkungan.sol\":5749:5758  _votingId */\n      dup8\n        /* \"EVotingLingkungan.sol\":5736:5759  daftarVoting[_votingId] */\n      dup2\n      mstore\n      0x20\n      add\n      swap1\n      dup2\n      mstore\n      0x20\n      add\n      0x00\n      keccak256\n        /* \"EVotingLingkungan.sol\":5717:5759  Voting storage v = daftarVoting[_votingId] */\n      swap1\n      pop\n        /* \"EVotingLingkungan.sol\":5795:5796  v */\n      dup1\n        /* \"EVotingLingkungan.sol\":5795:5808  v.sudahVoting */\n      0x08\n      add\n        /* \"EVotingLingkungan.sol\":5795:5820  v.sudahVoting[msg.sender] */\n      0x00\n        /* \"EVotingLingkungan.sol\":5809:5819  msg.sender */\n      caller\n        /* \"EVotingLingkungan.sol\":5795:5820  v.sudahVoting[msg.sender] */\n      0xffffffffffffffffffffffffffffffffffffffff\n      and\n      0xffffffffffffffffffffffffffffffffffffffff\n      and\n      dup2\n      mstore\n      0x20\n      add\n      swap1\n      dup2\n      mstore\n      0x20\n      add\n      0x00\n      keccak256\n      0x00\n      swap1\n      sload\n      swap1\n      0x0100\n      exp\n      swap1\n      div\n      0xff\n      and\n        /* \"EVotingLingkungan.sol\":5794:5820  !v.sudahVoting[msg.sender] */\n      iszero\n        /* \"EVotingLingkungan.sol\":5772:5891  require(... */\n      tag_113\n      jumpi\n      mload(0x40)\n      0x08c379a000000000000000000000000000000000000000000000000000000000\n      dup2\n      mstore\n      0x04\n      add\n      tag_114\n      swap1\n      tag_115\n      jump\t// in\n    tag_114:\n      mload(0x40)\n      dup1\n      swap2\n      sub\n      swap1\n      revert\n    tag_113:\n        /* \"EVotingLingkungan.sol\":5937:5938  v */\n      dup1\n        /* \"EVotingLingkungan.sol\":5937:5946  v.pilihan */\n      0x03\n      add\n        /* \"EVotingLingkungan.sol\":5937:5953  v.pilihan.length */\n      dup1\n      sload\n      swap1\n      pop\n        /* \"EVotingLingkungan.sol\":5924:5934  _pilihanId */\n      dup6\n        /* \"EVotingLingkungan.sol\":5924:5953  _pilihanId < v.pilihan.length */\n      lt\n        /* \"EVotingLingkungan.sol\":5902:6003  require(... */\n      tag_116\n      jumpi\n      mload(0x40)\n      0x08c379a000000000000000000000000000000000000000000000000000000000\n      dup2\n      mstore\n      0x04\n      add\n      tag_117\n      swap1\n      tag_118\n      jump\t// in\n    tag_117:\n      mload(0x40)\n      dup1\n      swap2\n      sub\n      swap1\n      revert\n    tag_116:\n        /* \"EVotingLingkungan.sol\":6044:6048  true */\n      0x01\n        /* \"EVotingLingkungan.sol\":6016:6017  v */\n      dup2\n        /* \"EVotingLingkungan.sol\":6016:6029  v.sudahVoting */\n      0x08\n      add\n        /* \"EVotingLingkungan.sol\":6016:6041  v.sudahVoting[msg.sender] */\n      0x00\n        /* \"EVotingLingkungan.sol\":6030:6040  msg.sender */\n      caller\n        /* \"EVotingLingkungan.sol\":6016:6041  v.sudahVoting[msg.sender] */\n      0xffffffffffffffffffffffffffffffffffffffff\n      and\n      0xffffffffffffffffffffffffffffffffffffffff\n      and\n      dup2\n      mstore\n      0x20\n      add\n      swap1\n      dup2\n      mstore\n      0x20\n      add\n      0x00\n      keccak256\n      0x00\n        /* \"EVotingLingkungan.sol\":6016:6048  v.sudahVoting[msg.sender] = true */\n      0x0100\n      exp\n      dup2\n      sload\n      dup2\n      0xff\n      mul\n      not\n      and\n      swap1\n      dup4\n      iszero\n      iszero\n      mul\n      or\n      swap1\n      sstore\n      pop\n        /* \"EVotingLingkungan.sol\":6059:6060  v */\n      dup1\n        /* \"EVotingLingkungan.sol\":6059:6068  v.pilihan */\n      0x03\n      add\n        /* \"EVotingLingkungan.sol\":6069:6079  _pilihanId */\n      dup6\n        /* \"EVotingLingkungan.sol\":6059:6080  v.pilihan[_pilihanId] */\n      dup2\n      sload\n      dup2\n      lt\n      tag_119\n      jumpi\n      tag_120\n      tag_89\n      jump\t// in\n    tag_120:\n    tag_119:\n      swap1\n      0x00\n      mstore\n      keccak256(0x00, 0x20)\n      swap1\n      0x02\n      mul\n      add\n        /* \"EVotingLingkungan.sol\":6059:6092  v.pilihan[_pilihanId].jumlahSuara */\n      0x01\n      add\n      0x00\n        /* \"EVotingLingkungan.sol\":6059:6094  v.pilihan[_pilihanId].jumlahSuara++ */\n      dup2\n      sload\n      dup1\n      swap3\n      swap2\n      swap1\n      tag_122\n      swap1\n      tag_74\n      jump\t// in\n    tag_122:\n      swap2\n      swap1\n      pop\n      sstore\n      pop\n        /* \"EVotingLingkungan.sol\":6105:6106  v */\n      dup1\n        /* \"EVotingLingkungan.sol\":6105:6117  v.totalSuara */\n      0x05\n      add\n      0x00\n        /* \"EVotingLingkungan.sol\":6105:6119  v.totalSuara++ */\n      dup2\n      sload\n      dup1\n      swap3\n      swap2\n      swap1\n      tag_123\n      swap1\n      tag_74\n      jump\t// in\n    tag_123:\n      swap2\n      swap1\n      pop\n      sstore\n      pop\n        /* \"EVotingLingkungan.sol\":6215:6225  _pilihanId */\n      dup5\n        /* \"EVotingLingkungan.sol\":6190:6200  msg.sender */\n      caller\n        /* \"EVotingLingkungan.sol\":6137:6277  SuaraDiberikan(... */\n      0xffffffffffffffffffffffffffffffffffffffff\n      and\n        /* \"EVotingLingkungan.sol\":6166:6175  _votingId */\n      dup8\n        /* \"EVotingLingkungan.sol\":6137:6277  SuaraDiberikan(... */\n      0x178dfb3ebe7b4de8e1fb48394530131d7f6389784a515ebb09ec3ed59d7924a4\n        /* \"EVotingLingkungan.sol\":6240:6241  v */\n      dup5\n        /* \"EVotingLingkungan.sol\":6240:6249  v.pilihan */\n      0x03\n      add\n        /* \"EVotingLingkungan.sol\":6250:6260  _pilihanId */\n      dup10\n        /* \"EVotingLingkungan.sol\":6240:6261  v.pilihan[_pilihanId] */\n      dup2\n      sload\n      dup2\n      lt\n      tag_124\n      jumpi\n      tag_125\n      tag_89\n      jump\t// in\n    tag_125:\n    tag_124:\n      swap1\n      0x00\n      mstore\n      keccak256(0x00, 0x20)\n      swap1\n      0x02\n      mul\n      add\n        /* \"EVotingLingkungan.sol\":6240:6266  v.pilihan[_pilihanId].nama */\n      0x00\n      add\n        /* \"EVotingLingkungan.sol\":6137:6277  SuaraDiberikan(... */\n      mload(0x40)\n      tag_127\n      swap2\n      swap1\n      tag_128\n      jump\t// in\n    tag_127:\n      mload(0x40)\n      dup1\n      swap2\n      sub\n      swap1\n      log4\n        /* \"EVotingLingkungan.sol\":5706:6285  {... */\n      pop\n        /* \"EVotingLingkungan.sol\":2327:2582  {... */\n      pop\n        /* \"EVotingLingkungan.sol\":2265:2266  _ */\n      pop\n        /* \"EVotingLingkungan.sol\":5553:6285  function berikanSuara(uint256 _votingId, uint256 _pilihanId)... */\n      pop\n      pop\n      pop\n      jump\t// out\n        /* \"EVotingLingkungan.sol\":6511:7156  function infoVoting(uint256 _votingId)... */\n    tag_29:\n        /* \"EVotingLingkungan.sol\":6646:6665  string memory judul */\n      0x60\n        /* \"EVotingLingkungan.sol\":6680:6703  string memory deskripsi */\n      dup1\n        /* \"EVotingLingkungan.sol\":6718:6728  bool aktif */\n      0x00\n        /* \"EVotingLingkungan.sol\":6743:6761  uint256 totalSuara */\n      0x00\n        /* \"EVotingLingkungan.sol\":6776:6794  uint256 waktuMulai */\n      0x00\n        /* \"EVotingLingkungan.sol\":6809:6829  uint256 waktuSelesai */\n      0x00\n        /* \"EVotingLingkungan.sol\":6844:6865  uint256 jumlahPilihan */\n      0x00\n        /* \"EVotingLingkungan.sol\":6603:6612  _votingId */\n      dup8\n        /* \"EVotingLingkungan.sol\":2198:2199  0 */\n      0x00\n        /* \"EVotingLingkungan.sol\":2186:2195  _votingId */\n      dup2\n        /* \"EVotingLingkungan.sol\":2186:2199  _votingId > 0 */\n      gt\n        /* \"EVotingLingkungan.sol\":2186:2228  _votingId > 0 && _votingId <= jumlahVoting */\n      dup1\n      iszero\n      tag_130\n      jumpi\n      pop\n        /* \"EVotingLingkungan.sol\":2216:2228  jumlahVoting */\n      sload(0x01)\n        /* \"EVotingLingkungan.sol\":2203:2212  _votingId */\n      dup2\n        /* \"EVotingLingkungan.sol\":2203:2228  _votingId <= jumlahVoting */\n      gt\n      iszero\n        /* \"EVotingLingkungan.sol\":2186:2228  _votingId > 0 && _votingId <= jumlahVoting */\n    tag_130:\n        /* \"EVotingLingkungan.sol\":2178:2254  require(_votingId > 0 && _votingId <= jumlahVoting, \"ID voting tidak valid\") */\n      tag_131\n      jumpi\n      mload(0x40)\n      0x08c379a000000000000000000000000000000000000000000000000000000000\n      dup2\n      mstore\n      0x04\n      add\n      tag_132\n      swap1\n      tag_103\n      jump\t// in\n    tag_132:\n      mload(0x40)\n      dup1\n      swap2\n      sub\n      swap1\n      revert\n    tag_131:\n        /* \"EVotingLingkungan.sol\":6893:6909  Voting storage v */\n      0x00\n        /* \"EVotingLingkungan.sol\":6912:6924  daftarVoting */\n      0x02\n        /* \"EVotingLingkungan.sol\":6912:6935  daftarVoting[_votingId] */\n      0x00\n        /* \"EVotingLingkungan.sol\":6925:6934  _votingId */\n      dup12\n        /* \"EVotingLingkungan.sol\":6912:6935  daftarVoting[_votingId] */\n      dup2\n      mstore\n      0x20\n      add\n      swap1\n      dup2\n      mstore\n      0x20\n      add\n      0x00\n      keccak256\n        /* \"EVotingLingkungan.sol\":6893:6935  Voting storage v = daftarVoting[_votingId] */\n      swap1\n      pop\n        /* \"EVotingLingkungan.sol\":6968:6969  v */\n      dup1\n        /* \"EVotingLingkungan.sol\":6968:6975  v.judul */\n      0x01\n      add\n        /* \"EVotingLingkungan.sol\":6990:6991  v */\n      dup2\n        /* \"EVotingLingkungan.sol\":6990:7001  v.deskripsi */\n      0x02\n      add\n        /* \"EVotingLingkungan.sol\":7016:7017  v */\n      dup3\n        /* \"EVotingLingkungan.sol\":7016:7023  v.aktif */\n      0x04\n      add\n      0x00\n      swap1\n      sload\n      swap1\n      0x0100\n      exp\n      swap1\n      div\n      0xff\n      and\n        /* \"EVotingLingkungan.sol\":7038:7039  v */\n      dup4\n        /* \"EVotingLingkungan.sol\":7038:7050  v.totalSuara */\n      0x05\n      add\n      sload\n        /* \"EVotingLingkungan.sol\":7065:7066  v */\n      dup5\n        /* \"EVotingLingkungan.sol\":7065:7077  v.waktuMulai */\n      0x06\n      add\n      sload\n        /* \"EVotingLingkungan.sol\":7092:7093  v */\n      dup6\n        /* \"EVotingLingkungan.sol\":7092:7106  v.waktuSelesai */\n      0x07\n      add\n      sload\n        /* \"EVotingLingkungan.sol\":7121:7122  v */\n      dup7\n        /* \"EVotingLingkungan.sol\":7121:7130  v.pilihan */\n      0x03\n      add\n        /* \"EVotingLingkungan.sol\":7121:7137  v.pilihan.length */\n      dup1\n      sload\n      swap1\n      pop\n        /* \"EVotingLingkungan.sol\":6946:7148  return (... */\n      dup7\n      dup1\n      sload\n      tag_134\n      swap1\n      tag_135\n      jump\t// in\n    tag_134:\n      dup1\n      0x1f\n      add\n      0x20\n      dup1\n      swap2\n      div\n      mul\n      0x20\n      add\n      mload(0x40)\n      swap1\n      dup2\n      add\n      0x40\n      mstore\n      dup1\n      swap3\n      swap2\n      swap1\n      dup2\n      dup2\n      mstore\n      0x20\n      add\n      dup3\n      dup1\n      sload\n      tag_136\n      swap1\n      tag_135\n      jump\t// in\n    tag_136:\n      dup1\n      iszero\n      tag_137\n      jumpi\n      dup1\n      0x1f\n      lt\n      tag_138\n      jumpi\n      0x0100\n      dup1\n      dup4\n      sload\n      div\n      mul\n      dup4\n      mstore\n      swap2\n      0x20\n      add\n      swap2\n      jump(tag_137)\n    tag_138:\n      dup3\n      add\n      swap2\n      swap1\n      0x00\n      mstore\n      keccak256(0x00, 0x20)\n      swap1\n    tag_139:\n      dup2\n      sload\n      dup2\n      mstore\n      swap1\n      0x01\n      add\n      swap1\n      0x20\n      add\n      dup1\n      dup4\n      gt\n      tag_139\n      jumpi\n      dup3\n      swap1\n      sub\n      0x1f\n      and\n      dup3\n      add\n      swap2\n    tag_137:\n      pop\n      pop\n      pop\n      pop\n      pop\n      swap7\n      pop\n      dup6\n      dup1\n      sload\n      tag_140\n      swap1\n      tag_135\n      jump\t// in\n    tag_140:\n      dup1\n      0x1f\n      add\n      0x20\n      dup1\n      swap2\n      div\n      mul\n      0x20\n      add\n      mload(0x40)\n      swap1\n      dup2\n      add\n      0x40\n      mstore\n      dup1\n      swap3\n      swap2\n      swap1\n      dup2\n      dup2\n      mstore\n      0x20\n      add\n      dup3\n      dup1\n      sload\n      tag_141\n      swap1\n      tag_135\n      jump\t// in\n    tag_141:\n      dup1\n      iszero\n      tag_142\n      jumpi\n      dup1\n      0x1f\n      lt\n      tag_143\n      jumpi\n      0x0100\n      dup1\n      dup4\n      sload\n      div\n      mul\n      dup4\n      mstore\n      swap2\n      0x20\n      add\n      swap2\n      jump(tag_142)\n    tag_143:\n      dup3\n      add\n      swap2\n      swap1\n      0x00\n      mstore\n      keccak256(0x00, 0x20)\n      swap1\n    tag_144:\n      dup2\n      sload\n      dup2\n      mstore\n      swap1\n      0x01\n      add\n      swap1\n      0x20\n      add\n      dup1\n      dup4\n      gt\n      tag_144\n      jumpi\n      dup3\n      swap1\n      sub\n      0x1f\n      and\n      dup3\n      add\n      swap2\n    tag_142:\n      pop\n      pop\n      pop\n      pop\n      pop\n      swap6\n      pop\n      swap9\n      pop\n      swap9\n      pop\n      swap9\n      pop\n      swap9\n      pop\n      swap9\n      pop\n      swap9\n      pop\n      swap9\n      pop\n      pop\n        /* \"EVotingLingkungan.sol\":6511:7156  function infoVoting(uint256 _votingId)... */\n      pop\n      swap2\n      swap4\n      swap6\n      swap8\n      swap1\n      swap3\n      swap5\n      swap7\n      pop\n      jump\t// out\n        /* \"EVotingLingkungan.sol\":8893:9620  function daftarSemuaVoting()... */\n    tag_33:\n        /* \"EVotingLingkungan.sol\":8986:9006  uint256[] memory ids */\n      0x60\n        /* \"EVotingLingkungan.sol\":9021:9043  string[] memory juduls */\n      dup1\n        /* \"EVotingLingkungan.sol\":9058:9083  bool[] memory statusAktif */\n      0x60\n        /* \"EVotingLingkungan.sol\":9098:9126  uint256[] memory totalSuaras */\n      dup1\n        /* \"EVotingLingkungan.sol\":9174:9186  jumlahVoting */\n      sload(0x01)\n        /* \"EVotingLingkungan.sol\":9160:9187  new uint256[](jumlahVoting) */\n      0xffffffffffffffff\n      dup2\n      gt\n      iszero\n      tag_146\n      jumpi\n      tag_147\n      tag_148\n      jump\t// in\n    tag_147:\n    tag_146:\n      mload(0x40)\n      swap1\n      dup1\n      dup3\n      mstore\n      dup1\n      0x20\n      mul\n      0x20\n      add\n      dup3\n      add\n      0x40\n      mstore\n      dup1\n      iszero\n      tag_149\n      jumpi\n      dup2\n      0x20\n      add\n      0x20\n      dup3\n      mul\n      dup1\n      calldatasize\n      dup4\n      calldatacopy\n      dup1\n      dup3\n      add\n      swap2\n      pop\n      pop\n      swap1\n      pop\n    tag_149:\n      pop\n        /* \"EVotingLingkungan.sol\":9154:9187  ids = new uint256[](jumlahVoting) */\n      swap4\n      pop\n        /* \"EVotingLingkungan.sol\":9220:9232  jumlahVoting */\n      sload(0x01)\n        /* \"EVotingLingkungan.sol\":9207:9233  new string[](jumlahVoting) */\n      0xffffffffffffffff\n      dup2\n      gt\n      iszero\n      tag_150\n      jumpi\n      tag_151\n      tag_148\n      jump\t// in\n    tag_151:\n    tag_150:\n      mload(0x40)\n      swap1\n      dup1\n      dup3\n      mstore\n      dup1\n      0x20\n      mul\n      0x20\n      add\n      dup3\n      add\n      0x40\n      mstore\n      dup1\n      iszero\n      tag_152\n      jumpi\n      dup2\n      0x20\n      add\n    tag_153:\n      0x60\n      dup2\n      mstore\n      0x20\n      add\n      swap1\n      0x01\n      swap1\n      sub\n      swap1\n      dup2\n      tag_153\n      jumpi\n      swap1\n      pop\n    tag_152:\n      pop\n        /* \"EVotingLingkungan.sol\":9198:9233  juduls = new string[](jumlahVoting) */\n      swap3\n      pop\n        /* \"EVotingLingkungan.sol\":9269:9281  jumlahVoting */\n      sload(0x01)\n        /* \"EVotingLingkungan.sol\":9258:9282  new bool[](jumlahVoting) */\n      0xffffffffffffffff\n      dup2\n      gt\n      iszero\n      tag_154\n      jumpi\n      tag_155\n      tag_148\n      jump\t// in\n    tag_155:\n    tag_154:\n      mload(0x40)\n      swap1\n      dup1\n      dup3\n      mstore\n      dup1\n      0x20\n      mul\n      0x20\n      add\n      dup3\n      add\n      0x40\n      mstore\n      dup1\n      iszero\n      tag_156\n      jumpi\n      dup2\n      0x20\n      add\n      0x20\n      dup3\n      mul\n      dup1\n      calldatasize\n      dup4\n      calldatacopy\n      dup1\n      dup3\n      add\n      swap2\n      pop\n      pop\n      swap1\n      pop\n    tag_156:\n      pop\n        /* \"EVotingLingkungan.sol\":9244:9282  statusAktif = new bool[](jumlahVoting) */\n      swap2\n      pop\n        /* \"EVotingLingkungan.sol\":9321:9333  jumlahVoting */\n      sload(0x01)\n        /* \"EVotingLingkungan.sol\":9307:9334  new uint256[](jumlahVoting) */\n      0xffffffffffffffff\n      dup2\n      gt\n      iszero\n      tag_157\n      jumpi\n      tag_158\n      tag_148\n      jump\t// in\n    tag_158:\n    tag_157:\n      mload(0x40)\n      swap1\n      dup1\n      dup3\n      mstore\n      dup1\n      0x20\n      mul\n      0x20\n      add\n      dup3\n      add\n      0x40\n      mstore\n      dup1\n      iszero\n      tag_159\n      jumpi\n      dup2\n      0x20\n      add\n      0x20\n      dup3\n      mul\n      dup1\n      calldatasize\n      dup4\n      calldatacopy\n      dup1\n      dup3\n      add\n      swap2\n      pop\n      pop\n      swap1\n      pop\n    tag_159:\n      pop\n        /* \"EVotingLingkungan.sol\":9293:9334  totalSuaras = new uint256[](jumlahVoting) */\n      swap1\n      pop\n        /* \"EVotingLingkungan.sol\":9352:9361  uint256 i */\n      0x00\n        /* \"EVotingLingkungan.sol\":9364:9365  1 */\n      0x01\n        /* \"EVotingLingkungan.sol\":9352:9365  uint256 i = 1 */\n      swap1\n      pop\n        /* \"EVotingLingkungan.sol\":9347:9613  for (uint256 i = 1; i <= jumlahVoting; i++) {... */\n    tag_160:\n        /* \"EVotingLingkungan.sol\":9372:9384  jumlahVoting */\n      sload(0x01)\n        /* \"EVotingLingkungan.sol\":9367:9368  i */\n      dup2\n        /* \"EVotingLingkungan.sol\":9367:9384  i <= jumlahVoting */\n      gt\n        /* \"EVotingLingkungan.sol\":9347:9613  for (uint256 i = 1; i <= jumlahVoting; i++) {... */\n      tag_161\n      jumpi\n        /* \"EVotingLingkungan.sol\":9406:9422  Voting storage v */\n      0x00\n        /* \"EVotingLingkungan.sol\":9425:9437  daftarVoting */\n      0x02\n        /* \"EVotingLingkungan.sol\":9425:9440  daftarVoting[i] */\n      0x00\n        /* \"EVotingLingkungan.sol\":9438:9439  i */\n      dup4\n        /* \"EVotingLingkungan.sol\":9425:9440  daftarVoting[i] */\n      dup2\n      mstore\n      0x20\n      add\n      swap1\n      dup2\n      mstore\n      0x20\n      add\n      0x00\n      keccak256\n        /* \"EVotingLingkungan.sol\":9406:9440  Voting storage v = daftarVoting[i] */\n      swap1\n      pop\n        /* \"EVotingLingkungan.sol\":9468:9469  v */\n      dup1\n        /* \"EVotingLingkungan.sol\":9468:9472  v.id */\n      0x00\n      add\n      sload\n        /* \"EVotingLingkungan.sol\":9455:9458  ids */\n      dup7\n        /* \"EVotingLingkungan.sol\":9463:9464  1 */\n      0x01\n        /* \"EVotingLingkungan.sol\":9459:9460  i */\n      dup5\n        /* \"EVotingLingkungan.sol\":9459:9464  i - 1 */\n      tag_163\n      swap2\n      swap1\n      tag_164\n      jump\t// in\n    tag_163:\n        /* \"EVotingLingkungan.sol\":9455:9465  ids[i - 1] */\n      dup2\n      mload\n      dup2\n      lt\n      tag_165\n      jumpi\n      tag_166\n      tag_89\n      jump\t// in\n    tag_166:\n    tag_165:\n      0x20\n      mul\n      0x20\n      add\n      add\n        /* \"EVotingLingkungan.sol\":9455:9472  ids[i - 1] = v.id */\n      dup2\n      dup2\n      mstore\n      pop\n      pop\n        /* \"EVotingLingkungan.sol\":9503:9504  v */\n      dup1\n        /* \"EVotingLingkungan.sol\":9503:9510  v.judul */\n      0x01\n      add\n        /* \"EVotingLingkungan.sol\":9487:9510  juduls[i - 1] = v.judul */\n      dup1\n      sload\n      tag_167\n      swap1\n      tag_135\n      jump\t// in\n    tag_167:\n      dup1\n      0x1f\n      add\n      0x20\n      dup1\n      swap2\n      div\n      mul\n      0x20\n      add\n      mload(0x40)\n      swap1\n      dup2\n      add\n      0x40\n      mstore\n      dup1\n      swap3\n      swap2\n      swap1\n      dup2\n      dup2\n      mstore\n      0x20\n      add\n      dup3\n      dup1\n      sload\n      tag_168\n      swap1\n      tag_135\n      jump\t// in\n    tag_168:\n      dup1\n      iszero\n      tag_169\n      jumpi\n      dup1\n      0x1f\n      lt\n      tag_170\n      jumpi\n      0x0100\n      dup1\n      dup4\n      sload\n      div\n      mul\n      dup4\n      mstore\n      swap2\n      0x20\n      add\n      swap2\n      jump(tag_169)\n    tag_170:\n      dup3\n      add\n      swap2\n      swap1\n      0x00\n      mstore\n      keccak256(0x00, 0x20)\n      swap1\n    tag_171:\n      dup2\n      sload\n      dup2\n      mstore\n      swap1\n      0x01\n      add\n      swap1\n      0x20\n      add\n      dup1\n      dup4\n      gt\n      tag_171\n      jumpi\n      dup3\n      swap1\n      sub\n      0x1f\n      and\n      dup3\n      add\n      swap2\n    tag_169:\n      pop\n      pop\n      pop\n      pop\n      pop\n        /* \"EVotingLingkungan.sol\":9487:9493  juduls */\n      dup6\n        /* \"EVotingLingkungan.sol\":9498:9499  1 */\n      0x01\n        /* \"EVotingLingkungan.sol\":9494:9495  i */\n      dup5\n        /* \"EVotingLingkungan.sol\":9494:9499  i - 1 */\n      tag_172\n      swap2\n      swap1\n      tag_164\n      jump\t// in\n    tag_172:\n        /* \"EVotingLingkungan.sol\":9487:9500  juduls[i - 1] */\n      dup2\n      mload\n      dup2\n      lt\n      tag_173\n      jumpi\n      tag_174\n      tag_89\n      jump\t// in\n    tag_174:\n    tag_173:\n      0x20\n      mul\n      0x20\n      add\n      add\n        /* \"EVotingLingkungan.sol\":9487:9510  juduls[i - 1] = v.judul */\n      dup2\n      swap1\n      mstore\n      pop\n        /* \"EVotingLingkungan.sol\":9546:9547  v */\n      dup1\n        /* \"EVotingLingkungan.sol\":9546:9553  v.aktif */\n      0x04\n      add\n      0x00\n      swap1\n      sload\n      swap1\n      0x0100\n      exp\n      swap1\n      div\n      0xff\n      and\n        /* \"EVotingLingkungan.sol\":9525:9536  statusAktif */\n      dup5\n        /* \"EVotingLingkungan.sol\":9541:9542  1 */\n      0x01\n        /* \"EVotingLingkungan.sol\":9537:9538  i */\n      dup5\n        /* \"EVotingLingkungan.sol\":9537:9542  i - 1 */\n      tag_175\n      swap2\n      swap1\n      tag_164\n      jump\t// in\n    tag_175:\n        /* \"EVotingLingkungan.sol\":9525:9543  statusAktif[i - 1] */\n      dup2\n      mload\n      dup2\n      lt\n      tag_176\n      jumpi\n      tag_177\n      tag_89\n      jump\t// in\n    tag_177:\n    tag_176:\n      0x20\n      mul\n      0x20\n      add\n      add\n        /* \"EVotingLingkungan.sol\":9525:9553  statusAktif[i - 1] = v.aktif */\n      swap1\n      iszero\n      iszero\n      swap1\n      dup2\n      iszero\n      iszero\n      dup2\n      mstore\n      pop\n      pop\n        /* \"EVotingLingkungan.sol\":9589:9590  v */\n      dup1\n        /* \"EVotingLingkungan.sol\":9589:9601  v.totalSuara */\n      0x05\n      add\n      sload\n        /* \"EVotingLingkungan.sol\":9568:9579  totalSuaras */\n      dup4\n        /* \"EVotingLingkungan.sol\":9584:9585  1 */\n      0x01\n        /* \"EVotingLingkungan.sol\":9580:9581  i */\n      dup5\n        /* \"EVotingLingkungan.sol\":9580:9585  i - 1 */\n      tag_178\n      swap2\n      swap1\n      tag_164\n      jump\t// in\n    tag_178:\n        /* \"EVotingLingkungan.sol\":9568:9586  totalSuaras[i - 1] */\n      dup2\n      mload\n      dup2\n      lt\n      tag_179\n      jumpi\n      tag_180\n      tag_89\n      jump\t// in\n    tag_180:\n    tag_179:\n      0x20\n      mul\n      0x20\n      add\n      add\n        /* \"EVotingLingkungan.sol\":9568:9601  totalSuaras[i - 1] = v.totalSuara */\n      dup2\n      dup2\n      mstore\n      pop\n      pop\n        /* \"EVotingLingkungan.sol\":9391:9613  {... */\n      pop\n        /* \"EVotingLingkungan.sol\":9386:9389  i++ */\n      dup1\n      dup1\n      tag_181\n      swap1\n      tag_74\n      jump\t// in\n    tag_181:\n      swap2\n      pop\n      pop\n        /* \"EVotingLingkungan.sol\":9347:9613  for (uint256 i = 1; i <= jumlahVoting; i++) {... */\n      jump(tag_160)\n    tag_161:\n      pop\n        /* \"EVotingLingkungan.sol\":8893:9620  function daftarSemuaVoting()... */\n      swap1\n      swap2\n      swap3\n      swap4\n      jump\t// out\n        /* \"EVotingLingkungan.sol\":4539:5236  function tutupVoting(uint256 _votingId)... */\n    tag_38:\n        /* \"EVotingLingkungan.sol\":2054:2059  owner */\n      0x00\n      0x00\n      swap1\n      sload\n      swap1\n      0x0100\n      exp\n      swap1\n      div\n      0xffffffffffffffffffffffffffffffffffffffff\n      and\n        /* \"EVotingLingkungan.sol\":2040:2059  msg.sender == owner */\n      0xffffffffffffffffffffffffffffffffffffffff\n      and\n        /* \"EVotingLingkungan.sol\":2040:2050  msg.sender */\n      caller\n        /* \"EVotingLingkungan.sol\":2040:2059  msg.sender == owner */\n      0xffffffffffffffffffffffffffffffffffffffff\n      and\n      eq\n        /* \"EVotingLingkungan.sol\":2032:2099  require(msg.sender == owner, \"Hanya owner yang bisa melakukan ini\") */\n      tag_183\n      jumpi\n      mload(0x40)\n      0x08c379a000000000000000000000000000000000000000000000000000000000\n      dup2\n      mstore\n      0x04\n      add\n      tag_184\n      swap1\n      tag_62\n      jump\t// in\n    tag_184:\n      mload(0x40)\n      dup1\n      swap2\n      sub\n      swap1\n      revert\n    tag_183:\n        /* \"EVotingLingkungan.sol\":4638:4647  _votingId */\n      dup1\n        /* \"EVotingLingkungan.sol\":2198:2199  0 */\n      0x00\n        /* \"EVotingLingkungan.sol\":2186:2195  _votingId */\n      dup2\n        /* \"EVotingLingkungan.sol\":2186:2199  _votingId > 0 */\n      gt\n        /* \"EVotingLingkungan.sol\":2186:2228  _votingId > 0 && _votingId <= jumlahVoting */\n      dup1\n      iszero\n      tag_186\n      jumpi\n      pop\n        /* \"EVotingLingkungan.sol\":2216:2228  jumlahVoting */\n      sload(0x01)\n        /* \"EVotingLingkungan.sol\":2203:2212  _votingId */\n      dup2\n        /* \"EVotingLingkungan.sol\":2203:2228  _votingId <= jumlahVoting */\n      gt\n      iszero\n        /* \"EVotingLingkungan.sol\":2186:2228  _votingId > 0 && _votingId <= jumlahVoting */\n    tag_186:\n        /* \"EVotingLingkungan.sol\":2178:2254  require(_votingId > 0 && _votingId <= jumlahVoting, \"ID voting tidak valid\") */\n      tag_187\n      jumpi\n      mload(0x40)\n      0x08c379a000000000000000000000000000000000000000000000000000000000\n      dup2\n      mstore\n      0x04\n      add\n      tag_188\n      swap1\n      tag_103\n      jump\t// in\n    tag_188:\n      mload(0x40)\n      dup1\n      swap2\n      sub\n      swap1\n      revert\n    tag_187:\n        /* \"EVotingLingkungan.sol\":4665:4681  Voting storage v */\n      0x00\n        /* \"EVotingLingkungan.sol\":4684:4696  daftarVoting */\n      0x02\n        /* \"EVotingLingkungan.sol\":4684:4707  daftarVoting[_votingId] */\n      0x00\n        /* \"EVotingLingkungan.sol\":4697:4706  _votingId */\n      dup5\n        /* \"EVotingLingkungan.sol\":4684:4707  daftarVoting[_votingId] */\n      dup2\n      mstore\n      0x20\n      add\n      swap1\n      dup2\n      mstore\n      0x20\n      add\n      0x00\n      keccak256\n        /* \"EVotingLingkungan.sol\":4665:4707  Voting storage v = daftarVoting[_votingId] */\n      swap1\n      pop\n        /* \"EVotingLingkungan.sol\":4726:4727  v */\n      dup1\n        /* \"EVotingLingkungan.sol\":4726:4733  v.aktif */\n      0x04\n      add\n      0x00\n      swap1\n      sload\n      swap1\n      0x0100\n      exp\n      swap1\n      div\n      0xff\n      and\n        /* \"EVotingLingkungan.sol\":4718:4769  require(v.aktif, \"Voting sudah ditutup sebelumnya\") */\n      tag_190\n      jumpi\n      mload(0x40)\n      0x08c379a000000000000000000000000000000000000000000000000000000000\n      dup2\n      mstore\n      0x04\n      add\n      tag_191\n      swap1\n      tag_192\n      jump\t// in\n    tag_191:\n      mload(0x40)\n      dup1\n      swap2\n      sub\n      swap1\n      revert\n    tag_190:\n        /* \"EVotingLingkungan.sol\":4792:4797  false */\n      0x00\n        /* \"EVotingLingkungan.sol\":4782:4783  v */\n      dup2\n        /* \"EVotingLingkungan.sol\":4782:4789  v.aktif */\n      0x04\n      add\n      0x00\n        /* \"EVotingLingkungan.sol\":4782:4797  v.aktif = false */\n      0x0100\n      exp\n      dup2\n      sload\n      dup2\n      0xff\n      mul\n      not\n      and\n      swap1\n      dup4\n      iszero\n      iszero\n      mul\n      or\n      swap1\n      sstore\n      pop\n        /* \"EVotingLingkungan.sol\":4827:4836  _votingId */\n      dup3\n        /* \"EVotingLingkungan.sol\":4813:4860  VotingDitutup(_votingId, v.judul, v.totalSuara) */\n      0x1ef2aec11912a0b8a9e48fbd7689f454c66e116205599fd9dda9a277878b6bfa\n        /* \"EVotingLingkungan.sol\":4838:4839  v */\n      dup3\n        /* \"EVotingLingkungan.sol\":4838:4845  v.judul */\n      0x01\n      add\n        /* \"EVotingLingkungan.sol\":4847:4848  v */\n      dup4\n        /* \"EVotingLingkungan.sol\":4847:4859  v.totalSuara */\n      0x05\n      add\n      sload\n        /* \"EVotingLingkungan.sol\":4813:4860  VotingDitutup(_votingId, v.judul, v.totalSuara) */\n      mload(0x40)\n      tag_193\n      swap3\n      swap2\n      swap1\n      tag_194\n      jump\t// in\n    tag_193:\n      mload(0x40)\n      dup1\n      swap2\n      sub\n      swap1\n      log2\n        /* \"EVotingLingkungan.sol\":4942:4943  0 */\n      0x00\n        /* \"EVotingLingkungan.sol\":4927:4928  v */\n      dup2\n        /* \"EVotingLingkungan.sol\":4927:4939  v.totalSuara */\n      0x05\n      add\n      sload\n        /* \"EVotingLingkungan.sol\":4927:4943  v.totalSuara > 0 */\n      gt\n        /* \"EVotingLingkungan.sol\":4923:5229  if (v.totalSuara > 0) {... */\n      iszero\n      tag_195\n      jumpi\n        /* \"EVotingLingkungan.sol\":4961:4979  uint256 pemenangId */\n      0x00\n        /* \"EVotingLingkungan.sol\":4981:5003  uint256 suaraTerbanyak */\n      0x00\n        /* \"EVotingLingkungan.sol\":5007:5031  _cariPemenang(_votingId) */\n      tag_196\n        /* \"EVotingLingkungan.sol\":5021:5030  _votingId */\n      dup6\n        /* \"EVotingLingkungan.sol\":5007:5020  _cariPemenang */\n      tag_197\n        /* \"EVotingLingkungan.sol\":5007:5031  _cariPemenang(_votingId) */\n      jump\t// in\n    tag_196:\n        /* \"EVotingLingkungan.sol\":4960:5031  (uint256 pemenangId, uint256 suaraTerbanyak) = _cariPemenang(_votingId) */\n      swap2\n      pop\n      swap2\n      pop\n        /* \"EVotingLingkungan.sol\":5086:5095  _votingId */\n      dup5\n        /* \"EVotingLingkungan.sol\":5051:5217  PemenangTerpilih(... */\n      0xebdb5148b12668f141c46f068fb8888bbf2d47b792526b801f1466f5bf51b275\n        /* \"EVotingLingkungan.sol\":5114:5124  pemenangId */\n      dup4\n        /* \"EVotingLingkungan.sol\":5143:5144  v */\n      dup6\n        /* \"EVotingLingkungan.sol\":5143:5152  v.pilihan */\n      0x03\n      add\n        /* \"EVotingLingkungan.sol\":5153:5163  pemenangId */\n      dup6\n        /* \"EVotingLingkungan.sol\":5143:5164  v.pilihan[pemenangId] */\n      dup2\n      sload\n      dup2\n      lt\n      tag_198\n      jumpi\n      tag_199\n      tag_89\n      jump\t// in\n    tag_199:\n    tag_198:\n      swap1\n      0x00\n      mstore\n      keccak256(0x00, 0x20)\n      swap1\n      0x02\n      mul\n      add\n        /* \"EVotingLingkungan.sol\":5143:5169  v.pilihan[pemenangId].nama */\n      0x00\n      add\n        /* \"EVotingLingkungan.sol\":5188:5202  suaraTerbanyak */\n      dup5\n        /* \"EVotingLingkungan.sol\":5051:5217  PemenangTerpilih(... */\n      mload(0x40)\n      tag_201\n      swap4\n      swap3\n      swap2\n      swap1\n      tag_202\n      jump\t// in\n    tag_201:\n      mload(0x40)\n      dup1\n      swap2\n      sub\n      swap1\n      log2\n        /* \"EVotingLingkungan.sol\":4945:5229  {... */\n      pop\n      pop\n        /* \"EVotingLingkungan.sol\":4923:5229  if (v.totalSuara > 0) {... */\n    tag_195:\n        /* \"EVotingLingkungan.sol\":4654:5236  {... */\n      pop\n        /* \"EVotingLingkungan.sol\":2110:2111  _ */\n      pop\n        /* \"EVotingLingkungan.sol\":4539:5236  function tutupVoting(uint256 _votingId)... */\n      pop\n      jump\t// out\n        /* \"EVotingLingkungan.sol\":968:988  address public owner */\n    tag_40:\n      0x00\n      0x00\n      swap1\n      sload\n      swap1\n      0x0100\n      exp\n      swap1\n      div\n      0xffffffffffffffffffffffffffffffffffffffff\n      and\n      dup2\n      jump\t// out\n        /* \"EVotingLingkungan.sol\":7908:8128  function sudahVoting(uint256 _votingId, address _alamat)... */\n    tag_46:\n        /* \"EVotingLingkungan.sol\":8047:8051  bool */\n      0x00\n        /* \"EVotingLingkungan.sol\":8018:8027  _votingId */\n      dup3\n        /* \"EVotingLingkungan.sol\":2198:2199  0 */\n      0x00\n        /* \"EVotingLingkungan.sol\":2186:2195  _votingId */\n      dup2\n        /* \"EVotingLingkungan.sol\":2186:2199  _votingId > 0 */\n      gt\n        /* \"EVotingLingkungan.sol\":2186:2228  _votingId > 0 && _votingId <= jumlahVoting */\n      dup1\n      iszero\n      tag_204\n      jumpi\n      pop\n        /* \"EVotingLingkungan.sol\":2216:2228  jumlahVoting */\n      sload(0x01)\n        /* \"EVotingLingkungan.sol\":2203:2212  _votingId */\n      dup2\n        /* \"EVotingLingkungan.sol\":2203:2228  _votingId <= jumlahVoting */\n      gt\n      iszero\n        /* \"EVotingLingkungan.sol\":2186:2228  _votingId > 0 && _votingId <= jumlahVoting */\n    tag_204:\n        /* \"EVotingLingkungan.sol\":2178:2254  require(_votingId > 0 && _votingId <= jumlahVoting, \"ID voting tidak valid\") */\n      tag_205\n      jumpi\n      mload(0x40)\n      0x08c379a000000000000000000000000000000000000000000000000000000000\n      dup2\n      mstore\n      0x04\n      add\n      tag_206\n      swap1\n      tag_103\n      jump\t// in\n    tag_206:\n      mload(0x40)\n      dup1\n      swap2\n      sub\n      swap1\n      revert\n    tag_205:\n        /* \"EVotingLingkungan.sol\":8076:8088  daftarVoting */\n      0x02\n        /* \"EVotingLingkungan.sol\":8076:8099  daftarVoting[_votingId] */\n      0x00\n        /* \"EVotingLingkungan.sol\":8089:8098  _votingId */\n      dup6\n        /* \"EVotingLingkungan.sol\":8076:8099  daftarVoting[_votingId] */\n      dup2\n      mstore\n      0x20\n      add\n      swap1\n      dup2\n      mstore\n      0x20\n      add\n      0x00\n      keccak256\n        /* \"EVotingLingkungan.sol\":8076:8111  daftarVoting[_votingId].sudahVoting */\n      0x08\n      add\n        /* \"EVotingLingkungan.sol\":8076:8120  daftarVoting[_votingId].sudahVoting[_alamat] */\n      0x00\n        /* \"EVotingLingkungan.sol\":8112:8119  _alamat */\n      dup5\n        /* \"EVotingLingkungan.sol\":8076:8120  daftarVoting[_votingId].sudahVoting[_alamat] */\n      0xffffffffffffffffffffffffffffffffffffffff\n      and\n      0xffffffffffffffffffffffffffffffffffffffff\n      and\n      dup2\n      mstore\n      0x20\n      add\n      swap1\n      dup2\n      mstore\n      0x20\n      add\n      0x00\n      keccak256\n      0x00\n      swap1\n      sload\n      swap1\n      0x0100\n      exp\n      swap1\n      div\n      0xff\n      and\n        /* \"EVotingLingkungan.sol\":8069:8120  return daftarVoting[_votingId].sudahVoting[_alamat] */\n      swap2\n      pop\n        /* \"EVotingLingkungan.sol\":7908:8128  function sudahVoting(uint256 _votingId, address _alamat)... */\n      pop\n      swap3\n      swap2\n      pop\n      pop\n      jump\t// out\n        /* \"EVotingLingkungan.sol\":8230:8808  function pemenangSementara(uint256 _votingId)... */\n    tag_51:\n        /* \"EVotingLingkungan.sol\":8372:8389  uint256 pilihanId */\n      0x00\n        /* \"EVotingLingkungan.sol\":8404:8430  string memory namaPemenang */\n      0x60\n        /* \"EVotingLingkungan.sol\":8445:8464  uint256 jumlahSuara */\n      0x00\n        /* \"EVotingLingkungan.sol\":8479:8491  bool adaSeri */\n      0x00\n        /* \"EVotingLingkungan.sol\":8329:8338  _votingId */\n      dup5\n        /* \"EVotingLingkungan.sol\":2198:2199  0 */\n      0x00\n        /* \"EVotingLingkungan.sol\":2186:2195  _votingId */\n      dup2\n        /* \"EVotingLingkungan.sol\":2186:2199  _votingId > 0 */\n      gt\n        /* \"EVotingLingkungan.sol\":2186:2228  _votingId > 0 && _votingId <= jumlahVoting */\n      dup1\n      iszero\n      tag_209\n      jumpi\n      pop\n        /* \"EVotingLingkungan.sol\":2216:2228  jumlahVoting */\n      sload(0x01)\n        /* \"EVotingLingkungan.sol\":2203:2212  _votingId */\n      dup2\n        /* \"EVotingLingkungan.sol\":2203:2228  _votingId <= jumlahVoting */\n      gt\n      iszero\n        /* \"EVotingLingkungan.sol\":2186:2228  _votingId > 0 && _votingId <= jumlahVoting */\n    tag_209:\n        /* \"EVotingLingkungan.sol\":2178:2254  require(_votingId > 0 && _votingId <= jumlahVoting, \"ID voting tidak valid\") */\n      tag_210\n      jumpi\n      mload(0x40)\n      0x08c379a000000000000000000000000000000000000000000000000000000000\n      dup2\n      mstore\n      0x04\n      add\n      tag_211\n      swap1\n      tag_103\n      jump\t// in\n    tag_211:\n      mload(0x40)\n      dup1\n      swap2\n      sub\n      swap1\n      revert\n    tag_210:\n        /* \"EVotingLingkungan.sol\":8519:8535  Voting storage v */\n      0x00\n        /* \"EVotingLingkungan.sol\":8538:8550  daftarVoting */\n      0x02\n        /* \"EVotingLingkungan.sol\":8538:8561  daftarVoting[_votingId] */\n      0x00\n        /* \"EVotingLingkungan.sol\":8551:8560  _votingId */\n      dup9\n        /* \"EVotingLingkungan.sol\":8538:8561  daftarVoting[_votingId] */\n      dup2\n      mstore\n      0x20\n      add\n      swap1\n      dup2\n      mstore\n      0x20\n      add\n      0x00\n      keccak256\n        /* \"EVotingLingkungan.sol\":8519:8561  Voting storage v = daftarVoting[_votingId] */\n      swap1\n      pop\n        /* \"EVotingLingkungan.sol\":8595:8596  0 */\n      0x00\n        /* \"EVotingLingkungan.sol\":8580:8581  v */\n      dup2\n        /* \"EVotingLingkungan.sol\":8580:8592  v.totalSuara */\n      0x05\n      add\n      sload\n        /* \"EVotingLingkungan.sol\":8580:8596  v.totalSuara > 0 */\n      gt\n        /* \"EVotingLingkungan.sol\":8572:8627  require(v.totalSuara > 0, \"Belum ada suara yang masuk\") */\n      tag_213\n      jumpi\n      mload(0x40)\n      0x08c379a000000000000000000000000000000000000000000000000000000000\n      dup2\n      mstore\n      0x04\n      add\n      tag_214\n      swap1\n      tag_215\n      jump\t// in\n    tag_214:\n      mload(0x40)\n      dup1\n      swap2\n      sub\n      swap1\n      revert\n    tag_213:\n        /* \"EVotingLingkungan.sol\":8641:8651  uint256 id */\n      0x00\n        /* \"EVotingLingkungan.sol\":8653:8666  uint256 suara */\n      0x00\n        /* \"EVotingLingkungan.sol\":8670:8694  _cariPemenang(_votingId) */\n      tag_216\n        /* \"EVotingLingkungan.sol\":8684:8693  _votingId */\n      dup10\n        /* \"EVotingLingkungan.sol\":8670:8683  _cariPemenang */\n      tag_197\n        /* \"EVotingLingkungan.sol\":8670:8694  _cariPemenang(_votingId) */\n      jump\t// in\n    tag_216:\n        /* \"EVotingLingkungan.sol\":8640:8694  (uint256 id, uint256 suara) = _cariPemenang(_votingId) */\n      swap2\n      pop\n      swap2\n      pop\n        /* \"EVotingLingkungan.sol\":8705:8714  bool seri */\n      0x00\n        /* \"EVotingLingkungan.sol\":8717:8743  _cekSeri(_votingId, suara) */\n      tag_217\n        /* \"EVotingLingkungan.sol\":8726:8735  _votingId */\n      dup11\n        /* \"EVotingLingkungan.sol\":8737:8742  suara */\n      dup4\n        /* \"EVotingLingkungan.sol\":8717:8725  _cekSeri */\n      tag_218\n        /* \"EVotingLingkungan.sol\":8717:8743  _cekSeri(_votingId, suara) */\n      jump\t// in\n    tag_217:\n        /* \"EVotingLingkungan.sol\":8705:8743  bool seri = _cekSeri(_votingId, suara) */\n      swap1\n      pop\n        /* \"EVotingLingkungan.sol\":8764:8766  id */\n      dup3\n        /* \"EVotingLingkungan.sol\":8768:8769  v */\n      dup5\n        /* \"EVotingLingkungan.sol\":8768:8777  v.pilihan */\n      0x03\n      add\n        /* \"EVotingLingkungan.sol\":8778:8780  id */\n      dup5\n        /* \"EVotingLingkungan.sol\":8768:8781  v.pilihan[id] */\n      dup2\n      sload\n      dup2\n      lt\n      tag_219\n      jumpi\n      tag_220\n      tag_89\n      jump\t// in\n    tag_220:\n    tag_219:\n      swap1\n      0x00\n      mstore\n      keccak256(0x00, 0x20)\n      swap1\n      0x02\n      mul\n      add\n        /* \"EVotingLingkungan.sol\":8768:8786  v.pilihan[id].nama */\n      0x00\n      add\n        /* \"EVotingLingkungan.sol\":8788:8793  suara */\n      dup4\n        /* \"EVotingLingkungan.sol\":8795:8799  seri */\n      dup4\n        /* \"EVotingLingkungan.sol\":8756:8800  return (id, v.pilihan[id].nama, suara, seri) */\n      dup3\n      dup1\n      sload\n      tag_222\n      swap1\n      tag_135\n      jump\t// in\n    tag_222:\n      dup1\n      0x1f\n      add\n      0x20\n      dup1\n      swap2\n      div\n      mul\n      0x20\n      add\n      mload(0x40)\n      swap1\n      dup2\n      add\n      0x40\n      mstore\n      dup1\n      swap3\n      swap2\n      swap1\n      dup2\n      dup2\n      mstore\n      0x20\n      add\n      dup3\n      dup1\n      sload\n      tag_223\n      swap1\n      tag_135\n      jump\t// in\n    tag_223:\n      dup1\n      iszero\n      tag_224\n      jumpi\n      dup1\n      0x1f\n      lt\n      tag_225\n      jumpi\n      0x0100\n      dup1\n      dup4\n      sload\n      div\n      mul\n      dup4\n      mstore\n      swap2\n      0x20\n      add\n      swap2\n      jump(tag_224)\n    tag_225:\n      dup3\n      add\n      swap2\n      swap1\n      0x00\n      mstore\n      keccak256(0x00, 0x20)\n      swap1\n    tag_226:\n      dup2\n      sload\n      dup2\n      mstore\n      swap1\n      0x01\n      add\n      swap1\n      0x20\n      add\n      dup1\n      dup4\n      gt\n      tag_226\n      jumpi\n      dup3\n      swap1\n      sub\n      0x1f\n      and\n      dup3\n      add\n      swap2\n    tag_224:\n      pop\n      pop\n      pop\n      pop\n      pop\n      swap3\n      pop\n      swap9\n      pop\n      swap9\n      pop\n      swap9\n      pop\n      swap9\n      pop\n      pop\n      pop\n      pop\n      pop\n        /* \"EVotingLingkungan.sol\":8230:8808  function pemenangSementara(uint256 _votingId)... */\n      pop\n      swap2\n      swap4\n      pop\n      swap2\n      swap4\n      jump\t// out\n        /* \"EVotingLingkungan.sol\":7235:7831  function lihatHasil(uint256 _votingId)... */\n    tag_56:\n        /* \"EVotingLingkungan.sol\":7370:7397  string[] memory namaPilihan */\n      0x60\n        /* \"EVotingLingkungan.sol\":7412:7450  uint256[] memory jumlahSuaraPerPilihan */\n      dup1\n        /* \"EVotingLingkungan.sol\":7327:7336  _votingId */\n      dup3\n        /* \"EVotingLingkungan.sol\":2198:2199  0 */\n      0x00\n        /* \"EVotingLingkungan.sol\":2186:2195  _votingId */\n      dup2\n        /* \"EVotingLingkungan.sol\":2186:2199  _votingId > 0 */\n      gt\n        /* \"EVotingLingkungan.sol\":2186:2228  _votingId > 0 && _votingId <= jumlahVoting */\n      dup1\n      iszero\n      tag_228\n      jumpi\n      pop\n        /* \"EVotingLingkungan.sol\":2216:2228  jumlahVoting */\n      sload(0x01)\n        /* \"EVotingLingkungan.sol\":2203:2212  _votingId */\n      dup2\n        /* \"EVotingLingkungan.sol\":2203:2228  _votingId <= jumlahVoting */\n      gt\n      iszero\n        /* \"EVotingLingkungan.sol\":2186:2228  _votingId > 0 && _votingId <= jumlahVoting */\n    tag_228:\n        /* \"EVotingLingkungan.sol\":2178:2254  require(_votingId > 0 && _votingId <= jumlahVoting, \"ID voting tidak valid\") */\n      tag_229\n      jumpi\n      mload(0x40)\n      0x08c379a000000000000000000000000000000000000000000000000000000000\n      dup2\n      mstore\n      0x04\n      add\n      tag_230\n      swap1\n      tag_103\n      jump\t// in\n    tag_230:\n      mload(0x40)\n      dup1\n      swap2\n      sub\n      swap1\n      revert\n    tag_229:\n        /* \"EVotingLingkungan.sol\":7478:7494  Voting storage v */\n      0x00\n        /* \"EVotingLingkungan.sol\":7497:7509  daftarVoting */\n      0x02\n        /* \"EVotingLingkungan.sol\":7497:7520  daftarVoting[_votingId] */\n      0x00\n        /* \"EVotingLingkungan.sol\":7510:7519  _votingId */\n      dup7\n        /* \"EVotingLingkungan.sol\":7497:7520  daftarVoting[_votingId] */\n      dup2\n      mstore\n      0x20\n      add\n      swap1\n      dup2\n      mstore\n      0x20\n      add\n      0x00\n      keccak256\n        /* \"EVotingLingkungan.sol\":7478:7520  Voting storage v = daftarVoting[_votingId] */\n      swap1\n      pop\n        /* \"EVotingLingkungan.sol\":7531:7540  uint256 n */\n      0x00\n        /* \"EVotingLingkungan.sol\":7543:7544  v */\n      dup2\n        /* \"EVotingLingkungan.sol\":7543:7552  v.pilihan */\n      0x03\n      add\n        /* \"EVotingLingkungan.sol\":7543:7559  v.pilihan.length */\n      dup1\n      sload\n      swap1\n      pop\n        /* \"EVotingLingkungan.sol\":7531:7559  uint256 n = v.pilihan.length */\n      swap1\n      pop\n        /* \"EVotingLingkungan.sol\":7599:7600  n */\n      dup1\n        /* \"EVotingLingkungan.sol\":7586:7601  new string[](n) */\n      0xffffffffffffffff\n      dup2\n      gt\n      iszero\n      tag_232\n      jumpi\n      tag_233\n      tag_148\n      jump\t// in\n    tag_233:\n    tag_232:\n      mload(0x40)\n      swap1\n      dup1\n      dup3\n      mstore\n      dup1\n      0x20\n      mul\n      0x20\n      add\n      dup3\n      add\n      0x40\n      mstore\n      dup1\n      iszero\n      tag_234\n      jumpi\n      dup2\n      0x20\n      add\n    tag_235:\n      0x60\n      dup2\n      mstore\n      0x20\n      add\n      swap1\n      0x01\n      swap1\n      sub\n      swap1\n      dup2\n      tag_235\n      jumpi\n      swap1\n      pop\n    tag_234:\n      pop\n        /* \"EVotingLingkungan.sol\":7572:7601  namaPilihan = new string[](n) */\n      swap5\n      pop\n        /* \"EVotingLingkungan.sol\":7650:7651  n */\n      dup1\n        /* \"EVotingLingkungan.sol\":7636:7652  new uint256[](n) */\n      0xffffffffffffffff\n      dup2\n      gt\n      iszero\n      tag_236\n      jumpi\n      tag_237\n      tag_148\n      jump\t// in\n    tag_237:\n    tag_236:\n      mload(0x40)\n      swap1\n      dup1\n      dup3\n      mstore\n      dup1\n      0x20\n      mul\n      0x20\n      add\n      dup3\n      add\n      0x40\n      mstore\n      dup1\n      iszero\n      tag_238\n      jumpi\n      dup2\n      0x20\n      add\n      0x20\n      dup3\n      mul\n      dup1\n      calldatasize\n      dup4\n      calldatacopy\n      dup1\n      dup3\n      add\n      swap2\n      pop\n      pop\n      swap1\n      pop\n    tag_238:\n      pop\n        /* \"EVotingLingkungan.sol\":7612:7652  jumlahSuaraPerPilihan = new uint256[](n) */\n      swap4\n      pop\n        /* \"EVotingLingkungan.sol\":7670:7679  uint256 i */\n      0x00\n        /* \"EVotingLingkungan.sol\":7682:7683  0 */\n      0x00\n        /* \"EVotingLingkungan.sol\":7670:7683  uint256 i = 0 */\n      swap1\n      pop\n        /* \"EVotingLingkungan.sol\":7665:7824  for (uint256 i = 0; i < n; i++) {... */\n    tag_239:\n        /* \"EVotingLingkungan.sol\":7689:7690  n */\n      dup2\n        /* \"EVotingLingkungan.sol\":7685:7686  i */\n      dup2\n        /* \"EVotingLingkungan.sol\":7685:7690  i < n */\n      lt\n        /* \"EVotingLingkungan.sol\":7665:7824  for (uint256 i = 0; i < n; i++) {... */\n      iszero\n      tag_240\n      jumpi\n        /* \"EVotingLingkungan.sol\":7729:7730  v */\n      dup3\n        /* \"EVotingLingkungan.sol\":7729:7738  v.pilihan */\n      0x03\n      add\n        /* \"EVotingLingkungan.sol\":7739:7740  i */\n      dup2\n        /* \"EVotingLingkungan.sol\":7729:7741  v.pilihan[i] */\n      dup2\n      sload\n      dup2\n      lt\n      tag_242\n      jumpi\n      tag_243\n      tag_89\n      jump\t// in\n    tag_243:\n    tag_242:\n      swap1\n      0x00\n      mstore\n      keccak256(0x00, 0x20)\n      swap1\n      0x02\n      mul\n      add\n        /* \"EVotingLingkungan.sol\":7729:7746  v.pilihan[i].nama */\n      0x00\n      add\n        /* \"EVotingLingkungan.sol\":7712:7746  namaPilihan[i] = v.pilihan[i].nama */\n      dup1\n      sload\n      tag_245\n      swap1\n      tag_135\n      jump\t// in\n    tag_245:\n      dup1\n      0x1f\n      add\n      0x20\n      dup1\n      swap2\n      div\n      mul\n      0x20\n      add\n      mload(0x40)\n      swap1\n      dup2\n      add\n      0x40\n      mstore\n      dup1\n      swap3\n      swap2\n      swap1\n      dup2\n      dup2\n      mstore\n      0x20\n      add\n      dup3\n      dup1\n      sload\n      tag_246\n      swap1\n      tag_135\n      jump\t// in\n    tag_246:\n      dup1\n      iszero\n      tag_247\n      jumpi\n      dup1\n      0x1f\n      lt\n      tag_248\n      jumpi\n      0x0100\n      dup1\n      dup4\n      sload\n      div\n      mul\n      dup4\n      mstore\n      swap2\n      0x20\n      add\n      swap2\n      jump(tag_247)\n    tag_248:\n      dup3\n      add\n      swap2\n      swap1\n      0x00\n      mstore\n      keccak256(0x00, 0x20)\n      swap1\n    tag_249:\n      dup2\n      sload\n      dup2\n      mstore\n      swap1\n      0x01\n      add\n      swap1\n      0x20\n      add\n      dup1\n      dup4\n      gt\n      tag_249\n      jumpi\n      dup3\n      swap1\n      sub\n      0x1f\n      and\n      dup3\n      add\n      swap2\n    tag_247:\n      pop\n      pop\n      pop\n      pop\n      pop\n        /* \"EVotingLingkungan.sol\":7712:7723  namaPilihan */\n      dup7\n        /* \"EVotingLingkungan.sol\":7724:7725  i */\n      dup3\n        /* \"EVotingLingkungan.sol\":7712:7726  namaPilihan[i] */\n      dup2\n      mload\n      dup2\n      lt\n      tag_250\n      jumpi\n      tag_251\n      tag_89\n      jump\t// in\n    tag_251:\n    tag_250:\n      0x20\n      mul\n      0x20\n      add\n      add\n        /* \"EVotingLingkungan.sol\":7712:7746  namaPilihan[i] = v.pilihan[i].nama */\n      dup2\n      swap1\n      mstore\n      pop\n        /* \"EVotingLingkungan.sol\":7788:7789  v */\n      dup3\n        /* \"EVotingLingkungan.sol\":7788:7797  v.pilihan */\n      0x03\n      add\n        /* \"EVotingLingkungan.sol\":7798:7799  i */\n      dup2\n        /* \"EVotingLingkungan.sol\":7788:7800  v.pilihan[i] */\n      dup2\n      sload\n      dup2\n      lt\n      tag_252\n      jumpi\n      tag_253\n      tag_89\n      jump\t// in\n    tag_253:\n    tag_252:\n      swap1\n      0x00\n      mstore\n      keccak256(0x00, 0x20)\n      swap1\n      0x02\n      mul\n      add\n        /* \"EVotingLingkungan.sol\":7788:7812  v.pilihan[i].jumlahSuara */\n      0x01\n      add\n      sload\n        /* \"EVotingLingkungan.sol\":7761:7782  jumlahSuaraPerPilihan */\n      dup6\n        /* \"EVotingLingkungan.sol\":7783:7784  i */\n      dup3\n        /* \"EVotingLingkungan.sol\":7761:7785  jumlahSuaraPerPilihan[i] */\n      dup2\n      mload\n      dup2\n      lt\n      tag_255\n      jumpi\n      tag_256\n      tag_89\n      jump\t// in\n    tag_256:\n    tag_255:\n      0x20\n      mul\n      0x20\n      add\n      add\n        /* \"EVotingLingkungan.sol\":7761:7812  jumlahSuaraPerPilihan[i] = v.pilihan[i].jumlahSuara */\n      dup2\n      dup2\n      mstore\n      pop\n      pop\n        /* \"EVotingLingkungan.sol\":7692:7695  i++ */\n      dup1\n      dup1\n      0x01\n      add\n      swap2\n      pop\n      pop\n        /* \"EVotingLingkungan.sol\":7665:7824  for (uint256 i = 0; i < n; i++) {... */\n      jump(tag_239)\n    tag_240:\n      pop\n        /* \"EVotingLingkungan.sol\":7467:7831  {... */\n      pop\n      pop\n        /* \"EVotingLingkungan.sol\":7235:7831  function lihatHasil(uint256 _votingId)... */\n      pop\n      swap2\n      pop\n      swap2\n      jump\t// out\n        /* \"EVotingLingkungan.sol\":9776:10273  function _cariPemenang(uint256 _votingId)... */\n    tag_197:\n        /* \"EVotingLingkungan.sol\":9868:9886  uint256 pemenangId */\n      0x00\n        /* \"EVotingLingkungan.sol\":9888:9910  uint256 suaraTerbanyak */\n      0x00\n        /* \"EVotingLingkungan.sol\":9928:9944  Voting storage v */\n      0x00\n        /* \"EVotingLingkungan.sol\":9947:9959  daftarVoting */\n      0x02\n        /* \"EVotingLingkungan.sol\":9947:9970  daftarVoting[_votingId] */\n      0x00\n        /* \"EVotingLingkungan.sol\":9960:9969  _votingId */\n      dup6\n        /* \"EVotingLingkungan.sol\":9947:9970  daftarVoting[_votingId] */\n      dup2\n      mstore\n      0x20\n      add\n      swap1\n      dup2\n      mstore\n      0x20\n      add\n      0x00\n      keccak256\n        /* \"EVotingLingkungan.sol\":9928:9970  Voting storage v = daftarVoting[_votingId] */\n      swap1\n      pop\n        /* \"EVotingLingkungan.sol\":9998:9999  0 */\n      0x00\n        /* \"EVotingLingkungan.sol\":9981:9999  suaraTerbanyak = 0 */\n      swap2\n      pop\n        /* \"EVotingLingkungan.sol\":10023:10024  0 */\n      0x00\n        /* \"EVotingLingkungan.sol\":10010:10024  pemenangId = 0 */\n      swap3\n      pop\n        /* \"EVotingLingkungan.sol\":10042:10051  uint256 i */\n      0x00\n        /* \"EVotingLingkungan.sol\":10054:10055  0 */\n      0x00\n        /* \"EVotingLingkungan.sol\":10042:10055  uint256 i = 0 */\n      swap1\n      pop\n        /* \"EVotingLingkungan.sol\":10037:10266  for (uint256 i = 0; i < v.pilihan.length; i++) {... */\n    tag_258:\n        /* \"EVotingLingkungan.sol\":10061:10062  v */\n      dup2\n        /* \"EVotingLingkungan.sol\":10061:10070  v.pilihan */\n      0x03\n      add\n        /* \"EVotingLingkungan.sol\":10061:10077  v.pilihan.length */\n      dup1\n      sload\n      swap1\n      pop\n        /* \"EVotingLingkungan.sol\":10057:10058  i */\n      dup2\n        /* \"EVotingLingkungan.sol\":10057:10077  i < v.pilihan.length */\n      lt\n        /* \"EVotingLingkungan.sol\":10037:10266  for (uint256 i = 0; i < v.pilihan.length; i++) {... */\n      iszero\n      tag_259\n      jumpi\n        /* \"EVotingLingkungan.sol\":10130:10144  suaraTerbanyak */\n      dup3\n        /* \"EVotingLingkungan.sol\":10103:10104  v */\n      dup3\n        /* \"EVotingLingkungan.sol\":10103:10112  v.pilihan */\n      0x03\n      add\n        /* \"EVotingLingkungan.sol\":10113:10114  i */\n      dup3\n        /* \"EVotingLingkungan.sol\":10103:10115  v.pilihan[i] */\n      dup2\n      sload\n      dup2\n      lt\n      tag_261\n      jumpi\n      tag_262\n      tag_89\n      jump\t// in\n    tag_262:\n    tag_261:\n      swap1\n      0x00\n      mstore\n      keccak256(0x00, 0x20)\n      swap1\n      0x02\n      mul\n      add\n        /* \"EVotingLingkungan.sol\":10103:10127  v.pilihan[i].jumlahSuara */\n      0x01\n      add\n      sload\n        /* \"EVotingLingkungan.sol\":10103:10144  v.pilihan[i].jumlahSuara > suaraTerbanyak */\n      gt\n        /* \"EVotingLingkungan.sol\":10099:10255  if (v.pilihan[i].jumlahSuara > suaraTerbanyak) {... */\n      iszero\n      tag_264\n      jumpi\n        /* \"EVotingLingkungan.sol\":10182:10183  v */\n      dup2\n        /* \"EVotingLingkungan.sol\":10182:10191  v.pilihan */\n      0x03\n      add\n        /* \"EVotingLingkungan.sol\":10192:10193  i */\n      dup2\n        /* \"EVotingLingkungan.sol\":10182:10194  v.pilihan[i] */\n      dup2\n      sload\n      dup2\n      lt\n      tag_265\n      jumpi\n      tag_266\n      tag_89\n      jump\t// in\n    tag_266:\n    tag_265:\n      swap1\n      0x00\n      mstore\n      keccak256(0x00, 0x20)\n      swap1\n      0x02\n      mul\n      add\n        /* \"EVotingLingkungan.sol\":10182:10206  v.pilihan[i].jumlahSuara */\n      0x01\n      add\n      sload\n        /* \"EVotingLingkungan.sol\":10165:10206  suaraTerbanyak = v.pilihan[i].jumlahSuara */\n      swap3\n      pop\n        /* \"EVotingLingkungan.sol\":10238:10239  i */\n      dup1\n        /* \"EVotingLingkungan.sol\":10225:10239  pemenangId = i */\n      swap4\n      pop\n        /* \"EVotingLingkungan.sol\":10099:10255  if (v.pilihan[i].jumlahSuara > suaraTerbanyak) {... */\n    tag_264:\n        /* \"EVotingLingkungan.sol\":10079:10082  i++ */\n      dup1\n      dup1\n      0x01\n      add\n      swap2\n      pop\n      pop\n        /* \"EVotingLingkungan.sol\":10037:10266  for (uint256 i = 0; i < v.pilihan.length; i++) {... */\n      jump(tag_258)\n    tag_259:\n      pop\n        /* \"EVotingLingkungan.sol\":9917:10273  {... */\n      pop\n        /* \"EVotingLingkungan.sol\":9776:10273  function _cariPemenang(uint256 _votingId)... */\n      swap2\n      pop\n      swap2\n      jump\t// out\n        /* \"EVotingLingkungan.sol\":10281:10694  function _cekSeri(uint256 _votingId, uint256 _suaraTerbanyak)... */\n    tag_218:\n        /* \"EVotingLingkungan.sol\":10393:10397  bool */\n      0x00\n        /* \"EVotingLingkungan.sol\":10415:10431  Voting storage v */\n      0x00\n        /* \"EVotingLingkungan.sol\":10434:10446  daftarVoting */\n      0x02\n        /* \"EVotingLingkungan.sol\":10434:10457  daftarVoting[_votingId] */\n      0x00\n        /* \"EVotingLingkungan.sol\":10447:10456  _votingId */\n      dup6\n        /* \"EVotingLingkungan.sol\":10434:10457  daftarVoting[_votingId] */\n      dup2\n      mstore\n      0x20\n      add\n      swap1\n      dup2\n      mstore\n      0x20\n      add\n      0x00\n      keccak256\n        /* \"EVotingLingkungan.sol\":10415:10457  Voting storage v = daftarVoting[_votingId] */\n      swap1\n      pop\n        /* \"EVotingLingkungan.sol\":10468:10481  uint256 count */\n      0x00\n        /* \"EVotingLingkungan.sol\":10484:10485  0 */\n      0x00\n        /* \"EVotingLingkungan.sol\":10468:10485  uint256 count = 0 */\n      swap1\n      pop\n        /* \"EVotingLingkungan.sol\":10501:10510  uint256 i */\n      0x00\n        /* \"EVotingLingkungan.sol\":10513:10514  0 */\n      0x00\n        /* \"EVotingLingkungan.sol\":10501:10514  uint256 i = 0 */\n      swap1\n      pop\n        /* \"EVotingLingkungan.sol\":10496:10660  for (uint256 i = 0; i < v.pilihan.length; i++) {... */\n    tag_269:\n        /* \"EVotingLingkungan.sol\":10520:10521  v */\n      dup3\n        /* \"EVotingLingkungan.sol\":10520:10529  v.pilihan */\n      0x03\n      add\n        /* \"EVotingLingkungan.sol\":10520:10536  v.pilihan.length */\n      dup1\n      sload\n      swap1\n      pop\n        /* \"EVotingLingkungan.sol\":10516:10517  i */\n      dup2\n        /* \"EVotingLingkungan.sol\":10516:10536  i < v.pilihan.length */\n      lt\n        /* \"EVotingLingkungan.sol\":10496:10660  for (uint256 i = 0; i < v.pilihan.length; i++) {... */\n      iszero\n      tag_270\n      jumpi\n        /* \"EVotingLingkungan.sol\":10590:10605  _suaraTerbanyak */\n      dup5\n        /* \"EVotingLingkungan.sol\":10562:10563  v */\n      dup4\n        /* \"EVotingLingkungan.sol\":10562:10571  v.pilihan */\n      0x03\n      add\n        /* \"EVotingLingkungan.sol\":10572:10573  i */\n      dup3\n        /* \"EVotingLingkungan.sol\":10562:10574  v.pilihan[i] */\n      dup2\n      sload\n      dup2\n      lt\n      tag_272\n      jumpi\n      tag_273\n      tag_89\n      jump\t// in\n    tag_273:\n    tag_272:\n      swap1\n      0x00\n      mstore\n      keccak256(0x00, 0x20)\n      swap1\n      0x02\n      mul\n      add\n        /* \"EVotingLingkungan.sol\":10562:10586  v.pilihan[i].jumlahSuara */\n      0x01\n      add\n      sload\n        /* \"EVotingLingkungan.sol\":10562:10605  v.pilihan[i].jumlahSuara == _suaraTerbanyak */\n      sub\n        /* \"EVotingLingkungan.sol\":10558:10649  if (v.pilihan[i].jumlahSuara == _suaraTerbanyak) {... */\n      tag_275\n      jumpi\n        /* \"EVotingLingkungan.sol\":10626:10633  count++ */\n      dup2\n      dup1\n      tag_276\n      swap1\n      tag_74\n      jump\t// in\n    tag_276:\n      swap3\n      pop\n      pop\n        /* \"EVotingLingkungan.sol\":10558:10649  if (v.pilihan[i].jumlahSuara == _suaraTerbanyak) {... */\n    tag_275:\n        /* \"EVotingLingkungan.sol\":10538:10541  i++ */\n      dup1\n      dup1\n      0x01\n      add\n      swap2\n      pop\n      pop\n        /* \"EVotingLingkungan.sol\":10496:10660  for (uint256 i = 0; i < v.pilihan.length; i++) {... */\n      jump(tag_269)\n    tag_270:\n      pop\n        /* \"EVotingLingkungan.sol\":10685:10686  1 */\n      0x01\n        /* \"EVotingLingkungan.sol\":10677:10682  count */\n      dup2\n        /* \"EVotingLingkungan.sol\":10677:10686  count > 1 */\n      gt\n        /* \"EVotingLingkungan.sol\":10670:10686  return count > 1 */\n      swap3\n      pop\n      pop\n      pop\n        /* \"EVotingLingkungan.sol\":10281:10694  function _cekSeri(uint256 _votingId, uint256 _suaraTerbanyak)... */\n      swap3\n      swap2\n      pop\n      pop\n      jump\t// out\n        /* \"#utility.yul\":7:82   */\n    tag_277:\n        /* \"#utility.yul\":40:46   */\n      0x00\n        /* \"#utility.yul\":73:75   */\n      0x40\n        /* \"#utility.yul\":67:76   */\n      mload\n        /* \"#utility.yul\":57:76   */\n      swap1\n      pop\n        /* \"#utility.yul\":7:82   */\n      swap1\n      jump\t// out\n        /* \"#utility.yul\":88:205   */\n    tag_278:\n        /* \"#utility.yul\":197:198   */\n      0x00\n        /* \"#utility.yul\":194:195   */\n      0x00\n        /* \"#utility.yul\":187:199   */\n      revert\n        /* \"#utility.yul\":211:328   */\n    tag_279:\n        /* \"#utility.yul\":320:321   */\n      0x00\n        /* \"#utility.yul\":317:318   */\n      0x00\n        /* \"#utility.yul\":310:322   */\n      revert\n        /* \"#utility.yul\":334:451   */\n    tag_280:\n        /* \"#utility.yul\":443:444   */\n      0x00\n        /* \"#utility.yul\":440:441   */\n      0x00\n        /* \"#utility.yul\":433:445   */\n      revert\n        /* \"#utility.yul\":457:574   */\n    tag_281:\n        /* \"#utility.yul\":566:567   */\n      0x00\n        /* \"#utility.yul\":563:564   */\n      0x00\n        /* \"#utility.yul\":556:568   */\n      revert\n        /* \"#utility.yul\":580:682   */\n    tag_282:\n        /* \"#utility.yul\":621:627   */\n      0x00\n        /* \"#utility.yul\":672:674   */\n      0x1f\n        /* \"#utility.yul\":668:675   */\n      not\n        /* \"#utility.yul\":663:665   */\n      0x1f\n        /* \"#utility.yul\":656:661   */\n      dup4\n        /* \"#utility.yul\":652:666   */\n      add\n        /* \"#utility.yul\":648:676   */\n      and\n        /* \"#utility.yul\":638:676   */\n      swap1\n      pop\n        /* \"#utility.yul\":580:682   */\n      swap2\n      swap1\n      pop\n      jump\t// out\n        /* \"#utility.yul\":688:868   */\n    tag_148:\n        /* \"#utility.yul\":736:813   */\n      0x4e487b7100000000000000000000000000000000000000000000000000000000\n        /* \"#utility.yul\":733:734   */\n      0x00\n        /* \"#utility.yul\":726:814   */\n      mstore\n        /* \"#utility.yul\":833:837   */\n      0x41\n        /* \"#utility.yul\":830:831   */\n      0x04\n        /* \"#utility.yul\":823:838   */\n      mstore\n        /* \"#utility.yul\":857:861   */\n      0x24\n        /* \"#utility.yul\":854:855   */\n      0x00\n        /* \"#utility.yul\":847:862   */\n      revert\n        /* \"#utility.yul\":874:1155   */\n    tag_283:\n        /* \"#utility.yul\":957:984   */\n      tag_381\n        /* \"#utility.yul\":979:983   */\n      dup3\n        /* \"#utility.yul\":957:984   */\n      tag_282\n      jump\t// in\n    tag_381:\n        /* \"#utility.yul\":949:955   */\n      dup2\n        /* \"#utility.yul\":945:985   */\n      add\n        /* \"#utility.yul\":1087:1093   */\n      dup2\n        /* \"#utility.yul\":1075:1085   */\n      dup2\n        /* \"#utility.yul\":1072:1094   */\n      lt\n        /* \"#utility.yul\":1051:1069   */\n      0xffffffffffffffff\n        /* \"#utility.yul\":1039:1049   */\n      dup3\n        /* \"#utility.yul\":1036:1070   */\n      gt\n        /* \"#utility.yul\":1033:1095   */\n      or\n        /* \"#utility.yul\":1030:1118   */\n      iszero\n      tag_382\n      jumpi\n        /* \"#utility.yul\":1098:1116   */\n      tag_383\n      tag_148\n      jump\t// in\n    tag_383:\n        /* \"#utility.yul\":1030:1118   */\n    tag_382:\n        /* \"#utility.yul\":1138:1148   */\n      dup1\n        /* \"#utility.yul\":1134:1136   */\n      0x40\n        /* \"#utility.yul\":1127:1149   */\n      mstore\n        /* \"#utility.yul\":917:1155   */\n      pop\n        /* \"#utility.yul\":874:1155   */\n      pop\n      pop\n      jump\t// out\n        /* \"#utility.yul\":1161:1290   */\n    tag_284:\n        /* \"#utility.yul\":1195:1201   */\n      0x00\n        /* \"#utility.yul\":1222:1242   */\n      tag_385\n      tag_277\n      jump\t// in\n    tag_385:\n        /* \"#utility.yul\":1212:1242   */\n      swap1\n      pop\n        /* \"#utility.yul\":1251:1284   */\n      tag_386\n        /* \"#utility.yul\":1279:1283   */\n      dup3\n        /* \"#utility.yul\":1271:1277   */\n      dup3\n        /* \"#utility.yul\":1251:1284   */\n      tag_283\n      jump\t// in\n    tag_386:\n        /* \"#utility.yul\":1161:1290   */\n      swap2\n      swap1\n      pop\n      jump\t// out\n        /* \"#utility.yul\":1296:1604   */\n    tag_285:\n        /* \"#utility.yul\":1358:1362   */\n      0x00\n        /* \"#utility.yul\":1448:1466   */\n      0xffffffffffffffff\n        /* \"#utility.yul\":1440:1446   */\n      dup3\n        /* \"#utility.yul\":1437:1467   */\n      gt\n        /* \"#utility.yul\":1434:1490   */\n      iszero\n      tag_388\n      jumpi\n        /* \"#utility.yul\":1470:1488   */\n      tag_389\n      tag_148\n      jump\t// in\n    tag_389:\n        /* \"#utility.yul\":1434:1490   */\n    tag_388:\n        /* \"#utility.yul\":1508:1537   */\n      tag_390\n        /* \"#utility.yul\":1530:1536   */\n      dup3\n        /* \"#utility.yul\":1508:1537   */\n      tag_282\n      jump\t// in\n    tag_390:\n        /* \"#utility.yul\":1500:1537   */\n      swap1\n      pop\n        /* \"#utility.yul\":1592:1596   */\n      0x20\n        /* \"#utility.yul\":1586:1590   */\n      dup2\n        /* \"#utility.yul\":1582:1597   */\n      add\n        /* \"#utility.yul\":1574:1597   */\n      swap1\n      pop\n        /* \"#utility.yul\":1296:1604   */\n      swap2\n      swap1\n      pop\n      jump\t// out\n        /* \"#utility.yul\":1610:1758   */\n    tag_286:\n        /* \"#utility.yul\":1708:1714   */\n      dup3\n        /* \"#utility.yul\":1703:1706   */\n      dup2\n        /* \"#utility.yul\":1698:1701   */\n      dup4\n        /* \"#utility.yul\":1685:1715   */\n      calldatacopy\n        /* \"#utility.yul\":1749:1750   */\n      0x00\n        /* \"#utility.yul\":1740:1746   */\n      dup4\n        /* \"#utility.yul\":1735:1738   */\n      dup4\n        /* \"#utility.yul\":1731:1747   */\n      add\n        /* \"#utility.yul\":1724:1751   */\n      mstore\n        /* \"#utility.yul\":1610:1758   */\n      pop\n      pop\n      pop\n      jump\t// out\n        /* \"#utility.yul\":1764:2189   */\n    tag_287:\n        /* \"#utility.yul\":1842:1847   */\n      0x00\n        /* \"#utility.yul\":1867:1933   */\n      tag_393\n        /* \"#utility.yul\":1883:1932   */\n      tag_394\n        /* \"#utility.yul\":1925:1931   */\n      dup5\n        /* \"#utility.yul\":1883:1932   */\n      tag_285\n      jump\t// in\n    tag_394:\n        /* \"#utility.yul\":1867:1933   */\n      tag_284\n      jump\t// in\n    tag_393:\n        /* \"#utility.yul\":1858:1933   */\n      swap1\n      pop\n        /* \"#utility.yul\":1956:1962   */\n      dup3\n        /* \"#utility.yul\":1949:1954   */\n      dup2\n        /* \"#utility.yul\":1942:1963   */\n      mstore\n        /* \"#utility.yul\":1994:1998   */\n      0x20\n        /* \"#utility.yul\":1987:1992   */\n      dup2\n        /* \"#utility.yul\":1983:1999   */\n      add\n        /* \"#utility.yul\":2032:2035   */\n      dup5\n        /* \"#utility.yul\":2023:2029   */\n      dup5\n        /* \"#utility.yul\":2018:2021   */\n      dup5\n        /* \"#utility.yul\":2014:2030   */\n      add\n        /* \"#utility.yul\":2011:2036   */\n      gt\n        /* \"#utility.yul\":2008:2120   */\n      iszero\n      tag_395\n      jumpi\n        /* \"#utility.yul\":2039:2118   */\n      tag_396\n      tag_281\n      jump\t// in\n    tag_396:\n        /* \"#utility.yul\":2008:2120   */\n    tag_395:\n        /* \"#utility.yul\":2129:2183   */\n      tag_397\n        /* \"#utility.yul\":2176:2182   */\n      dup5\n        /* \"#utility.yul\":2171:2174   */\n      dup3\n        /* \"#utility.yul\":2166:2169   */\n      dup6\n        /* \"#utility.yul\":2129:2183   */\n      tag_286\n      jump\t// in\n    tag_397:\n        /* \"#utility.yul\":1848:2189   */\n      pop\n        /* \"#utility.yul\":1764:2189   */\n      swap4\n      swap3\n      pop\n      pop\n      pop\n      jump\t// out\n        /* \"#utility.yul\":2209:2549   */\n    tag_288:\n        /* \"#utility.yul\":2265:2270   */\n      0x00\n        /* \"#utility.yul\":2314:2317   */\n      dup3\n        /* \"#utility.yul\":2307:2311   */\n      0x1f\n        /* \"#utility.yul\":2299:2305   */\n      dup4\n        /* \"#utility.yul\":2295:2312   */\n      add\n        /* \"#utility.yul\":2291:2318   */\n      slt\n        /* \"#utility.yul\":2281:2403   */\n      tag_399\n      jumpi\n        /* \"#utility.yul\":2322:2401   */\n      tag_400\n      tag_280\n      jump\t// in\n    tag_400:\n        /* \"#utility.yul\":2281:2403   */\n    tag_399:\n        /* \"#utility.yul\":2439:2445   */\n      dup2\n        /* \"#utility.yul\":2426:2446   */\n      calldataload\n        /* \"#utility.yul\":2464:2543   */\n      tag_401\n        /* \"#utility.yul\":2539:2542   */\n      dup5\n        /* \"#utility.yul\":2531:2537   */\n      dup3\n        /* \"#utility.yul\":2524:2528   */\n      0x20\n        /* \"#utility.yul\":2516:2522   */\n      dup7\n        /* \"#utility.yul\":2512:2529   */\n      add\n        /* \"#utility.yul\":2464:2543   */\n      tag_287\n      jump\t// in\n    tag_401:\n        /* \"#utility.yul\":2455:2543   */\n      swap2\n      pop\n        /* \"#utility.yul\":2271:2549   */\n      pop\n        /* \"#utility.yul\":2209:2549   */\n      swap3\n      swap2\n      pop\n      pop\n      jump\t// out\n        /* \"#utility.yul\":2555:2876   */\n    tag_289:\n        /* \"#utility.yul\":2642:2646   */\n      0x00\n        /* \"#utility.yul\":2732:2750   */\n      0xffffffffffffffff\n        /* \"#utility.yul\":2724:2730   */\n      dup3\n        /* \"#utility.yul\":2721:2751   */\n      gt\n        /* \"#utility.yul\":2718:2774   */\n      iszero\n      tag_403\n      jumpi\n        /* \"#utility.yul\":2754:2772   */\n      tag_404\n      tag_148\n      jump\t// in\n    tag_404:\n        /* \"#utility.yul\":2718:2774   */\n    tag_403:\n        /* \"#utility.yul\":2804:2808   */\n      0x20\n        /* \"#utility.yul\":2796:2802   */\n      dup3\n        /* \"#utility.yul\":2792:2809   */\n      mul\n        /* \"#utility.yul\":2784:2809   */\n      swap1\n      pop\n        /* \"#utility.yul\":2864:2868   */\n      0x20\n        /* \"#utility.yul\":2858:2862   */\n      dup2\n        /* \"#utility.yul\":2854:2869   */\n      add\n        /* \"#utility.yul\":2846:2869   */\n      swap1\n      pop\n        /* \"#utility.yul\":2555:2876   */\n      swap2\n      swap1\n      pop\n      jump\t// out\n        /* \"#utility.yul\":2882:2999   */\n    tag_290:\n        /* \"#utility.yul\":2991:2992   */\n      0x00\n        /* \"#utility.yul\":2988:2989   */\n      0x00\n        /* \"#utility.yul\":2981:2993   */\n      revert\n        /* \"#utility.yul\":3021:3966   */\n    tag_291:\n        /* \"#utility.yul\":3127:3132   */\n      0x00\n        /* \"#utility.yul\":3152:3243   */\n      tag_407\n        /* \"#utility.yul\":3168:3242   */\n      tag_408\n        /* \"#utility.yul\":3235:3241   */\n      dup5\n        /* \"#utility.yul\":3168:3242   */\n      tag_289\n      jump\t// in\n    tag_408:\n        /* \"#utility.yul\":3152:3243   */\n      tag_284\n      jump\t// in\n    tag_407:\n        /* \"#utility.yul\":3143:3243   */\n      swap1\n      pop\n        /* \"#utility.yul\":3263:3268   */\n      dup1\n        /* \"#utility.yul\":3292:3298   */\n      dup4\n        /* \"#utility.yul\":3285:3290   */\n      dup3\n        /* \"#utility.yul\":3278:3299   */\n      mstore\n        /* \"#utility.yul\":3326:3330   */\n      0x20\n        /* \"#utility.yul\":3319:3324   */\n      dup3\n        /* \"#utility.yul\":3315:3331   */\n      add\n        /* \"#utility.yul\":3308:3331   */\n      swap1\n      pop\n        /* \"#utility.yul\":3379:3383   */\n      0x20\n        /* \"#utility.yul\":3371:3377   */\n      dup5\n        /* \"#utility.yul\":3367:3384   */\n      mul\n        /* \"#utility.yul\":3359:3365   */\n      dup4\n        /* \"#utility.yul\":3355:3385   */\n      add\n        /* \"#utility.yul\":3408:3411   */\n      dup6\n        /* \"#utility.yul\":3400:3406   */\n      dup2\n        /* \"#utility.yul\":3397:3412   */\n      gt\n        /* \"#utility.yul\":3394:3516   */\n      iszero\n      tag_409\n      jumpi\n        /* \"#utility.yul\":3427:3506   */\n      tag_410\n      tag_290\n      jump\t// in\n    tag_410:\n        /* \"#utility.yul\":3394:3516   */\n    tag_409:\n        /* \"#utility.yul\":3542:3548   */\n      dup4\n        /* \"#utility.yul\":3525:3960   */\n    tag_411:\n        /* \"#utility.yul\":3559:3565   */\n      dup2\n        /* \"#utility.yul\":3554:3557   */\n      dup2\n        /* \"#utility.yul\":3551:3566   */\n      lt\n        /* \"#utility.yul\":3525:3960   */\n      iszero\n      tag_413\n      jumpi\n        /* \"#utility.yul\":3648:3651   */\n      dup1\n        /* \"#utility.yul\":3635:3652   */\n      calldataload\n        /* \"#utility.yul\":3684:3702   */\n      0xffffffffffffffff\n        /* \"#utility.yul\":3671:3682   */\n      dup2\n        /* \"#utility.yul\":3668:3703   */\n      gt\n        /* \"#utility.yul\":3665:3787   */\n      iszero\n      tag_414\n      jumpi\n        /* \"#utility.yul\":3706:3785   */\n      tag_415\n      tag_280\n      jump\t// in\n    tag_415:\n        /* \"#utility.yul\":3665:3787   */\n    tag_414:\n        /* \"#utility.yul\":3830:3841   */\n      dup1\n        /* \"#utility.yul\":3822:3828   */\n      dup7\n        /* \"#utility.yul\":3818:3842   */\n      add\n        /* \"#utility.yul\":3868:3915   */\n      tag_416\n        /* \"#utility.yul\":3911:3914   */\n      dup10\n        /* \"#utility.yul\":3899:3909   */\n      dup3\n        /* \"#utility.yul\":3868:3915   */\n      tag_288\n      jump\t// in\n    tag_416:\n        /* \"#utility.yul\":3863:3866   */\n      dup6\n        /* \"#utility.yul\":3856:3916   */\n      mstore\n        /* \"#utility.yul\":3945:3949   */\n      0x20\n        /* \"#utility.yul\":3940:3943   */\n      dup6\n        /* \"#utility.yul\":3936:3950   */\n      add\n        /* \"#utility.yul\":3929:3950   */\n      swap5\n      pop\n        /* \"#utility.yul\":3601:3960   */\n      pop\n      pop\n        /* \"#utility.yul\":3585:3589   */\n      0x20\n        /* \"#utility.yul\":3580:3583   */\n      dup2\n        /* \"#utility.yul\":3576:3590   */\n      add\n        /* \"#utility.yul\":3569:3590   */\n      swap1\n      pop\n        /* \"#utility.yul\":3525:3960   */\n      jump(tag_411)\n    tag_413:\n        /* \"#utility.yul\":3529:3550   */\n      pop\n        /* \"#utility.yul\":3133:3966   */\n      pop\n      pop\n        /* \"#utility.yul\":3021:3966   */\n      swap4\n      swap3\n      pop\n      pop\n      pop\n      jump\t// out\n        /* \"#utility.yul\":3988:4378   */\n    tag_292:\n        /* \"#utility.yul\":4069:4074   */\n      0x00\n        /* \"#utility.yul\":4118:4121   */\n      dup3\n        /* \"#utility.yul\":4111:4115   */\n      0x1f\n        /* \"#utility.yul\":4103:4109   */\n      dup4\n        /* \"#utility.yul\":4099:4116   */\n      add\n        /* \"#utility.yul\":4095:4122   */\n      slt\n        /* \"#utility.yul\":4085:4207   */\n      tag_418\n      jumpi\n        /* \"#utility.yul\":4126:4205   */\n      tag_419\n      tag_280\n      jump\t// in\n    tag_419:\n        /* \"#utility.yul\":4085:4207   */\n    tag_418:\n        /* \"#utility.yul\":4243:4249   */\n      dup2\n        /* \"#utility.yul\":4230:4250   */\n      calldataload\n        /* \"#utility.yul\":4268:4372   */\n      tag_420\n        /* \"#utility.yul\":4368:4371   */\n      dup5\n        /* \"#utility.yul\":4360:4366   */\n      dup3\n        /* \"#utility.yul\":4353:4357   */\n      0x20\n        /* \"#utility.yul\":4345:4351   */\n      dup7\n        /* \"#utility.yul\":4341:4358   */\n      add\n        /* \"#utility.yul\":4268:4372   */\n      tag_291\n      jump\t// in\n    tag_420:\n        /* \"#utility.yul\":4259:4372   */\n      swap2\n      pop\n        /* \"#utility.yul\":4075:4378   */\n      pop\n        /* \"#utility.yul\":3988:4378   */\n      swap3\n      swap2\n      pop\n      pop\n      jump\t// out\n        /* \"#utility.yul\":4384:4461   */\n    tag_293:\n        /* \"#utility.yul\":4421:4428   */\n      0x00\n        /* \"#utility.yul\":4450:4455   */\n      dup2\n        /* \"#utility.yul\":4439:4455   */\n      swap1\n      pop\n        /* \"#utility.yul\":4384:4461   */\n      swap2\n      swap1\n      pop\n      jump\t// out\n        /* \"#utility.yul\":4467:4589   */\n    tag_294:\n        /* \"#utility.yul\":4540:4564   */\n      tag_423\n        /* \"#utility.yul\":4558:4563   */\n      dup2\n        /* \"#utility.yul\":4540:4564   */\n      tag_293\n      jump\t// in\n    tag_423:\n        /* \"#utility.yul\":4533:4538   */\n      dup2\n        /* \"#utility.yul\":4530:4565   */\n      eq\n        /* \"#utility.yul\":4520:4583   */\n      tag_424\n      jumpi\n        /* \"#utility.yul\":4579:4580   */\n      0x00\n        /* \"#utility.yul\":4576:4577   */\n      0x00\n        /* \"#utility.yul\":4569:4581   */\n      revert\n        /* \"#utility.yul\":4520:4583   */\n    tag_424:\n        /* \"#utility.yul\":4467:4589   */\n      pop\n      jump\t// out\n        /* \"#utility.yul\":4595:4734   */\n    tag_295:\n        /* \"#utility.yul\":4641:4646   */\n      0x00\n        /* \"#utility.yul\":4679:4685   */\n      dup2\n        /* \"#utility.yul\":4666:4686   */\n      calldataload\n        /* \"#utility.yul\":4657:4686   */\n      swap1\n      pop\n        /* \"#utility.yul\":4695:4728   */\n      tag_426\n        /* \"#utility.yul\":4722:4727   */\n      dup2\n        /* \"#utility.yul\":4695:4728   */\n      tag_294\n      jump\t// in\n    tag_426:\n        /* \"#utility.yul\":4595:4734   */\n      swap3\n      swap2\n      pop\n      pop\n      jump\t// out\n        /* \"#utility.yul\":4740:6095   */\n    tag_16:\n        /* \"#utility.yul\":4881:4887   */\n      0x00\n        /* \"#utility.yul\":4889:4895   */\n      0x00\n        /* \"#utility.yul\":4897:4903   */\n      0x00\n        /* \"#utility.yul\":4905:4911   */\n      0x00\n        /* \"#utility.yul\":4954:4957   */\n      0x80\n        /* \"#utility.yul\":4942:4951   */\n      dup6\n        /* \"#utility.yul\":4933:4940   */\n      dup8\n        /* \"#utility.yul\":4929:4952   */\n      sub\n        /* \"#utility.yul\":4925:4958   */\n      slt\n        /* \"#utility.yul\":4922:5042   */\n      iszero\n      tag_428\n      jumpi\n        /* \"#utility.yul\":4961:5040   */\n      tag_429\n      tag_278\n      jump\t// in\n    tag_429:\n        /* \"#utility.yul\":4922:5042   */\n    tag_428:\n        /* \"#utility.yul\":5109:5110   */\n      0x00\n        /* \"#utility.yul\":5098:5107   */\n      dup6\n        /* \"#utility.yul\":5094:5111   */\n      add\n        /* \"#utility.yul\":5081:5112   */\n      calldataload\n        /* \"#utility.yul\":5139:5157   */\n      0xffffffffffffffff\n        /* \"#utility.yul\":5131:5137   */\n      dup2\n        /* \"#utility.yul\":5128:5158   */\n      gt\n        /* \"#utility.yul\":5125:5242   */\n      iszero\n      tag_430\n      jumpi\n        /* \"#utility.yul\":5161:5240   */\n      tag_431\n      tag_279\n      jump\t// in\n    tag_431:\n        /* \"#utility.yul\":5125:5242   */\n    tag_430:\n        /* \"#utility.yul\":5266:5329   */\n      tag_432\n        /* \"#utility.yul\":5321:5328   */\n      dup8\n        /* \"#utility.yul\":5312:5318   */\n      dup3\n        /* \"#utility.yul\":5301:5310   */\n      dup9\n        /* \"#utility.yul\":5297:5319   */\n      add\n        /* \"#utility.yul\":5266:5329   */\n      tag_288\n      jump\t// in\n    tag_432:\n        /* \"#utility.yul\":5256:5329   */\n      swap5\n      pop\n        /* \"#utility.yul\":5052:5339   */\n      pop\n        /* \"#utility.yul\":5406:5408   */\n      0x20\n        /* \"#utility.yul\":5395:5404   */\n      dup6\n        /* \"#utility.yul\":5391:5409   */\n      add\n        /* \"#utility.yul\":5378:5410   */\n      calldataload\n        /* \"#utility.yul\":5437:5455   */\n      0xffffffffffffffff\n        /* \"#utility.yul\":5429:5435   */\n      dup2\n        /* \"#utility.yul\":5426:5456   */\n      gt\n        /* \"#utility.yul\":5423:5540   */\n      iszero\n      tag_433\n      jumpi\n        /* \"#utility.yul\":5459:5538   */\n      tag_434\n      tag_279\n      jump\t// in\n    tag_434:\n        /* \"#utility.yul\":5423:5540   */\n    tag_433:\n        /* \"#utility.yul\":5564:5627   */\n      tag_435\n        /* \"#utility.yul\":5619:5626   */\n      dup8\n        /* \"#utility.yul\":5610:5616   */\n      dup3\n        /* \"#utility.yul\":5599:5608   */\n      dup9\n        /* \"#utility.yul\":5595:5617   */\n      add\n        /* \"#utility.yul\":5564:5627   */\n      tag_288\n      jump\t// in\n    tag_435:\n        /* \"#utility.yul\":5554:5627   */\n      swap4\n      pop\n        /* \"#utility.yul\":5349:5637   */\n      pop\n        /* \"#utility.yul\":5704:5706   */\n      0x40\n        /* \"#utility.yul\":5693:5702   */\n      dup6\n        /* \"#utility.yul\":5689:5707   */\n      add\n        /* \"#utility.yul\":5676:5708   */\n      calldataload\n        /* \"#utility.yul\":5735:5753   */\n      0xffffffffffffffff\n        /* \"#utility.yul\":5727:5733   */\n      dup2\n        /* \"#utility.yul\":5724:5754   */\n      gt\n        /* \"#utility.yul\":5721:5838   */\n      iszero\n      tag_436\n      jumpi\n        /* \"#utility.yul\":5757:5836   */\n      tag_437\n      tag_279\n      jump\t// in\n    tag_437:\n        /* \"#utility.yul\":5721:5838   */\n    tag_436:\n        /* \"#utility.yul\":5862:5950   */\n      tag_438\n        /* \"#utility.yul\":5942:5949   */\n      dup8\n        /* \"#utility.yul\":5933:5939   */\n      dup3\n        /* \"#utility.yul\":5922:5931   */\n      dup9\n        /* \"#utility.yul\":5918:5940   */\n      add\n        /* \"#utility.yul\":5862:5950   */\n      tag_292\n      jump\t// in\n    tag_438:\n        /* \"#utility.yul\":5852:5950   */\n      swap3\n      pop\n        /* \"#utility.yul\":5647:5960   */\n      pop\n        /* \"#utility.yul\":5999:6001   */\n      0x60\n        /* \"#utility.yul\":6025:6078   */\n      tag_439\n        /* \"#utility.yul\":6070:6077   */\n      dup8\n        /* \"#utility.yul\":6061:6067   */\n      dup3\n        /* \"#utility.yul\":6050:6059   */\n      dup9\n        /* \"#utility.yul\":6046:6068   */\n      add\n        /* \"#utility.yul\":6025:6078   */\n      tag_295\n      jump\t// in\n    tag_439:\n        /* \"#utility.yul\":6015:6078   */\n      swap2\n      pop\n        /* \"#utility.yul\":5970:6088   */\n      pop\n        /* \"#utility.yul\":4740:6095   */\n      swap3\n      swap6\n      swap2\n      swap5\n      pop\n      swap3\n      pop\n      jump\t// out\n        /* \"#utility.yul\":6101:6219   */\n    tag_296:\n        /* \"#utility.yul\":6188:6212   */\n      tag_441\n        /* \"#utility.yul\":6206:6211   */\n      dup2\n        /* \"#utility.yul\":6188:6212   */\n      tag_293\n      jump\t// in\n    tag_441:\n        /* \"#utility.yul\":6183:6186   */\n      dup3\n        /* \"#utility.yul\":6176:6213   */\n      mstore\n        /* \"#utility.yul\":6101:6219   */\n      pop\n      pop\n      jump\t// out\n        /* \"#utility.yul\":6225:6447   */\n    tag_21:\n        /* \"#utility.yul\":6318:6322   */\n      0x00\n        /* \"#utility.yul\":6356:6358   */\n      0x20\n        /* \"#utility.yul\":6345:6354   */\n      dup3\n        /* \"#utility.yul\":6341:6359   */\n      add\n        /* \"#utility.yul\":6333:6359   */\n      swap1\n      pop\n        /* \"#utility.yul\":6369:6440   */\n      tag_443\n        /* \"#utility.yul\":6437:6438   */\n      0x00\n        /* \"#utility.yul\":6426:6435   */\n      dup4\n        /* \"#utility.yul\":6422:6439   */\n      add\n        /* \"#utility.yul\":6413:6419   */\n      dup5\n        /* \"#utility.yul\":6369:6440   */\n      tag_296\n      jump\t// in\n    tag_443:\n        /* \"#utility.yul\":6225:6447   */\n      swap3\n      swap2\n      pop\n      pop\n      jump\t// out\n        /* \"#utility.yul\":6453:6927   */\n    tag_24:\n        /* \"#utility.yul\":6521:6527   */\n      0x00\n        /* \"#utility.yul\":6529:6535   */\n      0x00\n        /* \"#utility.yul\":6578:6580   */\n      0x40\n        /* \"#utility.yul\":6566:6575   */\n      dup4\n        /* \"#utility.yul\":6557:6564   */\n      dup6\n        /* \"#utility.yul\":6553:6576   */\n      sub\n        /* \"#utility.yul\":6549:6581   */\n      slt\n        /* \"#utility.yul\":6546:6665   */\n      iszero\n      tag_445\n      jumpi\n        /* \"#utility.yul\":6584:6663   */\n      tag_446\n      tag_278\n      jump\t// in\n    tag_446:\n        /* \"#utility.yul\":6546:6665   */\n    tag_445:\n        /* \"#utility.yul\":6704:6705   */\n      0x00\n        /* \"#utility.yul\":6729:6782   */\n      tag_447\n        /* \"#utility.yul\":6774:6781   */\n      dup6\n        /* \"#utility.yul\":6765:6771   */\n      dup3\n        /* \"#utility.yul\":6754:6763   */\n      dup7\n        /* \"#utility.yul\":6750:6772   */\n      add\n        /* \"#utility.yul\":6729:6782   */\n      tag_295\n      jump\t// in\n    tag_447:\n        /* \"#utility.yul\":6719:6782   */\n      swap3\n      pop\n        /* \"#utility.yul\":6675:6792   */\n      pop\n        /* \"#utility.yul\":6831:6833   */\n      0x20\n        /* \"#utility.yul\":6857:6910   */\n      tag_448\n        /* \"#utility.yul\":6902:6909   */\n      dup6\n        /* \"#utility.yul\":6893:6899   */\n      dup3\n        /* \"#utility.yul\":6882:6891   */\n      dup7\n        /* \"#utility.yul\":6878:6900   */\n      add\n        /* \"#utility.yul\":6857:6910   */\n      tag_295\n      jump\t// in\n    tag_448:\n        /* \"#utility.yul\":6847:6910   */\n      swap2\n      pop\n        /* \"#utility.yul\":6802:6920   */\n      pop\n        /* \"#utility.yul\":6453:6927   */\n      swap3\n      pop\n      swap3\n      swap1\n      pop\n      jump\t// out\n        /* \"#utility.yul\":6933:7262   */\n    tag_28:\n        /* \"#utility.yul\":6992:6998   */\n      0x00\n        /* \"#utility.yul\":7041:7043   */\n      0x20\n        /* \"#utility.yul\":7029:7038   */\n      dup3\n        /* \"#utility.yul\":7020:7027   */\n      dup5\n        /* \"#utility.yul\":7016:7039   */\n      sub\n        /* \"#utility.yul\":7012:7044   */\n      slt\n        /* \"#utility.yul\":7009:7128   */\n      iszero\n      tag_450\n      jumpi\n        /* \"#utility.yul\":7047:7126   */\n      tag_451\n      tag_278\n      jump\t// in\n    tag_451:\n        /* \"#utility.yul\":7009:7128   */\n    tag_450:\n        /* \"#utility.yul\":7167:7168   */\n      0x00\n        /* \"#utility.yul\":7192:7245   */\n      tag_452\n        /* \"#utility.yul\":7237:7244   */\n      dup5\n        /* \"#utility.yul\":7228:7234   */\n      dup3\n        /* \"#utility.yul\":7217:7226   */\n      dup6\n        /* \"#utility.yul\":7213:7235   */\n      add\n        /* \"#utility.yul\":7192:7245   */\n      tag_295\n      jump\t// in\n    tag_452:\n        /* \"#utility.yul\":7182:7245   */\n      swap2\n      pop\n        /* \"#utility.yul\":7138:7255   */\n      pop\n        /* \"#utility.yul\":6933:7262   */\n      swap3\n      swap2\n      pop\n      pop\n      jump\t// out\n        /* \"#utility.yul\":7268:7367   */\n    tag_297:\n        /* \"#utility.yul\":7320:7326   */\n      0x00\n        /* \"#utility.yul\":7354:7359   */\n      dup2\n        /* \"#utility.yul\":7348:7360   */\n      mload\n        /* \"#utility.yul\":7338:7360   */\n      swap1\n      pop\n        /* \"#utility.yul\":7268:7367   */\n      swap2\n      swap1\n      pop\n      jump\t// out\n        /* \"#utility.yul\":7373:7542   */\n    tag_298:\n        /* \"#utility.yul\":7457:7468   */\n      0x00\n        /* \"#utility.yul\":7491:7497   */\n      dup3\n        /* \"#utility.yul\":7486:7489   */\n      dup3\n        /* \"#utility.yul\":7479:7498   */\n      mstore\n        /* \"#utility.yul\":7531:7535   */\n      0x20\n        /* \"#utility.yul\":7526:7529   */\n      dup3\n        /* \"#utility.yul\":7522:7536   */\n      add\n        /* \"#utility.yul\":7507:7536   */\n      swap1\n      pop\n        /* \"#utility.yul\":7373:7542   */\n      swap3\n      swap2\n      pop\n      pop\n      jump\t// out\n        /* \"#utility.yul\":7548:7687   */\n    tag_299:\n        /* \"#utility.yul\":7637:7643   */\n      dup3\n        /* \"#utility.yul\":7632:7635   */\n      dup2\n        /* \"#utility.yul\":7627:7630   */\n      dup4\n        /* \"#utility.yul\":7621:7644   */\n      mcopy\n        /* \"#utility.yul\":7678:7679   */\n      0x00\n        /* \"#utility.yul\":7669:7675   */\n      dup4\n        /* \"#utility.yul\":7664:7667   */\n      dup4\n        /* \"#utility.yul\":7660:7676   */\n      add\n        /* \"#utility.yul\":7653:7680   */\n      mstore\n        /* \"#utility.yul\":7548:7687   */\n      pop\n      pop\n      pop\n      jump\t// out\n        /* \"#utility.yul\":7693:8070   */\n    tag_300:\n        /* \"#utility.yul\":7781:7784   */\n      0x00\n        /* \"#utility.yul\":7809:7848   */\n      tag_457\n        /* \"#utility.yul\":7842:7847   */\n      dup3\n        /* \"#utility.yul\":7809:7848   */\n      tag_297\n      jump\t// in\n    tag_457:\n        /* \"#utility.yul\":7864:7935   */\n      tag_458\n        /* \"#utility.yul\":7928:7934   */\n      dup2\n        /* \"#utility.yul\":7923:7926   */\n      dup6\n        /* \"#utility.yul\":7864:7935   */\n      tag_298\n      jump\t// in\n    tag_458:\n        /* \"#utility.yul\":7857:7935   */\n      swap4\n      pop\n        /* \"#utility.yul\":7944:8009   */\n      tag_459\n        /* \"#utility.yul\":8002:8008   */\n      dup2\n        /* \"#utility.yul\":7997:8000   */\n      dup6\n        /* \"#utility.yul\":7990:7994   */\n      0x20\n        /* \"#utility.yul\":7983:7988   */\n      dup7\n        /* \"#utility.yul\":7979:7995   */\n      add\n        /* \"#utility.yul\":7944:8009   */\n      tag_299\n      jump\t// in\n    tag_459:\n        /* \"#utility.yul\":8034:8063   */\n      tag_460\n        /* \"#utility.yul\":8056:8062   */\n      dup2\n        /* \"#utility.yul\":8034:8063   */\n      tag_282\n      jump\t// in\n    tag_460:\n        /* \"#utility.yul\":8029:8032   */\n      dup5\n        /* \"#utility.yul\":8025:8064   */\n      add\n        /* \"#utility.yul\":8018:8064   */\n      swap2\n      pop\n        /* \"#utility.yul\":7785:8070   */\n      pop\n        /* \"#utility.yul\":7693:8070   */\n      swap3\n      swap2\n      pop\n      pop\n      jump\t// out\n        /* \"#utility.yul\":8076:8166   */\n    tag_301:\n        /* \"#utility.yul\":8110:8117   */\n      0x00\n        /* \"#utility.yul\":8153:8158   */\n      dup2\n        /* \"#utility.yul\":8146:8159   */\n      iszero\n        /* \"#utility.yul\":8139:8160   */\n      iszero\n        /* \"#utility.yul\":8128:8160   */\n      swap1\n      pop\n        /* \"#utility.yul\":8076:8166   */\n      swap2\n      swap1\n      pop\n      jump\t// out\n        /* \"#utility.yul\":8172:8281   */\n    tag_302:\n        /* \"#utility.yul\":8253:8274   */\n      tag_463\n        /* \"#utility.yul\":8268:8273   */\n      dup2\n        /* \"#utility.yul\":8253:8274   */\n      tag_301\n      jump\t// in\n    tag_463:\n        /* \"#utility.yul\":8248:8251   */\n      dup3\n        /* \"#utility.yul\":8241:8275   */\n      mstore\n        /* \"#utility.yul\":8172:8281   */\n      pop\n      pop\n      jump\t// out\n        /* \"#utility.yul\":8287:9343   */\n    tag_31:\n        /* \"#utility.yul\":8582:8586   */\n      0x00\n        /* \"#utility.yul\":8620:8623   */\n      0xe0\n        /* \"#utility.yul\":8609:8618   */\n      dup3\n        /* \"#utility.yul\":8605:8624   */\n      add\n        /* \"#utility.yul\":8597:8624   */\n      swap1\n      pop\n        /* \"#utility.yul\":8670:8679   */\n      dup2\n        /* \"#utility.yul\":8664:8668   */\n      dup2\n        /* \"#utility.yul\":8660:8680   */\n      sub\n        /* \"#utility.yul\":8656:8657   */\n      0x00\n        /* \"#utility.yul\":8645:8654   */\n      dup4\n        /* \"#utility.yul\":8641:8658   */\n      add\n        /* \"#utility.yul\":8634:8681   */\n      mstore\n        /* \"#utility.yul\":8698:8776   */\n      tag_465\n        /* \"#utility.yul\":8771:8775   */\n      dup2\n        /* \"#utility.yul\":8762:8768   */\n      dup11\n        /* \"#utility.yul\":8698:8776   */\n      tag_300\n      jump\t// in\n    tag_465:\n        /* \"#utility.yul\":8690:8776   */\n      swap1\n      pop\n        /* \"#utility.yul\":8823:8832   */\n      dup2\n        /* \"#utility.yul\":8817:8821   */\n      dup2\n        /* \"#utility.yul\":8813:8833   */\n      sub\n        /* \"#utility.yul\":8808:8810   */\n      0x20\n        /* \"#utility.yul\":8797:8806   */\n      dup4\n        /* \"#utility.yul\":8793:8811   */\n      add\n        /* \"#utility.yul\":8786:8834   */\n      mstore\n        /* \"#utility.yul\":8851:8929   */\n      tag_466\n        /* \"#utility.yul\":8924:8928   */\n      dup2\n        /* \"#utility.yul\":8915:8921   */\n      dup10\n        /* \"#utility.yul\":8851:8929   */\n      tag_300\n      jump\t// in\n    tag_466:\n        /* \"#utility.yul\":8843:8929   */\n      swap1\n      pop\n        /* \"#utility.yul\":8939:9005   */\n      tag_467\n        /* \"#utility.yul\":9001:9003   */\n      0x40\n        /* \"#utility.yul\":8990:8999   */\n      dup4\n        /* \"#utility.yul\":8986:9004   */\n      add\n        /* \"#utility.yul\":8977:8983   */\n      dup9\n        /* \"#utility.yul\":8939:9005   */\n      tag_302\n      jump\t// in\n    tag_467:\n        /* \"#utility.yul\":9015:9087   */\n      tag_468\n        /* \"#utility.yul\":9083:9085   */\n      0x60\n        /* \"#utility.yul\":9072:9081   */\n      dup4\n        /* \"#utility.yul\":9068:9086   */\n      add\n        /* \"#utility.yul\":9059:9065   */\n      dup8\n        /* \"#utility.yul\":9015:9087   */\n      tag_296\n      jump\t// in\n    tag_468:\n        /* \"#utility.yul\":9097:9170   */\n      tag_469\n        /* \"#utility.yul\":9165:9168   */\n      0x80\n        /* \"#utility.yul\":9154:9163   */\n      dup4\n        /* \"#utility.yul\":9150:9169   */\n      add\n        /* \"#utility.yul\":9141:9147   */\n      dup7\n        /* \"#utility.yul\":9097:9170   */\n      tag_296\n      jump\t// in\n    tag_469:\n        /* \"#utility.yul\":9180:9253   */\n      tag_470\n        /* \"#utility.yul\":9248:9251   */\n      0xa0\n        /* \"#utility.yul\":9237:9246   */\n      dup4\n        /* \"#utility.yul\":9233:9252   */\n      add\n        /* \"#utility.yul\":9224:9230   */\n      dup6\n        /* \"#utility.yul\":9180:9253   */\n      tag_296\n      jump\t// in\n    tag_470:\n        /* \"#utility.yul\":9263:9336   */\n      tag_471\n        /* \"#utility.yul\":9331:9334   */\n      0xc0\n        /* \"#utility.yul\":9320:9329   */\n      dup4\n        /* \"#utility.yul\":9316:9335   */\n      add\n        /* \"#utility.yul\":9307:9313   */\n      dup5\n        /* \"#utility.yul\":9263:9336   */\n      tag_296\n      jump\t// in\n    tag_471:\n        /* \"#utility.yul\":8287:9343   */\n      swap9\n      swap8\n      pop\n      pop\n      pop\n      pop\n      pop\n      pop\n      pop\n      pop\n      jump\t// out\n        /* \"#utility.yul\":9349:9463   */\n    tag_303:\n        /* \"#utility.yul\":9416:9422   */\n      0x00\n        /* \"#utility.yul\":9450:9455   */\n      dup2\n        /* \"#utility.yul\":9444:9456   */\n      mload\n        /* \"#utility.yul\":9434:9456   */\n      swap1\n      pop\n        /* \"#utility.yul\":9349:9463   */\n      swap2\n      swap1\n      pop\n      jump\t// out\n        /* \"#utility.yul\":9469:9653   */\n    tag_304:\n        /* \"#utility.yul\":9568:9579   */\n      0x00\n        /* \"#utility.yul\":9602:9608   */\n      dup3\n        /* \"#utility.yul\":9597:9600   */\n      dup3\n        /* \"#utility.yul\":9590:9609   */\n      mstore\n        /* \"#utility.yul\":9642:9646   */\n      0x20\n        /* \"#utility.yul\":9637:9640   */\n      dup3\n        /* \"#utility.yul\":9633:9647   */\n      add\n        /* \"#utility.yul\":9618:9647   */\n      swap1\n      pop\n        /* \"#utility.yul\":9469:9653   */\n      swap3\n      swap2\n      pop\n      pop\n      jump\t// out\n        /* \"#utility.yul\":9659:9791   */\n    tag_305:\n        /* \"#utility.yul\":9726:9730   */\n      0x00\n        /* \"#utility.yul\":9749:9752   */\n      dup2\n        /* \"#utility.yul\":9741:9752   */\n      swap1\n      pop\n        /* \"#utility.yul\":9779:9783   */\n      0x20\n        /* \"#utility.yul\":9774:9777   */\n      dup3\n        /* \"#utility.yul\":9770:9784   */\n      add\n        /* \"#utility.yul\":9762:9784   */\n      swap1\n      pop\n        /* \"#utility.yul\":9659:9791   */\n      swap2\n      swap1\n      pop\n      jump\t// out\n        /* \"#utility.yul\":9797:9905   */\n    tag_306:\n        /* \"#utility.yul\":9874:9898   */\n      tag_476\n        /* \"#utility.yul\":9892:9897   */\n      dup2\n        /* \"#utility.yul\":9874:9898   */\n      tag_293\n      jump\t// in\n    tag_476:\n        /* \"#utility.yul\":9869:9872   */\n      dup3\n        /* \"#utility.yul\":9862:9899   */\n      mstore\n        /* \"#utility.yul\":9797:9905   */\n      pop\n      pop\n      jump\t// out\n        /* \"#utility.yul\":9911:10090   */\n    tag_307:\n        /* \"#utility.yul\":9980:9990   */\n      0x00\n        /* \"#utility.yul\":10001:10047   */\n      tag_478\n        /* \"#utility.yul\":10043:10046   */\n      dup4\n        /* \"#utility.yul\":10035:10041   */\n      dup4\n        /* \"#utility.yul\":10001:10047   */\n      tag_306\n      jump\t// in\n    tag_478:\n        /* \"#utility.yul\":10079:10083   */\n      0x20\n        /* \"#utility.yul\":10074:10077   */\n      dup4\n        /* \"#utility.yul\":10070:10084   */\n      add\n        /* \"#utility.yul\":10056:10084   */\n      swap1\n      pop\n        /* \"#utility.yul\":9911:10090   */\n      swap3\n      swap2\n      pop\n      pop\n      jump\t// out\n        /* \"#utility.yul\":10096:10209   */\n    tag_308:\n        /* \"#utility.yul\":10166:10170   */\n      0x00\n        /* \"#utility.yul\":10198:10202   */\n      0x20\n        /* \"#utility.yul\":10193:10196   */\n      dup3\n        /* \"#utility.yul\":10189:10203   */\n      add\n        /* \"#utility.yul\":10181:10203   */\n      swap1\n      pop\n        /* \"#utility.yul\":10096:10209   */\n      swap2\n      swap1\n      pop\n      jump\t// out\n        /* \"#utility.yul\":10245:10977   */\n    tag_309:\n        /* \"#utility.yul\":10364:10367   */\n      0x00\n        /* \"#utility.yul\":10393:10447   */\n      tag_481\n        /* \"#utility.yul\":10441:10446   */\n      dup3\n        /* \"#utility.yul\":10393:10447   */\n      tag_303\n      jump\t// in\n    tag_481:\n        /* \"#utility.yul\":10463:10549   */\n      tag_482\n        /* \"#utility.yul\":10542:10548   */\n      dup2\n        /* \"#utility.yul\":10537:10540   */\n      dup6\n        /* \"#utility.yul\":10463:10549   */\n      tag_304\n      jump\t// in\n    tag_482:\n        /* \"#utility.yul\":10456:10549   */\n      swap4\n      pop\n        /* \"#utility.yul\":10573:10629   */\n      tag_483\n        /* \"#utility.yul\":10623:10628   */\n      dup4\n        /* \"#utility.yul\":10573:10629   */\n      tag_305\n      jump\t// in\n    tag_483:\n        /* \"#utility.yul\":10652:10659   */\n      dup1\n        /* \"#utility.yul\":10683:10684   */\n      0x00\n        /* \"#utility.yul\":10668:10952   */\n    tag_484:\n        /* \"#utility.yul\":10693:10699   */\n      dup4\n        /* \"#utility.yul\":10690:10691   */\n      dup2\n        /* \"#utility.yul\":10687:10700   */\n      lt\n        /* \"#utility.yul\":10668:10952   */\n      iszero\n      tag_486\n      jumpi\n        /* \"#utility.yul\":10769:10775   */\n      dup2\n        /* \"#utility.yul\":10763:10776   */\n      mload\n        /* \"#utility.yul\":10796:10859   */\n      tag_487\n        /* \"#utility.yul\":10855:10858   */\n      dup9\n        /* \"#utility.yul\":10840:10853   */\n      dup3\n        /* \"#utility.yul\":10796:10859   */\n      tag_307\n      jump\t// in\n    tag_487:\n        /* \"#utility.yul\":10789:10859   */\n      swap8\n      pop\n        /* \"#utility.yul\":10882:10942   */\n      tag_488\n        /* \"#utility.yul\":10935:10941   */\n      dup4\n        /* \"#utility.yul\":10882:10942   */\n      tag_308\n      jump\t// in\n    tag_488:\n        /* \"#utility.yul\":10872:10942   */\n      swap3\n      pop\n        /* \"#utility.yul\":10728:10952   */\n      pop\n        /* \"#utility.yul\":10715:10716   */\n      0x01\n        /* \"#utility.yul\":10712:10713   */\n      dup2\n        /* \"#utility.yul\":10708:10717   */\n      add\n        /* \"#utility.yul\":10703:10717   */\n      swap1\n      pop\n        /* \"#utility.yul\":10668:10952   */\n      jump(tag_484)\n    tag_486:\n        /* \"#utility.yul\":10672:10686   */\n      pop\n        /* \"#utility.yul\":10968:10971   */\n      dup6\n        /* \"#utility.yul\":10961:10971   */\n      swap4\n      pop\n        /* \"#utility.yul\":10369:10977   */\n      pop\n      pop\n      pop\n        /* \"#utility.yul\":10245:10977   */\n      swap3\n      swap2\n      pop\n      pop\n      jump\t// out\n        /* \"#utility.yul\":10983:11107   */\n    tag_310:\n        /* \"#utility.yul\":11060:11066   */\n      0x00\n        /* \"#utility.yul\":11094:11099   */\n      dup2\n        /* \"#utility.yul\":11088:11100   */\n      mload\n        /* \"#utility.yul\":11078:11100   */\n      swap1\n      pop\n        /* \"#utility.yul\":10983:11107   */\n      swap2\n      swap1\n      pop\n      jump\t// out\n        /* \"#utility.yul\":11113:11307   */\n    tag_311:\n        /* \"#utility.yul\":11222:11233   */\n      0x00\n        /* \"#utility.yul\":11256:11262   */\n      dup3\n        /* \"#utility.yul\":11251:11254   */\n      dup3\n        /* \"#utility.yul\":11244:11263   */\n      mstore\n        /* \"#utility.yul\":11296:11300   */\n      0x20\n        /* \"#utility.yul\":11291:11294   */\n      dup3\n        /* \"#utility.yul\":11287:11301   */\n      add\n        /* \"#utility.yul\":11272:11301   */\n      swap1\n      pop\n        /* \"#utility.yul\":11113:11307   */\n      swap3\n      swap2\n      pop\n      pop\n      jump\t// out\n        /* \"#utility.yul\":11313:11455   */\n    tag_312:\n        /* \"#utility.yul\":11390:11394   */\n      0x00\n        /* \"#utility.yul\":11413:11416   */\n      dup2\n        /* \"#utility.yul\":11405:11416   */\n      swap1\n      pop\n        /* \"#utility.yul\":11443:11447   */\n      0x20\n        /* \"#utility.yul\":11438:11441   */\n      dup3\n        /* \"#utility.yul\":11434:11448   */\n      add\n        /* \"#utility.yul\":11426:11448   */\n      swap1\n      pop\n        /* \"#utility.yul\":11313:11455   */\n      swap2\n      swap1\n      pop\n      jump\t// out\n        /* \"#utility.yul\":11461:11620   */\n    tag_313:\n        /* \"#utility.yul\":11535:11546   */\n      0x00\n        /* \"#utility.yul\":11569:11575   */\n      dup3\n        /* \"#utility.yul\":11564:11567   */\n      dup3\n        /* \"#utility.yul\":11557:11576   */\n      mstore\n        /* \"#utility.yul\":11609:11613   */\n      0x20\n        /* \"#utility.yul\":11604:11607   */\n      dup3\n        /* \"#utility.yul\":11600:11614   */\n      add\n        /* \"#utility.yul\":11585:11614   */\n      swap1\n      pop\n        /* \"#utility.yul\":11461:11620   */\n      swap3\n      swap2\n      pop\n      pop\n      jump\t// out\n        /* \"#utility.yul\":11626:11983   */\n    tag_314:\n        /* \"#utility.yul\":11704:11707   */\n      0x00\n        /* \"#utility.yul\":11732:11771   */\n      tag_494\n        /* \"#utility.yul\":11765:11770   */\n      dup3\n        /* \"#utility.yul\":11732:11771   */\n      tag_297\n      jump\t// in\n    tag_494:\n        /* \"#utility.yul\":11787:11848   */\n      tag_495\n        /* \"#utility.yul\":11841:11847   */\n      dup2\n        /* \"#utility.yul\":11836:11839   */\n      dup6\n        /* \"#utility.yul\":11787:11848   */\n      tag_313\n      jump\t// in\n    tag_495:\n        /* \"#utility.yul\":11780:11848   */\n      swap4\n      pop\n        /* \"#utility.yul\":11857:11922   */\n      tag_496\n        /* \"#utility.yul\":11915:11921   */\n      dup2\n        /* \"#utility.yul\":11910:11913   */\n      dup6\n        /* \"#utility.yul\":11903:11907   */\n      0x20\n        /* \"#utility.yul\":11896:11901   */\n      dup7\n        /* \"#utility.yul\":11892:11908   */\n      add\n        /* \"#utility.yul\":11857:11922   */\n      tag_299\n      jump\t// in\n    tag_496:\n        /* \"#utility.yul\":11947:11976   */\n      tag_497\n        /* \"#utility.yul\":11969:11975   */\n      dup2\n        /* \"#utility.yul\":11947:11976   */\n      tag_282\n      jump\t// in\n    tag_497:\n        /* \"#utility.yul\":11942:11945   */\n      dup5\n        /* \"#utility.yul\":11938:11977   */\n      add\n        /* \"#utility.yul\":11931:11977   */\n      swap2\n      pop\n        /* \"#utility.yul\":11708:11983   */\n      pop\n        /* \"#utility.yul\":11626:11983   */\n      swap3\n      swap2\n      pop\n      pop\n      jump\t// out\n        /* \"#utility.yul\":11989:12185   */\n    tag_315:\n        /* \"#utility.yul\":12078:12088   */\n      0x00\n        /* \"#utility.yul\":12113:12179   */\n      tag_499\n        /* \"#utility.yul\":12175:12178   */\n      dup4\n        /* \"#utility.yul\":12167:12173   */\n      dup4\n        /* \"#utility.yul\":12113:12179   */\n      tag_314\n      jump\t// in\n    tag_499:\n        /* \"#utility.yul\":12099:12179   */\n      swap1\n      pop\n        /* \"#utility.yul\":11989:12185   */\n      swap3\n      swap2\n      pop\n      pop\n      jump\t// out\n        /* \"#utility.yul\":12191:12314   */\n    tag_316:\n        /* \"#utility.yul\":12271:12275   */\n      0x00\n        /* \"#utility.yul\":12303:12307   */\n      0x20\n        /* \"#utility.yul\":12298:12301   */\n      dup3\n        /* \"#utility.yul\":12294:12308   */\n      add\n        /* \"#utility.yul\":12286:12308   */\n      swap1\n      pop\n        /* \"#utility.yul\":12191:12314   */\n      swap2\n      swap1\n      pop\n      jump\t// out\n        /* \"#utility.yul\":12348:13339   */\n    tag_317:\n        /* \"#utility.yul\":12487:12490   */\n      0x00\n        /* \"#utility.yul\":12516:12580   */\n      tag_502\n        /* \"#utility.yul\":12574:12579   */\n      dup3\n        /* \"#utility.yul\":12516:12580   */\n      tag_310\n      jump\t// in\n    tag_502:\n        /* \"#utility.yul\":12596:12692   */\n      tag_503\n        /* \"#utility.yul\":12685:12691   */\n      dup2\n        /* \"#utility.yul\":12680:12683   */\n      dup6\n        /* \"#utility.yul\":12596:12692   */\n      tag_311\n      jump\t// in\n    tag_503:\n        /* \"#utility.yul\":12589:12692   */\n      swap4\n      pop\n        /* \"#utility.yul\":12718:12721   */\n      dup4\n        /* \"#utility.yul\":12763:12767   */\n      0x20\n        /* \"#utility.yul\":12755:12761   */\n      dup3\n        /* \"#utility.yul\":12751:12768   */\n      mul\n        /* \"#utility.yul\":12746:12749   */\n      dup6\n        /* \"#utility.yul\":12742:12769   */\n      add\n        /* \"#utility.yul\":12793:12859   */\n      tag_504\n        /* \"#utility.yul\":12853:12858   */\n      dup6\n        /* \"#utility.yul\":12793:12859   */\n      tag_312\n      jump\t// in\n    tag_504:\n        /* \"#utility.yul\":12882:12889   */\n      dup1\n        /* \"#utility.yul\":12913:12914   */\n      0x00\n        /* \"#utility.yul\":12898:13294   */\n    tag_505:\n        /* \"#utility.yul\":12923:12929   */\n      dup6\n        /* \"#utility.yul\":12920:12921   */\n      dup2\n        /* \"#utility.yul\":12917:12930   */\n      lt\n        /* \"#utility.yul\":12898:13294   */\n      iszero\n      tag_507\n      jumpi\n        /* \"#utility.yul\":12994:13003   */\n      dup5\n        /* \"#utility.yul\":12988:12992   */\n      dup5\n        /* \"#utility.yul\":12984:13004   */\n      sub\n        /* \"#utility.yul\":12979:12982   */\n      dup10\n        /* \"#utility.yul\":12972:13005   */\n      mstore\n        /* \"#utility.yul\":13045:13051   */\n      dup2\n        /* \"#utility.yul\":13039:13052   */\n      mload\n        /* \"#utility.yul\":13073:13157   */\n      tag_508\n        /* \"#utility.yul\":13152:13156   */\n      dup6\n        /* \"#utility.yul\":13137:13150   */\n      dup3\n        /* \"#utility.yul\":13073:13157   */\n      tag_315\n      jump\t// in\n    tag_508:\n        /* \"#utility.yul\":13065:13157   */\n      swap5\n      pop\n        /* \"#utility.yul\":13180:13250   */\n      tag_509\n        /* \"#utility.yul\":13243:13249   */\n      dup4\n        /* \"#utility.yul\":13180:13250   */\n      tag_316\n      jump\t// in\n    tag_509:\n        /* \"#utility.yul\":13170:13250   */\n      swap3\n      pop\n        /* \"#utility.yul\":13279:13283   */\n      0x20\n        /* \"#utility.yul\":13274:13277   */\n      dup11\n        /* \"#utility.yul\":13270:13284   */\n      add\n        /* \"#utility.yul\":13263:13284   */\n      swap10\n      pop\n        /* \"#utility.yul\":12958:13294   */\n      pop\n        /* \"#utility.yul\":12945:12946   */\n      0x01\n        /* \"#utility.yul\":12942:12943   */\n      dup2\n        /* \"#utility.yul\":12938:12947   */\n      add\n        /* \"#utility.yul\":12933:12947   */\n      swap1\n      pop\n        /* \"#utility.yul\":12898:13294   */\n      jump(tag_505)\n    tag_507:\n        /* \"#utility.yul\":12902:12916   */\n      pop\n        /* \"#utility.yul\":13310:13314   */\n      dup3\n        /* \"#utility.yul\":13303:13314   */\n      swap8\n      pop\n        /* \"#utility.yul\":13330:13333   */\n      dup8\n        /* \"#utility.yul\":13323:13333   */\n      swap6\n      pop\n        /* \"#utility.yul\":12492:13339   */\n      pop\n      pop\n      pop\n      pop\n      pop\n        /* \"#utility.yul\":12348:13339   */\n      swap3\n      swap2\n      pop\n      pop\n      jump\t// out\n        /* \"#utility.yul\":13345:13456   */\n    tag_318:\n        /* \"#utility.yul\":13409:13415   */\n      0x00\n        /* \"#utility.yul\":13443:13448   */\n      dup2\n        /* \"#utility.yul\":13437:13449   */\n      mload\n        /* \"#utility.yul\":13427:13449   */\n      swap1\n      pop\n        /* \"#utility.yul\":13345:13456   */\n      swap2\n      swap1\n      pop\n      jump\t// out\n        /* \"#utility.yul\":13462:13643   */\n    tag_319:\n        /* \"#utility.yul\":13558:13569   */\n      0x00\n        /* \"#utility.yul\":13592:13598   */\n      dup3\n        /* \"#utility.yul\":13587:13590   */\n      dup3\n        /* \"#utility.yul\":13580:13599   */\n      mstore\n        /* \"#utility.yul\":13632:13636   */\n      0x20\n        /* \"#utility.yul\":13627:13630   */\n      dup3\n        /* \"#utility.yul\":13623:13637   */\n      add\n        /* \"#utility.yul\":13608:13637   */\n      swap1\n      pop\n        /* \"#utility.yul\":13462:13643   */\n      swap3\n      swap2\n      pop\n      pop\n      jump\t// out\n        /* \"#utility.yul\":13649:13778   */\n    tag_320:\n        /* \"#utility.yul\":13713:13717   */\n      0x00\n        /* \"#utility.yul\":13736:13739   */\n      dup2\n        /* \"#utility.yul\":13728:13739   */\n      swap1\n      pop\n        /* \"#utility.yul\":13766:13770   */\n      0x20\n        /* \"#utility.yul\":13761:13764   */\n      dup3\n        /* \"#utility.yul\":13757:13771   */\n      add\n        /* \"#utility.yul\":13749:13771   */\n      swap1\n      pop\n        /* \"#utility.yul\":13649:13778   */\n      swap2\n      swap1\n      pop\n      jump\t// out\n        /* \"#utility.yul\":13784:13883   */\n    tag_321:\n        /* \"#utility.yul\":13855:13876   */\n      tag_514\n        /* \"#utility.yul\":13870:13875   */\n      dup2\n        /* \"#utility.yul\":13855:13876   */\n      tag_301\n      jump\t// in\n    tag_514:\n        /* \"#utility.yul\":13850:13853   */\n      dup3\n        /* \"#utility.yul\":13843:13877   */\n      mstore\n        /* \"#utility.yul\":13784:13883   */\n      pop\n      pop\n      jump\t// out\n        /* \"#utility.yul\":13889:14056   */\n    tag_322:\n        /* \"#utility.yul\":13952:13962   */\n      0x00\n        /* \"#utility.yul\":13973:14013   */\n      tag_516\n        /* \"#utility.yul\":14009:14012   */\n      dup4\n        /* \"#utility.yul\":14001:14007   */\n      dup4\n        /* \"#utility.yul\":13973:14013   */\n      tag_321\n      jump\t// in\n    tag_516:\n        /* \"#utility.yul\":14045:14049   */\n      0x20\n        /* \"#utility.yul\":14040:14043   */\n      dup4\n        /* \"#utility.yul\":14036:14050   */\n      add\n        /* \"#utility.yul\":14022:14050   */\n      swap1\n      pop\n        /* \"#utility.yul\":13889:14056   */\n      swap3\n      swap2\n      pop\n      pop\n      jump\t// out\n        /* \"#utility.yul\":14062:14172   */\n    tag_323:\n        /* \"#utility.yul\":14129:14133   */\n      0x00\n        /* \"#utility.yul\":14161:14165   */\n      0x20\n        /* \"#utility.yul\":14156:14159   */\n      dup3\n        /* \"#utility.yul\":14152:14166   */\n      add\n        /* \"#utility.yul\":14144:14166   */\n      swap1\n      pop\n        /* \"#utility.yul\":14062:14172   */\n      swap2\n      swap1\n      pop\n      jump\t// out\n        /* \"#utility.yul\":14202:14910   */\n    tag_324:\n        /* \"#utility.yul\":14315:14318   */\n      0x00\n        /* \"#utility.yul\":14344:14395   */\n      tag_519\n        /* \"#utility.yul\":14389:14394   */\n      dup3\n        /* \"#utility.yul\":14344:14395   */\n      tag_318\n      jump\t// in\n    tag_519:\n        /* \"#utility.yul\":14411:14494   */\n      tag_520\n        /* \"#utility.yul\":14487:14493   */\n      dup2\n        /* \"#utility.yul\":14482:14485   */\n      dup6\n        /* \"#utility.yul\":14411:14494   */\n      tag_319\n      jump\t// in\n    tag_520:\n        /* \"#utility.yul\":14404:14494   */\n      swap4\n      pop\n        /* \"#utility.yul\":14518:14571   */\n      tag_521\n        /* \"#utility.yul\":14565:14570   */\n      dup4\n        /* \"#utility.yul\":14518:14571   */\n      tag_320\n      jump\t// in\n    tag_521:\n        /* \"#utility.yul\":14594:14601   */\n      dup1\n        /* \"#utility.yul\":14625:14626   */\n      0x00\n        /* \"#utility.yul\":14610:14885   */\n    tag_522:\n        /* \"#utility.yul\":14635:14641   */\n      dup4\n        /* \"#utility.yul\":14632:14633   */\n      dup2\n        /* \"#utility.yul\":14629:14642   */\n      lt\n        /* \"#utility.yul\":14610:14885   */\n      iszero\n      tag_524\n      jumpi\n        /* \"#utility.yul\":14711:14717   */\n      dup2\n        /* \"#utility.yul\":14705:14718   */\n      mload\n        /* \"#utility.yul\":14738:14795   */\n      tag_525\n        /* \"#utility.yul\":14791:14794   */\n      dup9\n        /* \"#utility.yul\":14776:14789   */\n      dup3\n        /* \"#utility.yul\":14738:14795   */\n      tag_322\n      jump\t// in\n    tag_525:\n        /* \"#utility.yul\":14731:14795   */\n      swap8\n      pop\n        /* \"#utility.yul\":14818:14875   */\n      tag_526\n        /* \"#utility.yul\":14868:14874   */\n      dup4\n        /* \"#utility.yul\":14818:14875   */\n      tag_323\n      jump\t// in\n    tag_526:\n        /* \"#utility.yul\":14808:14875   */\n      swap3\n      pop\n        /* \"#utility.yul\":14670:14885   */\n      pop\n        /* \"#utility.yul\":14657:14658   */\n      0x01\n        /* \"#utility.yul\":14654:14655   */\n      dup2\n        /* \"#utility.yul\":14650:14659   */\n      add\n        /* \"#utility.yul\":14645:14659   */\n      swap1\n      pop\n        /* \"#utility.yul\":14610:14885   */\n      jump(tag_522)\n    tag_524:\n        /* \"#utility.yul\":14614:14628   */\n      pop\n        /* \"#utility.yul\":14901:14904   */\n      dup6\n        /* \"#utility.yul\":14894:14904   */\n      swap4\n      pop\n        /* \"#utility.yul\":14320:14910   */\n      pop\n      pop\n      pop\n        /* \"#utility.yul\":14202:14910   */\n      swap3\n      swap2\n      pop\n      pop\n      jump\t// out\n        /* \"#utility.yul\":14916:16101   */\n    tag_35:\n        /* \"#utility.yul\":15307:15311   */\n      0x00\n        /* \"#utility.yul\":15345:15348   */\n      0x80\n        /* \"#utility.yul\":15334:15343   */\n      dup3\n        /* \"#utility.yul\":15330:15349   */\n      add\n        /* \"#utility.yul\":15322:15349   */\n      swap1\n      pop\n        /* \"#utility.yul\":15395:15404   */\n      dup2\n        /* \"#utility.yul\":15389:15393   */\n      dup2\n        /* \"#utility.yul\":15385:15405   */\n      sub\n        /* \"#utility.yul\":15381:15382   */\n      0x00\n        /* \"#utility.yul\":15370:15379   */\n      dup4\n        /* \"#utility.yul\":15366:15383   */\n      add\n        /* \"#utility.yul\":15359:15406   */\n      mstore\n        /* \"#utility.yul\":15423:15531   */\n      tag_528\n        /* \"#utility.yul\":15526:15530   */\n      dup2\n        /* \"#utility.yul\":15517:15523   */\n      dup8\n        /* \"#utility.yul\":15423:15531   */\n      tag_309\n      jump\t// in\n    tag_528:\n        /* \"#utility.yul\":15415:15531   */\n      swap1\n      pop\n        /* \"#utility.yul\":15578:15587   */\n      dup2\n        /* \"#utility.yul\":15572:15576   */\n      dup2\n        /* \"#utility.yul\":15568:15588   */\n      sub\n        /* \"#utility.yul\":15563:15565   */\n      0x20\n        /* \"#utility.yul\":15552:15561   */\n      dup4\n        /* \"#utility.yul\":15548:15566   */\n      add\n        /* \"#utility.yul\":15541:15589   */\n      mstore\n        /* \"#utility.yul\":15606:15734   */\n      tag_529\n        /* \"#utility.yul\":15729:15733   */\n      dup2\n        /* \"#utility.yul\":15720:15726   */\n      dup7\n        /* \"#utility.yul\":15606:15734   */\n      tag_317\n      jump\t// in\n    tag_529:\n        /* \"#utility.yul\":15598:15734   */\n      swap1\n      pop\n        /* \"#utility.yul\":15781:15790   */\n      dup2\n        /* \"#utility.yul\":15775:15779   */\n      dup2\n        /* \"#utility.yul\":15771:15791   */\n      sub\n        /* \"#utility.yul\":15766:15768   */\n      0x40\n        /* \"#utility.yul\":15755:15764   */\n      dup4\n        /* \"#utility.yul\":15751:15769   */\n      add\n        /* \"#utility.yul\":15744:15792   */\n      mstore\n        /* \"#utility.yul\":15809:15911   */\n      tag_530\n        /* \"#utility.yul\":15906:15910   */\n      dup2\n        /* \"#utility.yul\":15897:15903   */\n      dup6\n        /* \"#utility.yul\":15809:15911   */\n      tag_324\n      jump\t// in\n    tag_530:\n        /* \"#utility.yul\":15801:15911   */\n      swap1\n      pop\n        /* \"#utility.yul\":15958:15967   */\n      dup2\n        /* \"#utility.yul\":15952:15956   */\n      dup2\n        /* \"#utility.yul\":15948:15968   */\n      sub\n        /* \"#utility.yul\":15943:15945   */\n      0x60\n        /* \"#utility.yul\":15932:15941   */\n      dup4\n        /* \"#utility.yul\":15928:15946   */\n      add\n        /* \"#utility.yul\":15921:15969   */\n      mstore\n        /* \"#utility.yul\":15986:16094   */\n      tag_531\n        /* \"#utility.yul\":16089:16093   */\n      dup2\n        /* \"#utility.yul\":16080:16086   */\n      dup5\n        /* \"#utility.yul\":15986:16094   */\n      tag_309\n      jump\t// in\n    tag_531:\n        /* \"#utility.yul\":15978:16094   */\n      swap1\n      pop\n        /* \"#utility.yul\":14916:16101   */\n      swap6\n      swap5\n      pop\n      pop\n      pop\n      pop\n      pop\n      jump\t// out\n        /* \"#utility.yul\":16107:16233   */\n    tag_325:\n        /* \"#utility.yul\":16144:16151   */\n      0x00\n        /* \"#utility.yul\":16184:16226   */\n      0xffffffffffffffffffffffffffffffffffffffff\n        /* \"#utility.yul\":16177:16182   */\n      dup3\n        /* \"#utility.yul\":16173:16227   */\n      and\n        /* \"#utility.yul\":16162:16227   */\n      swap1\n      pop\n        /* \"#utility.yul\":16107:16233   */\n      swap2\n      swap1\n      pop\n      jump\t// out\n        /* \"#utility.yul\":16239:16335   */\n    tag_326:\n        /* \"#utility.yul\":16276:16283   */\n      0x00\n        /* \"#utility.yul\":16305:16329   */\n      tag_534\n        /* \"#utility.yul\":16323:16328   */\n      dup3\n        /* \"#utility.yul\":16305:16329   */\n      tag_325\n      jump\t// in\n    tag_534:\n        /* \"#utility.yul\":16294:16329   */\n      swap1\n      pop\n        /* \"#utility.yul\":16239:16335   */\n      swap2\n      swap1\n      pop\n      jump\t// out\n        /* \"#utility.yul\":16341:16459   */\n    tag_327:\n        /* \"#utility.yul\":16428:16452   */\n      tag_536\n        /* \"#utility.yul\":16446:16451   */\n      dup2\n        /* \"#utility.yul\":16428:16452   */\n      tag_326\n      jump\t// in\n    tag_536:\n        /* \"#utility.yul\":16423:16426   */\n      dup3\n        /* \"#utility.yul\":16416:16453   */\n      mstore\n        /* \"#utility.yul\":16341:16459   */\n      pop\n      pop\n      jump\t// out\n        /* \"#utility.yul\":16465:16687   */\n    tag_42:\n        /* \"#utility.yul\":16558:16562   */\n      0x00\n        /* \"#utility.yul\":16596:16598   */\n      0x20\n        /* \"#utility.yul\":16585:16594   */\n      dup3\n        /* \"#utility.yul\":16581:16599   */\n      add\n        /* \"#utility.yul\":16573:16599   */\n      swap1\n      pop\n        /* \"#utility.yul\":16609:16680   */\n      tag_538\n        /* \"#utility.yul\":16677:16678   */\n      0x00\n        /* \"#utility.yul\":16666:16675   */\n      dup4\n        /* \"#utility.yul\":16662:16679   */\n      add\n        /* \"#utility.yul\":16653:16659   */\n      dup5\n        /* \"#utility.yul\":16609:16680   */\n      tag_327\n      jump\t// in\n    tag_538:\n        /* \"#utility.yul\":16465:16687   */\n      swap3\n      swap2\n      pop\n      pop\n      jump\t// out\n        /* \"#utility.yul\":16693:16815   */\n    tag_328:\n        /* \"#utility.yul\":16766:16790   */\n      tag_540\n        /* \"#utility.yul\":16784:16789   */\n      dup2\n        /* \"#utility.yul\":16766:16790   */\n      tag_326\n      jump\t// in\n    tag_540:\n        /* \"#utility.yul\":16759:16764   */\n      dup2\n        /* \"#utility.yul\":16756:16791   */\n      eq\n        /* \"#utility.yul\":16746:16809   */\n      tag_541\n      jumpi\n        /* \"#utility.yul\":16805:16806   */\n      0x00\n        /* \"#utility.yul\":16802:16803   */\n      0x00\n        /* \"#utility.yul\":16795:16807   */\n      revert\n        /* \"#utility.yul\":16746:16809   */\n    tag_541:\n        /* \"#utility.yul\":16693:16815   */\n      pop\n      jump\t// out\n        /* \"#utility.yul\":16821:16960   */\n    tag_329:\n        /* \"#utility.yul\":16867:16872   */\n      0x00\n        /* \"#utility.yul\":16905:16911   */\n      dup2\n        /* \"#utility.yul\":16892:16912   */\n      calldataload\n        /* \"#utility.yul\":16883:16912   */\n      swap1\n      pop\n        /* \"#utility.yul\":16921:16954   */\n      tag_543\n        /* \"#utility.yul\":16948:16953   */\n      dup2\n        /* \"#utility.yul\":16921:16954   */\n      tag_328\n      jump\t// in\n    tag_543:\n        /* \"#utility.yul\":16821:16960   */\n      swap3\n      swap2\n      pop\n      pop\n      jump\t// out\n        /* \"#utility.yul\":16966:17440   */\n    tag_45:\n        /* \"#utility.yul\":17034:17040   */\n      0x00\n        /* \"#utility.yul\":17042:17048   */\n      0x00\n        /* \"#utility.yul\":17091:17093   */\n      0x40\n        /* \"#utility.yul\":17079:17088   */\n      dup4\n        /* \"#utility.yul\":17070:17077   */\n      dup6\n        /* \"#utility.yul\":17066:17089   */\n      sub\n        /* \"#utility.yul\":17062:17094   */\n      slt\n        /* \"#utility.yul\":17059:17178   */\n      iszero\n      tag_545\n      jumpi\n        /* \"#utility.yul\":17097:17176   */\n      tag_546\n      tag_278\n      jump\t// in\n    tag_546:\n        /* \"#utility.yul\":17059:17178   */\n    tag_545:\n        /* \"#utility.yul\":17217:17218   */\n      0x00\n        /* \"#utility.yul\":17242:17295   */\n      tag_547\n        /* \"#utility.yul\":17287:17294   */\n      dup6\n        /* \"#utility.yul\":17278:17284   */\n      dup3\n        /* \"#utility.yul\":17267:17276   */\n      dup7\n        /* \"#utility.yul\":17263:17285   */\n      add\n        /* \"#utility.yul\":17242:17295   */\n      tag_295\n      jump\t// in\n    tag_547:\n        /* \"#utility.yul\":17232:17295   */\n      swap3\n      pop\n        /* \"#utility.yul\":17188:17305   */\n      pop\n        /* \"#utility.yul\":17344:17346   */\n      0x20\n        /* \"#utility.yul\":17370:17423   */\n      tag_548\n        /* \"#utility.yul\":17415:17422   */\n      dup6\n        /* \"#utility.yul\":17406:17412   */\n      dup3\n        /* \"#utility.yul\":17395:17404   */\n      dup7\n        /* \"#utility.yul\":17391:17413   */\n      add\n        /* \"#utility.yul\":17370:17423   */\n      tag_329\n      jump\t// in\n    tag_548:\n        /* \"#utility.yul\":17360:17423   */\n      swap2\n      pop\n        /* \"#utility.yul\":17315:17433   */\n      pop\n        /* \"#utility.yul\":16966:17440   */\n      swap3\n      pop\n      swap3\n      swap1\n      pop\n      jump\t// out\n        /* \"#utility.yul\":17446:17656   */\n    tag_48:\n        /* \"#utility.yul\":17533:17537   */\n      0x00\n        /* \"#utility.yul\":17571:17573   */\n      0x20\n        /* \"#utility.yul\":17560:17569   */\n      dup3\n        /* \"#utility.yul\":17556:17574   */\n      add\n        /* \"#utility.yul\":17548:17574   */\n      swap1\n      pop\n        /* \"#utility.yul\":17584:17649   */\n      tag_550\n        /* \"#utility.yul\":17646:17647   */\n      0x00\n        /* \"#utility.yul\":17635:17644   */\n      dup4\n        /* \"#utility.yul\":17631:17648   */\n      add\n        /* \"#utility.yul\":17622:17628   */\n      dup5\n        /* \"#utility.yul\":17584:17649   */\n      tag_302\n      jump\t// in\n    tag_550:\n        /* \"#utility.yul\":17446:17656   */\n      swap3\n      swap2\n      pop\n      pop\n      jump\t// out\n        /* \"#utility.yul\":17662:18294   */\n    tag_53:\n        /* \"#utility.yul\":17853:17857   */\n      0x00\n        /* \"#utility.yul\":17891:17894   */\n      0x80\n        /* \"#utility.yul\":17880:17889   */\n      dup3\n        /* \"#utility.yul\":17876:17895   */\n      add\n        /* \"#utility.yul\":17868:17895   */\n      swap1\n      pop\n        /* \"#utility.yul\":17905:17976   */\n      tag_552\n        /* \"#utility.yul\":17973:17974   */\n      0x00\n        /* \"#utility.yul\":17962:17971   */\n      dup4\n        /* \"#utility.yul\":17958:17975   */\n      add\n        /* \"#utility.yul\":17949:17955   */\n      dup8\n        /* \"#utility.yul\":17905:17976   */\n      tag_296\n      jump\t// in\n    tag_552:\n        /* \"#utility.yul\":18023:18032   */\n      dup2\n        /* \"#utility.yul\":18017:18021   */\n      dup2\n        /* \"#utility.yul\":18013:18033   */\n      sub\n        /* \"#utility.yul\":18008:18010   */\n      0x20\n        /* \"#utility.yul\":17997:18006   */\n      dup4\n        /* \"#utility.yul\":17993:18011   */\n      add\n        /* \"#utility.yul\":17986:18034   */\n      mstore\n        /* \"#utility.yul\":18051:18129   */\n      tag_553\n        /* \"#utility.yul\":18124:18128   */\n      dup2\n        /* \"#utility.yul\":18115:18121   */\n      dup7\n        /* \"#utility.yul\":18051:18129   */\n      tag_300\n      jump\t// in\n    tag_553:\n        /* \"#utility.yul\":18043:18129   */\n      swap1\n      pop\n        /* \"#utility.yul\":18139:18211   */\n      tag_554\n        /* \"#utility.yul\":18207:18209   */\n      0x40\n        /* \"#utility.yul\":18196:18205   */\n      dup4\n        /* \"#utility.yul\":18192:18210   */\n      add\n        /* \"#utility.yul\":18183:18189   */\n      dup6\n        /* \"#utility.yul\":18139:18211   */\n      tag_296\n      jump\t// in\n    tag_554:\n        /* \"#utility.yul\":18221:18287   */\n      tag_555\n        /* \"#utility.yul\":18283:18285   */\n      0x60\n        /* \"#utility.yul\":18272:18281   */\n      dup4\n        /* \"#utility.yul\":18268:18286   */\n      add\n        /* \"#utility.yul\":18259:18265   */\n      dup5\n        /* \"#utility.yul\":18221:18287   */\n      tag_302\n      jump\t// in\n    tag_555:\n        /* \"#utility.yul\":17662:18294   */\n      swap6\n      swap5\n      pop\n      pop\n      pop\n      pop\n      pop\n      jump\t// out\n        /* \"#utility.yul\":18300:18974   */\n    tag_58:\n        /* \"#utility.yul\":18541:18545   */\n      0x00\n        /* \"#utility.yul\":18579:18581   */\n      0x40\n        /* \"#utility.yul\":18568:18577   */\n      dup3\n        /* \"#utility.yul\":18564:18582   */\n      add\n        /* \"#utility.yul\":18556:18582   */\n      swap1\n      pop\n        /* \"#utility.yul\":18628:18637   */\n      dup2\n        /* \"#utility.yul\":18622:18626   */\n      dup2\n        /* \"#utility.yul\":18618:18638   */\n      sub\n        /* \"#utility.yul\":18614:18615   */\n      0x00\n        /* \"#utility.yul\":18603:18612   */\n      dup4\n        /* \"#utility.yul\":18599:18616   */\n      add\n        /* \"#utility.yul\":18592:18639   */\n      mstore\n        /* \"#utility.yul\":18656:18784   */\n      tag_557\n        /* \"#utility.yul\":18779:18783   */\n      dup2\n        /* \"#utility.yul\":18770:18776   */\n      dup6\n        /* \"#utility.yul\":18656:18784   */\n      tag_317\n      jump\t// in\n    tag_557:\n        /* \"#utility.yul\":18648:18784   */\n      swap1\n      pop\n        /* \"#utility.yul\":18831:18840   */\n      dup2\n        /* \"#utility.yul\":18825:18829   */\n      dup2\n        /* \"#utility.yul\":18821:18841   */\n      sub\n        /* \"#utility.yul\":18816:18818   */\n      0x20\n        /* \"#utility.yul\":18805:18814   */\n      dup4\n        /* \"#utility.yul\":18801:18819   */\n      add\n        /* \"#utility.yul\":18794:18842   */\n      mstore\n        /* \"#utility.yul\":18859:18967   */\n      tag_558\n        /* \"#utility.yul\":18962:18966   */\n      dup2\n        /* \"#utility.yul\":18953:18959   */\n      dup5\n        /* \"#utility.yul\":18859:18967   */\n      tag_309\n      jump\t// in\n    tag_558:\n        /* \"#utility.yul\":18851:18967   */\n      swap1\n      pop\n        /* \"#utility.yul\":18300:18974   */\n      swap4\n      swap3\n      pop\n      pop\n      pop\n      jump\t// out\n        /* \"#utility.yul\":18980:19202   */\n    tag_330:\n        /* \"#utility.yul\":19120:19154   */\n      0x48616e7961206f776e65722079616e672062697361206d656c616b756b616e20\n        /* \"#utility.yul\":19116:19117   */\n      0x00\n        /* \"#utility.yul\":19108:19114   */\n      dup3\n        /* \"#utility.yul\":19104:19118   */\n      add\n        /* \"#utility.yul\":19097:19155   */\n      mstore\n        /* \"#utility.yul\":19189:19194   */\n      0x696e690000000000000000000000000000000000000000000000000000000000\n        /* \"#utility.yul\":19184:19186   */\n      0x20\n        /* \"#utility.yul\":19176:19182   */\n      dup3\n        /* \"#utility.yul\":19172:19187   */\n      add\n        /* \"#utility.yul\":19165:19195   */\n      mstore\n        /* \"#utility.yul\":18980:19202   */\n      pop\n      jump\t// out\n        /* \"#utility.yul\":19208:19574   */\n    tag_331:\n        /* \"#utility.yul\":19350:19353   */\n      0x00\n        /* \"#utility.yul\":19371:19438   */\n      tag_561\n        /* \"#utility.yul\":19435:19437   */\n      0x23\n        /* \"#utility.yul\":19430:19433   */\n      dup4\n        /* \"#utility.yul\":19371:19438   */\n      tag_298\n      jump\t// in\n    tag_561:\n        /* \"#utility.yul\":19364:19438   */\n      swap2\n      pop\n        /* \"#utility.yul\":19447:19540   */\n      tag_562\n        /* \"#utility.yul\":19536:19539   */\n      dup3\n        /* \"#utility.yul\":19447:19540   */\n      tag_330\n      jump\t// in\n    tag_562:\n        /* \"#utility.yul\":19565:19567   */\n      0x40\n        /* \"#utility.yul\":19560:19563   */\n      dup3\n        /* \"#utility.yul\":19556:19568   */\n      add\n        /* \"#utility.yul\":19549:19568   */\n      swap1\n      pop\n        /* \"#utility.yul\":19208:19574   */\n      swap2\n      swap1\n      pop\n      jump\t// out\n        /* \"#utility.yul\":19580:19999   */\n    tag_62:\n        /* \"#utility.yul\":19746:19750   */\n      0x00\n        /* \"#utility.yul\":19784:19786   */\n      0x20\n        /* \"#utility.yul\":19773:19782   */\n      dup3\n        /* \"#utility.yul\":19769:19787   */\n      add\n        /* \"#utility.yul\":19761:19787   */\n      swap1\n      pop\n        /* \"#utility.yul\":19833:19842   */\n      dup2\n        /* \"#utility.yul\":19827:19831   */\n      dup2\n        /* \"#utility.yul\":19823:19843   */\n      sub\n        /* \"#utility.yul\":19819:19820   */\n      0x00\n        /* \"#utility.yul\":19808:19817   */\n      dup4\n        /* \"#utility.yul\":19804:19821   */\n      add\n        /* \"#utility.yul\":19797:19844   */\n      mstore\n        /* \"#utility.yul\":19861:19992   */\n      tag_564\n        /* \"#utility.yul\":19987:19991   */\n      dup2\n        /* \"#utility.yul\":19861:19992   */\n      tag_331\n      jump\t// in\n    tag_564:\n        /* \"#utility.yul\":19853:19992   */\n      swap1\n      pop\n        /* \"#utility.yul\":19580:19999   */\n      swap2\n      swap1\n      pop\n      jump\t// out\n        /* \"#utility.yul\":20005:20179   */\n    tag_332:\n        /* \"#utility.yul\":20145:20171   */\n      0x4a7564756c20746964616b20626f6c6568206b6f736f6e670000000000000000\n        /* \"#utility.yul\":20141:20142   */\n      0x00\n        /* \"#utility.yul\":20133:20139   */\n      dup3\n        /* \"#utility.yul\":20129:20143   */\n      add\n        /* \"#utility.yul\":20122:20172   */\n      mstore\n        /* \"#utility.yul\":20005:20179   */\n      pop\n      jump\t// out\n        /* \"#utility.yul\":20185:20551   */\n    tag_333:\n        /* \"#utility.yul\":20327:20330   */\n      0x00\n        /* \"#utility.yul\":20348:20415   */\n      tag_567\n        /* \"#utility.yul\":20412:20414   */\n      0x18\n        /* \"#utility.yul\":20407:20410   */\n      dup4\n        /* \"#utility.yul\":20348:20415   */\n      tag_298\n      jump\t// in\n    tag_567:\n        /* \"#utility.yul\":20341:20415   */\n      swap2\n      pop\n        /* \"#utility.yul\":20424:20517   */\n      tag_568\n        /* \"#utility.yul\":20513:20516   */\n      dup3\n        /* \"#utility.yul\":20424:20517   */\n      tag_332\n      jump\t// in\n    tag_568:\n        /* \"#utility.yul\":20542:20544   */\n      0x20\n        /* \"#utility.yul\":20537:20540   */\n      dup3\n        /* \"#utility.yul\":20533:20545   */\n      add\n        /* \"#utility.yul\":20526:20545   */\n      swap1\n      pop\n        /* \"#utility.yul\":20185:20551   */\n      swap2\n      swap1\n      pop\n      jump\t// out\n        /* \"#utility.yul\":20557:20976   */\n    tag_66:\n        /* \"#utility.yul\":20723:20727   */\n      0x00\n        /* \"#utility.yul\":20761:20763   */\n      0x20\n        /* \"#utility.yul\":20750:20759   */\n      dup3\n        /* \"#utility.yul\":20746:20764   */\n      add\n        /* \"#utility.yul\":20738:20764   */\n      swap1\n      pop\n        /* \"#utility.yul\":20810:20819   */\n      dup2\n        /* \"#utility.yul\":20804:20808   */\n      dup2\n        /* \"#utility.yul\":20800:20820   */\n      sub\n        /* \"#utility.yul\":20796:20797   */\n      0x00\n        /* \"#utility.yul\":20785:20794   */\n      dup4\n        /* \"#utility.yul\":20781:20798   */\n      add\n        /* \"#utility.yul\":20774:20821   */\n      mstore\n        /* \"#utility.yul\":20838:20969   */\n      tag_570\n        /* \"#utility.yul\":20964:20968   */\n      dup2\n        /* \"#utility.yul\":20838:20969   */\n      tag_333\n      jump\t// in\n    tag_570:\n        /* \"#utility.yul\":20830:20969   */\n      swap1\n      pop\n        /* \"#utility.yul\":20557:20976   */\n      swap2\n      swap1\n      pop\n      jump\t// out\n        /* \"#utility.yul\":20982:21160   */\n    tag_334:\n        /* \"#utility.yul\":21122:21152   */\n      0x4d696e696d616c20322070696c6968616e2064697065726c756b616e00000000\n        /* \"#utility.yul\":21118:21119   */\n      0x00\n        /* \"#utility.yul\":21110:21116   */\n      dup3\n        /* \"#utility.yul\":21106:21120   */\n      add\n        /* \"#utility.yul\":21099:21153   */\n      mstore\n        /* \"#utility.yul\":20982:21160   */\n      pop\n      jump\t// out\n        /* \"#utility.yul\":21166:21532   */\n    tag_335:\n        /* \"#utility.yul\":21308:21311   */\n      0x00\n        /* \"#utility.yul\":21329:21396   */\n      tag_573\n        /* \"#utility.yul\":21393:21395   */\n      0x1c\n        /* \"#utility.yul\":21388:21391   */\n      dup4\n        /* \"#utility.yul\":21329:21396   */\n      tag_298\n      jump\t// in\n    tag_573:\n        /* \"#utility.yul\":21322:21396   */\n      swap2\n      pop\n        /* \"#utility.yul\":21405:21498   */\n      tag_574\n        /* \"#utility.yul\":21494:21497   */\n      dup3\n        /* \"#utility.yul\":21405:21498   */\n      tag_334\n      jump\t// in\n    tag_574:\n        /* \"#utility.yul\":21523:21525   */\n      0x20\n        /* \"#utility.yul\":21518:21521   */\n      dup3\n        /* \"#utility.yul\":21514:21526   */\n      add\n        /* \"#utility.yul\":21507:21526   */\n      swap1\n      pop\n        /* \"#utility.yul\":21166:21532   */\n      swap2\n      swap1\n      pop\n      jump\t// out\n        /* \"#utility.yul\":21538:21957   */\n    tag_69:\n        /* \"#utility.yul\":21704:21708   */\n      0x00\n        /* \"#utility.yul\":21742:21744   */\n      0x20\n        /* \"#utility.yul\":21731:21740   */\n      dup3\n        /* \"#utility.yul\":21727:21745   */\n      add\n        /* \"#utility.yul\":21719:21745   */\n      swap1\n      pop\n        /* \"#utility.yul\":21791:21800   */\n      dup2\n        /* \"#utility.yul\":21785:21789   */\n      dup2\n        /* \"#utility.yul\":21781:21801   */\n      sub\n        /* \"#utility.yul\":21777:21778   */\n      0x00\n        /* \"#utility.yul\":21766:21775   */\n      dup4\n        /* \"#utility.yul\":21762:21779   */\n      add\n        /* \"#utility.yul\":21755:21802   */\n      mstore\n        /* \"#utility.yul\":21819:21950   */\n      tag_576\n        /* \"#utility.yul\":21945:21949   */\n      dup2\n        /* \"#utility.yul\":21819:21950   */\n      tag_335\n      jump\t// in\n    tag_576:\n        /* \"#utility.yul\":21811:21950   */\n      swap1\n      pop\n        /* \"#utility.yul\":21538:21957   */\n      swap2\n      swap1\n      pop\n      jump\t// out\n        /* \"#utility.yul\":21963:22132   */\n    tag_336:\n        /* \"#utility.yul\":22103:22124   */\n      0x4d616b73696d616c2031302070696c6968616e00000000000000000000000000\n        /* \"#utility.yul\":22099:22100   */\n      0x00\n        /* \"#utility.yul\":22091:22097   */\n      dup3\n        /* \"#utility.yul\":22087:22101   */\n      add\n        /* \"#utility.yul\":22080:22125   */\n      mstore\n        /* \"#utility.yul\":21963:22132   */\n      pop\n      jump\t// out\n        /* \"#utility.yul\":22138:22504   */\n    tag_337:\n        /* \"#utility.yul\":22280:22283   */\n      0x00\n        /* \"#utility.yul\":22301:22368   */\n      tag_579\n        /* \"#utility.yul\":22365:22367   */\n      0x13\n        /* \"#utility.yul\":22360:22363   */\n      dup4\n        /* \"#utility.yul\":22301:22368   */\n      tag_298\n      jump\t// in\n    tag_579:\n        /* \"#utility.yul\":22294:22368   */\n      swap2\n      pop\n        /* \"#utility.yul\":22377:22470   */\n      tag_580\n        /* \"#utility.yul\":22466:22469   */\n      dup3\n        /* \"#utility.yul\":22377:22470   */\n      tag_336\n      jump\t// in\n    tag_580:\n        /* \"#utility.yul\":22495:22497   */\n      0x20\n        /* \"#utility.yul\":22490:22493   */\n      dup3\n        /* \"#utility.yul\":22486:22498   */\n      add\n        /* \"#utility.yul\":22479:22498   */\n      swap1\n      pop\n        /* \"#utility.yul\":22138:22504   */\n      swap2\n      swap1\n      pop\n      jump\t// out\n        /* \"#utility.yul\":22510:22929   */\n    tag_72:\n        /* \"#utility.yul\":22676:22680   */\n      0x00\n        /* \"#utility.yul\":22714:22716   */\n      0x20\n        /* \"#utility.yul\":22703:22712   */\n      dup3\n        /* \"#utility.yul\":22699:22717   */\n      add\n        /* \"#utility.yul\":22691:22717   */\n      swap1\n      pop\n        /* \"#utility.yul\":22763:22772   */\n      dup2\n        /* \"#utility.yul\":22757:22761   */\n      dup2\n        /* \"#utility.yul\":22753:22773   */\n      sub\n        /* \"#utility.yul\":22749:22750   */\n      0x00\n        /* \"#utility.yul\":22738:22747   */\n      dup4\n        /* \"#utility.yul\":22734:22751   */\n      add\n        /* \"#utility.yul\":22727:22774   */\n      mstore\n        /* \"#utility.yul\":22791:22922   */\n      tag_582\n        /* \"#utility.yul\":22917:22921   */\n      dup2\n        /* \"#utility.yul\":22791:22922   */\n      tag_337\n      jump\t// in\n    tag_582:\n        /* \"#utility.yul\":22783:22922   */\n      swap1\n      pop\n        /* \"#utility.yul\":22510:22929   */\n      swap2\n      swap1\n      pop\n      jump\t// out\n        /* \"#utility.yul\":22935:23115   */\n    tag_338:\n        /* \"#utility.yul\":22983:23060   */\n      0x4e487b7100000000000000000000000000000000000000000000000000000000\n        /* \"#utility.yul\":22980:22981   */\n      0x00\n        /* \"#utility.yul\":22973:23061   */\n      mstore\n        /* \"#utility.yul\":23080:23084   */\n      0x11\n        /* \"#utility.yul\":23077:23078   */\n      0x04\n        /* \"#utility.yul\":23070:23085   */\n      mstore\n        /* \"#utility.yul\":23104:23108   */\n      0x24\n        /* \"#utility.yul\":23101:23102   */\n      0x00\n        /* \"#utility.yul\":23094:23109   */\n      revert\n        /* \"#utility.yul\":23121:23354   */\n    tag_74:\n        /* \"#utility.yul\":23160:23163   */\n      0x00\n        /* \"#utility.yul\":23183:23207   */\n      tag_585\n        /* \"#utility.yul\":23201:23206   */\n      dup3\n        /* \"#utility.yul\":23183:23207   */\n      tag_293\n      jump\t// in\n    tag_585:\n        /* \"#utility.yul\":23174:23207   */\n      swap2\n      pop\n        /* \"#utility.yul\":23229:23295   */\n      0xffffffffffffffffffffffffffffffffffffffffffffffffffffffffffffffff\n        /* \"#utility.yul\":23222:23227   */\n      dup3\n        /* \"#utility.yul\":23219:23296   */\n      sub\n        /* \"#utility.yul\":23216:23319   */\n      tag_586\n      jumpi\n        /* \"#utility.yul\":23299:23317   */\n      tag_587\n      tag_338\n      jump\t// in\n    tag_587:\n        /* \"#utility.yul\":23216:23319   */\n    tag_586:\n        /* \"#utility.yul\":23346:23347   */\n      0x01\n        /* \"#utility.yul\":23339:23344   */\n      dup3\n        /* \"#utility.yul\":23335:23348   */\n      add\n        /* \"#utility.yul\":23328:23348   */\n      swap1\n      pop\n        /* \"#utility.yul\":23121:23354   */\n      swap2\n      swap1\n      pop\n      jump\t// out\n        /* \"#utility.yul\":23360:23540   */\n    tag_339:\n        /* \"#utility.yul\":23408:23485   */\n      0x4e487b7100000000000000000000000000000000000000000000000000000000\n        /* \"#utility.yul\":23405:23406   */\n      0x00\n        /* \"#utility.yul\":23398:23486   */\n      mstore\n        /* \"#utility.yul\":23505:23509   */\n      0x22\n        /* \"#utility.yul\":23502:23503   */\n      0x04\n        /* \"#utility.yul\":23495:23510   */\n      mstore\n        /* \"#utility.yul\":23529:23533   */\n      0x24\n        /* \"#utility.yul\":23526:23527   */\n      0x00\n        /* \"#utility.yul\":23519:23534   */\n      revert\n        /* \"#utility.yul\":23546:23866   */\n    tag_135:\n        /* \"#utility.yul\":23590:23596   */\n      0x00\n        /* \"#utility.yul\":23627:23628   */\n      0x02\n        /* \"#utility.yul\":23621:23625   */\n      dup3\n        /* \"#utility.yul\":23617:23629   */\n      div\n        /* \"#utility.yul\":23607:23629   */\n      swap1\n      pop\n        /* \"#utility.yul\":23674:23675   */\n      0x01\n        /* \"#utility.yul\":23668:23672   */\n      dup3\n        /* \"#utility.yul\":23664:23676   */\n      and\n        /* \"#utility.yul\":23695:23713   */\n      dup1\n        /* \"#utility.yul\":23685:23766   */\n      tag_590\n      jumpi\n        /* \"#utility.yul\":23751:23755   */\n      0x7f\n        /* \"#utility.yul\":23743:23749   */\n      dup3\n        /* \"#utility.yul\":23739:23756   */\n      and\n        /* \"#utility.yul\":23729:23756   */\n      swap2\n      pop\n        /* \"#utility.yul\":23685:23766   */\n    tag_590:\n        /* \"#utility.yul\":23813:23815   */\n      0x20\n        /* \"#utility.yul\":23805:23811   */\n      dup3\n        /* \"#utility.yul\":23802:23816   */\n      lt\n        /* \"#utility.yul\":23782:23800   */\n      dup2\n        /* \"#utility.yul\":23779:23817   */\n      sub\n        /* \"#utility.yul\":23776:23860   */\n      tag_591\n      jumpi\n        /* \"#utility.yul\":23832:23850   */\n      tag_592\n      tag_339\n      jump\t// in\n    tag_592:\n        /* \"#utility.yul\":23776:23860   */\n    tag_591:\n        /* \"#utility.yul\":23597:23866   */\n      pop\n        /* \"#utility.yul\":23546:23866   */\n      swap2\n      swap1\n      pop\n      jump\t// out\n        /* \"#utility.yul\":23872:24013   */\n    tag_340:\n        /* \"#utility.yul\":23921:23925   */\n      0x00\n        /* \"#utility.yul\":23944:23947   */\n      dup2\n        /* \"#utility.yul\":23936:23947   */\n      swap1\n      pop\n        /* \"#utility.yul\":23967:23970   */\n      dup2\n        /* \"#utility.yul\":23964:23965   */\n      0x00\n        /* \"#utility.yul\":23957:23971   */\n      mstore\n        /* \"#utility.yul\":24001:24005   */\n      0x20\n        /* \"#utility.yul\":23998:23999   */\n      0x00\n        /* \"#utility.yul\":23988:24006   */\n      keccak256\n        /* \"#utility.yul\":23980:24006   */\n      swap1\n      pop\n        /* \"#utility.yul\":23872:24013   */\n      swap2\n      swap1\n      pop\n      jump\t// out\n        /* \"#utility.yul\":24019:24112   */\n    tag_341:\n        /* \"#utility.yul\":24056:24062   */\n      0x00\n        /* \"#utility.yul\":24103:24105   */\n      0x20\n        /* \"#utility.yul\":24098:24100   */\n      0x1f\n        /* \"#utility.yul\":24091:24096   */\n      dup4\n        /* \"#utility.yul\":24087:24101   */\n      add\n        /* \"#utility.yul\":24083:24106   */\n      div\n        /* \"#utility.yul\":24073:24106   */\n      swap1\n      pop\n        /* \"#utility.yul\":24019:24112   */\n      swap2\n      swap1\n      pop\n      jump\t// out\n        /* \"#utility.yul\":24118:24225   */\n    tag_342:\n        /* \"#utility.yul\":24162:24170   */\n      0x00\n        /* \"#utility.yul\":24212:24217   */\n      dup3\n        /* \"#utility.yul\":24206:24210   */\n      dup3\n        /* \"#utility.yul\":24202:24218   */\n      shl\n        /* \"#utility.yul\":24181:24218   */\n      swap1\n      pop\n        /* \"#utility.yul\":24118:24225   */\n      swap3\n      swap2\n      pop\n      pop\n      jump\t// out\n        /* \"#utility.yul\":24231:24624   */\n    tag_343:\n        /* \"#utility.yul\":24300:24306   */\n      0x00\n        /* \"#utility.yul\":24350:24351   */\n      0x08\n        /* \"#utility.yul\":24338:24348   */\n      dup4\n        /* \"#utility.yul\":24334:24352   */\n      mul\n        /* \"#utility.yul\":24373:24470   */\n      tag_597\n        /* \"#utility.yul\":24403:24469   */\n      0xffffffffffffffffffffffffffffffffffffffffffffffffffffffffffffffff\n        /* \"#utility.yul\":24392:24401   */\n      dup3\n        /* \"#utility.yul\":24373:24470   */\n      tag_342\n      jump\t// in\n    tag_597:\n        /* \"#utility.yul\":24491:24530   */\n      tag_598\n        /* \"#utility.yul\":24521:24529   */\n      dup7\n        /* \"#utility.yul\":24510:24519   */\n      dup4\n        /* \"#utility.yul\":24491:24530   */\n      tag_342\n      jump\t// in\n    tag_598:\n        /* \"#utility.yul\":24479:24530   */\n      swap6\n      pop\n        /* \"#utility.yul\":24563:24567   */\n      dup1\n        /* \"#utility.yul\":24559:24568   */\n      not\n        /* \"#utility.yul\":24552:24557   */\n      dup5\n        /* \"#utility.yul\":24548:24569   */\n      and\n        /* \"#utility.yul\":24539:24569   */\n      swap4\n      pop\n        /* \"#utility.yul\":24612:24616   */\n      dup1\n        /* \"#utility.yul\":24602:24610   */\n      dup7\n        /* \"#utility.yul\":24598:24617   */\n      and\n        /* \"#utility.yul\":24591:24596   */\n      dup5\n        /* \"#utility.yul\":24588:24618   */\n      or\n        /* \"#utility.yul\":24578:24618   */\n      swap3\n      pop\n        /* \"#utility.yul\":24307:24624   */\n      pop\n      pop\n        /* \"#utility.yul\":24231:24624   */\n      swap4\n      swap3\n      pop\n      pop\n      pop\n      jump\t// out\n        /* \"#utility.yul\":24630:24690   */\n    tag_344:\n        /* \"#utility.yul\":24658:24661   */\n      0x00\n        /* \"#utility.yul\":24679:24684   */\n      dup2\n        /* \"#utility.yul\":24672:24684   */\n      swap1\n      pop\n        /* \"#utility.yul\":24630:24690   */\n      swap2\n      swap1\n      pop\n      jump\t// out\n        /* \"#utility.yul\":24696:24838   */\n    tag_345:\n        /* \"#utility.yul\":24746:24755   */\n      0x00\n        /* \"#utility.yul\":24779:24832   */\n      tag_601\n        /* \"#utility.yul\":24797:24831   */\n      tag_602\n        /* \"#utility.yul\":24806:24830   */\n      tag_603\n        /* \"#utility.yul\":24824:24829   */\n      dup5\n        /* \"#utility.yul\":24806:24830   */\n      tag_293\n      jump\t// in\n    tag_603:\n        /* \"#utility.yul\":24797:24831   */\n      tag_344\n      jump\t// in\n    tag_602:\n        /* \"#utility.yul\":24779:24832   */\n      tag_293\n      jump\t// in\n    tag_601:\n        /* \"#utility.yul\":24766:24832   */\n      swap1\n      pop\n        /* \"#utility.yul\":24696:24838   */\n      swap2\n      swap1\n      pop\n      jump\t// out\n        /* \"#utility.yul\":24844:24919   */\n    tag_346:\n        /* \"#utility.yul\":24887:24890   */\n      0x00\n        /* \"#utility.yul\":24908:24913   */\n      dup2\n        /* \"#utility.yul\":24901:24913   */\n      swap1\n      pop\n        /* \"#utility.yul\":24844:24919   */\n      swap2\n      swap1\n      pop\n      jump\t// out\n        /* \"#utility.yul\":24925:25194   */\n    tag_347:\n        /* \"#utility.yul\":25035:25074   */\n      tag_606\n        /* \"#utility.yul\":25066:25073   */\n      dup4\n        /* \"#utility.yul\":25035:25074   */\n      tag_345\n      jump\t// in\n    tag_606:\n        /* \"#utility.yul\":25096:25187   */\n      tag_607\n        /* \"#utility.yul\":25145:25186   */\n      tag_608\n        /* \"#utility.yul\":25169:25185   */\n      dup3\n        /* \"#utility.yul\":25145:25186   */\n      tag_346\n      jump\t// in\n    tag_608:\n        /* \"#utility.yul\":25137:25143   */\n      dup5\n        /* \"#utility.yul\":25130:25134   */\n      dup5\n        /* \"#utility.yul\":25124:25135   */\n      sload\n        /* \"#utility.yul\":25096:25187   */\n      tag_343\n      jump\t// in\n    tag_607:\n        /* \"#utility.yul\":25090:25094   */\n      dup3\n        /* \"#utility.yul\":25083:25188   */\n      sstore\n        /* \"#utility.yul\":25001:25194   */\n      pop\n        /* \"#utility.yul\":24925:25194   */\n      pop\n      pop\n      pop\n      jump\t// out\n        /* \"#utility.yul\":25200:25273   */\n    tag_348:\n        /* \"#utility.yul\":25245:25248   */\n      0x00\n        /* \"#utility.yul\":25266:25267   */\n      0x00\n        /* \"#utility.yul\":25259:25267   */\n      swap1\n      pop\n        /* \"#utility.yul\":25200:25273   */\n      swap1\n      jump\t// out\n        /* \"#utility.yul\":25279:25468   */\n    tag_349:\n        /* \"#utility.yul\":25356:25388   */\n      tag_611\n      tag_348\n      jump\t// in\n    tag_611:\n        /* \"#utility.yul\":25397:25462   */\n      tag_612\n        /* \"#utility.yul\":25455:25461   */\n      dup2\n        /* \"#utility.yul\":25447:25453   */\n      dup5\n        /* \"#utility.yul\":25441:25445   */\n      dup5\n        /* \"#utility.yul\":25397:25462   */\n      tag_347\n      jump\t// in\n    tag_612:\n        /* \"#utility.yul\":25332:25468   */\n      pop\n        /* \"#utility.yul\":25279:25468   */\n      pop\n      pop\n      jump\t// out\n        /* \"#utility.yul\":25474:25688   */\n    tag_350:\n        /* \"#utility.yul\":25559:25560   */\n      0x00\n        /* \"#utility.yul\":25544:25682   */\n    tag_614:\n        /* \"#utility.yul\":25569:25578   */\n      dup3\n        /* \"#utility.yul\":25566:25567   */\n      dup2\n        /* \"#utility.yul\":25563:25579   */\n      lt\n        /* \"#utility.yul\":25544:25682   */\n      iszero\n      tag_616\n      jumpi\n        /* \"#utility.yul\":25621:25672   */\n      tag_617\n        /* \"#utility.yul\":25670:25671   */\n      0x00\n        /* \"#utility.yul\":25666:25667   */\n      dup3\n        /* \"#utility.yul\":25655:25664   */\n      dup5\n        /* \"#utility.yul\":25651:25668   */\n      add\n        /* \"#utility.yul\":25621:25672   */\n      tag_349\n      jump\t// in\n    tag_617:\n        /* \"#utility.yul\":25594:25595   */\n      0x01\n        /* \"#utility.yul\":25591:25592   */\n      dup2\n        /* \"#utility.yul\":25587:25596   */\n      add\n        /* \"#utility.yul\":25582:25596   */\n      swap1\n      pop\n        /* \"#utility.yul\":25544:25682   */\n      jump(tag_614)\n    tag_616:\n        /* \"#utility.yul\":25548:25562   */\n      pop\n        /* \"#utility.yul\":25474:25688   */\n      pop\n      pop\n      jump\t// out\n        /* \"#utility.yul\":25694:26440   */\n    tag_351:\n        /* \"#utility.yul\":25795:25797   */\n      0x1f\n        /* \"#utility.yul\":25790:25793   */\n      dup3\n        /* \"#utility.yul\":25787:25798   */\n      gt\n        /* \"#utility.yul\":25784:26433   */\n      iszero\n      tag_619\n      jumpi\n        /* \"#utility.yul\":25824:25834   */\n      dup3\n        /* \"#utility.yul\":25819:25822   */\n      dup3\n        /* \"#utility.yul\":25816:25835   */\n      gt\n        /* \"#utility.yul\":25813:26423   */\n      iszero\n      tag_620\n      jumpi\n        /* \"#utility.yul\":25870:25908   */\n      tag_621\n        /* \"#utility.yul\":25902:25907   */\n      dup2\n        /* \"#utility.yul\":25870:25908   */\n      tag_340\n      jump\t// in\n    tag_621:\n        /* \"#utility.yul\":25945:25967   */\n      tag_622\n        /* \"#utility.yul\":25963:25966   */\n      dup4\n        /* \"#utility.yul\":25945:25967   */\n      tag_341\n      jump\t// in\n    tag_622:\n        /* \"#utility.yul\":26004:26033   */\n      tag_623\n        /* \"#utility.yul\":26022:26032   */\n      dup6\n        /* \"#utility.yul\":26004:26033   */\n      tag_341\n      jump\t// in\n    tag_623:\n        /* \"#utility.yul\":26194:26196   */\n      0x20\n        /* \"#utility.yul\":26182:26192   */\n      dup7\n        /* \"#utility.yul\":26179:26197   */\n      lt\n        /* \"#utility.yul\":26176:26255   */\n      iszero\n      tag_624\n      jumpi\n        /* \"#utility.yul\":26236:26237   */\n      0x00\n        /* \"#utility.yul\":26220:26237   */\n      swap1\n      pop\n        /* \"#utility.yul\":26176:26255   */\n    tag_624:\n        /* \"#utility.yul\":26305:26317   */\n      dup1\n        /* \"#utility.yul\":26295:26303   */\n      dup4\n        /* \"#utility.yul\":26291:26318   */\n      add\n        /* \"#utility.yul\":26335:26409   */\n      tag_625\n        /* \"#utility.yul\":26395:26407   */\n      dup3\n        /* \"#utility.yul\":26381:26393   */\n      dup5\n        /* \"#utility.yul\":26377:26408   */\n      sub\n        /* \"#utility.yul\":26364:26375   */\n      dup3\n        /* \"#utility.yul\":26335:26409   */\n      tag_350\n      jump\t// in\n    tag_625:\n        /* \"#utility.yul\":25836:26423   */\n      pop\n      pop\n      pop\n      pop\n        /* \"#utility.yul\":25813:26423   */\n    tag_620:\n        /* \"#utility.yul\":25784:26433   */\n    tag_619:\n        /* \"#utility.yul\":25694:26440   */\n      pop\n      pop\n      pop\n      jump\t// out\n        /* \"#utility.yul\":26446:26563   */\n    tag_352:\n        /* \"#utility.yul\":26500:26508   */\n      0x00\n        /* \"#utility.yul\":26550:26555   */\n      dup3\n        /* \"#utility.yul\":26544:26548   */\n      dup3\n        /* \"#utility.yul\":26540:26556   */\n      shr\n        /* \"#utility.yul\":26519:26556   */\n      swap1\n      pop\n        /* \"#utility.yul\":26446:26563   */\n      swap3\n      swap2\n      pop\n      pop\n      jump\t// out\n        /* \"#utility.yul\":26569:26738   */\n    tag_353:\n        /* \"#utility.yul\":26613:26619   */\n      0x00\n        /* \"#utility.yul\":26646:26697   */\n      tag_628\n        /* \"#utility.yul\":26694:26695   */\n      0x00\n        /* \"#utility.yul\":26690:26696   */\n      not\n        /* \"#utility.yul\":26682:26687   */\n      dup5\n        /* \"#utility.yul\":26679:26680   */\n      0x08\n        /* \"#utility.yul\":26675:26688   */\n      mul\n        /* \"#utility.yul\":26646:26697   */\n      tag_352\n      jump\t// in\n    tag_628:\n        /* \"#utility.yul\":26642:26698   */\n      not\n        /* \"#utility.yul\":26727:26731   */\n      dup1\n        /* \"#utility.yul\":26721:26725   */\n      dup4\n        /* \"#utility.yul\":26717:26732   */\n      and\n        /* \"#utility.yul\":26707:26732   */\n      swap2\n      pop\n        /* \"#utility.yul\":26620:26738   */\n      pop\n        /* \"#utility.yul\":26569:26738   */\n      swap3\n      swap2\n      pop\n      pop\n      jump\t// out\n        /* \"#utility.yul\":26743:27038   */\n    tag_354:\n        /* \"#utility.yul\":26819:26823   */\n      0x00\n        /* \"#utility.yul\":26965:26994   */\n      tag_630\n        /* \"#utility.yul\":26990:26993   */\n      dup4\n        /* \"#utility.yul\":26984:26988   */\n      dup4\n        /* \"#utility.yul\":26965:26994   */\n      tag_353\n      jump\t// in\n    tag_630:\n        /* \"#utility.yul\":26957:26994   */\n      swap2\n      pop\n        /* \"#utility.yul\":27027:27030   */\n      dup3\n        /* \"#utility.yul\":27024:27025   */\n      0x02\n        /* \"#utility.yul\":27020:27031   */\n      mul\n        /* \"#utility.yul\":27014:27018   */\n      dup3\n        /* \"#utility.yul\":27011:27032   */\n      or\n        /* \"#utility.yul\":27003:27032   */\n      swap1\n      pop\n        /* \"#utility.yul\":26743:27038   */\n      swap3\n      swap2\n      pop\n      pop\n      jump\t// out\n        /* \"#utility.yul\":27043:28438   */\n    tag_76:\n        /* \"#utility.yul\":27160:27197   */\n      tag_632\n        /* \"#utility.yul\":27193:27196   */\n      dup3\n        /* \"#utility.yul\":27160:27197   */\n      tag_297\n      jump\t// in\n    tag_632:\n        /* \"#utility.yul\":27262:27280   */\n      0xffffffffffffffff\n        /* \"#utility.yul\":27254:27260   */\n      dup2\n        /* \"#utility.yul\":27251:27281   */\n      gt\n        /* \"#utility.yul\":27248:27304   */\n      iszero\n      tag_633\n      jumpi\n        /* \"#utility.yul\":27284:27302   */\n      tag_634\n      tag_148\n      jump\t// in\n    tag_634:\n        /* \"#utility.yul\":27248:27304   */\n    tag_633:\n        /* \"#utility.yul\":27328:27366   */\n      tag_635\n        /* \"#utility.yul\":27360:27364   */\n      dup3\n        /* \"#utility.yul\":27354:27365   */\n      sload\n        /* \"#utility.yul\":27328:27366   */\n      tag_135\n      jump\t// in\n    tag_635:\n        /* \"#utility.yul\":27413:27480   */\n      tag_636\n        /* \"#utility.yul\":27473:27479   */\n      dup3\n        /* \"#utility.yul\":27465:27471   */\n      dup3\n        /* \"#utility.yul\":27459:27463   */\n      dup6\n        /* \"#utility.yul\":27413:27480   */\n      tag_351\n      jump\t// in\n    tag_636:\n        /* \"#utility.yul\":27507:27508   */\n      0x00\n        /* \"#utility.yul\":27531:27535   */\n      0x20\n        /* \"#utility.yul\":27518:27535   */\n      swap1\n      pop\n        /* \"#utility.yul\":27563:27565   */\n      0x1f\n        /* \"#utility.yul\":27555:27561   */\n      dup4\n        /* \"#utility.yul\":27552:27566   */\n      gt\n        /* \"#utility.yul\":27580:27581   */\n      0x01\n        /* \"#utility.yul\":27575:28193   */\n      dup2\n      eq\n      tag_638\n      jumpi\n        /* \"#utility.yul\":28237:28238   */\n      0x00\n        /* \"#utility.yul\":28254:28260   */\n      dup5\n        /* \"#utility.yul\":28251:28328   */\n      iszero\n      tag_639\n      jumpi\n        /* \"#utility.yul\":28303:28312   */\n      dup3\n        /* \"#utility.yul\":28298:28301   */\n      dup8\n        /* \"#utility.yul\":28294:28313   */\n      add\n        /* \"#utility.yul\":28288:28314   */\n      mload\n        /* \"#utility.yul\":28279:28314   */\n      swap1\n      pop\n        /* \"#utility.yul\":28251:28328   */\n    tag_639:\n        /* \"#utility.yul\":28354:28421   */\n      tag_640\n        /* \"#utility.yul\":28414:28420   */\n      dup6\n        /* \"#utility.yul\":28407:28412   */\n      dup3\n        /* \"#utility.yul\":28354:28421   */\n      tag_354\n      jump\t// in\n    tag_640:\n        /* \"#utility.yul\":28348:28352   */\n      dup7\n        /* \"#utility.yul\":28341:28422   */\n      sstore\n        /* \"#utility.yul\":28210:28432   */\n      pop\n        /* \"#utility.yul\":27545:28432   */\n      jump(tag_637)\n        /* \"#utility.yul\":27575:28193   */\n    tag_638:\n        /* \"#utility.yul\":27627:27631   */\n      0x1f\n        /* \"#utility.yul\":27623:27632   */\n      not\n        /* \"#utility.yul\":27615:27621   */\n      dup5\n        /* \"#utility.yul\":27611:27633   */\n      and\n        /* \"#utility.yul\":27661:27698   */\n      tag_641\n        /* \"#utility.yul\":27693:27697   */\n      dup7\n        /* \"#utility.yul\":27661:27698   */\n      tag_340\n      jump\t// in\n    tag_641:\n        /* \"#utility.yul\":27720:27721   */\n      0x00\n        /* \"#utility.yul\":27734:27942   */\n    tag_642:\n        /* \"#utility.yul\":27748:27755   */\n      dup3\n        /* \"#utility.yul\":27745:27746   */\n      dup2\n        /* \"#utility.yul\":27742:27756   */\n      lt\n        /* \"#utility.yul\":27734:27942   */\n      iszero\n      tag_644\n      jumpi\n        /* \"#utility.yul\":27827:27836   */\n      dup5\n        /* \"#utility.yul\":27822:27825   */\n      dup10\n        /* \"#utility.yul\":27818:27837   */\n      add\n        /* \"#utility.yul\":27812:27838   */\n      mload\n        /* \"#utility.yul\":27804:27810   */\n      dup3\n        /* \"#utility.yul\":27797:27839   */\n      sstore\n        /* \"#utility.yul\":27878:27879   */\n      0x01\n        /* \"#utility.yul\":27870:27876   */\n      dup3\n        /* \"#utility.yul\":27866:27880   */\n      add\n        /* \"#utility.yul\":27856:27880   */\n      swap2\n      pop\n        /* \"#utility.yul\":27925:27927   */\n      0x20\n        /* \"#utility.yul\":27914:27923   */\n      dup6\n        /* \"#utility.yul\":27910:27928   */\n      add\n        /* \"#utility.yul\":27897:27928   */\n      swap5\n      pop\n        /* \"#utility.yul\":27771:27775   */\n      0x20\n        /* \"#utility.yul\":27768:27769   */\n      dup2\n        /* \"#utility.yul\":27764:27776   */\n      add\n        /* \"#utility.yul\":27759:27776   */\n      swap1\n      pop\n        /* \"#utility.yul\":27734:27942   */\n      jump(tag_642)\n    tag_644:\n        /* \"#utility.yul\":27970:27976   */\n      dup7\n        /* \"#utility.yul\":27961:27968   */\n      dup4\n        /* \"#utility.yul\":27958:27977   */\n      lt\n        /* \"#utility.yul\":27955:28134   */\n      iszero\n      tag_645\n      jumpi\n        /* \"#utility.yul\":28028:28037   */\n      dup5\n        /* \"#utility.yul\":28023:28026   */\n      dup10\n        /* \"#utility.yul\":28019:28038   */\n      add\n        /* \"#utility.yul\":28013:28039   */\n      mload\n        /* \"#utility.yul\":28071:28119   */\n      tag_646\n        /* \"#utility.yul\":28113:28117   */\n      0x1f\n        /* \"#utility.yul\":28105:28111   */\n      dup10\n        /* \"#utility.yul\":28101:28118   */\n      and\n        /* \"#utility.yul\":28090:28099   */\n      dup3\n        /* \"#utility.yul\":28071:28119   */\n      tag_353\n      jump\t// in\n    tag_646:\n        /* \"#utility.yul\":28063:28069   */\n      dup4\n        /* \"#utility.yul\":28056:28120   */\n      sstore\n        /* \"#utility.yul\":27978:28134   */\n      pop\n        /* \"#utility.yul\":27955:28134   */\n    tag_645:\n        /* \"#utility.yul\":28180:28181   */\n      0x01\n        /* \"#utility.yul\":28176:28177   */\n      0x02\n        /* \"#utility.yul\":28168:28174   */\n      dup9\n        /* \"#utility.yul\":28164:28178   */\n      mul\n        /* \"#utility.yul\":28160:28182   */\n      add\n        /* \"#utility.yul\":28154:28158   */\n      dup9\n        /* \"#utility.yul\":28147:28183   */\n      sstore\n        /* \"#utility.yul\":27582:28193   */\n      pop\n      pop\n      pop\n        /* \"#utility.yul\":27545:28432   */\n    tag_637:\n      pop\n        /* \"#utility.yul\":27135:28438   */\n      pop\n      pop\n      pop\n        /* \"#utility.yul\":27043:28438   */\n      pop\n      pop\n      jump\t// out\n        /* \"#utility.yul\":28444:28854   */\n    tag_81:\n        /* \"#utility.yul\":28484:28491   */\n      0x00\n        /* \"#utility.yul\":28507:28527   */\n      tag_648\n        /* \"#utility.yul\":28525:28526   */\n      dup3\n        /* \"#utility.yul\":28507:28527   */\n      tag_293\n      jump\t// in\n    tag_648:\n        /* \"#utility.yul\":28502:28527   */\n      swap2\n      pop\n        /* \"#utility.yul\":28541:28561   */\n      tag_649\n        /* \"#utility.yul\":28559:28560   */\n      dup4\n        /* \"#utility.yul\":28541:28561   */\n      tag_293\n      jump\t// in\n    tag_649:\n        /* \"#utility.yul\":28536:28561   */\n      swap3\n      pop\n        /* \"#utility.yul\":28596:28597   */\n      dup3\n        /* \"#utility.yul\":28593:28594   */\n      dup3\n        /* \"#utility.yul\":28589:28598   */\n      mul\n        /* \"#utility.yul\":28618:28648   */\n      tag_650\n        /* \"#utility.yul\":28636:28647   */\n      dup2\n        /* \"#utility.yul\":28618:28648   */\n      tag_293\n      jump\t// in\n    tag_650:\n        /* \"#utility.yul\":28607:28648   */\n      swap2\n      pop\n        /* \"#utility.yul\":28797:28798   */\n      dup3\n        /* \"#utility.yul\":28788:28795   */\n      dup3\n        /* \"#utility.yul\":28784:28799   */\n      div\n        /* \"#utility.yul\":28781:28782   */\n      dup5\n        /* \"#utility.yul\":28778:28800   */\n      eq\n        /* \"#utility.yul\":28758:28759   */\n      dup4\n        /* \"#utility.yul\":28751:28760   */\n      iszero\n        /* \"#utility.yul\":28731:28814   */\n      or\n        /* \"#utility.yul\":28708:28847   */\n      tag_651\n      jumpi\n        /* \"#utility.yul\":28827:28845   */\n      tag_652\n      tag_338\n      jump\t// in\n    tag_652:\n        /* \"#utility.yul\":28708:28847   */\n    tag_651:\n        /* \"#utility.yul\":28492:28854   */\n      pop\n        /* \"#utility.yul\":28444:28854   */\n      swap3\n      swap2\n      pop\n      pop\n      jump\t// out\n        /* \"#utility.yul\":28860:29051   */\n    tag_83:\n        /* \"#utility.yul\":28900:28903   */\n      0x00\n        /* \"#utility.yul\":28919:28939   */\n      tag_654\n        /* \"#utility.yul\":28937:28938   */\n      dup3\n        /* \"#utility.yul\":28919:28939   */\n      tag_293\n      jump\t// in\n    tag_654:\n        /* \"#utility.yul\":28914:28939   */\n      swap2\n      pop\n        /* \"#utility.yul\":28953:28973   */\n      tag_655\n        /* \"#utility.yul\":28971:28972   */\n      dup4\n        /* \"#utility.yul\":28953:28973   */\n      tag_293\n      jump\t// in\n    tag_655:\n        /* \"#utility.yul\":28948:28973   */\n      swap3\n      pop\n        /* \"#utility.yul\":28996:28997   */\n      dup3\n        /* \"#utility.yul\":28993:28994   */\n      dup3\n        /* \"#utility.yul\":28989:28998   */\n      add\n        /* \"#utility.yul\":28982:28998   */\n      swap1\n      pop\n        /* \"#utility.yul\":29017:29020   */\n      dup1\n        /* \"#utility.yul\":29014:29015   */\n      dup3\n        /* \"#utility.yul\":29011:29021   */\n      gt\n        /* \"#utility.yul\":29008:29044   */\n      iszero\n      tag_656\n      jumpi\n        /* \"#utility.yul\":29024:29042   */\n      tag_657\n      tag_338\n      jump\t// in\n    tag_657:\n        /* \"#utility.yul\":29008:29044   */\n    tag_656:\n        /* \"#utility.yul\":28860:29051   */\n      swap3\n      swap2\n      pop\n      pop\n      jump\t// out\n        /* \"#utility.yul\":29057:29237   */\n    tag_89:\n        /* \"#utility.yul\":29105:29182   */\n      0x4e487b7100000000000000000000000000000000000000000000000000000000\n        /* \"#utility.yul\":29102:29103   */\n      0x00\n        /* \"#utility.yul\":29095:29183   */\n      mstore\n        /* \"#utility.yul\":29202:29206   */\n      0x32\n        /* \"#utility.yul\":29199:29200   */\n      0x04\n        /* \"#utility.yul\":29192:29207   */\n      mstore\n        /* \"#utility.yul\":29226:29230   */\n      0x24\n        /* \"#utility.yul\":29223:29224   */\n      0x00\n        /* \"#utility.yul\":29216:29231   */\n      revert\n        /* \"#utility.yul\":29243:29424   */\n    tag_355:\n        /* \"#utility.yul\":29383:29416   */\n      0x4e616d612070696c6968616e20746964616b20626f6c6568206b6f736f6e6700\n        /* \"#utility.yul\":29379:29380   */\n      0x00\n        /* \"#utility.yul\":29371:29377   */\n      dup3\n        /* \"#utility.yul\":29367:29381   */\n      add\n        /* \"#utility.yul\":29360:29417   */\n      mstore\n        /* \"#utility.yul\":29243:29424   */\n      pop\n      jump\t// out\n        /* \"#utility.yul\":29430:29796   */\n    tag_356:\n        /* \"#utility.yul\":29572:29575   */\n      0x00\n        /* \"#utility.yul\":29593:29660   */\n      tag_661\n        /* \"#utility.yul\":29657:29659   */\n      0x1f\n        /* \"#utility.yul\":29652:29655   */\n      dup4\n        /* \"#utility.yul\":29593:29660   */\n      tag_298\n      jump\t// in\n    tag_661:\n        /* \"#utility.yul\":29586:29660   */\n      swap2\n      pop\n        /* \"#utility.yul\":29669:29762   */\n      tag_662\n        /* \"#utility.yul\":29758:29761   */\n      dup3\n        /* \"#utility.yul\":29669:29762   */\n      tag_355\n      jump\t// in\n    tag_662:\n        /* \"#utility.yul\":29787:29789   */\n      0x20\n        /* \"#utility.yul\":29782:29785   */\n      dup3\n        /* \"#utility.yul\":29778:29790   */\n      add\n        /* \"#utility.yul\":29771:29790   */\n      swap1\n      pop\n        /* \"#utility.yul\":29430:29796   */\n      swap2\n      swap1\n      pop\n      jump\t// out\n        /* \"#utility.yul\":29802:30221   */\n    tag_92:\n        /* \"#utility.yul\":29968:29972   */\n      0x00\n        /* \"#utility.yul\":30006:30008   */\n      0x20\n        /* \"#utility.yul\":29995:30004   */\n      dup3\n        /* \"#utility.yul\":29991:30009   */\n      add\n        /* \"#utility.yul\":29983:30009   */\n      swap1\n      pop\n        /* \"#utility.yul\":30055:30064   */\n      dup2\n        /* \"#utility.yul\":30049:30053   */\n      dup2\n        /* \"#utility.yul\":30045:30065   */\n      sub\n        /* \"#utility.yul\":30041:30042   */\n      0x00\n        /* \"#utility.yul\":30030:30039   */\n      dup4\n        /* \"#utility.yul\":30026:30043   */\n      add\n        /* \"#utility.yul\":30019:30066   */\n      mstore\n        /* \"#utility.yul\":30083:30214   */\n      tag_664\n        /* \"#utility.yul\":30209:30213   */\n      dup2\n        /* \"#utility.yul\":30083:30214   */\n      tag_356\n      jump\t// in\n    tag_664:\n        /* \"#utility.yul\":30075:30214   */\n      swap1\n      pop\n        /* \"#utility.yul\":29802:30221   */\n      swap2\n      swap1\n      pop\n      jump\t// out\n        /* \"#utility.yul\":30227:30650   */\n    tag_98:\n        /* \"#utility.yul\":30368:30372   */\n      0x00\n        /* \"#utility.yul\":30406:30408   */\n      0x40\n        /* \"#utility.yul\":30395:30404   */\n      dup3\n        /* \"#utility.yul\":30391:30409   */\n      add\n        /* \"#utility.yul\":30383:30409   */\n      swap1\n      pop\n        /* \"#utility.yul\":30455:30464   */\n      dup2\n        /* \"#utility.yul\":30449:30453   */\n      dup2\n        /* \"#utility.yul\":30445:30465   */\n      sub\n        /* \"#utility.yul\":30441:30442   */\n      0x00\n        /* \"#utility.yul\":30430:30439   */\n      dup4\n        /* \"#utility.yul\":30426:30443   */\n      add\n        /* \"#utility.yul\":30419:30466   */\n      mstore\n        /* \"#utility.yul\":30483:30561   */\n      tag_666\n        /* \"#utility.yul\":30556:30560   */\n      dup2\n        /* \"#utility.yul\":30547:30553   */\n      dup6\n        /* \"#utility.yul\":30483:30561   */\n      tag_300\n      jump\t// in\n    tag_666:\n        /* \"#utility.yul\":30475:30561   */\n      swap1\n      pop\n        /* \"#utility.yul\":30571:30643   */\n      tag_667\n        /* \"#utility.yul\":30639:30641   */\n      0x20\n        /* \"#utility.yul\":30628:30637   */\n      dup4\n        /* \"#utility.yul\":30624:30642   */\n      add\n        /* \"#utility.yul\":30615:30621   */\n      dup5\n        /* \"#utility.yul\":30571:30643   */\n      tag_296\n      jump\t// in\n    tag_667:\n        /* \"#utility.yul\":30227:30650   */\n      swap4\n      swap3\n      pop\n      pop\n      pop\n      jump\t// out\n        /* \"#utility.yul\":30656:30827   */\n    tag_357:\n        /* \"#utility.yul\":30796:30819   */\n      0x494420766f74696e6720746964616b2076616c69640000000000000000000000\n        /* \"#utility.yul\":30792:30793   */\n      0x00\n        /* \"#utility.yul\":30784:30790   */\n      dup3\n        /* \"#utility.yul\":30780:30794   */\n      add\n        /* \"#utility.yul\":30773:30820   */\n      mstore\n        /* \"#utility.yul\":30656:30827   */\n      pop\n      jump\t// out\n        /* \"#utility.yul\":30833:31199   */\n    tag_358:\n        /* \"#utility.yul\":30975:30978   */\n      0x00\n        /* \"#utility.yul\":30996:31063   */\n      tag_670\n        /* \"#utility.yul\":31060:31062   */\n      0x15\n        /* \"#utility.yul\":31055:31058   */\n      dup4\n        /* \"#utility.yul\":30996:31063   */\n      tag_298\n      jump\t// in\n    tag_670:\n        /* \"#utility.yul\":30989:31063   */\n      swap2\n      pop\n        /* \"#utility.yul\":31072:31165   */\n      tag_671\n        /* \"#utility.yul\":31161:31164   */\n      dup3\n        /* \"#utility.yul\":31072:31165   */\n      tag_357\n      jump\t// in\n    tag_671:\n        /* \"#utility.yul\":31190:31192   */\n      0x20\n        /* \"#utility.yul\":31185:31188   */\n      dup3\n        /* \"#utility.yul\":31181:31193   */\n      add\n        /* \"#utility.yul\":31174:31193   */\n      swap1\n      pop\n        /* \"#utility.yul\":30833:31199   */\n      swap2\n      swap1\n      pop\n      jump\t// out\n        /* \"#utility.yul\":31205:31624   */\n    tag_103:\n        /* \"#utility.yul\":31371:31375   */\n      0x00\n        /* \"#utility.yul\":31409:31411   */\n      0x20\n        /* \"#utility.yul\":31398:31407   */\n      dup3\n        /* \"#utility.yul\":31394:31412   */\n      add\n        /* \"#utility.yul\":31386:31412   */\n      swap1\n      pop\n        /* \"#utility.yul\":31458:31467   */\n      dup2\n        /* \"#utility.yul\":31452:31456   */\n      dup2\n        /* \"#utility.yul\":31448:31468   */\n      sub\n        /* \"#utility.yul\":31444:31445   */\n      0x00\n        /* \"#utility.yul\":31433:31442   */\n      dup4\n        /* \"#utility.yul\":31429:31446   */\n      add\n        /* \"#utility.yul\":31422:31469   */\n      mstore\n        /* \"#utility.yul\":31486:31617   */\n      tag_673\n        /* \"#utility.yul\":31612:31616   */\n      dup2\n        /* \"#utility.yul\":31486:31617   */\n      tag_358\n      jump\t// in\n    tag_673:\n        /* \"#utility.yul\":31478:31617   */\n      swap1\n      pop\n        /* \"#utility.yul\":31205:31624   */\n      swap2\n      swap1\n      pop\n      jump\t// out\n        /* \"#utility.yul\":31630:31800   */\n    tag_359:\n        /* \"#utility.yul\":31770:31792   */\n      0x566f74696e672073756461682064697475747570000000000000000000000000\n        /* \"#utility.yul\":31766:31767   */\n      0x00\n        /* \"#utility.yul\":31758:31764   */\n      dup3\n        /* \"#utility.yul\":31754:31768   */\n      add\n        /* \"#utility.yul\":31747:31793   */\n      mstore\n        /* \"#utility.yul\":31630:31800   */\n      pop\n      jump\t// out\n        /* \"#utility.yul\":31806:32172   */\n    tag_360:\n        /* \"#utility.yul\":31948:31951   */\n      0x00\n        /* \"#utility.yul\":31969:32036   */\n      tag_676\n        /* \"#utility.yul\":32033:32035   */\n      0x14\n        /* \"#utility.yul\":32028:32031   */\n      dup4\n        /* \"#utility.yul\":31969:32036   */\n      tag_298\n      jump\t// in\n    tag_676:\n        /* \"#utility.yul\":31962:32036   */\n      swap2\n      pop\n        /* \"#utility.yul\":32045:32138   */\n      tag_677\n        /* \"#utility.yul\":32134:32137   */\n      dup3\n        /* \"#utility.yul\":32045:32138   */\n      tag_359\n      jump\t// in\n    tag_677:\n        /* \"#utility.yul\":32163:32165   */\n      0x20\n        /* \"#utility.yul\":32158:32161   */\n      dup3\n        /* \"#utility.yul\":32154:32166   */\n      add\n        /* \"#utility.yul\":32147:32166   */\n      swap1\n      pop\n        /* \"#utility.yul\":31806:32172   */\n      swap2\n      swap1\n      pop\n      jump\t// out\n        /* \"#utility.yul\":32178:32597   */\n    tag_107:\n        /* \"#utility.yul\":32344:32348   */\n      0x00\n        /* \"#utility.yul\":32382:32384   */\n      0x20\n        /* \"#utility.yul\":32371:32380   */\n      dup3\n        /* \"#utility.yul\":32367:32385   */\n      add\n        /* \"#utility.yul\":32359:32385   */\n      swap1\n      pop\n        /* \"#utility.yul\":32431:32440   */\n      dup2\n        /* \"#utility.yul\":32425:32429   */\n      dup2\n        /* \"#utility.yul\":32421:32441   */\n      sub\n        /* \"#utility.yul\":32417:32418   */\n      0x00\n        /* \"#utility.yul\":32406:32415   */\n      dup4\n        /* \"#utility.yul\":32402:32419   */\n      add\n        /* \"#utility.yul\":32395:32442   */\n      mstore\n        /* \"#utility.yul\":32459:32590   */\n      tag_679\n        /* \"#utility.yul\":32585:32589   */\n      dup2\n        /* \"#utility.yul\":32459:32590   */\n      tag_360\n      jump\t// in\n    tag_679:\n        /* \"#utility.yul\":32451:32590   */\n      swap1\n      pop\n        /* \"#utility.yul\":32178:32597   */\n      swap2\n      swap1\n      pop\n      jump\t// out\n        /* \"#utility.yul\":32603:32777   */\n    tag_361:\n        /* \"#utility.yul\":32743:32769   */\n      0x57616b747520766f74696e672073756461682068616269730000000000000000\n        /* \"#utility.yul\":32739:32740   */\n      0x00\n        /* \"#utility.yul\":32731:32737   */\n      dup3\n        /* \"#utility.yul\":32727:32741   */\n      add\n        /* \"#utility.yul\":32720:32770   */\n      mstore\n        /* \"#utility.yul\":32603:32777   */\n      pop\n      jump\t// out\n        /* \"#utility.yul\":32783:33149   */\n    tag_362:\n        /* \"#utility.yul\":32925:32928   */\n      0x00\n        /* \"#utility.yul\":32946:33013   */\n      tag_682\n        /* \"#utility.yul\":33010:33012   */\n      0x18\n        /* \"#utility.yul\":33005:33008   */\n      dup4\n        /* \"#utility.yul\":32946:33013   */\n      tag_298\n      jump\t// in\n    tag_682:\n        /* \"#utility.yul\":32939:33013   */\n      swap2\n      pop\n        /* \"#utility.yul\":33022:33115   */\n      tag_683\n        /* \"#utility.yul\":33111:33114   */\n      dup3\n        /* \"#utility.yul\":33022:33115   */\n      tag_361\n      jump\t// in\n    tag_683:\n        /* \"#utility.yul\":33140:33142   */\n      0x20\n        /* \"#utility.yul\":33135:33138   */\n      dup3\n        /* \"#utility.yul\":33131:33143   */\n      add\n        /* \"#utility.yul\":33124:33143   */\n      swap1\n      pop\n        /* \"#utility.yul\":32783:33149   */\n      swap2\n      swap1\n      pop\n      jump\t// out\n        /* \"#utility.yul\":33155:33574   */\n    tag_111:\n        /* \"#utility.yul\":33321:33325   */\n      0x00\n        /* \"#utility.yul\":33359:33361   */\n      0x20\n        /* \"#utility.yul\":33348:33357   */\n      dup3\n        /* \"#utility.yul\":33344:33362   */\n      add\n        /* \"#utility.yul\":33336:33362   */\n      swap1\n      pop\n        /* \"#utility.yul\":33408:33417   */\n      dup2\n        /* \"#utility.yul\":33402:33406   */\n      dup2\n        /* \"#utility.yul\":33398:33418   */\n      sub\n        /* \"#utility.yul\":33394:33395   */\n      0x00\n        /* \"#utility.yul\":33383:33392   */\n      dup4\n        /* \"#utility.yul\":33379:33396   */\n      add\n        /* \"#utility.yul\":33372:33419   */\n      mstore\n        /* \"#utility.yul\":33436:33567   */\n      tag_685\n        /* \"#utility.yul\":33562:33566   */\n      dup2\n        /* \"#utility.yul\":33436:33567   */\n      tag_362\n      jump\t// in\n    tag_685:\n        /* \"#utility.yul\":33428:33567   */\n      swap1\n      pop\n        /* \"#utility.yul\":33155:33574   */\n      swap2\n      swap1\n      pop\n      jump\t// out\n        /* \"#utility.yul\":33580:33810   */\n    tag_363:\n        /* \"#utility.yul\":33720:33754   */\n      0x416e6461207375646168206d656d626572696b616e2073756172612070616461\n        /* \"#utility.yul\":33716:33717   */\n      0x00\n        /* \"#utility.yul\":33708:33714   */\n      dup3\n        /* \"#utility.yul\":33704:33718   */\n      add\n        /* \"#utility.yul\":33697:33755   */\n      mstore\n        /* \"#utility.yul\":33789:33802   */\n      0x20766f74696e6720696e69000000000000000000000000000000000000000000\n        /* \"#utility.yul\":33784:33786   */\n      0x20\n        /* \"#utility.yul\":33776:33782   */\n      dup3\n        /* \"#utility.yul\":33772:33787   */\n      add\n        /* \"#utility.yul\":33765:33803   */\n      mstore\n        /* \"#utility.yul\":33580:33810   */\n      pop\n      jump\t// out\n        /* \"#utility.yul\":33816:34182   */\n    tag_364:\n        /* \"#utility.yul\":33958:33961   */\n      0x00\n        /* \"#utility.yul\":33979:34046   */\n      tag_688\n        /* \"#utility.yul\":34043:34045   */\n      0x2b\n        /* \"#utility.yul\":34038:34041   */\n      dup4\n        /* \"#utility.yul\":33979:34046   */\n      tag_298\n      jump\t// in\n    tag_688:\n        /* \"#utility.yul\":33972:34046   */\n      swap2\n      pop\n        /* \"#utility.yul\":34055:34148   */\n      tag_689\n        /* \"#utility.yul\":34144:34147   */\n      dup3\n        /* \"#utility.yul\":34055:34148   */\n      tag_363\n      jump\t// in\n    tag_689:\n        /* \"#utility.yul\":34173:34175   */\n      0x40\n        /* \"#utility.yul\":34168:34171   */\n      dup3\n        /* \"#utility.yul\":34164:34176   */\n      add\n        /* \"#utility.yul\":34157:34176   */\n      swap1\n      pop\n        /* \"#utility.yul\":33816:34182   */\n      swap2\n      swap1\n      pop\n      jump\t// out\n        /* \"#utility.yul\":34188:34607   */\n    tag_115:\n        /* \"#utility.yul\":34354:34358   */\n      0x00\n        /* \"#utility.yul\":34392:34394   */\n      0x20\n        /* \"#utility.yul\":34381:34390   */\n      dup3\n        /* \"#utility.yul\":34377:34395   */\n      add\n        /* \"#utility.yul\":34369:34395   */\n      swap1\n      pop\n        /* \"#utility.yul\":34441:34450   */\n      dup2\n        /* \"#utility.yul\":34435:34439   */\n      dup2\n        /* \"#utility.yul\":34431:34451   */\n      sub\n        /* \"#utility.yul\":34427:34428   */\n      0x00\n        /* \"#utility.yul\":34416:34425   */\n      dup4\n        /* \"#utility.yul\":34412:34429   */\n      add\n        /* \"#utility.yul\":34405:34452   */\n      mstore\n        /* \"#utility.yul\":34469:34600   */\n      tag_691\n        /* \"#utility.yul\":34595:34599   */\n      dup2\n        /* \"#utility.yul\":34469:34600   */\n      tag_364\n      jump\t// in\n    tag_691:\n        /* \"#utility.yul\":34461:34600   */\n      swap1\n      pop\n        /* \"#utility.yul\":34188:34607   */\n      swap2\n      swap1\n      pop\n      jump\t// out\n        /* \"#utility.yul\":34613:34785   */\n    tag_365:\n        /* \"#utility.yul\":34753:34777   */\n      0x49442070696c6968616e20746964616b2076616c696400000000000000000000\n        /* \"#utility.yul\":34749:34750   */\n      0x00\n        /* \"#utility.yul\":34741:34747   */\n      dup3\n        /* \"#utility.yul\":34737:34751   */\n      add\n        /* \"#utility.yul\":34730:34778   */\n      mstore\n        /* \"#utility.yul\":34613:34785   */\n      pop\n      jump\t// out\n        /* \"#utility.yul\":34791:35157   */\n    tag_366:\n        /* \"#utility.yul\":34933:34936   */\n      0x00\n        /* \"#utility.yul\":34954:35021   */\n      tag_694\n        /* \"#utility.yul\":35018:35020   */\n      0x16\n        /* \"#utility.yul\":35013:35016   */\n      dup4\n        /* \"#utility.yul\":34954:35021   */\n      tag_298\n      jump\t// in\n    tag_694:\n        /* \"#utility.yul\":34947:35021   */\n      swap2\n      pop\n        /* \"#utility.yul\":35030:35123   */\n      tag_695\n        /* \"#utility.yul\":35119:35122   */\n      dup3\n        /* \"#utility.yul\":35030:35123   */\n      tag_365\n      jump\t// in\n    tag_695:\n        /* \"#utility.yul\":35148:35150   */\n      0x20\n        /* \"#utility.yul\":35143:35146   */\n      dup3\n        /* \"#utility.yul\":35139:35151   */\n      add\n        /* \"#utility.yul\":35132:35151   */\n      swap1\n      pop\n        /* \"#utility.yul\":34791:35157   */\n      swap2\n      swap1\n      pop\n      jump\t// out\n        /* \"#utility.yul\":35163:35582   */\n    tag_118:\n        /* \"#utility.yul\":35329:35333   */\n      0x00\n        /* \"#utility.yul\":35367:35369   */\n      0x20\n        /* \"#utility.yul\":35356:35365   */\n      dup3\n        /* \"#utility.yul\":35352:35370   */\n      add\n        /* \"#utility.yul\":35344:35370   */\n      swap1\n      pop\n        /* \"#utility.yul\":35416:35425   */\n      dup2\n        /* \"#utility.yul\":35410:35414   */\n      dup2\n        /* \"#utility.yul\":35406:35426   */\n      sub\n        /* \"#utility.yul\":35402:35403   */\n      0x00\n        /* \"#utility.yul\":35391:35400   */\n      dup4\n        /* \"#utility.yul\":35387:35404   */\n      add\n        /* \"#utility.yul\":35380:35427   */\n      mstore\n        /* \"#utility.yul\":35444:35575   */\n      tag_697\n        /* \"#utility.yul\":35570:35574   */\n      dup2\n        /* \"#utility.yul\":35444:35575   */\n      tag_366\n      jump\t// in\n    tag_697:\n        /* \"#utility.yul\":35436:35575   */\n      swap1\n      pop\n        /* \"#utility.yul\":35163:35582   */\n      swap2\n      swap1\n      pop\n      jump\t// out\n        /* \"#utility.yul\":35612:36443   */\n    tag_367:\n        /* \"#utility.yul\":35697:35700   */\n      0x00\n        /* \"#utility.yul\":35734:35739   */\n      dup2\n        /* \"#utility.yul\":35728:35740   */\n      sload\n        /* \"#utility.yul\":35763:35799   */\n      tag_699\n        /* \"#utility.yul\":35789:35798   */\n      dup2\n        /* \"#utility.yul\":35763:35799   */\n      tag_135\n      jump\t// in\n    tag_699:\n        /* \"#utility.yul\":35815:35886   */\n      tag_700\n        /* \"#utility.yul\":35879:35885   */\n      dup2\n        /* \"#utility.yul\":35874:35877   */\n      dup7\n        /* \"#utility.yul\":35815:35886   */\n      tag_298\n      jump\t// in\n    tag_700:\n        /* \"#utility.yul\":35808:35886   */\n      swap5\n      pop\n        /* \"#utility.yul\":35917:35918   */\n      0x01\n        /* \"#utility.yul\":35906:35915   */\n      dup3\n        /* \"#utility.yul\":35902:35919   */\n      and\n        /* \"#utility.yul\":35933:35934   */\n      0x00\n        /* \"#utility.yul\":35928:36092   */\n      dup2\n      eq\n      tag_702\n      jumpi\n        /* \"#utility.yul\":36106:36107   */\n      0x01\n        /* \"#utility.yul\":36101:36437   */\n      dup2\n      eq\n      tag_703\n      jumpi\n        /* \"#utility.yul\":35895:36437   */\n      jump(tag_701)\n        /* \"#utility.yul\":35928:36092   */\n    tag_702:\n        /* \"#utility.yul\":36012:36016   */\n      0xff\n        /* \"#utility.yul\":36008:36017   */\n      not\n        /* \"#utility.yul\":35997:36006   */\n      dup4\n        /* \"#utility.yul\":35993:36018   */\n      and\n        /* \"#utility.yul\":35988:35991   */\n      dup7\n        /* \"#utility.yul\":35981:36019   */\n      mstore\n        /* \"#utility.yul\":36072:36078   */\n      dup2\n        /* \"#utility.yul\":36065:36079   */\n      iszero\n        /* \"#utility.yul\":36058:36080   */\n      iszero\n        /* \"#utility.yul\":36052:36056   */\n      0x20\n        /* \"#utility.yul\":36048:36081   */\n      mul\n        /* \"#utility.yul\":36043:36046   */\n      dup7\n        /* \"#utility.yul\":36039:36082   */\n      add\n        /* \"#utility.yul\":36032:36082   */\n      swap4\n      pop\n        /* \"#utility.yul\":35928:36092   */\n      jump(tag_701)\n        /* \"#utility.yul\":36101:36437   */\n    tag_703:\n        /* \"#utility.yul\":36168:36206   */\n      tag_704\n        /* \"#utility.yul\":36200:36205   */\n      dup6\n        /* \"#utility.yul\":36168:36206   */\n      tag_340\n      jump\t// in\n    tag_704:\n        /* \"#utility.yul\":36228:36229   */\n      0x00\n        /* \"#utility.yul\":36242:36396   */\n    tag_705:\n        /* \"#utility.yul\":36256:36262   */\n      dup4\n        /* \"#utility.yul\":36253:36254   */\n      dup2\n        /* \"#utility.yul\":36250:36263   */\n      lt\n        /* \"#utility.yul\":36242:36396   */\n      iszero\n      tag_707\n      jumpi\n        /* \"#utility.yul\":36330:36337   */\n      dup2\n        /* \"#utility.yul\":36324:36338   */\n      sload\n        /* \"#utility.yul\":36320:36321   */\n      dup2\n        /* \"#utility.yul\":36315:36318   */\n      dup10\n        /* \"#utility.yul\":36311:36322   */\n      add\n        /* \"#utility.yul\":36304:36339   */\n      mstore\n        /* \"#utility.yul\":36380:36381   */\n      0x01\n        /* \"#utility.yul\":36371:36378   */\n      dup3\n        /* \"#utility.yul\":36367:36382   */\n      add\n        /* \"#utility.yul\":36356:36382   */\n      swap2\n      pop\n        /* \"#utility.yul\":36278:36282   */\n      0x20\n        /* \"#utility.yul\":36275:36276   */\n      dup2\n        /* \"#utility.yul\":36271:36283   */\n      add\n        /* \"#utility.yul\":36266:36283   */\n      swap1\n      pop\n        /* \"#utility.yul\":36242:36396   */\n      jump(tag_705)\n    tag_707:\n        /* \"#utility.yul\":36425:36426   */\n      dup1\n        /* \"#utility.yul\":36420:36423   */\n      dup9\n        /* \"#utility.yul\":36416:36427   */\n      add\n        /* \"#utility.yul\":36409:36427   */\n      swap6\n      pop\n        /* \"#utility.yul\":36108:36437   */\n      pop\n      pop\n        /* \"#utility.yul\":35895:36437   */\n    tag_701:\n      pop\n        /* \"#utility.yul\":35701:36443   */\n      pop\n      pop\n        /* \"#utility.yul\":35612:36443   */\n      swap3\n      swap2\n      pop\n      pop\n      jump\t// out\n        /* \"#utility.yul\":36449:36756   */\n    tag_128:\n        /* \"#utility.yul\":36559:36563   */\n      0x00\n        /* \"#utility.yul\":36597:36599   */\n      0x20\n        /* \"#utility.yul\":36586:36595   */\n      dup3\n        /* \"#utility.yul\":36582:36600   */\n      add\n        /* \"#utility.yul\":36574:36600   */\n      swap1\n      pop\n        /* \"#utility.yul\":36646:36655   */\n      dup2\n        /* \"#utility.yul\":36640:36644   */\n      dup2\n        /* \"#utility.yul\":36636:36656   */\n      sub\n        /* \"#utility.yul\":36632:36633   */\n      0x00\n        /* \"#utility.yul\":36621:36630   */\n      dup4\n        /* \"#utility.yul\":36617:36634   */\n      add\n        /* \"#utility.yul\":36610:36657   */\n      mstore\n        /* \"#utility.yul\":36674:36749   */\n      tag_709\n        /* \"#utility.yul\":36744:36748   */\n      dup2\n        /* \"#utility.yul\":36735:36741   */\n      dup5\n        /* \"#utility.yul\":36674:36749   */\n      tag_367\n      jump\t// in\n    tag_709:\n        /* \"#utility.yul\":36666:36749   */\n      swap1\n      pop\n        /* \"#utility.yul\":36449:36756   */\n      swap3\n      swap2\n      pop\n      pop\n      jump\t// out\n        /* \"#utility.yul\":36762:36956   */\n    tag_164:\n        /* \"#utility.yul\":36802:36806   */\n      0x00\n        /* \"#utility.yul\":36822:36842   */\n      tag_711\n        /* \"#utility.yul\":36840:36841   */\n      dup3\n        /* \"#utility.yul\":36822:36842   */\n      tag_293\n      jump\t// in\n    tag_711:\n        /* \"#utility.yul\":36817:36842   */\n      swap2\n      pop\n        /* \"#utility.yul\":36856:36876   */\n      tag_712\n        /* \"#utility.yul\":36874:36875   */\n      dup4\n        /* \"#utility.yul\":36856:36876   */\n      tag_293\n      jump\t// in\n    tag_712:\n        /* \"#utility.yul\":36851:36876   */\n      swap3\n      pop\n        /* \"#utility.yul\":36900:36901   */\n      dup3\n        /* \"#utility.yul\":36897:36898   */\n      dup3\n        /* \"#utility.yul\":36893:36902   */\n      sub\n        /* \"#utility.yul\":36885:36902   */\n      swap1\n      pop\n        /* \"#utility.yul\":36924:36925   */\n      dup2\n        /* \"#utility.yul\":36918:36922   */\n      dup2\n        /* \"#utility.yul\":36915:36926   */\n      gt\n        /* \"#utility.yul\":36912:36949   */\n      iszero\n      tag_713\n      jumpi\n        /* \"#utility.yul\":36929:36947   */\n      tag_714\n      tag_338\n      jump\t// in\n    tag_714:\n        /* \"#utility.yul\":36912:36949   */\n    tag_713:\n        /* \"#utility.yul\":36762:36956   */\n      swap3\n      swap2\n      pop\n      pop\n      jump\t// out\n        /* \"#utility.yul\":36962:37143   */\n    tag_368:\n        /* \"#utility.yul\":37102:37135   */\n      0x566f74696e67207375646168206469747574757020736562656c756d6e796100\n        /* \"#utility.yul\":37098:37099   */\n      0x00\n        /* \"#utility.yul\":37090:37096   */\n      dup3\n        /* \"#utility.yul\":37086:37100   */\n      add\n        /* \"#utility.yul\":37079:37136   */\n      mstore\n        /* \"#utility.yul\":36962:37143   */\n      pop\n      jump\t// out\n        /* \"#utility.yul\":37149:37515   */\n    tag_369:\n        /* \"#utility.yul\":37291:37294   */\n      0x00\n        /* \"#utility.yul\":37312:37379   */\n      tag_717\n        /* \"#utility.yul\":37376:37378   */\n      0x1f\n        /* \"#utility.yul\":37371:37374   */\n      dup4\n        /* \"#utility.yul\":37312:37379   */\n      tag_298\n      jump\t// in\n    tag_717:\n        /* \"#utility.yul\":37305:37379   */\n      swap2\n      pop\n        /* \"#utility.yul\":37388:37481   */\n      tag_718\n        /* \"#utility.yul\":37477:37480   */\n      dup3\n        /* \"#utility.yul\":37388:37481   */\n      tag_368\n      jump\t// in\n    tag_718:\n        /* \"#utility.yul\":37506:37508   */\n      0x20\n        /* \"#utility.yul\":37501:37504   */\n      dup3\n        /* \"#utility.yul\":37497:37509   */\n      add\n        /* \"#utility.yul\":37490:37509   */\n      swap1\n      pop\n        /* \"#utility.yul\":37149:37515   */\n      swap2\n      swap1\n      pop\n      jump\t// out\n        /* \"#utility.yul\":37521:37940   */\n    tag_192:\n        /* \"#utility.yul\":37687:37691   */\n      0x00\n        /* \"#utility.yul\":37725:37727   */\n      0x20\n        /* \"#utility.yul\":37714:37723   */\n      dup3\n        /* \"#utility.yul\":37710:37728   */\n      add\n        /* \"#utility.yul\":37702:37728   */\n      swap1\n      pop\n        /* \"#utility.yul\":37774:37783   */\n      dup2\n        /* \"#utility.yul\":37768:37772   */\n      dup2\n        /* \"#utility.yul\":37764:37784   */\n      sub\n        /* \"#utility.yul\":37760:37761   */\n      0x00\n        /* \"#utility.yul\":37749:37758   */\n      dup4\n        /* \"#utility.yul\":37745:37762   */\n      add\n        /* \"#utility.yul\":37738:37785   */\n      mstore\n        /* \"#utility.yul\":37802:37933   */\n      tag_720\n        /* \"#utility.yul\":37928:37932   */\n      dup2\n        /* \"#utility.yul\":37802:37933   */\n      tag_369\n      jump\t// in\n    tag_720:\n        /* \"#utility.yul\":37794:37933   */\n      swap1\n      pop\n        /* \"#utility.yul\":37521:37940   */\n      swap2\n      swap1\n      pop\n      jump\t// out\n        /* \"#utility.yul\":37946:38363   */\n    tag_194:\n        /* \"#utility.yul\":38084:38088   */\n      0x00\n        /* \"#utility.yul\":38122:38124   */\n      0x40\n        /* \"#utility.yul\":38111:38120   */\n      dup3\n        /* \"#utility.yul\":38107:38125   */\n      add\n        /* \"#utility.yul\":38099:38125   */\n      swap1\n      pop\n        /* \"#utility.yul\":38171:38180   */\n      dup2\n        /* \"#utility.yul\":38165:38169   */\n      dup2\n        /* \"#utility.yul\":38161:38181   */\n      sub\n        /* \"#utility.yul\":38157:38158   */\n      0x00\n        /* \"#utility.yul\":38146:38155   */\n      dup4\n        /* \"#utility.yul\":38142:38159   */\n      add\n        /* \"#utility.yul\":38135:38182   */\n      mstore\n        /* \"#utility.yul\":38199:38274   */\n      tag_722\n        /* \"#utility.yul\":38269:38273   */\n      dup2\n        /* \"#utility.yul\":38260:38266   */\n      dup6\n        /* \"#utility.yul\":38199:38274   */\n      tag_367\n      jump\t// in\n    tag_722:\n        /* \"#utility.yul\":38191:38274   */\n      swap1\n      pop\n        /* \"#utility.yul\":38284:38356   */\n      tag_723\n        /* \"#utility.yul\":38352:38354   */\n      0x20\n        /* \"#utility.yul\":38341:38350   */\n      dup4\n        /* \"#utility.yul\":38337:38355   */\n      add\n        /* \"#utility.yul\":38328:38334   */\n      dup5\n        /* \"#utility.yul\":38284:38356   */\n      tag_296\n      jump\t// in\n    tag_723:\n        /* \"#utility.yul\":37946:38363   */\n      swap4\n      swap3\n      pop\n      pop\n      pop\n      jump\t// out\n        /* \"#utility.yul\":38369:38896   */\n    tag_202:\n        /* \"#utility.yul\":38535:38539   */\n      0x00\n        /* \"#utility.yul\":38573:38575   */\n      0x60\n        /* \"#utility.yul\":38562:38571   */\n      dup3\n        /* \"#utility.yul\":38558:38576   */\n      add\n        /* \"#utility.yul\":38550:38576   */\n      swap1\n      pop\n        /* \"#utility.yul\":38586:38657   */\n      tag_725\n        /* \"#utility.yul\":38654:38655   */\n      0x00\n        /* \"#utility.yul\":38643:38652   */\n      dup4\n        /* \"#utility.yul\":38639:38656   */\n      add\n        /* \"#utility.yul\":38630:38636   */\n      dup7\n        /* \"#utility.yul\":38586:38657   */\n      tag_296\n      jump\t// in\n    tag_725:\n        /* \"#utility.yul\":38704:38713   */\n      dup2\n        /* \"#utility.yul\":38698:38702   */\n      dup2\n        /* \"#utility.yul\":38694:38714   */\n      sub\n        /* \"#utility.yul\":38689:38691   */\n      0x20\n        /* \"#utility.yul\":38678:38687   */\n      dup4\n        /* \"#utility.yul\":38674:38692   */\n      add\n        /* \"#utility.yul\":38667:38715   */\n      mstore\n        /* \"#utility.yul\":38732:38807   */\n      tag_726\n        /* \"#utility.yul\":38802:38806   */\n      dup2\n        /* \"#utility.yul\":38793:38799   */\n      dup6\n        /* \"#utility.yul\":38732:38807   */\n      tag_367\n      jump\t// in\n    tag_726:\n        /* \"#utility.yul\":38724:38807   */\n      swap1\n      pop\n        /* \"#utility.yul\":38817:38889   */\n      tag_727\n        /* \"#utility.yul\":38885:38887   */\n      0x40\n        /* \"#utility.yul\":38874:38883   */\n      dup4\n        /* \"#utility.yul\":38870:38888   */\n      add\n        /* \"#utility.yul\":38861:38867   */\n      dup5\n        /* \"#utility.yul\":38817:38889   */\n      tag_296\n      jump\t// in\n    tag_727:\n        /* \"#utility.yul\":38369:38896   */\n      swap5\n      swap4\n      pop\n      pop\n      pop\n      pop\n      jump\t// out\n        /* \"#utility.yul\":38902:39078   */\n    tag_370:\n        /* \"#utility.yul\":39042:39070   */\n      0x42656c756d206164612073756172612079616e67206d6173756b000000000000\n        /* \"#utility.yul\":39038:39039   */\n      0x00\n        /* \"#utility.yul\":39030:39036   */\n      dup3\n        /* \"#utility.yul\":39026:39040   */\n      add\n        /* \"#utility.yul\":39019:39071   */\n      mstore\n        /* \"#utility.yul\":38902:39078   */\n      pop\n      jump\t// out\n        /* \"#utility.yul\":39084:39450   */\n    tag_371:\n        /* \"#utility.yul\":39226:39229   */\n      0x00\n        /* \"#utility.yul\":39247:39314   */\n      tag_730\n        /* \"#utility.yul\":39311:39313   */\n      0x1a\n        /* \"#utility.yul\":39306:39309   */\n      dup4\n        /* \"#utility.yul\":39247:39314   */\n      tag_298\n      jump\t// in\n    tag_730:\n        /* \"#utility.yul\":39240:39314   */\n      swap2\n      pop\n        /* \"#utility.yul\":39323:39416   */\n      tag_731\n        /* \"#utility.yul\":39412:39415   */\n      dup3\n        /* \"#utility.yul\":39323:39416   */\n      tag_370\n      jump\t// in\n    tag_731:\n        /* \"#utility.yul\":39441:39443   */\n      0x20\n        /* \"#utility.yul\":39436:39439   */\n      dup3\n        /* \"#utility.yul\":39432:39444   */\n      add\n        /* \"#utility.yul\":39425:39444   */\n      swap1\n      pop\n        /* \"#utility.yul\":39084:39450   */\n      swap2\n      swap1\n      pop\n      jump\t// out\n        /* \"#utility.yul\":39456:39875   */\n    tag_215:\n        /* \"#utility.yul\":39622:39626   */\n      0x00\n        /* \"#utility.yul\":39660:39662   */\n      0x20\n        /* \"#utility.yul\":39649:39658   */\n      dup3\n        /* \"#utility.yul\":39645:39663   */\n      add\n        /* \"#utility.yul\":39637:39663   */\n      swap1\n      pop\n        /* \"#utility.yul\":39709:39718   */\n      dup2\n        /* \"#utility.yul\":39703:39707   */\n      dup2\n        /* \"#utility.yul\":39699:39719   */\n      sub\n        /* \"#utility.yul\":39695:39696   */\n      0x00\n        /* \"#utility.yul\":39684:39693   */\n      dup4\n        /* \"#utility.yul\":39680:39697   */\n      add\n        /* \"#utility.yul\":39673:39720   */\n      mstore\n        /* \"#utility.yul\":39737:39868   */\n      tag_733\n        /* \"#utility.yul\":39863:39867   */\n      dup2\n        /* \"#utility.yul\":39737:39868   */\n      tag_371\n      jump\t// in\n    tag_733:\n        /* \"#utility.yul\":39729:39868   */\n      swap1\n      pop\n        /* \"#utility.yul\":39456:39875   */\n      swap2\n      swap1\n      pop\n      jump\t// out\n\n    auxdata: 0xa264697066735822122034b88cd10b1af13be5536c2d26b65f52d59b38f496c046c21a4eeb98372d3ab764736f6c63430008220033\n}\n",
				"bytecode": {
					"linkReferences": {},
					"object": "6080604052348015600e575f5ffd5b50335f5f6101000a81548173ffffffffffffffffffffffffffffffffffffffff021916908373ffffffffffffffffffffffffffffffffffffffff1602179055506128958061005b5f395ff3fe608060405234801561000f575f5ffd5b506004361061009c575f3560e01c80636b2e5374116100645780636b2e53741461014d5780638da5cb5b14610169578063905775f314610187578063a3c5e01c146101b7578063f87e56b2146101ea5761009c565b80631ba2ff0a146100a05780632189083e146100bc5780633b4b375a146100da578063503c6124146100f65780635c7f1b3f1461012c575b5f5ffd5b6100ba60048036038101906100b5919061176f565b61021b565b005b6100c4610563565b6040516100d19190611836565b60405180910390f35b6100f460048036038101906100ef919061184f565b610569565b005b610110600480360381019061010b919061188d565b610881565b6040516101239796959493929190611932565b60405180910390f35b610134610a4d565b6040516101449493929190611c1e565b60405180910390f35b6101676004803603810190610162919061188d565b610d20565b005b610171610f41565b60405161017e9190611cbc565b60405180910390f35b6101a1600480360381019061019c9190611cff565b610f65565b6040516101ae9190611d3d565b60405180910390f35b6101d160048036038101906101cc919061188d565b61101c565b6040516101e19493929190611d56565b60405180910390f35b61020460048036038101906101ff919061188d565b6111ad565b604051610212929190611da0565b60405180910390f35b5f5f9054906101000a900473ffffffffffffffffffffffffffffffffffffffff1673ffffffffffffffffffffffffffffffffffffffff163373ffffffffffffffffffffffffffffffffffffffff16146102a9576040517f08c379a00000000000000000000000000000000000000000000000000000000081526004016102a090611e45565b60405180910390fd5b5f8451116102ec576040517f08c379a00000000000000000000000000000000000000000000000000000000081526004016102e390611ead565b60405180910390fd5b600282511015610331576040517f08c379a000000000000000000000000000000000000000000000000000000000815260040161032890611f15565b60405180910390fd5b600a82511115610376576040517f08c379a000000000000000000000000000000000000000000000000000000000815260040161036d90611f7d565b60405180910390fd5b60015f81548092919061038890611fc8565b91905055505f60025f60015481526020019081526020015f209050600154815f0181905550848160010190816103be919061221d565b50838160020190816103d0919061221d565b506001816004015f6101000a81548160ff0219169083151502179055505f81600501819055504281600601819055505f821161040c575f610426565b610e108261041a91906122ec565b42610425919061232d565b5b81600701819055505f5f90505b835181101561051f575f8482815181106104505761044f612360565b5b60200260200101515111610499576040517f08c379a0000000000000000000000000000000000000000000000000000000008152600401610490906123d7565b60405180910390fd5b8160030160405180604001604052808684815181106104bb576104ba612360565b5b602002602001015181526020015f815250908060018154018082558091505060019003905f5260205f2090600202015f909190919091505f820151815f019081610505919061221d565b506020820151816001015550508080600101915050610433565b506001547f8ddb0ec4ffe63388d893a796f8dd2ebbd1f0d8cfca1448552392c773364180ea86426040516105549291906123f5565b60405180910390a25050505050565b60015481565b815f8111801561057b57506001548111155b6105ba576040517f08c379a00000000000000000000000000000000000000000000000000000000081526004016105b19061246d565b60405180910390fd5b825f60025f8381526020019081526020015f209050806004015f9054906101000a900460ff1661061f576040517f08c379a0000000000000000000000000000000000000000000000000000000008152600401610616906124d5565b60405180910390fd5b5f81600701541115610673578060070154421115610672576040517f08c379a00000000000000000000000000000000000000000000000000000000081526004016106699061253d565b60405180910390fd5b5b5f60025f8781526020019081526020015f209050806008015f3373ffffffffffffffffffffffffffffffffffffffff1673ffffffffffffffffffffffffffffffffffffffff1681526020019081526020015f205f9054906101000a900460ff1615610713576040517f08c379a000000000000000000000000000000000000000000000000000000000815260040161070a906125cb565b60405180910390fd5b8060030180549050851061075c576040517f08c379a000000000000000000000000000000000000000000000000000000000815260040161075390612633565b60405180910390fd5b6001816008015f3373ffffffffffffffffffffffffffffffffffffffff1673ffffffffffffffffffffffffffffffffffffffff1681526020019081526020015f205f6101000a81548160ff0219169083151502179055508060030185815481106107c9576107c8612360565b5b905f5260205f2090600202016001015f8154809291906107e890611fc8565b9190505550806005015f81548092919061080190611fc8565b9190505550843373ffffffffffffffffffffffffffffffffffffffff16877f178dfb3ebe7b4de8e1fb48394530131d7f6389784a515ebb09ec3ed59d7924a484600301898154811061085657610855612360565b5b905f5260205f2090600202015f0160405161087191906126d2565b60405180910390a4505050505050565b6060805f5f5f5f5f875f8111801561089b57506001548111155b6108da576040517f08c379a00000000000000000000000000000000000000000000000000000000081526004016108d19061246d565b60405180910390fd5b5f60025f8b81526020019081526020015f2090508060010181600201826004015f9054906101000a900460ff16836005015484600601548560070154866003018054905086805461092a9061203c565b80601f01602080910402602001604051908101604052809291908181526020018280546109569061203c565b80156109a15780601f10610978576101008083540402835291602001916109a1565b820191905f5260205f20905b81548152906001019060200180831161098457829003601f168201915b505050505096508580546109b49061203c565b80601f01602080910402602001604051908101604052809291908181526020018280546109e09061203c565b8015610a2b5780601f10610a0257610100808354040283529160200191610a2b565b820191905f5260205f20905b815481529060010190602001808311610a0e57829003601f168201915b5050505050955098509850985098509850985098505050919395979092949650565b60608060608060015467ffffffffffffffff811115610a6f57610a6e611536565b5b604051908082528060200260200182016040528015610a9d5781602001602082028036833780820191505090505b50935060015467ffffffffffffffff811115610abc57610abb611536565b5b604051908082528060200260200182016040528015610aef57816020015b6060815260200190600190039081610ada5790505b50925060015467ffffffffffffffff811115610b0e57610b0d611536565b5b604051908082528060200260200182016040528015610b3c5781602001602082028036833780820191505090505b50915060015467ffffffffffffffff811115610b5b57610b5a611536565b5b604051908082528060200260200182016040528015610b895781602001602082028036833780820191505090505b5090505f600190505b6001548111610d19575f60025f8381526020019081526020015f209050805f015486600184610bc191906126f2565b81518110610bd257610bd1612360565b5b602002602001018181525050806001018054610bed9061203c565b80601f0160208091040260200160405190810160405280929190818152602001828054610c199061203c565b8015610c645780601f10610c3b57610100808354040283529160200191610c64565b820191905f5260205f20905b815481529060010190602001808311610c4757829003601f168201915b505050505085600184610c7791906126f2565b81518110610c8857610c87612360565b5b6020026020010181905250806004015f9054906101000a900460ff1684600184610cb291906126f2565b81518110610cc357610cc2612360565b5b602002602001019015159081151581525050806005015483600184610ce891906126f2565b81518110610cf957610cf8612360565b5b602002602001018181525050508080610d1190611fc8565b915050610b92565b5090919293565b5f5f9054906101000a900473ffffffffffffffffffffffffffffffffffffffff1673ffffffffffffffffffffffffffffffffffffffff163373ffffffffffffffffffffffffffffffffffffffff1614610dae576040517f08c379a0000000000000000000000000000000000000000000000000000000008152600401610da590611e45565b60405180910390fd5b805f81118015610dc057506001548111155b610dff576040517f08c379a0000000000000000000000000000000000000000000000000000000008152600401610df69061246d565b60405180910390fd5b5f60025f8481526020019081526020015f209050806004015f9054906101000a900460ff16610e63576040517f08c379a0000000000000000000000000000000000000000000000000000000008152600401610e5a9061276f565b60405180910390fd5b5f816004015f6101000a81548160ff021916908315150217905550827f1ef2aec11912a0b8a9e48fbd7689f454c66e116205599fd9dda9a277878b6bfa826001018360050154604051610eb792919061278d565b60405180910390a25f81600501541115610f3c575f5f610ed6856113ec565b91509150847febdb5148b12668f141c46f068fb8888bbf2d47b792526b801f1466f5bf51b27583856003018581548110610f1357610f12612360565b5b905f5260205f2090600202015f0184604051610f31939291906127bb565b60405180910390a250505b505050565b5f5f9054906101000a900473ffffffffffffffffffffffffffffffffffffffff1681565b5f825f81118015610f7857506001548111155b610fb7576040517f08c379a0000000000000000000000000000000000000000000000000000000008152600401610fae9061246d565b60405180910390fd5b60025f8581526020019081526020015f206008015f8473ffffffffffffffffffffffffffffffffffffffff1673ffffffffffffffffffffffffffffffffffffffff1681526020019081526020015f205f9054906101000a900460ff1691505092915050565b5f60605f5f845f8111801561103357506001548111155b611072576040517f08c379a00000000000000000000000000000000000000000000000000000000081526004016110699061246d565b60405180910390fd5b5f60025f8881526020019081526020015f2090505f8160050154116110cc576040517f08c379a00000000000000000000000000000000000000000000000000000000081526004016110c390612841565b60405180910390fd5b5f5f6110d7896113ec565b915091505f6110e68a83611489565b9050828460030184815481106110ff576110fe612360565b5b905f5260205f2090600202015f01838382805461111b9061203c565b80601f01602080910402602001604051908101604052809291908181526020018280546111479061203c565b80156111925780601f1061116957610100808354040283529160200191611192565b820191905f5260205f20905b81548152906001019060200180831161117557829003601f168201915b50505050509250985098509850985050505050509193509193565b606080825f811180156111c257506001548111155b611201576040517f08c379a00000000000000000000000000000000000000000000000000000000081526004016111f89061246d565b60405180910390fd5b5f60025f8681526020019081526020015f2090505f816003018054905090508067ffffffffffffffff81111561123a57611239611536565b5b60405190808252806020026020018201604052801561126d57816020015b60608152602001906001900390816112585790505b5094508067ffffffffffffffff81111561128a57611289611536565b5b6040519080825280602002602001820160405280156112b85781602001602082028036833780820191505090505b5093505f5f90505b818110156113e3578260030181815481106112de576112dd612360565b5b905f5260205f2090600202015f0180546112f79061203c565b80601f01602080910402602001604051908101604052809291908181526020018280546113239061203c565b801561136e5780601f106113455761010080835404028352916020019161136e565b820191905f5260205f20905b81548152906001019060200180831161135157829003601f168201915b505050505086828151811061138657611385612360565b5b60200260200101819052508260030181815481106113a7576113a6612360565b5b905f5260205f209060020201600101548582815181106113ca576113c9612360565b5b60200260200101818152505080806001019150506112c0565b50505050915091565b5f5f5f60025f8581526020019081526020015f2090505f91505f92505f5f90505b8160030180549050811015611482578282600301828154811061143357611432612360565b5b905f5260205f2090600202016001015411156114755781600301818154811061145f5761145e612360565b5b905f5260205f2090600202016001015492508093505b808060010191505061140d565b5050915091565b5f5f60025f8581526020019081526020015f2090505f5f90505f5f90505b82600301805490508110156114fe57848360030182815481106114cd576114cc612360565b5b905f5260205f20906002020160010154036114f15781806114ed90611fc8565b9250505b80806001019150506114a7565b50600181119250505092915050565b5f604051905090565b5f5ffd5b5f5ffd5b5f5ffd5b5f5ffd5b5f601f19601f8301169050919050565b7f4e487b71000000000000000000000000000000000000000000000000000000005f52604160045260245ffd5b61156c82611526565b810181811067ffffffffffffffff8211171561158b5761158a611536565b5b80604052505050565b5f61159d61150d565b90506115a98282611563565b919050565b5f67ffffffffffffffff8211156115c8576115c7611536565b5b6115d182611526565b9050602081019050919050565b828183375f83830152505050565b5f6115fe6115f9846115ae565b611594565b90508281526020810184848401111561161a57611619611522565b5b6116258482856115de565b509392505050565b5f82601f8301126116415761164061151e565b5b81356116518482602086016115ec565b91505092915050565b5f67ffffffffffffffff82111561167457611673611536565b5b602082029050602081019050919050565b5f5ffd5b5f61169b6116968461165a565b611594565b905080838252602082019050602084028301858111156116be576116bd611685565b5b835b8181101561170557803567ffffffffffffffff8111156116e3576116e261151e565b5b8086016116f0898261162d565b855260208501945050506020810190506116c0565b5050509392505050565b5f82601f8301126117235761172261151e565b5b8135611733848260208601611689565b91505092915050565b5f819050919050565b61174e8161173c565b8114611758575f5ffd5b50565b5f8135905061176981611745565b92915050565b5f5f5f5f6080858703121561178757611786611516565b5b5f85013567ffffffffffffffff8111156117a4576117a361151a565b5b6117b08782880161162d565b945050602085013567ffffffffffffffff8111156117d1576117d061151a565b5b6117dd8782880161162d565b935050604085013567ffffffffffffffff8111156117fe576117fd61151a565b5b61180a8782880161170f565b925050606061181b8782880161175b565b91505092959194509250565b6118308161173c565b82525050565b5f6020820190506118495f830184611827565b92915050565b5f5f6040838503121561186557611864611516565b5b5f6118728582860161175b565b92505060206118838582860161175b565b9150509250929050565b5f602082840312156118a2576118a1611516565b5b5f6118af8482850161175b565b91505092915050565b5f81519050919050565b5f82825260208201905092915050565b8281835e5f83830152505050565b5f6118ea826118b8565b6118f481856118c2565b93506119048185602086016118d2565b61190d81611526565b840191505092915050565b5f8115159050919050565b61192c81611918565b82525050565b5f60e0820190508181035f83015261194a818a6118e0565b9050818103602083015261195e81896118e0565b905061196d6040830188611923565b61197a6060830187611827565b6119876080830186611827565b61199460a0830185611827565b6119a160c0830184611827565b98975050505050505050565b5f81519050919050565b5f82825260208201905092915050565b5f819050602082019050919050565b6119df8161173c565b82525050565b5f6119f083836119d6565b60208301905092915050565b5f602082019050919050565b5f611a12826119ad565b611a1c81856119b7565b9350611a27836119c7565b805f5b83811015611a57578151611a3e88826119e5565b9750611a49836119fc565b925050600181019050611a2a565b5085935050505092915050565b5f81519050919050565b5f82825260208201905092915050565b5f819050602082019050919050565b5f82825260208201905092915050565b5f611aa7826118b8565b611ab18185611a8d565b9350611ac18185602086016118d2565b611aca81611526565b840191505092915050565b5f611ae08383611a9d565b905092915050565b5f602082019050919050565b5f611afe82611a64565b611b088185611a6e565b935083602082028501611b1a85611a7e565b805f5b85811015611b555784840389528151611b368582611ad5565b9450611b4183611ae8565b925060208a01995050600181019050611b1d565b50829750879550505050505092915050565b5f81519050919050565b5f82825260208201905092915050565b5f819050602082019050919050565b611b9981611918565b82525050565b5f611baa8383611b90565b60208301905092915050565b5f602082019050919050565b5f611bcc82611b67565b611bd68185611b71565b9350611be183611b81565b805f5b83811015611c11578151611bf88882611b9f565b9750611c0383611bb6565b925050600181019050611be4565b5085935050505092915050565b5f6080820190508181035f830152611c368187611a08565b90508181036020830152611c4a8186611af4565b90508181036040830152611c5e8185611bc2565b90508181036060830152611c728184611a08565b905095945050505050565b5f73ffffffffffffffffffffffffffffffffffffffff82169050919050565b5f611ca682611c7d565b9050919050565b611cb681611c9c565b82525050565b5f602082019050611ccf5f830184611cad565b92915050565b611cde81611c9c565b8114611ce8575f5ffd5b50565b5f81359050611cf981611cd5565b92915050565b5f5f60408385031215611d1557611d14611516565b5b5f611d228582860161175b565b9250506020611d3385828601611ceb565b9150509250929050565b5f602082019050611d505f830184611923565b92915050565b5f608082019050611d695f830187611827565b8181036020830152611d7b81866118e0565b9050611d8a6040830185611827565b611d976060830184611923565b95945050505050565b5f6040820190508181035f830152611db88185611af4565b90508181036020830152611dcc8184611a08565b90509392505050565b7f48616e7961206f776e65722079616e672062697361206d656c616b756b616e205f8201527f696e690000000000000000000000000000000000000000000000000000000000602082015250565b5f611e2f6023836118c2565b9150611e3a82611dd5565b604082019050919050565b5f6020820190508181035f830152611e5c81611e23565b9050919050565b7f4a7564756c20746964616b20626f6c6568206b6f736f6e6700000000000000005f82015250565b5f611e976018836118c2565b9150611ea282611e63565b602082019050919050565b5f6020820190508181035f830152611ec481611e8b565b9050919050565b7f4d696e696d616c20322070696c6968616e2064697065726c756b616e000000005f82015250565b5f611eff601c836118c2565b9150611f0a82611ecb565b602082019050919050565b5f6020820190508181035f830152611f2c81611ef3565b9050919050565b7f4d616b73696d616c2031302070696c6968616e000000000000000000000000005f82015250565b5f611f676013836118c2565b9150611f7282611f33565b602082019050919050565b5f6020820190508181035f830152611f9481611f5b565b9050919050565b7f4e487b71000000000000000000000000000000000000000000000000000000005f52601160045260245ffd5b5f611fd28261173c565b91507fffffffffffffffffffffffffffffffffffffffffffffffffffffffffffffffff820361200457612003611f9b565b5b600182019050919050565b7f4e487b71000000000000000000000000000000000000000000000000000000005f52602260045260245ffd5b5f600282049050600182168061205357607f821691505b6020821081036120665761206561200f565b5b50919050565b5f819050815f5260205f209050919050565b5f6020601f8301049050919050565b5f82821b905092915050565b5f600883026120c87fffffffffffffffffffffffffffffffffffffffffffffffffffffffffffffffff8261208d565b6120d2868361208d565b95508019841693508086168417925050509392505050565b5f819050919050565b5f61210d6121086121038461173c565b6120ea565b61173c565b9050919050565b5f819050919050565b612126836120f3565b61213a61213282612114565b848454612099565b825550505050565b5f5f905090565b612151612142565b61215c81848461211d565b505050565b5f5b82811015612182576121775f828401612149565b600181019050612163565b505050565b601f8211156121d557828211156121d4576121a18161206c565b6121aa8361207e565b6121b38561207e565b60208610156121c0575f90505b8083016121cf82840382612161565b505050505b5b505050565b5f82821c905092915050565b5f6121f55f19846008026121da565b1980831691505092915050565b5f61220d83836121e6565b9150826002028217905092915050565b612226826118b8565b67ffffffffffffffff81111561223f5761223e611536565b5b612249825461203c565b612254828285612187565b5f60209050601f831160018114612285575f8415612273578287015190505b61227d8582612202565b8655506122e4565b601f1984166122938661206c565b5f5b828110156122ba57848901518255600182019150602085019450602081019050612295565b868310156122d757848901516122d3601f8916826121e6565b8355505b6001600288020188555050505b505050505050565b5f6122f68261173c565b91506123018361173c565b925082820261230f8161173c565b9150828204841483151761232657612325611f9b565b5b5092915050565b5f6123378261173c565b91506123428361173c565b925082820190508082111561235a57612359611f9b565b5b92915050565b7f4e487b71000000000000000000000000000000000000000000000000000000005f52603260045260245ffd5b7f4e616d612070696c6968616e20746964616b20626f6c6568206b6f736f6e67005f82015250565b5f6123c1601f836118c2565b91506123cc8261238d565b602082019050919050565b5f6020820190508181035f8301526123ee816123b5565b9050919050565b5f6040820190508181035f83015261240d81856118e0565b905061241c6020830184611827565b9392505050565b7f494420766f74696e6720746964616b2076616c696400000000000000000000005f82015250565b5f6124576015836118c2565b915061246282612423565b602082019050919050565b5f6020820190508181035f8301526124848161244b565b9050919050565b7f566f74696e6720737564616820646974757475700000000000000000000000005f82015250565b5f6124bf6014836118c2565b91506124ca8261248b565b602082019050919050565b5f6020820190508181035f8301526124ec816124b3565b9050919050565b7f57616b747520766f74696e6720737564616820686162697300000000000000005f82015250565b5f6125276018836118c2565b9150612532826124f3565b602082019050919050565b5f6020820190508181035f8301526125548161251b565b9050919050565b7f416e6461207375646168206d656d626572696b616e20737561726120706164615f8201527f20766f74696e6720696e69000000000000000000000000000000000000000000602082015250565b5f6125b5602b836118c2565b91506125c08261255b565b604082019050919050565b5f6020820190508181035f8301526125e2816125a9565b9050919050565b7f49442070696c6968616e20746964616b2076616c6964000000000000000000005f82015250565b5f61261d6016836118c2565b9150612628826125e9565b602082019050919050565b5f6020820190508181035f83015261264a81612611565b9050919050565b5f815461265d8161203c565b61266781866118c2565b9450600182165f81146126815760018114612697576126c9565b60ff1983168652811515602002860193506126c9565b6126a08561206c565b5f5b838110156126c1578154818901526001820191506020810190506126a2565b808801955050505b50505092915050565b5f6020820190508181035f8301526126ea8184612651565b905092915050565b5f6126fc8261173c565b91506127078361173c565b925082820390508181111561271f5761271e611f9b565b5b92915050565b7f566f74696e67207375646168206469747574757020736562656c756d6e7961005f82015250565b5f612759601f836118c2565b915061276482612725565b602082019050919050565b5f6020820190508181035f8301526127868161274d565b9050919050565b5f6040820190508181035f8301526127a58185612651565b90506127b46020830184611827565b9392505050565b5f6060820190506127ce5f830186611827565b81810360208301526127e08185612651565b90506127ef6040830184611827565b949350505050565b7f42656c756d206164612073756172612079616e67206d6173756b0000000000005f82015250565b5f61282b601a836118c2565b9150612836826127f7565b602082019050919050565b5f6020820190508181035f8301526128588161281f565b905091905056fea264697066735822122034b88cd10b1af13be5536c2d26b65f52d59b38f496c046c21a4eeb98372d3ab764736f6c63430008220033",
					"opcodes": "PUSH1 0x80 PUSH1 0x40 MSTORE CALLVALUE DUP1 ISZERO PUSH1 0xE JUMPI PUSH0 PUSH0 REVERT JUMPDEST POP CALLER PUSH0 PUSH0 PUSH2 0x100 EXP DUP2 SLOAD DUP2 PUSH20 0xFFFFFFFFFFFFFFFFFFFFFFFFFFFFFFFFFFFFFFFF MUL NOT AND SWAP1 DUP4 PUSH20 0xFFFFFFFFFFFFFFFFFFFFFFFFFFFFFFFFFFFFFFFF AND MUL OR SWAP1 SSTORE POP PUSH2 0x2895 DUP1 PUSH2 0x5B PUSH0 CODECOPY PUSH0 RETURN INVALID PUSH1 0x80 PUSH1 0x40 MSTORE CALLVALUE DUP1 ISZERO PUSH2 0xF JUMPI PUSH0 PUSH0 REVERT JUMPDEST POP PUSH1 0x4 CALLDATASIZE LT PUSH2 0x9C JUMPI PUSH0 CALLDATALOAD PUSH1 0xE0 SHR DUP1 PUSH4 0x6B2E5374 GT PUSH2 0x64 JUMPI DUP1 PUSH4 0x6B2E5374 EQ PUSH2 0x14D JUMPI DUP1 PUSH4 0x8DA5CB5B EQ PUSH2 0x169 JUMPI DUP1 PUSH4 0x905775F3 EQ PUSH2 0x187 JUMPI DUP1 PUSH4 0xA3C5E01C EQ PUSH2 0x1B7 JUMPI DUP1 PUSH4 0xF87E56B2 EQ PUSH2 0x1EA JUMPI PUSH2 0x9C JUMP JUMPDEST DUP1 PUSH4 0x1BA2FF0A EQ PUSH2 0xA0 JUMPI DUP1 PUSH4 0x2189083E EQ PUSH2 0xBC JUMPI DUP1 PUSH4 0x3B4B375A EQ PUSH2 0xDA JUMPI DUP1 PUSH4 0x503C6124 EQ PUSH2 0xF6 JUMPI DUP1 PUSH4 0x5C7F1B3F EQ PUSH2 0x12C JUMPI JUMPDEST PUSH0 PUSH0 REVERT JUMPDEST PUSH2 0xBA PUSH1 0x4 DUP1 CALLDATASIZE SUB DUP2 ADD SWAP1 PUSH2 0xB5 SWAP2 SWAP1 PUSH2 0x176F JUMP JUMPDEST PUSH2 0x21B JUMP JUMPDEST STOP JUMPDEST PUSH2 0xC4 PUSH2 0x563 JUMP JUMPDEST PUSH1 0x40 MLOAD PUSH2 0xD1 SWAP2 SWAP1 PUSH2 0x1836 JUMP JUMPDEST PUSH1 0x40 MLOAD DUP1 SWAP2 SUB SWAP1 RETURN JUMPDEST PUSH2 0xF4 PUSH1 0x4 DUP1 CALLDATASIZE SUB DUP2 ADD SWAP1 PUSH2 0xEF SWAP2 SWAP1 PUSH2 0x184F JUMP JUMPDEST PUSH2 0x569 JUMP JUMPDEST STOP JUMPDEST PUSH2 0x110 PUSH1 0x4 DUP1 CALLDATASIZE SUB DUP2 ADD SWAP1 PUSH2 0x10B SWAP2 SWAP1 PUSH2 0x188D JUMP JUMPDEST PUSH2 0x881 JUMP JUMPDEST PUSH1 0x40 MLOAD PUSH2 0x123 SWAP8 SWAP7 SWAP6 SWAP5 SWAP4 SWAP3 SWAP2 SWAP1 PUSH2 0x1932 JUMP JUMPDEST PUSH1 0x40 MLOAD DUP1 SWAP2 SUB SWAP1 RETURN JUMPDEST PUSH2 0x134 PUSH2 0xA4D JUMP JUMPDEST PUSH1 0x40 MLOAD PUSH2 0x144 SWAP5 SWAP4 SWAP3 SWAP2 SWAP1 PUSH2 0x1C1E JUMP JUMPDEST PUSH1 0x40 MLOAD DUP1 SWAP2 SUB SWAP1 RETURN JUMPDEST PUSH2 0x167 PUSH1 0x4 DUP1 CALLDATASIZE SUB DUP2 ADD SWAP1 PUSH2 0x162 SWAP2 SWAP1 PUSH2 0x188D JUMP JUMPDEST PUSH2 0xD20 JUMP JUMPDEST STOP JUMPDEST PUSH2 0x171 PUSH2 0xF41 JUMP JUMPDEST PUSH1 0x40 MLOAD PUSH2 0x17E SWAP2 SWAP1 PUSH2 0x1CBC JUMP JUMPDEST PUSH1 0x40 MLOAD DUP1 SWAP2 SUB SWAP1 RETURN JUMPDEST PUSH2 0x1A1 PUSH1 0x4 DUP1 CALLDATASIZE SUB DUP2 ADD SWAP1 PUSH2 0x19C SWAP2 SWAP1 PUSH2 0x1CFF JUMP JUMPDEST PUSH2 0xF65 JUMP JUMPDEST PUSH1 0x40 MLOAD PUSH2 0x1AE SWAP2 SWAP1 PUSH2 0x1D3D JUMP JUMPDEST PUSH1 0x40 MLOAD DUP1 SWAP2 SUB SWAP1 RETURN JUMPDEST PUSH2 0x1D1 PUSH1 0x4 DUP1 CALLDATASIZE SUB DUP2 ADD SWAP1 PUSH2 0x1CC SWAP2 SWAP1 PUSH2 0x188D JUMP JUMPDEST PUSH2 0x101C JUMP JUMPDEST PUSH1 0x40 MLOAD PUSH2 0x1E1 SWAP5 SWAP4 SWAP3 SWAP2 SWAP1 PUSH2 0x1D56 JUMP JUMPDEST PUSH1 0x40 MLOAD DUP1 SWAP2 SUB SWAP1 RETURN JUMPDEST PUSH2 0x204 PUSH1 0x4 DUP1 CALLDATASIZE SUB DUP2 ADD SWAP1 PUSH2 0x1FF SWAP2 SWAP1 PUSH2 0x188D JUMP JUMPDEST PUSH2 0x11AD JUMP JUMPDEST PUSH1 0x40 MLOAD PUSH2 0x212 SWAP3 SWAP2 SWAP1 PUSH2 0x1DA0 JUMP JUMPDEST PUSH1 0x40 MLOAD DUP1 SWAP2 SUB SWAP1 RETURN JUMPDEST PUSH0 PUSH0 SWAP1 SLOAD SWAP1 PUSH2 0x100 EXP SWAP1 DIV PUSH20 0xFFFFFFFFFFFFFFFFFFFFFFFFFFFFFFFFFFFFFFFF AND PUSH20 0xFFFFFFFFFFFFFFFFFFFFFFFFFFFFFFFFFFFFFFFF AND CALLER PUSH20 0xFFFFFFFFFFFFFFFFFFFFFFFFFFFFFFFFFFFFFFFF AND EQ PUSH2 0x2A9 JUMPI PUSH1 0x40 MLOAD PUSH32 0x8C379A000000000000000000000000000000000000000000000000000000000 DUP2 MSTORE PUSH1 0x4 ADD PUSH2 0x2A0 SWAP1 PUSH2 0x1E45 JUMP JUMPDEST PUSH1 0x40 MLOAD DUP1 SWAP2 SUB SWAP1 REVERT JUMPDEST PUSH0 DUP5 MLOAD GT PUSH2 0x2EC JUMPI PUSH1 0x40 MLOAD PUSH32 0x8C379A000000000000000000000000000000000000000000000000000000000 DUP2 MSTORE PUSH1 0x4 ADD PUSH2 0x2E3 SWAP1 PUSH2 0x1EAD JUMP JUMPDEST PUSH1 0x40 MLOAD DUP1 SWAP2 SUB SWAP1 REVERT JUMPDEST PUSH1 0x2 DUP3 MLOAD LT ISZERO PUSH2 0x331 JUMPI PUSH1 0x40 MLOAD PUSH32 0x8C379A000000000000000000000000000000000000000000000000000000000 DUP2 MSTORE PUSH1 0x4 ADD PUSH2 0x328 SWAP1 PUSH2 0x1F15 JUMP JUMPDEST PUSH1 0x40 MLOAD DUP1 SWAP2 SUB SWAP1 REVERT JUMPDEST PUSH1 0xA DUP3 MLOAD GT ISZERO PUSH2 0x376 JUMPI PUSH1 0x40 MLOAD PUSH32 0x8C379A000000000000000000000000000000000000000000000000000000000 DUP2 MSTORE PUSH1 0x4 ADD PUSH2 0x36D SWAP1 PUSH2 0x1F7D JUMP JUMPDEST PUSH1 0x40 MLOAD DUP1 SWAP2 SUB SWAP1 REVERT JUMPDEST PUSH1 0x1 PUSH0 DUP2 SLOAD DUP1 SWAP3 SWAP2 SWAP1 PUSH2 0x388 SWAP1 PUSH2 0x1FC8 JUMP JUMPDEST SWAP2 SWAP1 POP SSTORE POP PUSH0 PUSH1 0x2 PUSH0 PUSH1 0x1 SLOAD DUP2 MSTORE PUSH1 0x20 ADD SWAP1 DUP2 MSTORE PUSH1 0x20 ADD PUSH0 KECCAK256 SWAP1 POP PUSH1 0x1 SLOAD DUP2 PUSH0 ADD DUP2 SWAP1 SSTORE POP DUP5 DUP2 PUSH1 0x1 ADD SWAP1 DUP2 PUSH2 0x3BE SWAP2 SWAP1 PUSH2 0x221D JUMP JUMPDEST POP DUP4 DUP2 PUSH1 0x2 ADD SWAP1 DUP2 PUSH2 0x3D0 SWAP2 SWAP1 PUSH2 0x221D JUMP JUMPDEST POP PUSH1 0x1 DUP2 PUSH1 0x4 ADD PUSH0 PUSH2 0x100 EXP DUP2 SLOAD DUP2 PUSH1 0xFF MUL NOT AND SWAP1 DUP4 ISZERO ISZERO MUL OR SWAP1 SSTORE POP PUSH0 DUP2 PUSH1 0x5 ADD DUP2 SWAP1 SSTORE POP TIMESTAMP DUP2 PUSH1 0x6 ADD DUP2 SWAP1 SSTORE POP PUSH0 DUP3 GT PUSH2 0x40C JUMPI PUSH0 PUSH2 0x426 JUMP JUMPDEST PUSH2 0xE10 DUP3 PUSH2 0x41A SWAP2 SWAP1 PUSH2 0x22EC JUMP JUMPDEST TIMESTAMP PUSH2 0x425 SWAP2 SWAP1 PUSH2 0x232D JUMP JUMPDEST JUMPDEST DUP2 PUSH1 0x7 ADD DUP2 SWAP1 SSTORE POP PUSH0 PUSH0 SWAP1 POP JUMPDEST DUP4 MLOAD DUP2 LT ISZERO PUSH2 0x51F JUMPI PUSH0 DUP5 DUP3 DUP2 MLOAD DUP2 LT PUSH2 0x450 JUMPI PUSH2 0x44F PUSH2 0x2360 JUMP JUMPDEST JUMPDEST PUSH1 0x20 MUL PUSH1 0x20 ADD ADD MLOAD MLOAD GT PUSH2 0x499 JUMPI PUSH1 0x40 MLOAD PUSH32 0x8C379A000000000000000000000000000000000000000000000000000000000 DUP2 MSTORE PUSH1 0x4 ADD PUSH2 0x490 SWAP1 PUSH2 0x23D7 JUMP JUMPDEST PUSH1 0x40 MLOAD DUP1 SWAP2 SUB SWAP1 REVERT JUMPDEST DUP2 PUSH1 0x3 ADD PUSH1 0x40 MLOAD DUP1 PUSH1 0x40 ADD PUSH1 0x40 MSTORE DUP1 DUP7 DUP5 DUP2 MLOAD DUP2 LT PUSH2 0x4BB JUMPI PUSH2 0x4BA PUSH2 0x2360 JUMP JUMPDEST JUMPDEST PUSH1 0x20 MUL PUSH1 0x20 ADD ADD MLOAD DUP2 MSTORE PUSH1 0x20 ADD PUSH0 DUP2 MSTORE POP SWAP1 DUP1 PUSH1 0x1 DUP2 SLOAD ADD DUP1 DUP3 SSTORE DUP1 SWAP2 POP POP PUSH1 0x1 SWAP1 SUB SWAP1 PUSH0 MSTORE PUSH1 0x20 PUSH0 KECCAK256 SWAP1 PUSH1 0x2 MUL ADD PUSH0 SWAP1 SWAP2 SWAP1 SWAP2 SWAP1 SWAP2 POP PUSH0 DUP3 ADD MLOAD DUP2 PUSH0 ADD SWAP1 DUP2 PUSH2 0x505 SWAP2 SWAP1 PUSH2 0x221D JUMP JUMPDEST POP PUSH1 0x20 DUP3 ADD MLOAD DUP2 PUSH1 0x1 ADD SSTORE POP POP DUP1 DUP1 PUSH1 0x1 ADD SWAP2 POP POP PUSH2 0x433 JUMP JUMPDEST POP PUSH1 0x1 SLOAD PUSH32 0x8DDB0EC4FFE63388D893A796F8DD2EBBD1F0D8CFCA1448552392C773364180EA DUP7 TIMESTAMP PUSH1 0x40 MLOAD PUSH2 0x554 SWAP3 SWAP2 SWAP1 PUSH2 0x23F5 JUMP JUMPDEST PUSH1 0x40 MLOAD DUP1 SWAP2 SUB SWAP1 LOG2 POP POP POP POP POP JUMP JUMPDEST PUSH1 0x1 SLOAD DUP2 JUMP JUMPDEST DUP2 PUSH0 DUP2 GT DUP1 ISZERO PUSH2 0x57B JUMPI POP PUSH1 0x1 SLOAD DUP2 GT ISZERO JUMPDEST PUSH2 0x5BA JUMPI PUSH1 0x40 MLOAD PUSH32 0x8C379A000000000000000000000000000000000000000000000000000000000 DUP2 MSTORE PUSH1 0x4 ADD PUSH2 0x5B1 SWAP1 PUSH2 0x246D JUMP JUMPDEST PUSH1 0x40 MLOAD DUP1 SWAP2 SUB SWAP1 REVERT JUMPDEST DUP3 PUSH0 PUSH1 0x2 PUSH0 DUP4 DUP2 MSTORE PUSH1 0x20 ADD SWAP1 DUP2 MSTORE PUSH1 0x20 ADD PUSH0 KECCAK256 SWAP1 POP DUP1 PUSH1 0x4 ADD PUSH0 SWAP1 SLOAD SWAP1 PUSH2 0x100 EXP SWAP1 DIV PUSH1 0xFF AND PUSH2 0x61F JUMPI PUSH1 0x40 MLOAD PUSH32 0x8C379A000000000000000000000000000000000000000000000000000000000 DUP2 MSTORE PUSH1 0x4 ADD PUSH2 0x616 SWAP1 PUSH2 0x24D5 JUMP JUMPDEST PUSH1 0x40 MLOAD DUP1 SWAP2 SUB SWAP1 REVERT JUMPDEST PUSH0 DUP2 PUSH1 0x7 ADD SLOAD GT ISZERO PUSH2 0x673 JUMPI DUP1 PUSH1 0x7 ADD SLOAD TIMESTAMP GT ISZERO PUSH2 0x672 JUMPI PUSH1 0x40 MLOAD PUSH32 0x8C379A000000000000000000000000000000000000000000000000000000000 DUP2 MSTORE PUSH1 0x4 ADD PUSH2 0x669 SWAP1 PUSH2 0x253D JUMP JUMPDEST PUSH1 0x40 MLOAD DUP1 SWAP2 SUB SWAP1 REVERT JUMPDEST JUMPDEST PUSH0 PUSH1 0x2 PUSH0 DUP8 DUP2 MSTORE PUSH1 0x20 ADD SWAP1 DUP2 MSTORE PUSH1 0x20 ADD PUSH0 KECCAK256 SWAP1 POP DUP1 PUSH1 0x8 ADD PUSH0 CALLER PUSH20 0xFFFFFFFFFFFFFFFFFFFFFFFFFFFFFFFFFFFFFFFF AND PUSH20 0xFFFFFFFFFFFFFFFFFFFFFFFFFFFFFFFFFFFFFFFF AND DUP2 MSTORE PUSH1 0x20 ADD SWAP1 DUP2 MSTORE PUSH1 0x20 ADD PUSH0 KECCAK256 PUSH0 SWAP1 SLOAD SWAP1 PUSH2 0x100 EXP SWAP1 DIV PUSH1 0xFF AND ISZERO PUSH2 0x713 JUMPI PUSH1 0x40 MLOAD PUSH32 0x8C379A000000000000000000000000000000000000000000000000000000000 DUP2 MSTORE PUSH1 0x4 ADD PUSH2 0x70A SWAP1 PUSH2 0x25CB JUMP JUMPDEST PUSH1 0x40 MLOAD DUP1 SWAP2 SUB SWAP1 REVERT JUMPDEST DUP1 PUSH1 0x3 ADD DUP1 SLOAD SWAP1 POP DUP6 LT PUSH2 0x75C JUMPI PUSH1 0x40 MLOAD PUSH32 0x8C379A000000000000000000000000000000000000000000000000000000000 DUP2 MSTORE PUSH1 0x4 ADD PUSH2 0x753 SWAP1 PUSH2 0x2633 JUMP JUMPDEST PUSH1 0x40 MLOAD DUP1 SWAP2 SUB SWAP1 REVERT JUMPDEST PUSH1 0x1 DUP2 PUSH1 0x8 ADD PUSH0 CALLER PUSH20 0xFFFFFFFFFFFFFFFFFFFFFFFFFFFFFFFFFFFFFFFF AND PUSH20 0xFFFFFFFFFFFFFFFFFFFFFFFFFFFFFFFFFFFFFFFF AND DUP2 MSTORE PUSH1 0x20 ADD SWAP1 DUP2 MSTORE PUSH1 0x20 ADD PUSH0 KECCAK256 PUSH0 PUSH2 0x100 EXP DUP2 SLOAD DUP2 PUSH1 0xFF MUL NOT AND SWAP1 DUP4 ISZERO ISZERO MUL OR SWAP1 SSTORE POP DUP1 PUSH1 0x3 ADD DUP6 DUP2 SLOAD DUP2 LT PUSH2 0x7C9 JUMPI PUSH2 0x7C8 PUSH2 0x2360 JUMP JUMPDEST JUMPDEST SWAP1 PUSH0 MSTORE PUSH1 0x20 PUSH0 KECCAK256 SWAP1 PUSH1 0x2 MUL ADD PUSH1 0x1 ADD PUSH0 DUP2 SLOAD DUP1 SWAP3 SWAP2 SWAP1 PUSH2 0x7E8 SWAP1 PUSH2 0x1FC8 JUMP JUMPDEST SWAP2 SWAP1 POP SSTORE POP DUP1 PUSH1 0x5 ADD PUSH0 DUP2 SLOAD DUP1 SWAP3 SWAP2 SWAP1 PUSH2 0x801 SWAP1 PUSH2 0x1FC8 JUMP JUMPDEST SWAP2 SWAP1 POP SSTORE POP DUP5 CALLER PUSH20 0xFFFFFFFFFFFFFFFFFFFFFFFFFFFFFFFFFFFFFFFF AND DUP8 PUSH32 0x178DFB3EBE7B4DE8E1FB48394530131D7F6389784A515EBB09EC3ED59D7924A4 DUP5 PUSH1 0x3 ADD DUP10 DUP2 SLOAD DUP2 LT PUSH2 0x856 JUMPI PUSH2 0x855 PUSH2 0x2360 JUMP JUMPDEST JUMPDEST SWAP1 PUSH0 MSTORE PUSH1 0x20 PUSH0 KECCAK256 SWAP1 PUSH1 0x2 MUL ADD PUSH0 ADD PUSH1 0x40 MLOAD PUSH2 0x871 SWAP2 SWAP1 PUSH2 0x26D2 JUMP JUMPDEST PUSH1 0x40 MLOAD DUP1 SWAP2 SUB SWAP1 LOG4 POP POP POP POP POP POP JUMP JUMPDEST PUSH1 0x60 DUP1 PUSH0 PUSH0 PUSH0 PUSH0 PUSH0 DUP8 PUSH0 DUP2 GT DUP1 ISZERO PUSH2 0x89B JUMPI POP PUSH1 0x1 SLOAD DUP2 GT ISZERO JUMPDEST PUSH2 0x8DA JUMPI PUSH1 0x40 MLOAD PUSH32 0x8C379A000000000000000000000000000000000000000000000000000000000 DUP2 MSTORE PUSH1 0x4 ADD PUSH2 0x8D1 SWAP1 PUSH2 0x246D JUMP JUMPDEST PUSH1 0x40 MLOAD DUP1 SWAP2 SUB SWAP1 REVERT JUMPDEST PUSH0 PUSH1 0x2 PUSH0 DUP12 DUP2 MSTORE PUSH1 0x20 ADD SWAP1 DUP2 MSTORE PUSH1 0x20 ADD PUSH0 KECCAK256 SWAP1 POP DUP1 PUSH1 0x1 ADD DUP2 PUSH1 0x2 ADD DUP3 PUSH1 0x4 ADD PUSH0 SWAP1 SLOAD SWAP1 PUSH2 0x100 EXP SWAP1 DIV PUSH1 0xFF AND DUP4 PUSH1 0x5 ADD SLOAD DUP5 PUSH1 0x6 ADD SLOAD DUP6 PUSH1 0x7 ADD SLOAD DUP7 PUSH1 0x3 ADD DUP1 SLOAD SWAP1 POP DUP7 DUP1 SLOAD PUSH2 0x92A SWAP1 PUSH2 0x203C JUMP JUMPDEST DUP1 PUSH1 0x1F ADD PUSH1 0x20 DUP1 SWAP2 DIV MUL PUSH1 0x20 ADD PUSH1 0x40 MLOAD SWAP1 DUP2 ADD PUSH1 0x40 MSTORE DUP1 SWAP3 SWAP2 SWAP1 DUP2 DUP2 MSTORE PUSH1 0x20 ADD DUP3 DUP1 SLOAD PUSH2 0x956 SWAP1 PUSH2 0x203C JUMP JUMPDEST DUP1 ISZERO PUSH2 0x9A1 JUMPI DUP1 PUSH1 0x1F LT PUSH2 0x978 JUMPI PUSH2 0x100 DUP1 DUP4 SLOAD DIV MUL DUP4 MSTORE SWAP2 PUSH1 0x20 ADD SWAP2 PUSH2 0x9A1 JUMP JUMPDEST DUP3 ADD SWAP2 SWAP1 PUSH0 MSTORE PUSH1 0x20 PUSH0 KECCAK256 SWAP1 JUMPDEST DUP2 SLOAD DUP2 MSTORE SWAP1 PUSH1 0x1 ADD SWAP1 PUSH1 0x20 ADD DUP1 DUP4 GT PUSH2 0x984 JUMPI DUP3 SWAP1 SUB PUSH1 0x1F AND DUP3 ADD SWAP2 JUMPDEST POP POP POP POP POP SWAP7 POP DUP6 DUP1 SLOAD PUSH2 0x9B4 SWAP1 PUSH2 0x203C JUMP JUMPDEST DUP1 PUSH1 0x1F ADD PUSH1 0x20 DUP1 SWAP2 DIV MUL PUSH1 0x20 ADD PUSH1 0x40 MLOAD SWAP1 DUP2 ADD PUSH1 0x40 MSTORE DUP1 SWAP3 SWAP2 SWAP1 DUP2 DUP2 MSTORE PUSH1 0x20 ADD DUP3 DUP1 SLOAD PUSH2 0x9E0 SWAP1 PUSH2 0x203C JUMP JUMPDEST DUP1 ISZERO PUSH2 0xA2B JUMPI DUP1 PUSH1 0x1F LT PUSH2 0xA02 JUMPI PUSH2 0x100 DUP1 DUP4 SLOAD DIV MUL DUP4 MSTORE SWAP2 PUSH1 0x20 ADD SWAP2 PUSH2 0xA2B JUMP JUMPDEST DUP3 ADD SWAP2 SWAP1 PUSH0 MSTORE PUSH1 0x20 PUSH0 KECCAK256 SWAP1 JUMPDEST DUP2 SLOAD DUP2 MSTORE SWAP1 PUSH1 0x1 ADD SWAP1 PUSH1 0x20 ADD DUP1 DUP4 GT PUSH2 0xA0E JUMPI DUP3 SWAP1 SUB PUSH1 0x1F AND DUP3 ADD SWAP2 JUMPDEST POP POP POP POP POP SWAP6 POP SWAP9 POP SWAP9 POP SWAP9 POP SWAP9 POP SWAP9 POP SWAP9 POP SWAP9 POP POP POP SWAP2 SWAP4 SWAP6 SWAP8 SWAP1 SWAP3 SWAP5 SWAP7 POP JUMP JUMPDEST PUSH1 0x60 DUP1 PUSH1 0x60 DUP1 PUSH1 0x1 SLOAD PUSH8 0xFFFFFFFFFFFFFFFF DUP2 GT ISZERO PUSH2 0xA6F JUMPI PUSH2 0xA6E PUSH2 0x1536 JUMP JUMPDEST JUMPDEST PUSH1 0x40 MLOAD SWAP1 DUP1 DUP3 MSTORE DUP1 PUSH1 0x20 MUL PUSH1 0x20 ADD DUP3 ADD PUSH1 0x40 MSTORE DUP1 ISZERO PUSH2 0xA9D JUMPI DUP2 PUSH1 0x20 ADD PUSH1 0x20 DUP3 MUL DUP1 CALLDATASIZE DUP4 CALLDATACOPY DUP1 DUP3 ADD SWAP2 POP POP SWAP1 POP JUMPDEST POP SWAP4 POP PUSH1 0x1 SLOAD PUSH8 0xFFFFFFFFFFFFFFFF DUP2 GT ISZERO PUSH2 0xABC JUMPI PUSH2 0xABB PUSH2 0x1536 JUMP JUMPDEST JUMPDEST PUSH1 0x40 MLOAD SWAP1 DUP1 DUP3 MSTORE DUP1 PUSH1 0x20 MUL PUSH1 0x20 ADD DUP3 ADD PUSH1 0x40 MSTORE DUP1 ISZERO PUSH2 0xAEF JUMPI DUP2 PUSH1 0x20 ADD JUMPDEST PUSH1 0x60 DUP2 MSTORE PUSH1 0x20 ADD SWAP1 PUSH1 0x1 SWAP1 SUB SWAP1 DUP2 PUSH2 0xADA JUMPI SWAP1 POP JUMPDEST POP SWAP3 POP PUSH1 0x1 SLOAD PUSH8 0xFFFFFFFFFFFFFFFF DUP2 GT ISZERO PUSH2 0xB0E JUMPI PUSH2 0xB0D PUSH2 0x1536 JUMP JUMPDEST JUMPDEST PUSH1 0x40 MLOAD SWAP1 DUP1 DUP3 MSTORE DUP1 PUSH1 0x20 MUL PUSH1 0x20 ADD DUP3 ADD PUSH1 0x40 MSTORE DUP1 ISZERO PUSH2 0xB3C JUMPI DUP2 PUSH1 0x20 ADD PUSH1 0x20 DUP3 MUL DUP1 CALLDATASIZE DUP4 CALLDATACOPY DUP1 DUP3 ADD SWAP2 POP POP SWAP1 POP JUMPDEST POP SWAP2 POP PUSH1 0x1 SLOAD PUSH8 0xFFFFFFFFFFFFFFFF DUP2 GT ISZERO PUSH2 0xB5B JUMPI PUSH2 0xB5A PUSH2 0x1536 JUMP JUMPDEST JUMPDEST PUSH1 0x40 MLOAD SWAP1 DUP1 DUP3 MSTORE DUP1 PUSH1 0x20 MUL PUSH1 0x20 ADD DUP3 ADD PUSH1 0x40 MSTORE DUP1 ISZERO PUSH2 0xB89 JUMPI DUP2 PUSH1 0x20 ADD PUSH1 0x20 DUP3 MUL DUP1 CALLDATASIZE DUP4 CALLDATACOPY DUP1 DUP3 ADD SWAP2 POP POP SWAP1 POP JUMPDEST POP SWAP1 POP PUSH0 PUSH1 0x1 SWAP1 POP JUMPDEST PUSH1 0x1 SLOAD DUP2 GT PUSH2 0xD19 JUMPI PUSH0 PUSH1 0x2 PUSH0 DUP4 DUP2 MSTORE PUSH1 0x20 ADD SWAP1 DUP2 MSTORE PUSH1 0x20 ADD PUSH0 KECCAK256 SWAP1 POP DUP1 PUSH0 ADD SLOAD DUP7 PUSH1 0x1 DUP5 PUSH2 0xBC1 SWAP2 SWAP1 PUSH2 0x26F2 JUMP JUMPDEST DUP2 MLOAD DUP2 LT PUSH2 0xBD2 JUMPI PUSH2 0xBD1 PUSH2 0x2360 JUMP JUMPDEST JUMPDEST PUSH1 0x20 MUL PUSH1 0x20 ADD ADD DUP2 DUP2 MSTORE POP POP DUP1 PUSH1 0x1 ADD DUP1 SLOAD PUSH2 0xBED SWAP1 PUSH2 0x203C JUMP JUMPDEST DUP1 PUSH1 0x1F ADD PUSH1 0x20 DUP1 SWAP2 DIV MUL PUSH1 0x20 ADD PUSH1 0x40 MLOAD SWAP1 DUP2 ADD PUSH1 0x40 MSTORE DUP1 SWAP3 SWAP2 SWAP1 DUP2 DUP2 MSTORE PUSH1 0x20 ADD DUP3 DUP1 SLOAD PUSH2 0xC19 SWAP1 PUSH2 0x203C JUMP JUMPDEST DUP1 ISZERO PUSH2 0xC64 JUMPI DUP1 PUSH1 0x1F LT PUSH2 0xC3B JUMPI PUSH2 0x100 DUP1 DUP4 SLOAD DIV MUL DUP4 MSTORE SWAP2 PUSH1 0x20 ADD SWAP2 PUSH2 0xC64 JUMP JUMPDEST DUP3 ADD SWAP2 SWAP1 PUSH0 MSTORE PUSH1 0x20 PUSH0 KECCAK256 SWAP1 JUMPDEST DUP2 SLOAD DUP2 MSTORE SWAP1 PUSH1 0x1 ADD SWAP1 PUSH1 0x20 ADD DUP1 DUP4 GT PUSH2 0xC47 JUMPI DUP3 SWAP1 SUB PUSH1 0x1F AND DUP3 ADD SWAP2 JUMPDEST POP POP POP POP POP DUP6 PUSH1 0x1 DUP5 PUSH2 0xC77 SWAP2 SWAP1 PUSH2 0x26F2 JUMP JUMPDEST DUP2 MLOAD DUP2 LT PUSH2 0xC88 JUMPI PUSH2 0xC87 PUSH2 0x2360 JUMP JUMPDEST JUMPDEST PUSH1 0x20 MUL PUSH1 0x20 ADD ADD DUP2 SWAP1 MSTORE POP DUP1 PUSH1 0x4 ADD PUSH0 SWAP1 SLOAD SWAP1 PUSH2 0x100 EXP SWAP1 DIV PUSH1 0xFF AND DUP5 PUSH1 0x1 DUP5 PUSH2 0xCB2 SWAP2 SWAP1 PUSH2 0x26F2 JUMP JUMPDEST DUP2 MLOAD DUP2 LT PUSH2 0xCC3 JUMPI PUSH2 0xCC2 PUSH2 0x2360 JUMP JUMPDEST JUMPDEST PUSH1 0x20 MUL PUSH1 0x20 ADD ADD SWAP1 ISZERO ISZERO SWAP1 DUP2 ISZERO ISZERO DUP2 MSTORE POP POP DUP1 PUSH1 0x5 ADD SLOAD DUP4 PUSH1 0x1 DUP5 PUSH2 0xCE8 SWAP2 SWAP1 PUSH2 0x26F2 JUMP JUMPDEST DUP2 MLOAD DUP2 LT PUSH2 0xCF9 JUMPI PUSH2 0xCF8 PUSH2 0x2360 JUMP JUMPDEST JUMPDEST PUSH1 0x20 MUL PUSH1 0x20 ADD ADD DUP2 DUP2 MSTORE POP POP POP DUP1 DUP1 PUSH2 0xD11 SWAP1 PUSH2 0x1FC8 JUMP JUMPDEST SWAP2 POP POP PUSH2 0xB92 JUMP JUMPDEST POP SWAP1 SWAP2 SWAP3 SWAP4 JUMP JUMPDEST PUSH0 PUSH0 SWAP1 SLOAD SWAP1 PUSH2 0x100 EXP SWAP1 DIV PUSH20 0xFFFFFFFFFFFFFFFFFFFFFFFFFFFFFFFFFFFFFFFF AND PUSH20 0xFFFFFFFFFFFFFFFFFFFFFFFFFFFFFFFFFFFFFFFF AND CALLER PUSH20 0xFFFFFFFFFFFFFFFFFFFFFFFFFFFFFFFFFFFFFFFF AND EQ PUSH2 0xDAE JUMPI PUSH1 0x40 MLOAD PUSH32 0x8C379A000000000000000000000000000000000000000000000000000000000 DUP2 MSTORE PUSH1 0x4 ADD PUSH2 0xDA5 SWAP1 PUSH2 0x1E45 JUMP JUMPDEST PUSH1 0x40 MLOAD DUP1 SWAP2 SUB SWAP1 REVERT JUMPDEST DUP1 PUSH0 DUP2 GT DUP1 ISZERO PUSH2 0xDC0 JUMPI POP PUSH1 0x1 SLOAD DUP2 GT ISZERO JUMPDEST PUSH2 0xDFF JUMPI PUSH1 0x40 MLOAD PUSH32 0x8C379A000000000000000000000000000000000000000000000000000000000 DUP2 MSTORE PUSH1 0x4 ADD PUSH2 0xDF6 SWAP1 PUSH2 0x246D JUMP JUMPDEST PUSH1 0x40 MLOAD DUP1 SWAP2 SUB SWAP1 REVERT JUMPDEST PUSH0 PUSH1 0x2 PUSH0 DUP5 DUP2 MSTORE PUSH1 0x20 ADD SWAP1 DUP2 MSTORE PUSH1 0x20 ADD PUSH0 KECCAK256 SWAP1 POP DUP1 PUSH1 0x4 ADD PUSH0 SWAP1 SLOAD SWAP1 PUSH2 0x100 EXP SWAP1 DIV PUSH1 0xFF AND PUSH2 0xE63 JUMPI PUSH1 0x40 MLOAD PUSH32 0x8C379A000000000000000000000000000000000000000000000000000000000 DUP2 MSTORE PUSH1 0x4 ADD PUSH2 0xE5A SWAP1 PUSH2 0x276F JUMP JUMPDEST PUSH1 0x40 MLOAD DUP1 SWAP2 SUB SWAP1 REVERT JUMPDEST PUSH0 DUP2 PUSH1 0x4 ADD PUSH0 PUSH2 0x100 EXP DUP2 SLOAD DUP2 PUSH1 0xFF MUL NOT AND SWAP1 DUP4 ISZERO ISZERO MUL OR SWAP1 SSTORE POP DUP3 PUSH32 0x1EF2AEC11912A0B8A9E48FBD7689F454C66E116205599FD9DDA9A277878B6BFA DUP3 PUSH1 0x1 ADD DUP4 PUSH1 0x5 ADD SLOAD PUSH1 0x40 MLOAD PUSH2 0xEB7 SWAP3 SWAP2 SWAP1 PUSH2 0x278D JUMP JUMPDEST PUSH1 0x40 MLOAD DUP1 SWAP2 SUB SWAP1 LOG2 PUSH0 DUP2 PUSH1 0x5 ADD SLOAD GT ISZERO PUSH2 0xF3C JUMPI PUSH0 PUSH0 PUSH2 0xED6 DUP6 PUSH2 0x13EC JUMP JUMPDEST SWAP2 POP SWAP2 POP DUP5 PUSH32 0xEBDB5148B12668F141C46F068FB8888BBF2D47B792526B801F1466F5BF51B275 DUP4 DUP6 PUSH1 0x3 ADD DUP6 DUP2 SLOAD DUP2 LT PUSH2 0xF13 JUMPI PUSH2 0xF12 PUSH2 0x2360 JUMP JUMPDEST JUMPDEST SWAP1 PUSH0 MSTORE PUSH1 0x20 PUSH0 KECCAK256 SWAP1 PUSH1 0x2 MUL ADD PUSH0 ADD DUP5 PUSH1 0x40 MLOAD PUSH2 0xF31 SWAP4 SWAP3 SWAP2 SWAP1 PUSH2 0x27BB JUMP JUMPDEST PUSH1 0x40 MLOAD DUP1 SWAP2 SUB SWAP1 LOG2 POP POP JUMPDEST POP POP POP JUMP JUMPDEST PUSH0 PUSH0 SWAP1 SLOAD SWAP1 PUSH2 0x100 EXP SWAP1 DIV PUSH20 0xFFFFFFFFFFFFFFFFFFFFFFFFFFFFFFFFFFFFFFFF AND DUP2 JUMP JUMPDEST PUSH0 DUP3 PUSH0 DUP2 GT DUP1 ISZERO PUSH2 0xF78 JUMPI POP PUSH1 0x1 SLOAD DUP2 GT ISZERO JUMPDEST PUSH2 0xFB7 JUMPI PUSH1 0x40 MLOAD PUSH32 0x8C379A000000000000000000000000000000000000000000000000000000000 DUP2 MSTORE PUSH1 0x4 ADD PUSH2 0xFAE SWAP1 PUSH2 0x246D JUMP JUMPDEST PUSH1 0x40 MLOAD DUP1 SWAP2 SUB SWAP1 REVERT JUMPDEST PUSH1 0x2 PUSH0 DUP6 DUP2 MSTORE PUSH1 0x20 ADD SWAP1 DUP2 MSTORE PUSH1 0x20 ADD PUSH0 KECCAK256 PUSH1 0x8 ADD PUSH0 DUP5 PUSH20 0xFFFFFFFFFFFFFFFFFFFFFFFFFFFFFFFFFFFFFFFF AND PUSH20 0xFFFFFFFFFFFFFFFFFFFFFFFFFFFFFFFFFFFFFFFF AND DUP2 MSTORE PUSH1 0x20 ADD SWAP1 DUP2 MSTORE PUSH1 0x20 ADD PUSH0 KECCAK256 PUSH0 SWAP1 SLOAD SWAP1 PUSH2 0x100 EXP SWAP1 DIV PUSH1 0xFF AND SWAP2 POP POP SWAP3 SWAP2 POP POP JUMP JUMPDEST PUSH0 PUSH1 0x60 PUSH0 PUSH0 DUP5 PUSH0 DUP2 GT DUP1 ISZERO PUSH2 0x1033 JUMPI POP PUSH1 0x1 SLOAD DUP2 GT ISZERO JUMPDEST PUSH2 0x1072 JUMPI PUSH1 0x40 MLOAD PUSH32 0x8C379A000000000000000000000000000000000000000000000000000000000 DUP2 MSTORE PUSH1 0x4 ADD PUSH2 0x1069 SWAP1 PUSH2 0x246D JUMP JUMPDEST PUSH1 0x40 MLOAD DUP1 SWAP2 SUB SWAP1 REVERT JUMPDEST PUSH0 PUSH1 0x2 PUSH0 DUP9 DUP2 MSTORE PUSH1 0x20 ADD SWAP1 DUP2 MSTORE PUSH1 0x20 ADD PUSH0 KECCAK256 SWAP1 POP PUSH0 DUP2 PUSH1 0x5 ADD SLOAD GT PUSH2 0x10CC JUMPI PUSH1 0x40 MLOAD PUSH32 0x8C379A000000000000000000000000000000000000000000000000000000000 DUP2 MSTORE PUSH1 0x4 ADD PUSH2 0x10C3 SWAP1 PUSH2 0x2841 JUMP JUMPDEST PUSH1 0x40 MLOAD DUP1 SWAP2 SUB SWAP1 REVERT JUMPDEST PUSH0 PUSH0 PUSH2 0x10D7 DUP10 PUSH2 0x13EC JUMP JUMPDEST SWAP2 POP SWAP2 POP PUSH0 PUSH2 0x10E6 DUP11 DUP4 PUSH2 0x1489 JUMP JUMPDEST SWAP1 POP DUP3 DUP5 PUSH1 0x3 ADD DUP5 DUP2 SLOAD DUP2 LT PUSH2 0x10FF JUMPI PUSH2 0x10FE PUSH2 0x2360 JUMP JUMPDEST JUMPDEST SWAP1 PUSH0 MSTORE PUSH1 0x20 PUSH0 KECCAK256 SWAP1 PUSH1 0x2 MUL ADD PUSH0 ADD DUP4 DUP4 DUP3 DUP1 SLOAD PUSH2 0x111B SWAP1 PUSH2 0x203C JUMP JUMPDEST DUP1 PUSH1 0x1F ADD PUSH1 0x20 DUP1 SWAP2 DIV MUL PUSH1 0x20 ADD PUSH1 0x40 MLOAD SWAP1 DUP2 ADD PUSH1 0x40 MSTORE DUP1 SWAP3 SWAP2 SWAP1 DUP2 DUP2 MSTORE PUSH1 0x20 ADD DUP3 DUP1 SLOAD PUSH2 0x1147 SWAP1 PUSH2 0x203C JUMP JUMPDEST DUP1 ISZERO PUSH2 0x1192 JUMPI DUP1 PUSH1 0x1F LT PUSH2 0x1169 JUMPI PUSH2 0x100 DUP1 DUP4 SLOAD DIV MUL DUP4 MSTORE SWAP2 PUSH1 0x20 ADD SWAP2 PUSH2 0x1192 JUMP JUMPDEST DUP3 ADD SWAP2 SWAP1 PUSH0 MSTORE PUSH1 0x20 PUSH0 KECCAK256 SWAP1 JUMPDEST DUP2 SLOAD DUP2 MSTORE SWAP1 PUSH1 0x1 ADD SWAP1 PUSH1 0x20 ADD DUP1 DUP4 GT PUSH2 0x1175 JUMPI DUP3 SWAP1 SUB PUSH1 0x1F AND DUP3 ADD SWAP2 JUMPDEST POP POP POP POP POP SWAP3 POP SWAP9 POP SWAP9 POP SWAP9 POP SWAP9 POP POP POP POP POP POP SWAP2 SWAP4 POP SWAP2 SWAP4 JUMP JUMPDEST PUSH1 0x60 DUP1 DUP3 PUSH0 DUP2 GT DUP1 ISZERO PUSH2 0x11C2 JUMPI POP PUSH1 0x1 SLOAD DUP2 GT ISZERO JUMPDEST PUSH2 0x1201 JUMPI PUSH1 0x40 MLOAD PUSH32 0x8C379A000000000000000000000000000000000000000000000000000000000 DUP2 MSTORE PUSH1 0x4 ADD PUSH2 0x11F8 SWAP1 PUSH2 0x246D JUMP JUMPDEST PUSH1 0x40 MLOAD DUP1 SWAP2 SUB SWAP1 REVERT JUMPDEST PUSH0 PUSH1 0x2 PUSH0 DUP7 DUP2 MSTORE PUSH1 0x20 ADD SWAP1 DUP2 MSTORE PUSH1 0x20 ADD PUSH0 KECCAK256 SWAP1 POP PUSH0 DUP2 PUSH1 0x3 ADD DUP1 SLOAD SWAP1 POP SWAP1 POP DUP1 PUSH8 0xFFFFFFFFFFFFFFFF DUP2 GT ISZERO PUSH2 0x123A JUMPI PUSH2 0x1239 PUSH2 0x1536 JUMP JUMPDEST JUMPDEST PUSH1 0x40 MLOAD SWAP1 DUP1 DUP3 MSTORE DUP1 PUSH1 0x20 MUL PUSH1 0x20 ADD DUP3 ADD PUSH1 0x40 MSTORE DUP1 ISZERO PUSH2 0x126D JUMPI DUP2 PUSH1 0x20 ADD JUMPDEST PUSH1 0x60 DUP2 MSTORE PUSH1 0x20 ADD SWAP1 PUSH1 0x1 SWAP1 SUB SWAP1 DUP2 PUSH2 0x1258 JUMPI SWAP1 POP JUMPDEST POP SWAP5 POP DUP1 PUSH8 0xFFFFFFFFFFFFFFFF DUP2 GT ISZERO PUSH2 0x128A JUMPI PUSH2 0x1289 PUSH2 0x1536 JUMP JUMPDEST JUMPDEST PUSH1 0x40 MLOAD SWAP1 DUP1 DUP3 MSTORE DUP1 PUSH1 0x20 MUL PUSH1 0x20 ADD DUP3 ADD PUSH1 0x40 MSTORE DUP1 ISZERO PUSH2 0x12B8 JUMPI DUP2 PUSH1 0x20 ADD PUSH1 0x20 DUP3 MUL DUP1 CALLDATASIZE DUP4 CALLDATACOPY DUP1 DUP3 ADD SWAP2 POP POP SWAP1 POP JUMPDEST POP SWAP4 POP PUSH0 PUSH0 SWAP1 POP JUMPDEST DUP2 DUP2 LT ISZERO PUSH2 0x13E3 JUMPI DUP3 PUSH1 0x3 ADD DUP2 DUP2 SLOAD DUP2 LT PUSH2 0x12DE JUMPI PUSH2 0x12DD PUSH2 0x2360 JUMP JUMPDEST JUMPDEST SWAP1 PUSH0 MSTORE PUSH1 0x20 PUSH0 KECCAK256 SWAP1 PUSH1 0x2 MUL ADD PUSH0 ADD DUP1 SLOAD PUSH2 0x12F7 SWAP1 PUSH2 0x203C JUMP JUMPDEST DUP1 PUSH1 0x1F ADD PUSH1 0x20 DUP1 SWAP2 DIV MUL PUSH1 0x20 ADD PUSH1 0x40 MLOAD SWAP1 DUP2 ADD PUSH1 0x40 MSTORE DUP1 SWAP3 SWAP2 SWAP1 DUP2 DUP2 MSTORE PUSH1 0x20 ADD DUP3 DUP1 SLOAD PUSH2 0x1323 SWAP1 PUSH2 0x203C JUMP JUMPDEST DUP1 ISZERO PUSH2 0x136E JUMPI DUP1 PUSH1 0x1F LT PUSH2 0x1345 JUMPI PUSH2 0x100 DUP1 DUP4 SLOAD DIV MUL DUP4 MSTORE SWAP2 PUSH1 0x20 ADD SWAP2 PUSH2 0x136E JUMP JUMPDEST DUP3 ADD SWAP2 SWAP1 PUSH0 MSTORE PUSH1 0x20 PUSH0 KECCAK256 SWAP1 JUMPDEST DUP2 SLOAD DUP2 MSTORE SWAP1 PUSH1 0x1 ADD SWAP1 PUSH1 0x20 ADD DUP1 DUP4 GT PUSH2 0x1351 JUMPI DUP3 SWAP1 SUB PUSH1 0x1F AND DUP3 ADD SWAP2 JUMPDEST POP POP POP POP POP DUP7 DUP3 DUP2 MLOAD DUP2 LT PUSH2 0x1386 JUMPI PUSH2 0x1385 PUSH2 0x2360 JUMP JUMPDEST JUMPDEST PUSH1 0x20 MUL PUSH1 0x20 ADD ADD DUP2 SWAP1 MSTORE POP DUP3 PUSH1 0x3 ADD DUP2 DUP2 SLOAD DUP2 LT PUSH2 0x13A7 JUMPI PUSH2 0x13A6 PUSH2 0x2360 JUMP JUMPDEST JUMPDEST SWAP1 PUSH0 MSTORE PUSH1 0x20 PUSH0 KECCAK256 SWAP1 PUSH1 0x2 MUL ADD PUSH1 0x1 ADD SLOAD DUP6 DUP3 DUP2 MLOAD DUP2 LT PUSH2 0x13CA JUMPI PUSH2 0x13C9 PUSH2 0x2360 JUMP JUMPDEST JUMPDEST PUSH1 0x20 MUL PUSH1 0x20 ADD ADD DUP2 DUP2 MSTORE POP POP DUP1 DUP1 PUSH1 0x1 ADD SWAP2 POP POP PUSH2 0x12C0 JUMP JUMPDEST POP POP POP POP SWAP2 POP SWAP2 JUMP JUMPDEST PUSH0 PUSH0 PUSH0 PUSH1 0x2 PUSH0 DUP6 DUP2 MSTORE PUSH1 0x20 ADD SWAP1 DUP2 MSTORE PUSH1 0x20 ADD PUSH0 KECCAK256 SWAP1 POP PUSH0 SWAP2 POP PUSH0 SWAP3 POP PUSH0 PUSH0 SWAP1 POP JUMPDEST DUP2 PUSH1 0x3 ADD DUP1 SLOAD SWAP1 POP DUP2 LT ISZERO PUSH2 0x1482 JUMPI DUP3 DUP3 PUSH1 0x3 ADD DUP3 DUP2 SLOAD DUP2 LT PUSH2 0x1433 JUMPI PUSH2 0x1432 PUSH2 0x2360 JUMP JUMPDEST JUMPDEST SWAP1 PUSH0 MSTORE PUSH1 0x20 PUSH0 KECCAK256 SWAP1 PUSH1 0x2 MUL ADD PUSH1 0x1 ADD SLOAD GT ISZERO PUSH2 0x1475 JUMPI DUP2 PUSH1 0x3 ADD DUP2 DUP2 SLOAD DUP2 LT PUSH2 0x145F JUMPI PUSH2 0x145E PUSH2 0x2360 JUMP JUMPDEST JUMPDEST SWAP1 PUSH0 MSTORE PUSH1 0x20 PUSH0 KECCAK256 SWAP1 PUSH1 0x2 MUL ADD PUSH1 0x1 ADD SLOAD SWAP3 POP DUP1 SWAP4 POP JUMPDEST DUP1 DUP1 PUSH1 0x1 ADD SWAP2 POP POP PUSH2 0x140D JUMP JUMPDEST POP POP SWAP2 POP SWAP2 JUMP JUMPDEST PUSH0 PUSH0 PUSH1 0x2 PUSH0 DUP6 DUP2 MSTORE PUSH1 0x20 ADD SWAP1 DUP2 MSTORE PUSH1 0x20 ADD PUSH0 KECCAK256 SWAP1 POP PUSH0 PUSH0 SWAP1 POP PUSH0 PUSH0 SWAP1 POP JUMPDEST DUP3 PUSH1 0x3 ADD DUP1 SLOAD SWAP1 POP DUP2 LT ISZERO PUSH2 0x14FE JUMPI DUP5 DUP4 PUSH1 0x3 ADD DUP3 DUP2 SLOAD DUP2 LT PUSH2 0x14CD JUMPI PUSH2 0x14CC PUSH2 0x2360 JUMP JUMPDEST JUMPDEST SWAP1 PUSH0 MSTORE PUSH1 0x20 PUSH0 KECCAK256 SWAP1 PUSH1 0x2 MUL ADD PUSH1 0x1 ADD SLOAD SUB PUSH2 0x14F1 JUMPI DUP2 DUP1 PUSH2 0x14ED SWAP1 PUSH2 0x1FC8 JUMP JUMPDEST SWAP3 POP POP JUMPDEST DUP1 DUP1 PUSH1 0x1 ADD SWAP2 POP POP PUSH2 0x14A7 JUMP JUMPDEST POP PUSH1 0x1 DUP2 GT SWAP3 POP POP POP SWAP3 SWAP2 POP POP JUMP JUMPDEST PUSH0 PUSH1 0x40 MLOAD SWAP1 POP SWAP1 JUMP JUMPDEST PUSH0 PUSH0 REVERT JUMPDEST PUSH0 PUSH0 REVERT JUMPDEST PUSH0 PUSH0 REVERT JUMPDEST PUSH0 PUSH0 REVERT JUMPDEST PUSH0 PUSH1 0x1F NOT PUSH1 0x1F DUP4 ADD AND SWAP1 POP SWAP2 SWAP1 POP JUMP JUMPDEST PUSH32 0x4E487B7100000000000000000000000000000000000000000000000000000000 PUSH0 MSTORE PUSH1 0x41 PUSH1 0x4 MSTORE PUSH1 0x24 PUSH0 REVERT JUMPDEST PUSH2 0x156C DUP3 PUSH2 0x1526 JUMP JUMPDEST DUP2 ADD DUP2 DUP2 LT PUSH8 0xFFFFFFFFFFFFFFFF DUP3 GT OR ISZERO PUSH2 0x158B JUMPI PUSH2 0x158A PUSH2 0x1536 JUMP JUMPDEST JUMPDEST DUP1 PUSH1 0x40 MSTORE POP POP POP JUMP JUMPDEST PUSH0 PUSH2 0x159D PUSH2 0x150D JUMP JUMPDEST SWAP1 POP PUSH2 0x15A9 DUP3 DUP3 PUSH2 0x1563 JUMP JUMPDEST SWAP2 SWAP1 POP JUMP JUMPDEST PUSH0 PUSH8 0xFFFFFFFFFFFFFFFF DUP3 GT ISZERO PUSH2 0x15C8 JUMPI PUSH2 0x15C7 PUSH2 0x1536 JUMP JUMPDEST JUMPDEST PUSH2 0x15D1 DUP3 PUSH2 0x1526 JUMP JUMPDEST SWAP1 POP PUSH1 0x20 DUP2 ADD SWAP1 POP SWAP2 SWAP1 POP JUMP JUMPDEST DUP3 DUP2 DUP4 CALLDATACOPY PUSH0 DUP4 DUP4 ADD MSTORE POP POP POP JUMP JUMPDEST PUSH0 PUSH2 0x15FE PUSH2 0x15F9 DUP5 PUSH2 0x15AE JUMP JUMPDEST PUSH2 0x1594 JUMP JUMPDEST SWAP1 POP DUP3 DUP2 MSTORE PUSH1 0x20 DUP2 ADD DUP5 DUP5 DUP5 ADD GT ISZERO PUSH2 0x161A JUMPI PUSH2 0x1619 PUSH2 0x1522 JUMP JUMPDEST JUMPDEST PUSH2 0x1625 DUP5 DUP3 DUP6 PUSH2 0x15DE JUMP JUMPDEST POP SWAP4 SWAP3 POP POP POP JUMP JUMPDEST PUSH0 DUP3 PUSH1 0x1F DUP4 ADD SLT PUSH2 0x1641 JUMPI PUSH2 0x1640 PUSH2 0x151E JUMP JUMPDEST JUMPDEST DUP2 CALLDATALOAD PUSH2 0x1651 DUP5 DUP3 PUSH1 0x20 DUP7 ADD PUSH2 0x15EC JUMP JUMPDEST SWAP2 POP POP SWAP3 SWAP2 POP POP JUMP JUMPDEST PUSH0 PUSH8 0xFFFFFFFFFFFFFFFF DUP3 GT ISZERO PUSH2 0x1674 JUMPI PUSH2 0x1673 PUSH2 0x1536 JUMP JUMPDEST JUMPDEST PUSH1 0x20 DUP3 MUL SWAP1 POP PUSH1 0x20 DUP2 ADD SWAP1 POP SWAP2 SWAP1 POP JUMP JUMPDEST PUSH0 PUSH0 REVERT JUMPDEST PUSH0 PUSH2 0x169B PUSH2 0x1696 DUP5 PUSH2 0x165A JUMP JUMPDEST PUSH2 0x1594 JUMP JUMPDEST SWAP1 POP DUP1 DUP4 DUP3 MSTORE PUSH1 0x20 DUP3 ADD SWAP1 POP PUSH1 0x20 DUP5 MUL DUP4 ADD DUP6 DUP2 GT ISZERO PUSH2 0x16BE JUMPI PUSH2 0x16BD PUSH2 0x1685 JUMP JUMPDEST JUMPDEST DUP4 JUMPDEST DUP2 DUP2 LT ISZERO PUSH2 0x1705 JUMPI DUP1 CALLDATALOAD PUSH8 0xFFFFFFFFFFFFFFFF DUP2 GT ISZERO PUSH2 0x16E3 JUMPI PUSH2 0x16E2 PUSH2 0x151E JUMP JUMPDEST JUMPDEST DUP1 DUP7 ADD PUSH2 0x16F0 DUP10 DUP3 PUSH2 0x162D JUMP JUMPDEST DUP6 MSTORE PUSH1 0x20 DUP6 ADD SWAP5 POP POP POP PUSH1 0x20 DUP2 ADD SWAP1 POP PUSH2 0x16C0 JUMP JUMPDEST POP POP POP SWAP4 SWAP3 POP POP POP JUMP JUMPDEST PUSH0 DUP3 PUSH1 0x1F DUP4 ADD SLT PUSH2 0x1723 JUMPI PUSH2 0x1722 PUSH2 0x151E JUMP JUMPDEST JUMPDEST DUP2 CALLDATALOAD PUSH2 0x1733 DUP5 DUP3 PUSH1 0x20 DUP7 ADD PUSH2 0x1689 JUMP JUMPDEST SWAP2 POP POP SWAP3 SWAP2 POP POP JUMP JUMPDEST PUSH0 DUP2 SWAP1 POP SWAP2 SWAP1 POP JUMP JUMPDEST PUSH2 0x174E DUP2 PUSH2 0x173C JUMP JUMPDEST DUP2 EQ PUSH2 0x1758 JUMPI PUSH0 PUSH0 REVERT JUMPDEST POP JUMP JUMPDEST PUSH0 DUP2 CALLDATALOAD SWAP1 POP PUSH2 0x1769 DUP2 PUSH2 0x1745 JUMP JUMPDEST SWAP3 SWAP2 POP POP JUMP JUMPDEST PUSH0 PUSH0 PUSH0 PUSH0 PUSH1 0x80 DUP6 DUP8 SUB SLT ISZERO PUSH2 0x1787 JUMPI PUSH2 0x1786 PUSH2 0x1516 JUMP JUMPDEST JUMPDEST PUSH0 DUP6 ADD CALLDATALOAD PUSH8 0xFFFFFFFFFFFFFFFF DUP2 GT ISZERO PUSH2 0x17A4 JUMPI PUSH2 0x17A3 PUSH2 0x151A JUMP JUMPDEST JUMPDEST PUSH2 0x17B0 DUP8 DUP3 DUP9 ADD PUSH2 0x162D JUMP JUMPDEST SWAP5 POP POP PUSH1 0x20 DUP6 ADD CALLDATALOAD PUSH8 0xFFFFFFFFFFFFFFFF DUP2 GT ISZERO PUSH2 0x17D1 JUMPI PUSH2 0x17D0 PUSH2 0x151A JUMP JUMPDEST JUMPDEST PUSH2 0x17DD DUP8 DUP3 DUP9 ADD PUSH2 0x162D JUMP JUMPDEST SWAP4 POP POP PUSH1 0x40 DUP6 ADD CALLDATALOAD PUSH8 0xFFFFFFFFFFFFFFFF DUP2 GT ISZERO PUSH2 0x17FE JUMPI PUSH2 0x17FD PUSH2 0x151A JUMP JUMPDEST JUMPDEST PUSH2 0x180A DUP8 DUP3 DUP9 ADD PUSH2 0x170F JUMP JUMPDEST SWAP3 POP POP PUSH1 0x60 PUSH2 0x181B DUP8 DUP3 DUP9 ADD PUSH2 0x175B JUMP JUMPDEST SWAP2 POP POP SWAP3 SWAP6 SWAP2 SWAP5 POP SWAP3 POP JUMP JUMPDEST PUSH2 0x1830 DUP2 PUSH2 0x173C JUMP JUMPDEST DUP3 MSTORE POP POP JUMP JUMPDEST PUSH0 PUSH1 0x20 DUP3 ADD SWAP1 POP PUSH2 0x1849 PUSH0 DUP4 ADD DUP5 PUSH2 0x1827 JUMP JUMPDEST SWAP3 SWAP2 POP POP JUMP JUMPDEST PUSH0 PUSH0 PUSH1 0x40 DUP4 DUP6 SUB SLT ISZERO PUSH2 0x1865 JUMPI PUSH2 0x1864 PUSH2 0x1516 JUMP JUMPDEST JUMPDEST PUSH0 PUSH2 0x1872 DUP6 DUP3 DUP7 ADD PUSH2 0x175B JUMP JUMPDEST SWAP3 POP POP PUSH1 0x20 PUSH2 0x1883 DUP6 DUP3 DUP7 ADD PUSH2 0x175B JUMP JUMPDEST SWAP2 POP POP SWAP3 POP SWAP3 SWAP1 POP JUMP JUMPDEST PUSH0 PUSH1 0x20 DUP3 DUP5 SUB SLT ISZERO PUSH2 0x18A2 JUMPI PUSH2 0x18A1 PUSH2 0x1516 JUMP JUMPDEST JUMPDEST PUSH0 PUSH2 0x18AF DUP5 DUP3 DUP6 ADD PUSH2 0x175B JUMP JUMPDEST SWAP2 POP POP SWAP3 SWAP2 POP POP JUMP JUMPDEST PUSH0 DUP2 MLOAD SWAP1 POP SWAP2 SWAP1 POP JUMP JUMPDEST PUSH0 DUP3 DUP3 MSTORE PUSH1 0x20 DUP3 ADD SWAP1 POP SWAP3 SWAP2 POP POP JUMP JUMPDEST DUP3 DUP2 DUP4 MCOPY PUSH0 DUP4 DUP4 ADD MSTORE POP POP POP JUMP JUMPDEST PUSH0 PUSH2 0x18EA DUP3 PUSH2 0x18B8 JUMP JUMPDEST PUSH2 0x18F4 DUP2 DUP6 PUSH2 0x18C2 JUMP JUMPDEST SWAP4 POP PUSH2 0x1904 DUP2 DUP6 PUSH1 0x20 DUP7 ADD PUSH2 0x18D2 JUMP JUMPDEST PUSH2 0x190D DUP2 PUSH2 0x1526 JUMP JUMPDEST DUP5 ADD SWAP2 POP POP SWAP3 SWAP2 POP POP JUMP JUMPDEST PUSH0 DUP2 ISZERO ISZERO SWAP1 POP SWAP2 SWAP1 POP JUMP JUMPDEST PUSH2 0x192C DUP2 PUSH2 0x1918 JUMP JUMPDEST DUP3 MSTORE POP POP JUMP JUMPDEST PUSH0 PUSH1 0xE0 DUP3 ADD SWAP1 POP DUP2 DUP2 SUB PUSH0 DUP4 ADD MSTORE PUSH2 0x194A DUP2 DUP11 PUSH2 0x18E0 JUMP JUMPDEST SWAP1 POP DUP2 DUP2 SUB PUSH1 0x20 DUP4 ADD MSTORE PUSH2 0x195E DUP2 DUP10 PUSH2 0x18E0 JUMP JUMPDEST SWAP1 POP PUSH2 0x196D PUSH1 0x40 DUP4 ADD DUP9 PUSH2 0x1923 JUMP JUMPDEST PUSH2 0x197A PUSH1 0x60 DUP4 ADD DUP8 PUSH2 0x1827 JUMP JUMPDEST PUSH2 0x1987 PUSH1 0x80 DUP4 ADD DUP7 PUSH2 0x1827 JUMP JUMPDEST PUSH2 0x1994 PUSH1 0xA0 DUP4 ADD DUP6 PUSH2 0x1827 JUMP JUMPDEST PUSH2 0x19A1 PUSH1 0xC0 DUP4 ADD DUP5 PUSH2 0x1827 JUMP JUMPDEST SWAP9 SWAP8 POP POP POP POP POP POP POP POP JUMP JUMPDEST PUSH0 DUP2 MLOAD SWAP1 POP SWAP2 SWAP1 POP JUMP JUMPDEST PUSH0 DUP3 DUP3 MSTORE PUSH1 0x20 DUP3 ADD SWAP1 POP SWAP3 SWAP2 POP POP JUMP JUMPDEST PUSH0 DUP2 SWAP1 POP PUSH1 0x20 DUP3 ADD SWAP1 POP SWAP2 SWAP1 POP JUMP JUMPDEST PUSH2 0x19DF DUP2 PUSH2 0x173C JUMP JUMPDEST DUP3 MSTORE POP POP JUMP JUMPDEST PUSH0 PUSH2 0x19F0 DUP4 DUP4 PUSH2 0x19D6 JUMP JUMPDEST PUSH1 0x20 DUP4 ADD SWAP1 POP SWAP3 SWAP2 POP POP JUMP JUMPDEST PUSH0 PUSH1 0x20 DUP3 ADD SWAP1 POP SWAP2 SWAP1 POP JUMP JUMPDEST PUSH0 PUSH2 0x1A12 DUP3 PUSH2 0x19AD JUMP JUMPDEST PUSH2 0x1A1C DUP2 DUP6 PUSH2 0x19B7 JUMP JUMPDEST SWAP4 POP PUSH2 0x1A27 DUP4 PUSH2 0x19C7 JUMP JUMPDEST DUP1 PUSH0 JUMPDEST DUP4 DUP2 LT ISZERO PUSH2 0x1A57 JUMPI DUP2 MLOAD PUSH2 0x1A3E DUP9 DUP3 PUSH2 0x19E5 JUMP JUMPDEST SWAP8 POP PUSH2 0x1A49 DUP4 PUSH2 0x19FC JUMP JUMPDEST SWAP3 POP POP PUSH1 0x1 DUP2 ADD SWAP1 POP PUSH2 0x1A2A JUMP JUMPDEST POP DUP6 SWAP4 POP POP POP POP SWAP3 SWAP2 POP POP JUMP JUMPDEST PUSH0 DUP2 MLOAD SWAP1 POP SWAP2 SWAP1 POP JUMP JUMPDEST PUSH0 DUP3 DUP3 MSTORE PUSH1 0x20 DUP3 ADD SWAP1 POP SWAP3 SWAP2 POP POP JUMP JUMPDEST PUSH0 DUP2 SWAP1 POP PUSH1 0x20 DUP3 ADD SWAP1 POP SWAP2 SWAP1 POP JUMP JUMPDEST PUSH0 DUP3 DUP3 MSTORE PUSH1 0x20 DUP3 ADD SWAP1 POP SWAP3 SWAP2 POP POP JUMP JUMPDEST PUSH0 PUSH2 0x1AA7 DUP3 PUSH2 0x18B8 JUMP JUMPDEST PUSH2 0x1AB1 DUP2 DUP6 PUSH2 0x1A8D JUMP JUMPDEST SWAP4 POP PUSH2 0x1AC1 DUP2 DUP6 PUSH1 0x20 DUP7 ADD PUSH2 0x18D2 JUMP JUMPDEST PUSH2 0x1ACA DUP2 PUSH2 0x1526 JUMP JUMPDEST DUP5 ADD SWAP2 POP POP SWAP3 SWAP2 POP POP JUMP JUMPDEST PUSH0 PUSH2 0x1AE0 DUP4 DUP4 PUSH2 0x1A9D JUMP JUMPDEST SWAP1 POP SWAP3 SWAP2 POP POP JUMP JUMPDEST PUSH0 PUSH1 0x20 DUP3 ADD SWAP1 POP SWAP2 SWAP1 POP JUMP JUMPDEST PUSH0 PUSH2 0x1AFE DUP3 PUSH2 0x1A64 JUMP JUMPDEST PUSH2 0x1B08 DUP2 DUP6 PUSH2 0x1A6E JUMP JUMPDEST SWAP4 POP DUP4 PUSH1 0x20 DUP3 MUL DUP6 ADD PUSH2 0x1B1A DUP6 PUSH2 0x1A7E JUMP JUMPDEST DUP1 PUSH0 JUMPDEST DUP6 DUP2 LT ISZERO PUSH2 0x1B55 JUMPI DUP5 DUP5 SUB DUP10 MSTORE DUP2 MLOAD PUSH2 0x1B36 DUP6 DUP3 PUSH2 0x1AD5 JUMP JUMPDEST SWAP5 POP PUSH2 0x1B41 DUP4 PUSH2 0x1AE8 JUMP JUMPDEST SWAP3 POP PUSH1 0x20 DUP11 ADD SWAP10 POP POP PUSH1 0x1 DUP2 ADD SWAP1 POP PUSH2 0x1B1D JUMP JUMPDEST POP DUP3 SWAP8 POP DUP8 SWAP6 POP POP POP POP POP POP SWAP3 SWAP2 POP POP JUMP JUMPDEST PUSH0 DUP2 MLOAD SWAP1 POP SWAP2 SWAP1 POP JUMP JUMPDEST PUSH0 DUP3 DUP3 MSTORE PUSH1 0x20 DUP3 ADD SWAP1 POP SWAP3 SWAP2 POP POP JUMP JUMPDEST PUSH0 DUP2 SWAP1 POP PUSH1 0x20 DUP3 ADD SWAP1 POP SWAP2 SWAP1 POP JUMP JUMPDEST PUSH2 0x1B99 DUP2 PUSH2 0x1918 JUMP JUMPDEST DUP3 MSTORE POP POP JUMP JUMPDEST PUSH0 PUSH2 0x1BAA DUP4 DUP4 PUSH2 0x1B90 JUMP JUMPDEST PUSH1 0x20 DUP4 ADD SWAP1 POP SWAP3 SWAP2 POP POP JUMP JUMPDEST PUSH0 PUSH1 0x20 DUP3 ADD SWAP1 POP SWAP2 SWAP1 POP JUMP JUMPDEST PUSH0 PUSH2 0x1BCC DUP3 PUSH2 0x1B67 JUMP JUMPDEST PUSH2 0x1BD6 DUP2 DUP6 PUSH2 0x1B71 JUMP JUMPDEST SWAP4 POP PUSH2 0x1BE1 DUP4 PUSH2 0x1B81 JUMP JUMPDEST DUP1 PUSH0 JUMPDEST DUP4 DUP2 LT ISZERO PUSH2 0x1C11 JUMPI DUP2 MLOAD PUSH2 0x1BF8 DUP9 DUP3 PUSH2 0x1B9F JUMP JUMPDEST SWAP8 POP PUSH2 0x1C03 DUP4 PUSH2 0x1BB6 JUMP JUMPDEST SWAP3 POP POP PUSH1 0x1 DUP2 ADD SWAP1 POP PUSH2 0x1BE4 JUMP JUMPDEST POP DUP6 SWAP4 POP POP POP POP SWAP3 SWAP2 POP POP JUMP JUMPDEST PUSH0 PUSH1 0x80 DUP3 ADD SWAP1 POP DUP2 DUP2 SUB PUSH0 DUP4 ADD MSTORE PUSH2 0x1C36 DUP2 DUP8 PUSH2 0x1A08 JUMP JUMPDEST SWAP1 POP DUP2 DUP2 SUB PUSH1 0x20 DUP4 ADD MSTORE PUSH2 0x1C4A DUP2 DUP7 PUSH2 0x1AF4 JUMP JUMPDEST SWAP1 POP DUP2 DUP2 SUB PUSH1 0x40 DUP4 ADD MSTORE PUSH2 0x1C5E DUP2 DUP6 PUSH2 0x1BC2 JUMP JUMPDEST SWAP1 POP DUP2 DUP2 SUB PUSH1 0x60 DUP4 ADD MSTORE PUSH2 0x1C72 DUP2 DUP5 PUSH2 0x1A08 JUMP JUMPDEST SWAP1 POP SWAP6 SWAP5 POP POP POP POP POP JUMP JUMPDEST PUSH0 PUSH20 0xFFFFFFFFFFFFFFFFFFFFFFFFFFFFFFFFFFFFFFFF DUP3 AND SWAP1 POP SWAP2 SWAP1 POP JUMP JUMPDEST PUSH0 PUSH2 0x1CA6 DUP3 PUSH2 0x1C7D JUMP JUMPDEST SWAP1 POP SWAP2 SWAP1 POP JUMP JUMPDEST PUSH2 0x1CB6 DUP2 PUSH2 0x1C9C JUMP JUMPDEST DUP3 MSTORE POP POP JUMP JUMPDEST PUSH0 PUSH1 0x20 DUP3 ADD SWAP1 POP PUSH2 0x1CCF PUSH0 DUP4 ADD DUP5 PUSH2 0x1CAD JUMP JUMPDEST SWAP3 SWAP2 POP POP JUMP JUMPDEST PUSH2 0x1CDE DUP2 PUSH2 0x1C9C JUMP JUMPDEST DUP2 EQ PUSH2 0x1CE8 JUMPI PUSH0 PUSH0 REVERT JUMPDEST POP JUMP JUMPDEST PUSH0 DUP2 CALLDATALOAD SWAP1 POP PUSH2 0x1CF9 DUP2 PUSH2 0x1CD5 JUMP JUMPDEST SWAP3 SWAP2 POP POP JUMP JUMPDEST PUSH0 PUSH0 PUSH1 0x40 DUP4 DUP6 SUB SLT ISZERO PUSH2 0x1D15 JUMPI PUSH2 0x1D14 PUSH2 0x1516 JUMP JUMPDEST JUMPDEST PUSH0 PUSH2 0x1D22 DUP6 DUP3 DUP7 ADD PUSH2 0x175B JUMP JUMPDEST SWAP3 POP POP PUSH1 0x20 PUSH2 0x1D33 DUP6 DUP3 DUP7 ADD PUSH2 0x1CEB JUMP JUMPDEST SWAP2 POP POP SWAP3 POP SWAP3 SWAP1 POP JUMP JUMPDEST PUSH0 PUSH1 0x20 DUP3 ADD SWAP1 POP PUSH2 0x1D50 PUSH0 DUP4 ADD DUP5 PUSH2 0x1923 JUMP JUMPDEST SWAP3 SWAP2 POP POP JUMP JUMPDEST PUSH0 PUSH1 0x80 DUP3 ADD SWAP1 POP PUSH2 0x1D69 PUSH0 DUP4 ADD DUP8 PUSH2 0x1827 JUMP JUMPDEST DUP2 DUP2 SUB PUSH1 0x20 DUP4 ADD MSTORE PUSH2 0x1D7B DUP2 DUP7 PUSH2 0x18E0 JUMP JUMPDEST SWAP1 POP PUSH2 0x1D8A PUSH1 0x40 DUP4 ADD DUP6 PUSH2 0x1827 JUMP JUMPDEST PUSH2 0x1D97 PUSH1 0x60 DUP4 ADD DUP5 PUSH2 0x1923 JUMP JUMPDEST SWAP6 SWAP5 POP POP POP POP POP JUMP JUMPDEST PUSH0 PUSH1 0x40 DUP3 ADD SWAP1 POP DUP2 DUP2 SUB PUSH0 DUP4 ADD MSTORE PUSH2 0x1DB8 DUP2 DUP6 PUSH2 0x1AF4 JUMP JUMPDEST SWAP1 POP DUP2 DUP2 SUB PUSH1 0x20 DUP4 ADD MSTORE PUSH2 0x1DCC DUP2 DUP5 PUSH2 0x1A08 JUMP JUMPDEST SWAP1 POP SWAP4 SWAP3 POP POP POP JUMP JUMPDEST PUSH32 0x48616E7961206F776E65722079616E672062697361206D656C616B756B616E20 PUSH0 DUP3 ADD MSTORE PUSH32 0x696E690000000000000000000000000000000000000000000000000000000000 PUSH1 0x20 DUP3 ADD MSTORE POP JUMP JUMPDEST PUSH0 PUSH2 0x1E2F PUSH1 0x23 DUP4 PUSH2 0x18C2 JUMP JUMPDEST SWAP2 POP PUSH2 0x1E3A DUP3 PUSH2 0x1DD5 JUMP JUMPDEST PUSH1 0x40 DUP3 ADD SWAP1 POP SWAP2 SWAP1 POP JUMP JUMPDEST PUSH0 PUSH1 0x20 DUP3 ADD SWAP1 POP DUP2 DUP2 SUB PUSH0 DUP4 ADD MSTORE PUSH2 0x1E5C DUP2 PUSH2 0x1E23 JUMP JUMPDEST SWAP1 POP SWAP2 SWAP1 POP JUMP JUMPDEST PUSH32 0x4A7564756C20746964616B20626F6C6568206B6F736F6E670000000000000000 PUSH0 DUP3 ADD MSTORE POP JUMP JUMPDEST PUSH0 PUSH2 0x1E97 PUSH1 0x18 DUP4 PUSH2 0x18C2 JUMP JUMPDEST SWAP2 POP PUSH2 0x1EA2 DUP3 PUSH2 0x1E63 JUMP JUMPDEST PUSH1 0x20 DUP3 ADD SWAP1 POP SWAP2 SWAP1 POP JUMP JUMPDEST PUSH0 PUSH1 0x20 DUP3 ADD SWAP1 POP DUP2 DUP2 SUB PUSH0 DUP4 ADD MSTORE PUSH2 0x1EC4 DUP2 PUSH2 0x1E8B JUMP JUMPDEST SWAP1 POP SWAP2 SWAP1 POP JUMP JUMPDEST PUSH32 0x4D696E696D616C20322070696C6968616E2064697065726C756B616E00000000 PUSH0 DUP3 ADD MSTORE POP JUMP JUMPDEST PUSH0 PUSH2 0x1EFF PUSH1 0x1C DUP4 PUSH2 0x18C2 JUMP JUMPDEST SWAP2 POP PUSH2 0x1F0A DUP3 PUSH2 0x1ECB JUMP JUMPDEST PUSH1 0x20 DUP3 ADD SWAP1 POP SWAP2 SWAP1 POP JUMP JUMPDEST PUSH0 PUSH1 0x20 DUP3 ADD SWAP1 POP DUP2 DUP2 SUB PUSH0 DUP4 ADD MSTORE PUSH2 0x1F2C DUP2 PUSH2 0x1EF3 JUMP JUMPDEST SWAP1 POP SWAP2 SWAP1 POP JUMP JUMPDEST PUSH32 0x4D616B73696D616C2031302070696C6968616E00000000000000000000000000 PUSH0 DUP3 ADD MSTORE POP JUMP JUMPDEST PUSH0 PUSH2 0x1F67 PUSH1 0x13 DUP4 PUSH2 0x18C2 JUMP JUMPDEST SWAP2 POP PUSH2 0x1F72 DUP3 PUSH2 0x1F33 JUMP JUMPDEST PUSH1 0x20 DUP3 ADD SWAP1 POP SWAP2 SWAP1 POP JUMP JUMPDEST PUSH0 PUSH1 0x20 DUP3 ADD SWAP1 POP DUP2 DUP2 SUB PUSH0 DUP4 ADD MSTORE PUSH2 0x1F94 DUP2 PUSH2 0x1F5B JUMP JUMPDEST SWAP1 POP SWAP2 SWAP1 POP JUMP JUMPDEST PUSH32 0x4E487B7100000000000000000000000000000000000000000000000000000000 PUSH0 MSTORE PUSH1 0x11 PUSH1 0x4 MSTORE PUSH1 0x24 PUSH0 REVERT JUMPDEST PUSH0 PUSH2 0x1FD2 DUP3 PUSH2 0x173C JUMP JUMPDEST SWAP2 POP PUSH32 0xFFFFFFFFFFFFFFFFFFFFFFFFFFFFFFFFFFFFFFFFFFFFFFFFFFFFFFFFFFFFFFFF DUP3 SUB PUSH2 0x2004 JUMPI PUSH2 0x2003 PUSH2 0x1F9B JUMP JUMPDEST JUMPDEST PUSH1 0x1 DUP3 ADD SWAP1 POP SWAP2 SWAP1 POP JUMP JUMPDEST PUSH32 0x4E487B7100000000000000000000000000000000000000000000000000000000 PUSH0 MSTORE PUSH1 0x22 PUSH1 0x4 MSTORE PUSH1 0x24 PUSH0 REVERT JUMPDEST PUSH0 PUSH1 0x2 DUP3 DIV SWAP1 POP PUSH1 0x1 DUP3 AND DUP1 PUSH2 0x2053 JUMPI PUSH1 0x7F DUP3 AND SWAP2 POP JUMPDEST PUSH1 0x20 DUP3 LT DUP2 SUB PUSH2 0x2066 JUMPI PUSH2 0x2065 PUSH2 0x200F JUMP JUMPDEST JUMPDEST POP SWAP2 SWAP1 POP JUMP JUMPDEST PUSH0 DUP2 SWAP1 POP DUP2 PUSH0 MSTORE PUSH1 0x20 PUSH0 KECCAK256 SWAP1 POP SWAP2 SWAP1 POP JUMP JUMPDEST PUSH0 PUSH1 0x20 PUSH1 0x1F DUP4 ADD DIV SWAP1 POP SWAP2 SWAP1 POP JUMP JUMPDEST PUSH0 DUP3 DUP3 SHL SWAP1 POP SWAP3 SWAP2 POP POP JUMP JUMPDEST PUSH0 PUSH1 0x8 DUP4 MUL PUSH2 0x20C8 PUSH32 0xFFFFFFFFFFFFFFFFFFFFFFFFFFFFFFFFFFFFFFFFFFFFFFFFFFFFFFFFFFFFFFFF DUP3 PUSH2 0x208D JUMP JUMPDEST PUSH2 0x20D2 DUP7 DUP4 PUSH2 0x208D JUMP JUMPDEST SWAP6 POP DUP1 NOT DUP5 AND SWAP4 POP DUP1 DUP7 AND DUP5 OR SWAP3 POP POP POP SWAP4 SWAP3 POP POP POP JUMP JUMPDEST PUSH0 DUP2 SWAP1 POP SWAP2 SWAP1 POP JUMP JUMPDEST PUSH0 PUSH2 0x210D PUSH2 0x2108 PUSH2 0x2103 DUP5 PUSH2 0x173C JUMP JUMPDEST PUSH2 0x20EA JUMP JUMPDEST PUSH2 0x173C JUMP JUMPDEST SWAP1 POP SWAP2 SWAP1 POP JUMP JUMPDEST PUSH0 DUP2 SWAP1 POP SWAP2 SWAP1 POP JUMP JUMPDEST PUSH2 0x2126 DUP4 PUSH2 0x20F3 JUMP JUMPDEST PUSH2 0x213A PUSH2 0x2132 DUP3 PUSH2 0x2114 JUMP JUMPDEST DUP5 DUP5 SLOAD PUSH2 0x2099 JUMP JUMPDEST DUP3 SSTORE POP POP POP POP JUMP JUMPDEST PUSH0 PUSH0 SWAP1 POP SWAP1 JUMP JUMPDEST PUSH2 0x2151 PUSH2 0x2142 JUMP JUMPDEST PUSH2 0x215C DUP2 DUP5 DUP5 PUSH2 0x211D JUMP JUMPDEST POP POP POP JUMP JUMPDEST PUSH0 JUMPDEST DUP3 DUP2 LT ISZERO PUSH2 0x2182 JUMPI PUSH2 0x2177 PUSH0 DUP3 DUP5 ADD PUSH2 0x2149 JUMP JUMPDEST PUSH1 0x1 DUP2 ADD SWAP1 POP PUSH2 0x2163 JUMP JUMPDEST POP POP POP JUMP JUMPDEST PUSH1 0x1F DUP3 GT ISZERO PUSH2 0x21D5 JUMPI DUP3 DUP3 GT ISZERO PUSH2 0x21D4 JUMPI PUSH2 0x21A1 DUP2 PUSH2 0x206C JUMP JUMPDEST PUSH2 0x21AA DUP4 PUSH2 0x207E JUMP JUMPDEST PUSH2 0x21B3 DUP6 PUSH2 0x207E JUMP JUMPDEST PUSH1 0x20 DUP7 LT ISZERO PUSH2 0x21C0 JUMPI PUSH0 SWAP1 POP JUMPDEST DUP1 DUP4 ADD PUSH2 0x21CF DUP3 DUP5 SUB DUP3 PUSH2 0x2161 JUMP JUMPDEST POP POP POP POP JUMPDEST JUMPDEST POP POP POP JUMP JUMPDEST PUSH0 DUP3 DUP3 SHR SWAP1 POP SWAP3 SWAP2 POP POP JUMP JUMPDEST PUSH0 PUSH2 0x21F5 PUSH0 NOT DUP5 PUSH1 0x8 MUL PUSH2 0x21DA JUMP JUMPDEST NOT DUP1 DUP4 AND SWAP2 POP POP SWAP3 SWAP2 POP POP JUMP JUMPDEST PUSH0 PUSH2 0x220D DUP4 DUP4 PUSH2 0x21E6 JUMP JUMPDEST SWAP2 POP DUP3 PUSH1 0x2 MUL DUP3 OR SWAP1 POP SWAP3 SWAP2 POP POP JUMP JUMPDEST PUSH2 0x2226 DUP3 PUSH2 0x18B8 JUMP JUMPDEST PUSH8 0xFFFFFFFFFFFFFFFF DUP2 GT ISZERO PUSH2 0x223F JUMPI PUSH2 0x223E PUSH2 0x1536 JUMP JUMPDEST JUMPDEST PUSH2 0x2249 DUP3 SLOAD PUSH2 0x203C JUMP JUMPDEST PUSH2 0x2254 DUP3 DUP3 DUP6 PUSH2 0x2187 JUMP JUMPDEST PUSH0 PUSH1 0x20 SWAP1 POP PUSH1 0x1F DUP4 GT PUSH1 0x1 DUP2 EQ PUSH2 0x2285 JUMPI PUSH0 DUP5 ISZERO PUSH2 0x2273 JUMPI DUP3 DUP8 ADD MLOAD SWAP1 POP JUMPDEST PUSH2 0x227D DUP6 DUP3 PUSH2 0x2202 JUMP JUMPDEST DUP7 SSTORE POP PUSH2 0x22E4 JUMP JUMPDEST PUSH1 0x1F NOT DUP5 AND PUSH2 0x2293 DUP7 PUSH2 0x206C JUMP JUMPDEST PUSH0 JUMPDEST DUP3 DUP2 LT ISZERO PUSH2 0x22BA JUMPI DUP5 DUP10 ADD MLOAD DUP3 SSTORE PUSH1 0x1 DUP3 ADD SWAP2 POP PUSH1 0x20 DUP6 ADD SWAP5 POP PUSH1 0x20 DUP2 ADD SWAP1 POP PUSH2 0x2295 JUMP JUMPDEST DUP7 DUP4 LT ISZERO PUSH2 0x22D7 JUMPI DUP5 DUP10 ADD MLOAD PUSH2 0x22D3 PUSH1 0x1F DUP10 AND DUP3 PUSH2 0x21E6 JUMP JUMPDEST DUP4 SSTORE POP JUMPDEST PUSH1 0x1 PUSH1 0x2 DUP9 MUL ADD DUP9 SSTORE POP POP POP JUMPDEST POP POP POP POP POP POP JUMP JUMPDEST PUSH0 PUSH2 0x22F6 DUP3 PUSH2 0x173C JUMP JUMPDEST SWAP2 POP PUSH2 0x2301 DUP4 PUSH2 0x173C JUMP JUMPDEST SWAP3 POP DUP3 DUP3 MUL PUSH2 0x230F DUP2 PUSH2 0x173C JUMP JUMPDEST SWAP2 POP DUP3 DUP3 DIV DUP5 EQ DUP4 ISZERO OR PUSH2 0x2326 JUMPI PUSH2 0x2325 PUSH2 0x1F9B JUMP JUMPDEST JUMPDEST POP SWAP3 SWAP2 POP POP JUMP JUMPDEST PUSH0 PUSH2 0x2337 DUP3 PUSH2 0x173C JUMP JUMPDEST SWAP2 POP PUSH2 0x2342 DUP4 PUSH2 0x173C JUMP JUMPDEST SWAP3 POP DUP3 DUP3 ADD SWAP1 POP DUP1 DUP3 GT ISZERO PUSH2 0x235A JUMPI PUSH2 0x2359 PUSH2 0x1F9B JUMP JUMPDEST JUMPDEST SWAP3 SWAP2 POP POP JUMP JUMPDEST PUSH32 0x4E487B7100000000000000000000000000000000000000000000000000000000 PUSH0 MSTORE PUSH1 0x32 PUSH1 0x4 MSTORE PUSH1 0x24 PUSH0 REVERT JUMPDEST PUSH32 0x4E616D612070696C6968616E20746964616B20626F6C6568206B6F736F6E6700 PUSH0 DUP3 ADD MSTORE POP JUMP JUMPDEST PUSH0 PUSH2 0x23C1 PUSH1 0x1F DUP4 PUSH2 0x18C2 JUMP JUMPDEST SWAP2 POP PUSH2 0x23CC DUP3 PUSH2 0x238D JUMP JUMPDEST PUSH1 0x20 DUP3 ADD SWAP1 POP SWAP2 SWAP1 POP JUMP JUMPDEST PUSH0 PUSH1 0x20 DUP3 ADD SWAP1 POP DUP2 DUP2 SUB PUSH0 DUP4 ADD MSTORE PUSH2 0x23EE DUP2 PUSH2 0x23B5 JUMP JUMPDEST SWAP1 POP SWAP2 SWAP1 POP JUMP JUMPDEST PUSH0 PUSH1 0x40 DUP3 ADD SWAP1 POP DUP2 DUP2 SUB PUSH0 DUP4 ADD MSTORE PUSH2 0x240D DUP2 DUP6 PUSH2 0x18E0 JUMP JUMPDEST SWAP1 POP PUSH2 0x241C PUSH1 0x20 DUP4 ADD DUP5 PUSH2 0x1827 JUMP JUMPDEST SWAP4 SWAP3 POP POP POP JUMP JUMPDEST PUSH32 0x494420766F74696E6720746964616B2076616C69640000000000000000000000 PUSH0 DUP3 ADD MSTORE POP JUMP JUMPDEST PUSH0 PUSH2 0x2457 PUSH1 0x15 DUP4 PUSH2 0x18C2 JUMP JUMPDEST SWAP2 POP PUSH2 0x2462 DUP3 PUSH2 0x2423 JUMP JUMPDEST PUSH1 0x20 DUP3 ADD SWAP1 POP SWAP2 SWAP1 POP JUMP JUMPDEST PUSH0 PUSH1 0x20 DUP3 ADD SWAP1 POP DUP2 DUP2 SUB PUSH0 DUP4 ADD MSTORE PUSH2 0x2484 DUP2 PUSH2 0x244B JUMP JUMPDEST SWAP1 POP SWAP2 SWAP1 POP JUMP JUMPDEST PUSH32 0x566F74696E672073756461682064697475747570000000000000000000000000 PUSH0 DUP3 ADD MSTORE POP JUMP JUMPDEST PUSH0 PUSH2 0x24BF PUSH1 0x14 DUP4 PUSH2 0x18C2 JUMP JUMPDEST SWAP2 POP PUSH2 0x24CA DUP3 PUSH2 0x248B JUMP JUMPDEST PUSH1 0x20 DUP3 ADD SWAP1 POP SWAP2 SWAP1 POP JUMP JUMPDEST PUSH0 PUSH1 0x20 DUP3 ADD SWAP1 POP DUP2 DUP2 SUB PUSH0 DUP4 ADD MSTORE PUSH2 0x24EC DUP2 PUSH2 0x24B3 JUMP JUMPDEST SWAP1 POP SWAP2 SWAP1 POP JUMP JUMPDEST PUSH32 0x57616B747520766F74696E672073756461682068616269730000000000000000 PUSH0 DUP3 ADD MSTORE POP JUMP JUMPDEST PUSH0 PUSH2 0x2527 PUSH1 0x18 DUP4 PUSH2 0x18C2 JUMP JUMPDEST SWAP2 POP PUSH2 0x2532 DUP3 PUSH2 0x24F3 JUMP JUMPDEST PUSH1 0x20 DUP3 ADD SWAP1 POP SWAP2 SWAP1 POP JUMP JUMPDEST PUSH0 PUSH1 0x20 DUP3 ADD SWAP1 POP DUP2 DUP2 SUB PUSH0 DUP4 ADD MSTORE PUSH2 0x2554 DUP2 PUSH2 0x251B JUMP JUMPDEST SWAP1 POP SWAP2 SWAP1 POP JUMP JUMPDEST PUSH32 0x416E6461207375646168206D656D626572696B616E2073756172612070616461 PUSH0 DUP3 ADD MSTORE PUSH32 0x20766F74696E6720696E69000000000000000000000000000000000000000000 PUSH1 0x20 DUP3 ADD MSTORE POP JUMP JUMPDEST PUSH0 PUSH2 0x25B5 PUSH1 0x2B DUP4 PUSH2 0x18C2 JUMP JUMPDEST SWAP2 POP PUSH2 0x25C0 DUP3 PUSH2 0x255B JUMP JUMPDEST PUSH1 0x40 DUP3 ADD SWAP1 POP SWAP2 SWAP1 POP JUMP JUMPDEST PUSH0 PUSH1 0x20 DUP3 ADD SWAP1 POP DUP2 DUP2 SUB PUSH0 DUP4 ADD MSTORE PUSH2 0x25E2 DUP2 PUSH2 0x25A9 JUMP JUMPDEST SWAP1 POP SWAP2 SWAP1 POP JUMP JUMPDEST PUSH32 0x49442070696C6968616E20746964616B2076616C696400000000000000000000 PUSH0 DUP3 ADD MSTORE POP JUMP JUMPDEST PUSH0 PUSH2 0x261D PUSH1 0x16 DUP4 PUSH2 0x18C2 JUMP JUMPDEST SWAP2 POP PUSH2 0x2628 DUP3 PUSH2 0x25E9 JUMP JUMPDEST PUSH1 0x20 DUP3 ADD SWAP1 POP SWAP2 SWAP1 POP JUMP JUMPDEST PUSH0 PUSH1 0x20 DUP3 ADD SWAP1 POP DUP2 DUP2 SUB PUSH0 DUP4 ADD MSTORE PUSH2 0x264A DUP2 PUSH2 0x2611 JUMP JUMPDEST SWAP1 POP SWAP2 SWAP1 POP JUMP JUMPDEST PUSH0 DUP2 SLOAD PUSH2 0x265D DUP2 PUSH2 0x203C JUMP JUMPDEST PUSH2 0x2667 DUP2 DUP7 PUSH2 0x18C2 JUMP JUMPDEST SWAP5 POP PUSH1 0x1 DUP3 AND PUSH0 DUP2 EQ PUSH2 0x2681 JUMPI PUSH1 0x1 DUP2 EQ PUSH2 0x2697 JUMPI PUSH2 0x26C9 JUMP JUMPDEST PUSH1 0xFF NOT DUP4 AND DUP7 MSTORE DUP2 ISZERO ISZERO PUSH1 0x20 MUL DUP7 ADD SWAP4 POP PUSH2 0x26C9 JUMP JUMPDEST PUSH2 0x26A0 DUP6 PUSH2 0x206C JUMP JUMPDEST PUSH0 JUMPDEST DUP4 DUP2 LT ISZERO PUSH2 0x26C1 JUMPI DUP2 SLOAD DUP2 DUP10 ADD MSTORE PUSH1 0x1 DUP3 ADD SWAP2 POP PUSH1 0x20 DUP2 ADD SWAP1 POP PUSH2 0x26A2 JUMP JUMPDEST DUP1 DUP9 ADD SWAP6 POP POP POP JUMPDEST POP POP POP SWAP3 SWAP2 POP POP JUMP JUMPDEST PUSH0 PUSH1 0x20 DUP3 ADD SWAP1 POP DUP2 DUP2 SUB PUSH0 DUP4 ADD MSTORE PUSH2 0x26EA DUP2 DUP5 PUSH2 0x2651 JUMP JUMPDEST SWAP1 POP SWAP3 SWAP2 POP POP JUMP JUMPDEST PUSH0 PUSH2 0x26FC DUP3 PUSH2 0x173C JUMP JUMPDEST SWAP2 POP PUSH2 0x2707 DUP4 PUSH2 0x173C JUMP JUMPDEST SWAP3 POP DUP3 DUP3 SUB SWAP1 POP DUP2 DUP2 GT ISZERO PUSH2 0x271F JUMPI PUSH2 0x271E PUSH2 0x1F9B JUMP JUMPDEST JUMPDEST SWAP3 SWAP2 POP POP JUMP JUMPDEST PUSH32 0x566F74696E67207375646168206469747574757020736562656C756D6E796100 PUSH0 DUP3 ADD MSTORE POP JUMP JUMPDEST PUSH0 PUSH2 0x2759 PUSH1 0x1F DUP4 PUSH2 0x18C2 JUMP JUMPDEST SWAP2 POP PUSH2 0x2764 DUP3 PUSH2 0x2725 JUMP JUMPDEST PUSH1 0x20 DUP3 ADD SWAP1 POP SWAP2 SWAP1 POP JUMP JUMPDEST PUSH0 PUSH1 0x20 DUP3 ADD SWAP1 POP DUP2 DUP2 SUB PUSH0 DUP4 ADD MSTORE PUSH2 0x2786 DUP2 PUSH2 0x274D JUMP JUMPDEST SWAP1 POP SWAP2 SWAP1 POP JUMP JUMPDEST PUSH0 PUSH1 0x40 DUP3 ADD SWAP1 POP DUP2 DUP2 SUB PUSH0 DUP4 ADD MSTORE PUSH2 0x27A5 DUP2 DUP6 PUSH2 0x2651 JUMP JUMPDEST SWAP1 POP PUSH2 0x27B4 PUSH1 0x20 DUP4 ADD DUP5 PUSH2 0x1827 JUMP JUMPDEST SWAP4 SWAP3 POP POP POP JUMP JUMPDEST PUSH0 PUSH1 0x60 DUP3 ADD SWAP1 POP PUSH2 0x27CE PUSH0 DUP4 ADD DUP7 PUSH2 0x1827 JUMP JUMPDEST DUP2 DUP2 SUB PUSH1 0x20 DUP4 ADD MSTORE PUSH2 0x27E0 DUP2 DUP6 PUSH2 0x2651 JUMP JUMPDEST SWAP1 POP PUSH2 0x27EF PUSH1 0x40 DUP4 ADD DUP5 PUSH2 0x1827 JUMP JUMPDEST SWAP5 SWAP4 POP POP POP POP JUMP JUMPDEST PUSH32 0x42656C756D206164612073756172612079616E67206D6173756B000000000000 PUSH0 DUP3 ADD MSTORE POP JUMP JUMPDEST PUSH0 PUSH2 0x282B PUSH1 0x1A DUP4 PUSH2 0x18C2 JUMP JUMPDEST SWAP2 POP PUSH2 0x2836 DUP3 PUSH2 0x27F7 JUMP JUMPDEST PUSH1 0x20 DUP3 ADD SWAP1 POP SWAP2 SWAP1 POP JUMP JUMPDEST PUSH0 PUSH1 0x20 DUP3 ADD SWAP1 POP DUP2 DUP2 SUB PUSH0 DUP4 ADD MSTORE PUSH2 0x2858 DUP2 PUSH2 0x281F JUMP JUMPDEST SWAP1 POP SWAP2 SWAP1 POP JUMP INVALID LOG2 PUSH5 0x6970667358 0x22 SLT KECCAK256 CALLVALUE 0xB8 DUP13 DATALOADN 0xB1A CALL EXTCODESIZE JUMPF 0x536C 0x2D 0x26 0xB6 PUSH0 MSTORE 0xD5 SWAP12 CODESIZE DELEGATECALL SWAP7 0xC0 CHAINID 0xC2 BYTE 0x4E 0xEB SWAP9 CALLDATACOPY 0x2D GASPRICE 0xB7 PUSH5 0x736F6C6343 STOP ADDMOD 0x22 STOP CALLER "
				},
				"gasEstimates": {
					"creation": {
						"codeDepositCost": "2077800",
						"executionCost": "26469",
						"totalCost": "2104269"
					},
					"external": {
						"berikanSuara(uint256,uint256)": "infinite",
						"buatVoting(string,string,string[],uint256)": "infinite",
						"daftarSemuaVoting()": "infinite",
						"infoVoting(uint256)": "infinite",
						"jumlahVoting()": "2448",
						"lihatHasil(uint256)": "infinite",
						"owner()": "2529",
						"pemenangSementara(uint256)": "infinite",
						"sudahVoting(uint256,address)": "5327",
						"tutupVoting(uint256)": "infinite"
					},
					"internal": {
						"_cariPemenang(uint256)": "infinite",
						"_cekSeri(uint256,uint256)": "infinite"
					}
				},
				"methodIdentifiers": {
					"berikanSuara(uint256,uint256)": "3b4b375a",
					"buatVoting(string,string,string[],uint256)": "1ba2ff0a",
					"daftarSemuaVoting()": "5c7f1b3f",
					"infoVoting(uint256)": "503c6124",
					"jumlahVoting()": "2189083e",
					"lihatHasil(uint256)": "f87e56b2",
					"owner()": "8da5cb5b",
					"pemenangSementara(uint256)": "a3c5e01c",
					"sudahVoting(uint256,address)": "905775f3",
					"tutupVoting(uint256)": "6b2e5374"
				}
			},
			"storageLayout": {
				"storage": [
					{
						"astId": 32,
						"contract": "EVotingLingkungan.sol:EVotingLingkungan",
						"label": "owner",
						"offset": 0,
						"slot": "0",
						"type": "t_address"
					},
					{
						"astId": 34,
						"contract": "EVotingLingkungan.sol:EVotingLingkungan",
						"label": "jumlahVoting",
						"offset": 0,
						"slot": "1",
						"type": "t_uint256"
					},
					{
						"astId": 39,
						"contract": "EVotingLingkungan.sol:EVotingLingkungan",
						"label": "daftarVoting",
						"offset": 0,
						"slot": "2",
						"type": "t_mapping(t_uint256,t_struct(Voting)30_storage)"
					}
				],
				"types": {
					"t_address": {
						"encoding": "inplace",
						"label": "address",
						"numberOfBytes": "20"
					},
					"t_array(t_struct(Pilihan)7_storage)dyn_storage": {
						"base": "t_struct(Pilihan)7_storage",
						"encoding": "dynamic_array",
						"label": "struct EVotingLingkungan.Pilihan[]",
						"numberOfBytes": "32"
					},
					"t_bool": {
						"encoding": "inplace",
						"label": "bool",
						"numberOfBytes": "1"
					},
					"t_mapping(t_address,t_bool)": {
						"encoding": "mapping",
						"key": "t_address",
						"label": "mapping(address => bool)",
						"numberOfBytes": "32",
						"value": "t_bool"
					},
					"t_mapping(t_uint256,t_struct(Voting)30_storage)": {
						"encoding": "mapping",
						"key": "t_uint256",
						"label": "mapping(uint256 => struct EVotingLingkungan.Voting)",
						"numberOfBytes": "32",
						"value": "t_struct(Voting)30_storage"
					},
					"t_string_storage": {
						"encoding": "bytes",
						"label": "string",
						"numberOfBytes": "32"
					},
					"t_struct(Pilihan)7_storage": {
						"encoding": "inplace",
						"label": "struct EVotingLingkungan.Pilihan",
						"members": [
							{
								"astId": 4,
								"contract": "EVotingLingkungan.sol:EVotingLingkungan",
								"label": "nama",
								"offset": 0,
								"slot": "0",
								"type": "t_string_storage"
							},
							{
								"astId": 6,
								"contract": "EVotingLingkungan.sol:EVotingLingkungan",
								"label": "jumlahSuara",
								"offset": 0,
								"slot": "1",
								"type": "t_uint256"
							}
						],
						"numberOfBytes": "64"
					},
					"t_struct(Voting)30_storage": {
						"encoding": "inplace",
						"label": "struct EVotingLingkungan.Voting",
						"members": [
							{
								"astId": 9,
								"contract": "EVotingLingkungan.sol:EVotingLingkungan",
								"label": "id",
								"offset": 0,
								"slot": "0",
								"type": "t_uint256"
							},
							{
								"astId": 11,
								"contract": "EVotingLingkungan.sol:EVotingLingkungan",
								"label": "judul",
								"offset": 0,
								"slot": "1",
								"type": "t_string_storage"
							},
							{
								"astId": 13,
								"contract": "EVotingLingkungan.sol:EVotingLingkungan",
								"label": "deskripsi",
								"offset": 0,
								"slot": "2",
								"type": "t_string_storage"
							},
							{
								"astId": 17,
								"contract": "EVotingLingkungan.sol:EVotingLingkungan",
								"label": "pilihan",
								"offset": 0,
								"slot": "3",
								"type": "t_array(t_struct(Pilihan)7_storage)dyn_storage"
							},
							{
								"astId": 19,
								"contract": "EVotingLingkungan.sol:EVotingLingkungan",
								"label": "aktif",
								"offset": 0,
								"slot": "4",
								"type": "t_bool"
							},
							{
								"astId": 21,
								"contract": "EVotingLingkungan.sol:EVotingLingkungan",
								"label": "totalSuara",
								"offset": 0,
								"slot": "5",
								"type": "t_uint256"
							},
							{
								"astId": 23,
								"contract": "EVotingLingkungan.sol:EVotingLingkungan",
								"label": "waktuMulai",
								"offset": 0,
								"slot": "6",
								"type": "t_uint256"
							},
							{
								"astId": 25,
								"contract": "EVotingLingkungan.sol:EVotingLingkungan",
								"label": "waktuSelesai",
								"offset": 0,
								"slot": "7",
								"type": "t_uint256"
							},
							{
								"astId": 29,
								"contract": "EVotingLingkungan.sol:EVotingLingkungan",
								"label": "sudahVoting",
								"offset": 0,
								"slot": "8",
								"type": "t_mapping(t_address,t_bool)"
							}
						],
						"numberOfBytes": "288"
					},
					"t_uint256": {
						"encoding": "inplace",
						"label": "uint256",
						"numberOfBytes": "32"
					}
				}
			},
			"userdoc": {
				"kind": "user",
				"methods": {},
				"version": 1
			}
		}
	}
}