{
	"data": {
		"bytecode": {
			"linkReferences": {},
			"object": "6080604052348015600e575f5ffd5b50335f5f6101000a81548173ffffffffffffffffffffffffffffffffffffffff021916908373ffffffffffffffffffffffffffffffffffffffff1602179055506128958061005b5f395ff3fe608060405234801561000f575f5ffd5b506004361061009c575f3560e01c80636b2e5374116100645780636b2e53741461014d5780638da5cb5b14610169578063905775f314610187578063a3c5e01c146101b7578063f87e56b2146101ea5761009c565b80631ba2ff0a146100a05780632189083e146100bc5780633b4b375a146100da578063503c6124146100f65780635c7f1b3f1461012c575b5f5ffd5b6100ba60048036038101906100b5919061176f565b61021b565b005b6100c4610563565b6040516100d19190611836565b60405180910390f35b6100f460048036038101906100ef919061184f565b610569565b005b610110600480360381019061010b919061188d565b610881565b6040516101239796959493929190611932565b60405180910390f35b610134610a4d565b6040516101449493929190611c1e565b60405180910390f35b6101676004803603810190610162919061188d565b610d20565b005b610171610f41565b60405161017e9190611cbc565b60405180910390f35b6101a1600480360381019061019c9190611cff565b610f65565b6040516101ae9190611d3d565b60405180910390f35b6101d160048036038101906101cc919061188d565b61101c565b6040516101e19493929190611d56565b60405180910390f35b61020460048036038101906101ff919061188d565b6111ad565b604051610212929190611da0565b60405180910390f35b5f5f9054906101000a900473ffffffffffffffffffffffffffffffffffffffff1673ffffffffffffffffffffffffffffffffffffffff163373ffffffffffffffffffffffffffffffffffffffff16146102a9576040517f08c379a00000000000000000000000000000000000000000000000000000000081526004016102a090611e45565b60405180910390fd5b5f8451116102ec576040517f08c379a00000000000000000000000000000000000000000000000000000000081526004016102e390611ead565b60405180910390fd5b600282511015610331576040517f08c379a000000000000000000000000000000000000000000000000000000000815260040161032890611f15565b60405180910390fd5b600a82511115610376576040517f08c379a000000000000000000000000000000000000000000000000000000000815260040161036d90611f7d565b60405180910390fd5b60015f81548092919061038890611fc8565b91905055505f60025f60015481526020019081526020015f209050600154815f0181905550848160010190816103be919061221d565b50838160020190816103d0919061221d565b506001816004015f6101000a81548160ff0219169083151502179055505f81600501819055504281600601819055505f821161040c575f610426565b610e108261041a91906122ec565b42610425919061232d565b5b81600701819055505f5f90505b835181101561051f575f8482815181106104505761044f612360565b5b60200260200101515111610499576040517f08c379a0000000000000000000000000000000000000000000000000000000008152600401610490906123d7565b60405180910390fd5b8160030160405180604001604052808684815181106104bb576104ba612360565b5b602002602001015181526020015f815250908060018154018082558091505060019003905f5260205f2090600202015f909190919091505f820151815f019081610505919061221d565b506020820151816001015550508080600101915050610433565b506001547f8ddb0ec4ffe63388d893a796f8dd2ebbd1f0d8cfca1448552392c773364180ea86426040516105549291906123f5565b60405180910390a25050505050565b60015481565b815f8111801561057b57506001548111155b6105ba576040517f08c379a00000000000000000000000000000000000000000000000000000000081526004016105b19061246d565b60405180910390fd5b825f60025f8381526020019081526020015f209050806004015f9054906101000a900460ff1661061f576040517f08c379a0000000000000000000000000000000000000000000000000000000008152600401610616906124d5565b60405180910390fd5b5f81600701541115610673578060070154421115610672576040517f08c379a00000000000000000000000000000000000000000000000000000000081526004016106699061253d565b60405180910390fd5b5b5f60025f8781526020019081526020015f209050806008015f3373ffffffffffffffffffffffffffffffffffffffff1673ffffffffffffffffffffffffffffffffffffffff1681526020019081526020015f205f9054906101000a900460ff1615610713576040517f08c379a000000000000000000000000000000000000000000000000000000000815260040161070a906125cb565b60405180910390fd5b8060030180549050851061075c576040517f08c379a000000000000000000000000000000000000000000000000000000000815260040161075390612633565b60405180910390fd5b6001816008015f3373ffffffffffffffffffffffffffffffffffffffff1673ffffffffffffffffffffffffffffffffffffffff1681526020019081526020015f205f6101000a81548160ff0219169083151502179055508060030185815481106107c9576107c8612360565b5b905f5260205f2090600202016001015f8154809291906107e890611fc8565b9190505550806005015f81548092919061080190611fc8565b9190505550843373ffffffffffffffffffffffffffffffffffffffff16877f178dfb3ebe7b4de8e1fb48394530131d7f6389784a515ebb09ec3ed59d7924a484600301898154811061085657610855612360565b5b905f5260205f2090600202015f0160405161087191906126d2565b60405180910390a4505050505050565b6060805f5f5f5f5f875f8111801561089b57506001548111155b6108da576040517f08c379a00000000000000000000000000000000000000000000000000000000081526004016108d19061246d565b60405180910390fd5b5f60025f8b81526020019081526020015f2090508060010181600201826004015f9054906101000a900460ff16836005015484600601548560070154866003018054905086805461092a9061203c565b80601f01602080910402602001604051908101604052809291908181526020018280546109569061203c565b80156109a15780601f10610978576101008083540402835291602001916109a1565b820191905f5260205f20905b81548152906001019060200180831161098457829003601f168201915b505050505096508580546109b49061203c565b80601f01602080910402602001604051908101604052809291908181526020018280546109e09061203c565b8015610a2b5780601f10610a0257610100808354040283529160200191610a2b565b820191905f5260205f20905b815481529060010190602001808311610a0e57829003601f168201915b5050505050955098509850985098509850985098505050919395979092949650565b60608060608060015467ffffffffffffffff811115610a6f57610a6e611536565b5b604051908082528060200260200182016040528015610a9d5781602001602082028036833780820191505090505b50935060015467ffffffffffffffff811115610abc57610abb611536565b5b604051908082528060200260200182016040528015610aef57816020015b6060815260200190600190039081610ada5790505b50925060015467ffffffffffffffff811115610b0e57610b0d611536565b5b604051908082528060200260200182016040528015610b3c5781602001602082028036833780820191505090505b50915060015467ffffffffffffffff811115610b5b57610b5a611536565b5b604051908082528060200260200182016040528015610b895781602001602082028036833780820191505090505b5090505f600190505b6001548111610d19575f60025f8381526020019081526020015f209050805f015486600184610bc191906126f2565b81518110610bd257610bd1612360565b5b602002602001018181525050806001018054610bed9061203c565b80601f0160208091040260200160405190810160405280929190818152602001828054610c199061203c565b8015610c645780601f10610c3b57610100808354040283529160200191610c64565b820191905f5260205f20905b815481529060010190602001808311610c4757829003601f168201915b505050505085600184610c7791906126f2565b81518110610c8857610c87612360565b5b6020026020010181905250806004015f9054906101000a900460ff1684600184610cb291906126f2565b81518110610cc357610cc2612360565b5b602002602001019015159081151581525050806005015483600184610ce891906126f2565b81518110610cf957610cf8612360565b5b602002602001018181525050508080610d1190611fc8565b915050610b92565b5090919293565b5f5f9054906101000a900473ffffffffffffffffffffffffffffffffffffffff1673ffffffffffffffffffffffffffffffffffffffff163373ffffffffffffffffffffffffffffffffffffffff1614610dae576040517f08c379a0000000000000000000000000000000000000000000000000000000008152600401610da590611e45565b60405180910390fd5b805f81118015610dc057506001548111155b610dff576040517f08c379a0000000000000000000000000000000000000000000000000000000008152600401610df69061246d565b60405180910390fd5b5f60025f8481526020019081526020015f209050806004015f9054906101000a900460ff16610e63576040517f08c379a0000000000000000000000000000000000000000000000000000000008152600401610e5a9061276f565b60405180910390fd5b5f816004015f6101000a81548160ff021916908315150217905550827f1ef2aec11912a0b8a9e48fbd7689f454c66e116205599fd9dda9a277878b6bfa826001018360050154604051610eb792919061278d565b60405180910390a25f81600501541115610f3c575f5f610ed6856113ec565b91509150847febdb5148b12668f141c46f068fb8888bbf2d47b792526b801f1466f5bf51b27583856003018581548110610f1357610f12612360565b5b905f5260205f2090600202015f0184604051610f31939291906127bb565b60405180910390a250505b505050565b5f5f9054906101000a900473ffffffffffffffffffffffffffffffffffffffff1681565b5f825f81118015610f7857506001548111155b610fb7576040517f08c379a0000000000000000000000000000000000000000000000000000000008152600401610fae9061246d565b60405180910390fd5b60025f8581526020019081526020015f206008015f8473ffffffffffffffffffffffffffffffffffffffff1673ffffffffffffffffffffffffffffffffffffffff1681526020019081526020015f205f9054906101000a900460ff1691505092915050565b5f60605f5f845f8111801561103357506001548111155b611072576040517f08c379a00000000000000000000000000000000000000000000000000000000081526004016110699061246d565b60405180910390fd5b5f60025f8881526020019081526020015f2090505f8160050154116110cc576040517f08c379a00000000000000000000000000000000000000000000000000000000081526004016110c390612841565b60405180910390fd5b5f5f6110d7896113ec565b915091505f6110e68a83611489565b9050828460030184815481106110ff576110fe612360565b5b905f5260205f2090600202015f01838382805461111b9061203c565b80601f01602080910402602001604051908101604052809291908181526020018280546111479061203c565b80156111925780601f1061116957610100808354040283529160200191611192565b820191905f5260205f20905b81548152906001019060200180831161117557829003601f168201915b50505050509250985098509850985050505050509193509193565b606080825f811180156111c257506001548111155b611201576040517f08c379a00000000000000000000000000000000000000000000000000000000081526004016111f89061246d565b60405180910390fd5b5f60025f8681526020019081526020015f2090505f816003018054905090508067ffffffffffffffff81111561123a57611239611536565b5b60405190808252806020026020018201604052801561126d57816020015b60608152602001906001900390816112585790505b5094508067ffffffffffffffff81111561128a57611289611536565b5b6040519080825280602002602001820160405280156112b85781602001602082028036833780820191505090505b5093505f5f90505b818110156113e3578260030181815481106112de576112dd612360565b5b905f5260205f2090600202015f0180546112f79061203c565b80601f01602080910402602001604051908101604052809291908181526020018280546113239061203c565b801561136e5780601f106113455761010080835404028352916020019161136e565b820191905f5260205f20905b81548152906001019060200180831161135157829003601f168201915b505050505086828151811061138657611385612360565b5b60200260200101819052508260030181815481106113a7576113a6612360565b5b905f5260205f209060020201600101548582815181106113ca576113c9612360565b5b60200260200101818152505080806001019150506112c0565b50505050915091565b5f5f5f60025f8581526020019081526020015f2090505f91505f92505f5f90505b8160030180549050811015611482578282600301828154811061143357611432612360565b5b905f5260205f2090600202016001015411156114755781600301818154811061145f5761145e612360565b5b905f5260205f2090600202016001015492508093505b808060010191505061140d565b5050915091565b5f5f60025f8581526020019081526020015f2090505f5f90505f5f90505b82600301805490508110156114fe57848360030182815481106114cd576114cc612360565b5b905f5260205f20906002020160010154036114f15781806114ed90611fc8565b9250505b80806001019150506114a7565b50600181119250505092915050565b5f604051905090565b5f5ffd5b5f5ffd5b5f5ffd5b5f5ffd5b5f601f19601f8301169050919050565b7f4e487b71000000000000000000000000000000000000000000000000000000005f52604160045260245ffd5b61156c82611526565b810181811067ffffffffffffffff8211171561158b5761158a611536565b5b80604052505050565b5f61159d61150d565b90506115a98282611563565b919050565b5f67ffffffffffffffff8211156115c8576115c7611536565b5b6115d182611526565b9050602081019050919050565b828183375f83830152505050565b5f6115fe6115f9846115ae565b611594565b90508281526020810184848401111561161a57611619611522565b5b6116258482856115de565b509392505050565b5f82601f8301126116415761164061151e565b5b81356116518482602086016115ec565b91505092915050565b5f67ffffffffffffffff82111561167457611673611536565b5b602082029050602081019050919050565b5f5ffd5b5f61169b6116968461165a565b611594565b905080838252602082019050602084028301858111156116be576116bd611685565b5b835b8181101561170557803567ffffffffffffffff8111156116e3576116e261151e565b5b8086016116f0898261162d565b855260208501945050506020810190506116c0565b5050509392505050565b5f82601f8301126117235761172261151e565b5b8135611733848260208601611689565b91505092915050565b5f819050919050565b61174e8161173c565b8114611758575f5ffd5b50565b5f8135905061176981611745565b92915050565b5f5f5f5f6080858703121561178757611786611516565b5b5f85013567ffffffffffffffff8111156117a4576117a361151a565b5b6117b08782880161162d565b945050602085013567ffffffffffffffff8111156117d1576117d061151a565b5b6117dd8782880161162d565b935050604085013567ffffffffffffffff8111156117fe576117fd61151a565b5b61180a8782880161170f565b925050606061181b8782880161175b565b91505092959194509250565b6118308161173c565b82525050565b5f6020820190506118495f830184611827565b92915050565b5f5f6040838503121561186557611864611516565b5b5f6118728582860161175b565b92505060206118838582860161175b565b9150509250929050565b5f602082840312156118a2576118a1611516565b5b5f6118af8482850161175b565b91505092915050565b5f81519050919050565b5f82825260208201905092915050565b8281835e5f83830152505050565b5f6118ea826118b8565b6118f481856118c2565b93506119048185602086016118d2565b61190d81611526565b840191505092915050565b5f8115159050919050565b61192c81611918565b82525050565b5f60e0820190508181035f83015261194a818a6118e0565b9050818103602083015261195e81896118e0565b905061196d6040830188611923565b61197a6060830187611827565b6119876080830186611827565b61199460a0830185611827565b6119a160c0830184611827565b98975050505050505050565b5f81519050919050565b5f82825260208201905092915050565b5f819050602082019050919050565b6119df8161173c565b82525050565b5f6119f083836119d6565b60208301905092915050565b5f602082019050919050565b5f611a12826119ad565b611a1c81856119b7565b9350611a27836119c7565b805f5b83811015611a57578151611a3e88826119e5565b9750611a49836119fc565b925050600181019050611a2a565b5085935050505092915050565b5f81519050919050565b5f82825260208201905092915050565b5f819050602082019050919050565b5f82825260208201905092915050565b5f611aa7826118b8565b611ab18185611a8d565b9350611ac18185602086016118d2565b611aca81611526565b840191505092915050565b5f611ae08383611a9d565b905092915050565b5f602082019050919050565b5f611afe82611a64565b611b088185611a6e565b935083602082028501611b1a85611a7e565b805f5b85811015611b555784840389528151611b368582611ad5565b9450611b4183611ae8565b925060208a01995050600181019050611b1d565b50829750879550505050505092915050565b5f81519050919050565b5f82825260208201905092915050565b5f819050602082019050919050565b611b9981611918565b82525050565b5f611baa8383611b90565b60208301905092915050565b5f602082019050919050565b5f611bcc82611b67565b611bd68185611b71565b9350611be183611b81565b805f5b83811015611c11578151611bf88882611b9f565b9750611c0383611bb6565b925050600181019050611be4565b5085935050505092915050565b5f6080820190508181035f830152611c368187611a08565b90508181036020830152611c4a8186611af4565b90508181036040830152611c5e8185611bc2565b90508181036060830152611c728184611a08565b905095945050505050565b5f73ffffffffffffffffffffffffffffffffffffffff82169050919050565b5f611ca682611c7d565b9050919050565b611cb681611c9c565b82525050565b5f602082019050611ccf5f830184611cad565b92915050565b611cde81611c9c565b8114611ce8575f5ffd5b50565b5f81359050611cf981611cd5565b92915050565b5f5f60408385031215611d1557611d14611516565b5b5f611d228582860161175b565b9250506020611d3385828601611ceb565b9150509250929050565b5f602082019050611d505f830184611923565b92915050565b5f608082019050611d695f830187611827565b8181036020830152611d7b81866118e0565b9050611d8a6040830185611827565b611d976060830184611923565b95945050505050565b5f6040820190508181035f830152611db88185611af4565b90508181036020830152611dcc8184611a08565b90509392505050565b7f48616e7961206f776e65722079616e672062697361206d656c616b756b616e205f8201527f696e690000000000000000000000000000000000000000000000000000000000602082015250565b5f611e2f6023836118c2565b9150611e3a82611dd5565b604082019050919050565b5f6020820190508181035f830152611e5c81611e23565b9050919050565b7f4a7564756c20746964616b20626f6c6568206b6f736f6e6700000000000000005f82015250565b5f611e976018836118c2565b9150611ea282611e63565b602082019050919050565b5f6020820190508181035f830152611ec481611e8b565b9050919050565b7f4d696e696d616c20322070696c6968616e2064697065726c756b616e000000005f82015250565b5f611eff601c836118c2565b9150611f0a82611ecb565b602082019050919050565b5f6020820190508181035f830152611f2c81611ef3565b9050919050565b7f4d616b73696d616c2031302070696c6968616e000000000000000000000000005f82015250565b5f611f676013836118c2565b9150611f7282611f33565b602082019050919050565b5f6020820190508181035f830152611f9481611f5b565b9050919050565b7f4e487b71000000000000000000000000000000000000000000000000000000005f52601160045260245ffd5b5f611fd28261173c565b91507fffffffffffffffffffffffffffffffffffffffffffffffffffffffffffffffff820361200457612003611f9b565b5b600182019050919050565b7f4e487b71000000000000000000000000000000000000000000000000000000005f52602260045260245ffd5b5f600282049050600182168061205357607f821691505b6020821081036120665761206561200f565b5b50919050565b5f819050815f5260205f209050919050565b5f6020601f8301049050919050565b5f82821b905092915050565b5f600883026120c87fffffffffffffffffffffffffffffffffffffffffffffffffffffffffffffffff8261208d565b6120d2868361208d565b95508019841693508086168417925050509392505050565b5f819050919050565b5f61210d6121086121038461173c565b6120ea565b61173c565b9050919050565b5f819050919050565b612126836120f3565b61213a61213282612114565b848454612099565b825550505050565b5f5f905090565b612151612142565b61215c81848461211d565b505050565b5f5b82811015612182576121775f828401612149565b600181019050612163565b505050565b601f8211156121d557828211156121d4576121a18161206c565b6121aa8361207e565b6121b38561207e565b60208610156121c0575f90505b8083016121cf82840382612161565b505050505b5b505050565b5f82821c905092915050565b5f6121f55f19846008026121da565b1980831691505092915050565b5f61220d83836121e6565b9150826002028217905092915050565b612226826118b8565b67ffffffffffffffff81111561223f5761223e611536565b5b612249825461203c565b612254828285612187565b5f60209050601f831160018114612285575f8415612273578287015190505b61227d8582612202565b8655506122e4565b601f1984166122938661206c565b5f5b828110156122ba57848901518255600182019150602085019450602081019050612295565b868310156122d757848901516122d3601f8916826121e6565b8355505b6001600288020188555050505b505050505050565b5f6122f68261173c565b91506123018361173c565b925082820261230f8161173c565b9150828204841483151761232657612325611f9b565b5b5092915050565b5f6123378261173c565b91506123428361173c565b925082820190508082111561235a57612359611f9b565b5b92915050565b7f4e487b71000000000000000000000000000000000000000000000000000000005f52603260045260245ffd5b7f4e616d612070696c6968616e20746964616b20626f6c6568206b6f736f6e67005f82015250565b5f6123c1601f836118c2565b91506123cc8261238d565b602082019050919050565b5f6020820190508181035f8301526123ee816123b5565b9050919050565b5f6040820190508181035f83015261240d81856118e0565b905061241c6020830184611827565b9392505050565b7f494420766f74696e6720746964616b2076616c696400000000000000000000005f82015250565b5f6124576015836118c2565b915061246282612423565b602082019050919050565b5f6020820190508181035f8301526124848161244b565b9050919050565b7f566f74696e6720737564616820646974757475700000000000000000000000005f82015250565b5f6124bf6014836118c2565b91506124ca8261248b565b602082019050919050565b5f6020820190508181035f8301526124ec816124b3565b9050919050565b7f57616b747520766f74696e6720737564616820686162697300000000000000005f82015250565b5f6125276018836118c2565b9150612532826124f3565b602082019050919050565b5f6020820190508181035f8301526125548161251b565b9050919050565b7f416e6461207375646168206d656d626572696b616e20737561726120706164615f8201527f20766f74696e6720696e69000000000000000000000000000000000000000000602082015250565b5f6125b5602b836118c2565b91506125c08261255b565b604082019050919050565b5f6020820190508181035f8301526125e2816125a9565b9050919050565b7f49442070696c6968616e20746964616b2076616c6964000000000000000000005f82015250565b5f61261d6016836118c2565b9150612628826125e9565b602082019050919050565b5f6020820190508181035f83015261264a81612611565b9050919050565b5f815461265d8161203c565b61266781866118c2565b9450600182165f81146126815760018114612697576126c9565b60ff1983168652811515602002860193506126c9565b6126a08561206c565b5f5b838110156126c1578154818901526001820191506020810190506126a2565b808801955050505b50505092915050565b5f6020820190508181035f8301526126ea8184612651565b905092915050565b5f6126fc8261173c565b91506127078361173c565b925082820390508181111561271f5761271e611f9b565b5b92915050565b7f566f74696e67207375646168206469747574757020736562656c756d6e7961005f82015250565b5f612759601f836118c2565b915061276482612725565b602082019050919050565b5f6020820190508181035f8301526127868161274d565b9050919050565b5f6040820190508181035f8301526127a58185612651565b90506127b46020830184611827565b9392505050565b5f6060820190506127ce5f830186611827565b81810360208301526127e08185612651565b90506127ef6040830184611827565b949350505050565b7f42656c756d206164612073756172612079616e67206d6173756b0000000000005f82015250565b5f61282b601a836118c2565b9150612836826127f7565b602082019050919050565b5f6020820190508181035f8301526128588161281f565b905091905056fea264697066735822122034b88cd10b1af13be5536c2d26b65f52d59b38f496c046c21a4eeb98372d3ab764736f6c63430008220033",
			"opcodes": "PUSH1 0x80 PUSH1 0x40 MSTORE CALLVALUE DUP1 ISZERO PUSH1 0xE JUMPI PUSH0 PUSH0 REVERT JUMPDEST POP CALLER PUSH0 PUSH0 PUSH2 0x100 EXP DUP2 SLOAD DUP2 PUSH20 0xFFFFFFFFFFFFFFFFFFFFFFFFFFFFFFFFFFFFFFFF MUL NOT AND SWAP1 DUP4 PUSH20 0xFFFFFFFFFFFFFFFFFFFFFFFFFFFFFFFFFFFFFFFF AND MUL OR SWAP1 SSTORE POP PUSH2 0x2895 DUP1 PUSH2 0x5B PUSH0 CODECOPY PUSH0 RETURN INVALID PUSH1 0x80 PUSH1 0x40 MSTORE CALLVALUE DUP1 ISZERO PUSH2 0xF JUMPI PUSH0 PUSH0 REVERT JUMPDEST POP PUSH1 0x4 CALLDATASIZE LT PUSH2 0x9C JUMPI PUSH0 CALLDATALOAD PUSH1 0xE0 SHR DUP1 PUSH4 0x6B2E5374 GT PUSH2 0x64 JUMPI DUP1 PUSH4 0x6B2E5374 EQ PUSH2 0x14D JUMPI DUP1 PUSH4 0x8DA5CB5B EQ PUSH2 0x169 JUMPI DUP1 PUSH4 0x905775F3 EQ PUSH2 0x187 JUMPI DUP1 PUSH4 0xA3C5E01C EQ PUSH2 0x1B7 JUMPI DUP1 PUSH4 0xF87E56B2 EQ PUSH2 0x1EA JUMPI PUSH2 0x9C JUMP JUMPDEST DUP1 PUSH4 0x1BA2FF0A EQ PUSH2 0xA0 JUMPI DUP1 PUSH4 0x2189083E EQ PUSH2 0xBC JUMPI DUP1 PUSH4 0x3B4B375A EQ PUSH2 0xDA JUMPI DUP1 PUSH4 0x503C6124 EQ PUSH2 0xF6 JUMPI DUP1 PUSH4 0x5C7F1B3F EQ PUSH2 0x12C JUMPI JUMPDEST PUSH0 PUSH0 REVERT JUMPDEST PUSH2 0xBA PUSH1 0x4 DUP1 CALLDATASIZE SUB DUP2 ADD SWAP1 PUSH2 0xB5 SWAP2 SWAP1 PUSH2 0x176F JUMP JUMPDEST PUSH2 0x21B JUMP JUMPDEST STOP JUMPDEST PUSH2 0xC4 PUSH2 0x563 JUMP JUMPDEST PUSH1 0x40 MLOAD PUSH2 0xD1 SWAP2 SWAP1 PUSH2 0x1836 JUMP JUMPDEST PUSH1 0x40 MLOAD DUP1 SWAP2 SUB SWAP1 RETURN JUMPDEST PUSH2 0xF4 PUSH1 0x4 DUP1 CALLDATASIZE SUB DUP2 ADD SWAP1 PUSH2 0xEF SWAP2 SWAP1 PUSH2 0x184F JUMP JUMPDEST PUSH2 0x569 JUMP JUMPDEST STOP JUMPDEST PUSH2 0x110 PUSH1 0x4 DUP1 CALLDATASIZE SUB DUP2 ADD SWAP1 PUSH2 0x10B SWAP2 SWAP1 PUSH2 0x188D JUMP JUMPDEST PUSH2 0x881 JUMP JUMPDEST PUSH1 0x40 MLOAD PUSH2 0x123 SWAP8 SWAP7 SWAP6 SWAP5 SWAP4 SWAP3 SWAP2 SWAP1 PUSH2 0x1932 JUMP JUMPDEST PUSH1 0x40 MLOAD DUP1 SWAP2 SUB SWAP1 RETURN JUMPDEST PUSH2 0x134 PUSH2 0xA4D JUMP JUMPDEST PUSH1 0x40 MLOAD PUSH2 0x144 SWAP5 SWAP4 SWAP3 SWAP2 SWAP1 PUSH2 0x1C1E JUMP JUMPDEST PUSH1 0x40 MLOAD DUP1 SWAP2 SUB SWAP1 RETURN JUMPDEST PUSH2 0x167 PUSH1 0x4 DUP1 CALLDATASIZE SUB DUP2 ADD SWAP1 PUSH2 0x162 SWAP2 SWAP1 PUSH2 0x188D JUMP JUMPDEST PUSH2 0xD20 JUMP JUMPDEST STOP JUMPDEST PUSH2 0x171 PUSH2 0xF41 JUMP JUMPDEST PUSH1 0x40 MLOAD PUSH2 0x17E SWAP2 SWAP1 PUSH2 0x1CBC JUMP JUMPDEST PUSH1 0x40 MLOAD DUP1 SWAP2 SUB SWAP1 RETURN JUMPDEST PUSH2 0x1A1 PUSH1 0x4 DUP1 CALLDATASIZE SUB DUP2 ADD SWAP1 PUSH2 0x19C SWAP2 SWAP1 PUSH2 0x1CFF JUMP JUMPDEST PUSH2 0xF65 JUMP JUMPDEST PUSH1 0x40 MLOAD PUSH2 0x1AE SWAP2 SWAP1 PUSH2 0x1D3D JUMP JUMPDEST PUSH1 0x40 MLOAD DUP1 SWAP2 SUB SWAP1 RETURN JUMPDEST PUSH2 0x1D1 PUSH1 0x4 DUP1 CALLDATASIZE SUB DUP2 ADD SWAP1 PUSH2 0x1CC SWAP2 SWAP1 PUSH2 0x188D JUMP JUMPDEST PUSH2 0x101C JUMP JUMPDEST PUSH1 0x40 MLOAD PUSH2 0x1E1 SWAP5 SWAP4 SWAP3 SWAP2 SWAP1 PUSH2 0x1D56 JUMP JUMPDEST PUSH1 0x40 MLOAD DUP1 SWAP2 SUB SWAP1 RETURN JUMPDEST PUSH2 0x204 PUSH1 0x4 DUP1 CALLDATASIZE SUB DUP2 ADD SWAP1 PUSH2 0x1FF SWAP2 SWAP1 PUSH2 0x188D JUMP JUMPDEST PUSH2 0x11AD JUMP JUMPDEST PUSH1 0x40 MLOAD PUSH2 0x212 SWAP3 SWAP2 SWAP1 PUSH2 0x1DA0 JUMP JUMPDEST PUSH1 0x40 MLOAD DUP1 SWAP2 SUB SWAP1 RETURN JUMPDEST PUSH0 PUSH0 SWAP1 SLOAD SWAP1 PUSH2 0x100 EXP SWAP1 DIV PUSH20 0xFFFFFFFFFFFFFFFFFFFFFFFFFFFFFFFFFFFFFFFF AND PUSH20 0xFFFFFFFFFFFFFFFFFFFFFFFFFFFFFFFFFFFFFFFF AND CALLER PUSH20 0xFFFFFFFFFFFFFFFFFFFFFFFFFFFFFFFFFFFFFFFF AND EQ PUSH2 0x2A9 JUMPI PUSH1 0x40 MLOAD PUSH32 0x8C379A000000000000000000000000000000000000000000000000000000000 DUP2 MSTORE PUSH1 0x4 ADD PUSH2 0x2A0 SWAP1 PUSH2 0x1E45 JUMP JUMPDEST PUSH1 0x40 MLOAD DUP1 SWAP2 SUB SWAP1 REVERT JUMPDEST PUSH0 DUP5 MLOAD GT PUSH2 0x2EC JUMPI PUSH1 0x40 MLOAD PUSH32 0x8C379A000000000000000000000000000000000000000000000000000000000 DUP2 MSTORE PUSH1 0x4 ADD PUSH2 0x2E3 SWAP1 PUSH2 0x1EAD JUMP JUMPDEST PUSH1 0x40 MLOAD DUP1 SWAP2 SUB SWAP1 REVERT JUMPDEST PUSH1 0x2 DUP3 MLOAD LT ISZERO PUSH2 0x331 JUMPI PUSH1 0x40 MLOAD PUSH32 0x8C379A000000000000000000000000000000000000000000000000000000000 DUP2 MSTORE PUSH1 0x4 ADD PUSH2 0x328 SWAP1 PUSH2 0x1F15 JUMP JUMPDEST PUSH1 0x40 MLOAD DUP1 SWAP2 SUB SWAP1 REVERT JUMPDEST PUSH1 0xA DUP3 MLOAD GT ISZERO PUSH2 0x376 JUMPI PUSH1 0x40 MLOAD PUSH32 0x8C379A000000000000000000000000000000000000000000000000000000000 DUP2 MSTORE PUSH1 0x4 ADD PUSH2 0x36D SWAP1 PUSH2 0x1F7D JUMP JUMPDEST PUSH1 0x40 MLOAD DUP1 SWAP2 SUB SWAP1 REVERT JUMPDEST PUSH1 0x1 PUSH0 DUP2 SLOAD DUP1 SWAP3 SWAP2 SWAP1 PUSH2 0x388 SWAP1 PUSH2 0x1FC8 JUMP JUMPDEST SWAP2 SWAP1 POP SSTORE POP PUSH0 PUSH1 0x2 PUSH0 PUSH1 0x1 SLOAD DUP2 MSTORE PUSH1 0x20 ADD SWAP1 DUP2 MSTORE PUSH1 0x20 ADD PUSH0 KECCAK256 SWAP1 POP PUSH1 0x1 SLOAD DUP2 PUSH0 ADD DUP2 SWAP1 SSTORE POP DUP5 DUP2 PUSH1 0x1 ADD SWAP1 DUP2 PUSH2 0x3BE SWAP2 SWAP1 PUSH2 0x221D JUMP JUMPDEST POP DUP4 DUP2 PUSH1 0x2 ADD SWAP1 DUP2 PUSH2 0x3D0 SWAP2 SWAP1 PUSH2 0x221D JUMP JUMPDEST POP PUSH1 0x1 DUP2 PUSH1 0x4 ADD PUSH0 PUSH2 0x100 EXP DUP2 SLOAD DUP2 PUSH1 0xFF MUL NOT AND SWAP1 DUP4 ISZERO ISZERO MUL OR SWAP1 SSTORE POP PUSH0 DUP2 PUSH1 0x5 ADD DUP2 SWAP1 SSTORE POP TIMESTAMP DUP2 PUSH1 0x6 ADD DUP2 SWAP1 SSTORE POP PUSH0 DUP3 GT PUSH2 0x40C JUMPI PUSH0 PUSH2 0x426 JUMP JUMPDEST PUSH2 0xE10 DUP3 PUSH2 0x41A SWAP2 SWAP1 PUSH2 0x22EC JUMP JUMPDEST TIMESTAMP PUSH2 0x425 SWAP2 SWAP1 PUSH2 0x232D JUMP JUMPDEST JUMPDEST DUP2 PUSH1 0x7 ADD DUP2 SWAP1 SSTORE POP PUSH0 PUSH0 SWAP1 POP JUMPDEST DUP4 MLOAD DUP2 LT ISZERO PUSH2 0x51F JUMPI PUSH0 DUP5 DUP3 DUP2 MLOAD DUP2 LT PUSH2 0x450 JUMPI PUSH2 0x44F PUSH2 0x2360 JUMP JUMPDEST JUMPDEST PUSH1 0x20 MUL PUSH1 0x20 ADD ADD MLOAD MLOAD GT PUSH2 0x499 JUMPI PUSH1 0x40 MLOAD PUSH32 0x8C379A000000000000000000000000000000000000000000000000000000000 DUP2 MSTORE PUSH1 0x4 ADD PUSH2 0x490 SWAP1 PUSH2 0x23D7 JUMP JUMPDEST PUSH1 0x40 MLOAD DUP1 SWAP2 SUB SWAP1 REVERT JUMPDEST DUP2 PUSH1 0x3 ADD PUSH1 0x40 MLOAD DUP1 PUSH1 0x40 ADD PUSH1 0x40 MSTORE DUP1 DUP7 DUP5 DUP2 MLOAD DUP2 LT PUSH2 0x4BB JUMPI PUSH2 0x4BA PUSH2 0x2360 JUMP JUMPDEST JUMPDEST PUSH1 0x20 MUL PUSH1 0x20 ADD ADD MLOAD DUP2 MSTORE PUSH1 0x20 ADD PUSH0 DUP2 MSTORE POP SWAP1 DUP1 PUSH1 0x1 DUP2 SLOAD ADD DUP1 DUP3 SSTORE DUP1 SWAP2 POP POP PUSH1 0x1 SWAP1 SUB SWAP1 PUSH0 MSTORE PUSH1 0x20 PUSH0 KECCAK256 SWAP1 PUSH1 0x2 MUL ADD PUSH0 SWAP1 SWAP2 SWAP1 SWAP2 SWAP1 SWAP2 POP PUSH0 DUP3 ADD MLOAD DUP2 PUSH0 ADD SWAP1 DUP2 PUSH2 0x505 SWAP2 SWAP1 PUSH2 0x221D JUMP JUMPDEST POP PUSH1 0x20 DUP3 ADD MLOAD DUP2 PUSH1 0x1 ADD SSTORE POP POP DUP1 DUP1 PUSH1 0x1 ADD SWAP2 POP POP PUSH2 0x433 JUMP JUMPDEST POP PUSH1 0x1 SLOAD PUSH32 0x8DDB0EC4FFE63388D893A796F8DD2EBBD1F0D8CFCA1448552392C773364180EA DUP7 TIMESTAMP PUSH1 0x40 MLOAD PUSH2 0x554 SWAP3 SWAP2 SWAP1 PUSH2 0x23F5 JUMP JUMPDEST PUSH1 0x40 MLOAD DUP1 SWAP2 SUB SWAP1 LOG2 POP POP POP POP POP JUMP JUMPDEST PUSH1 0x1 SLOAD DUP2 JUMP JUMPDEST DUP2 PUSH0 DUP2 GT DUP1 ISZERO PUSH2 0x57B JUMPI POP PUSH1 0x1 SLOAD DUP2 GT ISZERO JUMPDEST PUSH2 0x5BA JUMPI PUSH1 0x40 MLOAD PUSH32 0x8C379A000000000000000000000000000000000000000000000000000000000 DUP2 MSTORE PUSH1 0x4 ADD PUSH2 0x5B1 SWAP1 PUSH2 0x246D JUMP JUMPDEST PUSH1 0x40 MLOAD DUP1 SWAP2 SUB SWAP1 REVERT JUMPDEST DUP3 PUSH0 PUSH1 0x2 PUSH0 DUP4 DUP2 MSTORE PUSH1 0x20 ADD SWAP1 DUP2 MSTORE PUSH1 0x20 ADD PUSH0 KECCAK256 SWAP1 POP DUP1 PUSH1 0x4 ADD PUSH0 SWAP1 SLOAD SWAP1 PUSH2 0x100 EXP SWAP1 DIV PUSH1 0xFF AND PUSH2 0x61F JUMPI PUSH1 0x40 MLOAD PUSH32 0x8C379A000000000000000000000000000000000000000000000000000000000 DUP2 MSTORE PUSH1 0x4 ADD PUSH2 0x616 SWAP1 PUSH2 0x24D5 JUMP JUMPDEST PUSH1 0x40 MLOAD DUP1 SWAP2 SUB SWAP1 REVERT JUMPDEST PUSH0 DUP2 PUSH1 0x7 ADD SLOAD GT ISZERO PUSH2 0x673 JUMPI DUP1 PUSH1 0x7 ADD SLOAD TIMESTAMP GT ISZERO PUSH2 0x672 JUMPI PUSH1 0x40 MLOAD PUSH32 0x8C379A000000000000000000000000000000000000000000000000000000000 DUP2 MSTORE PUSH1 0x4 ADD PUSH2 0x669 SWAP1 PUSH2 0x253D JUMP JUMPDEST PUSH1 0x40 MLOAD DUP1 SWAP2 SUB SWAP1 REVERT JUMPDEST JUMPDEST PUSH0 PUSH1 0x2 PUSH0 DUP8 DUP2 MSTORE PUSH1 0x20 ADD SWAP1 DUP2 MSTORE PUSH1 0x20 ADD PUSH0 KECCAK256 SWAP1 POP DUP1 PUSH1 0x8 ADD PUSH0 CALLER PUSH20 0xFFFFFFFFFFFFFFFFFFFFFFFFFFFFFFFFFFFFFFFF AND PUSH20 0xFFFFFFFFFFFFFFFFFFFFFFFFFFFFFFFFFFFFFFFF AND DUP2 MSTORE PUSH1 0x20 ADD SWAP1 DUP2 MSTORE PUSH1 0x20 ADD PUSH0 KECCAK256 PUSH0 SWAP1 SLOAD SWAP1 PUSH2 0x100 EXP SWAP1 DIV PUSH1 0xFF AND ISZERO PUSH2 0x713 JUMPI PUSH1 0x40 MLOAD PUSH32 0x8C379A000000000000000000000000000000000000000000000000000000000 DUP2 MSTORE PUSH1 0x4 ADD PUSH2 0x70A SWAP1 PUSH2 0x25CB JUMP JUMPDEST PUSH1 0x40 MLOAD DUP1 SWAP2 SUB SWAP1 REVERT JUMPDEST DUP1 PUSH1 0x3 ADD DUP1 SLOAD SWAP1 POP DUP6 LT PUSH2 0x75C JUMPI PUSH1 0x40 MLOAD PUSH32 0x8C379A000000000000000000000000000000000000000000000000000000000 DUP2 MSTORE PUSH1 0x4 ADD PUSH2 0x753 SWAP1 PUSH2 0x2633 JUMP JUMPDEST PUSH1 0x40 MLOAD DUP1 SWAP2 SUB SWAP1 REVERT JUMPDEST PUSH1 0x1 DUP2 PUSH1 0x8 ADD PUSH0 CALLER PUSH20 0xFFFFFFFFFFFFFFFFFFFFFFFFFFFFFFFFFFFFFFFF AND PUSH20 0xFFFFFFFFFFFFFFFFFFFFFFFFFFFFFFFFFFFFFFFF AND DUP2 MSTORE PUSH1 0x20 ADD SWAP1 DUP2 MSTORE PUSH1 0x20 ADD PUSH0 KECCAK256 PUSH0 PUSH2 0x100 EXP DUP2 SLOAD DUP2 PUSH1 0xFF MUL NOT AND SWAP1 DUP4 ISZERO ISZERO MUL OR SWAP1 SSTORE POP DUP1 PUSH1 0x3 ADD DUP6 DUP2 SLOAD DUP2 LT PUSH2 0x7C9 JUMPI PUSH2 0x7C8 PUSH2 0x2360 JUMP JUMPDEST JUMPDEST SWAP1 PUSH0 MSTORE PUSH1 0x20 PUSH0 KECCAK256 SWAP1 PUSH1 0x2 MUL ADD PUSH1 0x1 ADD PUSH0 DUP2 SLOAD DUP1 SWAP3 SWAP2 SWAP1 PUSH2 0x7E8 SWAP1 PUSH2 0x1FC8 JUMP JUMPDEST SWAP2 SWAP1 POP SSTORE POP DUP1 PUSH1 0x5 ADD PUSH0 DUP2 SLOAD DUP1 SWAP3 SWAP2 SWAP1 PUSH2 0x801 SWAP1 PUSH2 0x1FC8 JUMP JUMPDEST SWAP2 SWAP1 POP SSTORE POP DUP5 CALLER PUSH20 0xFFFFFFFFFFFFFFFFFFFFFFFFFFFFFFFFFFFFFFFF AND DUP8 PUSH32 0x178DFB3EBE7B4DE8E1FB48394530131D7F6389784A515EBB09EC3ED59D7924A4 DUP5 PUSH1 0x3 ADD DUP10 DUP2 SLOAD DUP2 LT PUSH2 0x856 JUMPI PUSH2 0x855 PUSH2 0x2360 JUMP JUMPDEST JUMPDEST SWAP1 PUSH0 MSTORE PUSH1 0x20 PUSH0 KECCAK256 SWAP1 PUSH1 0x2 MUL ADD PUSH0 ADD PUSH1 0x40 MLOAD PUSH2 0x871 SWAP2 SWAP1 PUSH2 0x26D2 JUMP JUMPDEST PUSH1 0x40 MLOAD DUP1 SWAP2 SUB SWAP1 LOG4 POP POP POP POP POP POP JUMP JUMPDEST PUSH1 0x60 DUP1 PUSH0 PUSH0 PUSH0 PUSH0 PUSH0 DUP8 PUSH0 DUP2 GT DUP1 ISZERO PUSH2 0x89B JUMPI POP PUSH1 0x1 SLOAD DUP2 GT ISZERO JUMPDEST PUSH2 0x8DA JUMPI PUSH1 0x40 MLOAD PUSH32 0x8C379A000000000000000000000000000000000000000000000000000000000 DUP2 MSTORE PUSH1 0x4 ADD PUSH2 0x8D1 SWAP1 PUSH2 0x246D JUMP JUMPDEST PUSH1 0x40 MLOAD DUP1 SWAP2 SUB SWAP1 REVERT JUMPDEST PUSH0 PUSH1 0x2 PUSH0 DUP12 DUP2 MSTORE PUSH1 0x20 ADD SWAP1 DUP2 MSTORE PUSH1 0x20 ADD PUSH0 KECCAK256 SWAP1 POP DUP1 PUSH1 0x1 ADD DUP2 PUSH1 0x2 ADD DUP3 PUSH1 0x4 ADD PUSH0 SWAP1 SLOAD SWAP1 PUSH2 0x100 EXP SWAP1 DIV PUSH1 0xFF AND DUP4 PUSH1 0x5 ADD SLOAD DUP5 PUSH1 0x6 ADD SLOAD DUP6 PUSH1 0x7 ADD SLOAD DUP7 PUSH1 0x3 ADD DUP1 SLOAD SWAP1 POP DUP7 DUP1 SLOAD PUSH2 0x92A SWAP1 PUSH2 0x203C JUMP JUMPDEST DUP1 PUSH1 0x1F ADD PUSH1 0x20 DUP1 SWAP2 DIV MUL PUSH1 0x20 ADD PUSH1 0x40 MLOAD SWAP1 DUP2 ADD PUSH1 0x40 MSTORE DUP1 SWAP3 SWAP2 SWAP1 DUP2 DUP2 MSTORE PUSH1 0x20 ADD DUP3 DUP1 SLOAD PUSH2 0x956 SWAP1 PUSH2 0x203C JUMP JUMPDEST DUP1 ISZERO PUSH2 0x9A1 JUMPI DUP1 PUSH1 0x1F LT PUSH2 0x978 JUMPI PUSH2 0x100 DUP1 DUP4 SLOAD DIV MUL DUP4 MSTORE SWAP2 PUSH1 0x20 ADD SWAP2 PUSH2 0x9A1 JUMP JUMPDEST DUP3 ADD SWAP2 SWAP1 PUSH0 MSTORE PUSH1 0x20 PUSH0 KECCAK256 SWAP1 JUMPDEST DUP2 SLOAD DUP2 MSTORE SWAP1 PUSH1 0x1 ADD SWAP1 PUSH1 0x20 ADD DUP1 DUP4 GT PUSH2 0x984 JUMPI DUP3 SWAP1 SUB PUSH1 0x1F AND DUP3 ADD SWAP2 JUMPDEST POP POP POP POP POP SWAP7 POP DUP6 DUP1 SLOAD PUSH2 0x9B4 SWAP1 PUSH2 0x203C JUMP JUMPDEST DUP1 PUSH1 0x1F ADD PUSH1 0x20 DUP1 SWAP2 DIV MUL PUSH1 0x20 ADD PUSH1 0x40 MLOAD SWAP1 DUP2 ADD PUSH1 0x40 MSTORE DUP1 SWAP3 SWAP2 SWAP1 DUP2 DUP2 MSTORE PUSH1 0x20 ADD DUP3 DUP1 SLOAD PUSH2 0x9E0 SWAP1 PUSH2 0x203C JUMP JUMPDEST DUP1 ISZERO PUSH2 0xA2B JUMPI DUP1 PUSH1 0x1F LT PUSH2 0xA02 JUMPI PUSH2 0x100 DUP1 DUP4 SLOAD DIV MUL DUP4 MSTORE SWAP2 PUSH1 0x20 ADD SWAP2 PUSH2 0xA2B JUMP JUMPDEST DUP3 ADD SWAP2 SWAP1 PUSH0 MSTORE PUSH1 0x20 PUSH0 KECCAK256 SWAP1 JUMPDEST DUP2 SLOAD DUP2 MSTORE SWAP1 PUSH1 0x1 ADD SWAP1 PUSH1 0x20 ADD DUP1 DUP4 GT PUSH2 0xA0E JUMPI DUP3 SWAP1 SUB PUSH1 0x1F AND DUP3 ADD SWAP2 JUMPDEST POP POP POP POP POP SWAP6 POP SWAP9 POP SWAP9 POP SWAP9 POP SWAP9 POP SWAP9 POP SWAP9 POP SWAP9 POP POP POP SWAP2 SWAP4 SWAP6 SWAP8 SWAP1 SWAP3 SWAP5 SWAP7 POP JUMP JUMPDEST PUSH1 0x60 DUP1 PUSH1 0x60 DUP1 PUSH1 0x1 SLOAD PUSH8 0xFFFFFFFFFFFFFFFF DUP2 GT ISZERO PUSH2 0xA6F JUMPI PUSH2 0xA6E PUSH2 0x1536 JUMP JUMPDEST JUMPDEST PUSH1 0x40 MLOAD SWAP1 DUP1 DUP3 MSTORE DUP1 PUSH1 0x20 MUL PUSH1 0x20 ADD DUP3 ADD PUSH1 0x40 MSTORE DUP1 ISZERO PUSH2 0xA9D JUMPI DUP2 PUSH1 0x20 ADD PUSH1 0x20 DUP3 MUL DUP1 CALLDATASIZE DUP4 CALLDATACOPY DUP1 DUP3 ADD SWAP2 POP POP SWAP1 POP JUMPDEST POP SWAP4 POP PUSH1 0x1 SLOAD PUSH8 0xFFFFFFFFFFFFFFFF DUP2 GT ISZERO PUSH2 0xABC JUMPI PUSH2 0xABB PUSH2 0x1536 JUMP JUMPDEST JUMPDEST PUSH1 0x40 MLOAD SWAP1 DUP1 DUP3 MSTORE DUP1 PUSH1 0x20 MUL PUSH1 0x20 ADD DUP3 ADD PUSH1 0x40 MSTORE DUP1 ISZERO PUSH2 0xAEF JUMPI DUP2 PUSH1 0x20 ADD JUMPDEST PUSH1 0x60 DUP2 MSTORE PUSH1 0x20 ADD SWAP1 PUSH1 0x1 SWAP1 SUB SWAP1 DUP2 PUSH2 0xADA JUMPI SWAP1 POP JUMPDEST POP SWAP3 POP PUSH1 0x1 SLOAD PUSH8 0xFFFFFFFFFFFFFFFF DUP2 GT ISZERO PUSH2 0xB0E JUMPI PUSH2 0xB0D PUSH2 0x1536 JUMP JUMPDEST JUMPDEST PUSH1 0x40 MLOAD SWAP1 DUP1 DUP3 MSTORE DUP1 PUSH1 0x20 MUL PUSH1 0x20 ADD DUP3 ADD PUSH1 0x40 MSTORE DUP1 ISZERO PUSH2 0xB3C JUMPI DUP2 PUSH1 0x20 ADD PUSH1 0x20 DUP3 MUL DUP1 CALLDATASIZE DUP4 CALLDATACOPY DUP1 DUP3 ADD SWAP2 POP POP SWAP1 POP JUMPDEST POP SWAP2 POP PUSH1 0x1 SLOAD PUSH8 0xFFFFFFFFFFFFFFFF DUP2 GT ISZERO PUSH2 0xB5B JUMPI PUSH2 0xB5A PUSH2 0x1536 JUMP JUMPDEST JUMPDEST PUSH1 0x40 MLOAD SWAP1 DUP1 DUP3 MSTORE DUP1 PUSH1 0x20 MUL PUSH1 0x20 ADD DUP3 ADD PUSH1 0x40 MSTORE DUP1 ISZERO PUSH2 0xB89 JUMPI DUP2 PUSH1 0x20 ADD PUSH1 0x20 DUP3 MUL DUP1 CALLDATASIZE DUP4 CALLDATACOPY DUP1 DUP3 ADD SWAP2 POP POP SWAP1 POP JUMPDEST POP SWAP1 POP PUSH0 PUSH1 0x1 SWAP1 POP JUMPDEST PUSH1 0x1 SLOAD DUP2 GT PUSH2 0xD19 JUMPI PUSH0 PUSH1 0x2 PUSH0 DUP4 DUP2 MSTORE PUSH1 0x20 ADD SWAP1 DUP2 MSTORE PUSH1 0x20 ADD PUSH0 KECCAK256 SWAP1 POP DUP1 PUSH0 ADD SLOAD DUP7 PUSH1 0x1 DUP5 PUSH2 0xBC1 SWAP2 SWAP1 PUSH2 0x26F2 JUMP JUMPDEST DUP2 MLOAD DUP2 LT PUSH2 0xBD2 JUMPI PUSH2 0xBD1 PUSH2 0x2360 JUMP JUMPDEST JUMPDEST PUSH1 0x20 MUL PUSH1 0x20 ADD ADD DUP2 DUP2 MSTORE POP POP DUP1 PUSH1 0x1 ADD DUP1 SLOAD PUSH2 0xBED SWAP1 PUSH2 0x203C JUMP JUMPDEST DUP1 PUSH1 0x1F ADD PUSH1 0x20 DUP1 SWAP2 DIV MUL PUSH1 0x20 ADD PUSH1 0x40 MLOAD SWAP1 DUP2 ADD PUSH1 0x40 MSTORE DUP1 SWAP3 SWAP2 SWAP1 DUP2 DUP2 MSTORE PUSH1 0x20 ADD DUP3 DUP1 SLOAD PUSH2 0xC19 SWAP1 PUSH2 0x203C JUMP JUMPDEST DUP1 ISZERO PUSH2 0xC64 JUMPI DUP1 PUSH1 0x1F LT PUSH2 0xC3B JUMPI PUSH2 0x100 DUP1 DUP4 SLOAD DIV MUL DUP4 MSTORE SWAP2 PUSH1 0x20 ADD SWAP2 PUSH2 0xC64 JUMP JUMPDEST DUP3 ADD SWAP2 SWAP1 PUSH0 MSTORE PUSH1 0x20 PUSH0 KECCAK256 SWAP1 JUMPDEST DUP2 SLOAD DUP2 MSTORE SWAP1 PUSH1 0x1 ADD SWAP1 PUSH1 0x20 ADD DUP1 DUP4 GT PUSH2 0xC47 JUMPI DUP3 SWAP1 SUB PUSH1 0x1F AND DUP3 ADD SWAP2 JUMPDEST POP POP POP POP POP DUP6 PUSH1 0x1 DUP5 PUSH2 0xC77 SWAP2 SWAP1 PUSH2 0x26F2 JUMP JUMPDEST DUP2 MLOAD DUP2 LT PUSH2 0xC88 JUMPI PUSH2 0xC87 PUSH2 0x2360 JUMP JUMPDEST JUMPDEST PUSH1 0x20 MUL PUSH1 0x20 ADD ADD DUP2 SWAP1 MSTORE POP DUP1 PUSH1 0x4 ADD PUSH0 SWAP1 SLOAD SWAP1 PUSH2 0x100 EXP SWAP1 DIV PUSH1 0xFF AND DUP5 PUSH1 0x1 DUP5 PUSH2 0xCB2 SWAP2 SWAP1 PUSH2 0x26F2 JUMP JUMPDEST DUP2 MLOAD DUP2 LT PUSH2 0xCC3 JUMPI PUSH2 0xCC2 PUSH2 0x2360 JUMP JUMPDEST JUMPDEST PUSH1 0x20 MUL PUSH1 0x20 ADD ADD SWAP1 ISZERO ISZERO SWAP1 DUP2 ISZERO ISZERO DUP2 MSTORE POP POP DUP1 PUSH1 0x5 ADD SLOAD DUP4 PUSH1 0x1 DUP5 PUSH2 0xCE8 SWAP2 SWAP1 PUSH2 0x26F2 JUMP JUMPDEST DUP2 MLOAD DUP2 LT PUSH2 0xCF9 JUMPI PUSH2 0xCF8 PUSH2 0x2360 JUMP JUMPDEST JUMPDEST PUSH1 0x20 MUL PUSH1 0x20 ADD ADD DUP2 DUP2 MSTORE POP POP POP DUP1 DUP1 PUSH2 0xD11 SWAP1 PUSH2 0x1FC8 JUMP JUMPDEST SWAP2 POP POP PUSH2 0xB92 JUMP JUMPDEST POP SWAP1 SWAP2 SWAP3 SWAP4 JUMP JUMPDEST PUSH0 PUSH0 SWAP1 SLOAD SWAP1 PUSH2 0x100 EXP SWAP1 DIV PUSH20 0xFFFFFFFFFFFFFFFFFFFFFFFFFFFFFFFFFFFFFFFF AND PUSH20 0xFFFFFFFFFFFFFFFFFFFFFFFFFFFFFFFFFFFFFFFF AND CALLER PUSH20 0xFFFFFFFFFFFFFFFFFFFFFFFFFFFFFFFFFFFFFFFF AND EQ PUSH2 0xDAE JUMPI PUSH1 0x40 MLOAD PUSH32 0x8C379A000000000000000000000000000000000000000000000000000000000 DUP2 MSTORE PUSH1 0x4 ADD PUSH2 0xDA5 SWAP1 PUSH2 0x1E45 JUMP JUMPDEST PUSH1 0x40 MLOAD DUP1 SWAP2 SUB SWAP1 REVERT JUMPDEST DUP1 PUSH0 DUP2 GT DUP1 ISZERO PUSH2 0xDC0 JUMPI POP PUSH1 0x1 SLOAD DUP2 GT ISZERO JUMPDEST PUSH2 0xDFF JUMPI PUSH1 0x40 MLOAD PUSH32 0x8C379A000000000000000000000000000000000000000000000000000000000 DUP2 MSTORE PUSH1 0x4 ADD PUSH2 0xDF6 SWAP1 PUSH2 0x246D JUMP JUMPDEST PUSH1 0x40 MLOAD DUP1 SWAP2 SUB SWAP1 REVERT JUMPDEST PUSH0 PUSH1 0x2 PUSH0 DUP5 DUP2 MSTORE PUSH1 0x20 ADD SWAP1 DUP2 MSTORE PUSH1 0x20 ADD PUSH0 KECCAK256 SWAP1 POP DUP1 PUSH1 0x4 ADD PUSH0 SWAP1 SLOAD SWAP1 PUSH2 0x100 EXP SWAP1 DIV PUSH1 0xFF AND PUSH2 0xE63 JUMPI PUSH1 0x40 MLOAD PUSH32 0x8C379A000000000000000000000000000000000000000000000000000000000 DUP2 MSTORE PUSH1 0x4 ADD PUSH2 0xE5A SWAP1 PUSH2 0x276F JUMP JUMPDEST PUSH1 0x40 MLOAD DUP1 SWAP2 SUB SWAP1 REVERT JUMPDEST PUSH0 DUP2 PUSH1 0x4 ADD PUSH0 PUSH2 0x100 EXP DUP2 SLOAD DUP2 PUSH1 0xFF MUL NOT AND SWAP1 DUP4 ISZERO ISZERO MUL OR SWAP1 SSTORE POP DUP3 PUSH32 0x1EF2AEC11912A0B8A9E48FBD7689F454C66E116205599FD9DDA9A277878B6BFA DUP3 PUSH1 0x1 ADD DUP4 PUSH1 0x5 ADD SLOAD PUSH1 0x40 MLOAD PUSH2 0xEB7 SWAP3 SWAP2 SWAP1 PUSH2 0x278D JUMP JUMPDEST PUSH1 0x40 MLOAD DUP1 SWAP2 SUB SWAP1 LOG2 PUSH0 DUP2 PUSH1 0x5 ADD SLOAD GT ISZERO PUSH2 0xF3C JUMPI PUSH0 PUSH0 PUSH2 0xED6 DUP6 PUSH2 0x13EC JUMP JUMPDEST SWAP2 POP SWAP2 POP DUP5 PUSH32 0xEBDB5148B12668F141C46F068FB8888BBF2D47B792526B801F1466F5BF51B275 DUP4 DUP6 PUSH1 0x3 ADD DUP6 DUP2 SLOAD DUP2 LT PUSH2 0xF13 JUMPI PUSH2 0xF12 PUSH2 0x2360 JUMP JUMPDEST JUMPDEST SWAP1 PUSH0 MSTORE PUSH1 0x20 PUSH0 KECCAK256 SWAP1 PUSH1 0x2 MUL ADD PUSH0 ADD DUP5 PUSH1 0x40 MLOAD PUSH2 0xF31 SWAP4 SWAP3 SWAP2 SWAP1 PUSH2 0x27BB JUMP JUMPDEST PUSH1 0x40 MLOAD DUP1 SWAP2 SUB SWAP1 LOG2 POP POP JUMPDEST POP POP POP JUMP JUMPDEST PUSH0 PUSH0 SWAP1 SLOAD SWAP1 PUSH2 0x100 EXP SWAP1 DIV PUSH20 0xFFFFFFFFFFFFFFFFFFFFFFFFFFFFFFFFFFFFFFFF AND DUP2 JUMP JUMPDEST PUSH0 DUP3 PUSH0 DUP2 GT DUP1 ISZERO PUSH2 0xF78 JUMPI POP PUSH1 0x1 SLOAD DUP2 GT ISZERO JUMPDEST PUSH2 0xFB7 JUMPI PUSH1 0x40 MLOAD PUSH32 0x8C379A000000000000000000000000000000000000000000000000000000000 DUP2 MSTORE PUSH1 0x4 ADD PUSH2 0xFAE SWAP1 PUSH2 0x246D JUMP JUMPDEST PUSH1 0x40 MLOAD DUP1 SWAP2 SUB SWAP1 REVERT JUMPDEST PUSH1 0x2 PUSH0 DUP6 DUP2 MSTORE PUSH1 0x20 ADD SWAP1 DUP2 MSTORE PUSH1 0x20 ADD PUSH0 KECCAK256 PUSH1 0x8 ADD PUSH0 DUP5 PUSH20 0xFFFFFFFFFFFFFFFFFFFFFFFFFFFFFFFFFFFFFFFF AND PUSH20 0xFFFFFFFFFFFFFFFFFFFFFFFFFFFFFFFFFFFFFFFF AND DUP2 MSTORE PUSH1 0x20 ADD SWAP1 DUP2 MSTORE PUSH1 0x20 ADD PUSH0 KECCAK256 PUSH0 SWAP1 SLOAD SWAP1 PUSH2 0x100 EXP SWAP1 DIV PUSH1 0xFF AND SWAP2 POP POP SWAP3 SWAP2 POP POP JUMP JUMPDEST PUSH0 PUSH1 0x60 PUSH0 PUSH0 DUP5 PUSH0 DUP2 GT DUP1 ISZERO PUSH2 0x1033 JUMPI POP PUSH1 0x1 SLOAD DUP2 GT ISZERO JUMPDEST PUSH2 0x1072 JUMPI PUSH1 0x40 MLOAD PUSH32 0x8C379A000000000000000000000000000000000000000000000000000000000 DUP2 MSTORE PUSH1 0x4 ADD PUSH2 0x1069 SWAP1 PUSH2 0x246D JUMP JUMPDEST PUSH1 0x40 MLOAD DUP1 SWAP2 SUB SWAP1 REVERT JUMPDEST PUSH0 PUSH1 0x2 PUSH0 DUP9 DUP2 MSTORE PUSH1 0x20 ADD SWAP1 DUP2 MSTORE PUSH1 0x20 ADD PUSH0 KECCAK256 SWAP1 POP PUSH0 DUP2 PUSH1 0x5 ADD SLOAD GT PUSH2 0x10CC JUMPI PUSH1 0x40 MLOAD PUSH32 0x8C379A000000000000000000000000000000000000000000000000000000000 DUP2 MSTORE PUSH1 0x4 ADD PUSH2 0x10C3 SWAP1 PUSH2 0x2841 JUMP JUMPDEST PUSH1 0x40 MLOAD DUP1 SWAP2 SUB SWAP1 REVERT JUMPDEST PUSH0 PUSH0 PUSH2 0x10D7 DUP10 PUSH2 0x13EC JUMP JUMPDEST SWAP2 POP SWAP2 POP PUSH0 PUSH2 0x10E6 DUP11 DUP4 PUSH2 0x1489 JUMP JUMPDEST SWAP1 POP DUP3 DUP5 PUSH1 0x3 ADD DUP5 DUP2 SLOAD DUP2 LT PUSH2 0x10FF JUMPI PUSH2 0x10FE PUSH2 0x2360 JUMP JUMPDEST JUMPDEST SWAP1 PUSH0 MSTORE PUSH1 0x20 PUSH0 KECCAK256 SWAP1 PUSH1 0x2 MUL ADD PUSH0 ADD DUP4 DUP4 DUP3 DUP1 SLOAD PUSH2 0x111B SWAP1 PUSH2 0x203C JUMP JUMPDEST DUP1 PUSH1 0x1F ADD PUSH1 0x20 DUP1 SWAP2 DIV MUL PUSH1 0x20 ADD PUSH1 0x40 MLOAD SWAP1 DUP2 ADD PUSH1 0x40 MSTORE DUP1 SWAP3 SWAP2 SWAP1 DUP2 DUP2 MSTORE PUSH1 0x20 ADD DUP3 DUP1 SLOAD PUSH2 0x1147 SWAP1 PUSH2 0x203C JUMP JUMPDEST DUP1 ISZERO PUSH2 0x1192 JUMPI DUP1 PUSH1 0x1F LT PUSH2 0x1169 JUMPI PUSH2 0x100 DUP1 DUP4 SLOAD DIV MUL DUP4 MSTORE SWAP2 PUSH1 0x20 ADD SWAP2 PUSH2 0x1192 JUMP JUMPDEST DUP3 ADD SWAP2 SWAP1 PUSH0 MSTORE PUSH1 0x20 PUSH0 KECCAK256 SWAP1 JUMPDEST DUP2 SLOAD DUP2 MSTORE SWAP1 PUSH1 0x1 ADD SWAP1 PUSH1 0x20 ADD DUP1 DUP4 GT PUSH2 0x1175 JUMPI DUP3 SWAP1 SUB PUSH1 0x1F AND DUP3 ADD SWAP2 JUMPDEST POP POP POP POP POP SWAP3 POP SWAP9 POP SWAP9 POP SWAP9 POP SWAP9 POP POP POP POP POP POP SWAP2 SWAP4 POP SWAP2 SWAP4 JUMP JUMPDEST PUSH1 0x60 DUP1 DUP3 PUSH0 DUP2 GT DUP1 ISZERO PUSH2 0x11C2 JUMPI POP PUSH1 0x1 SLOAD DUP2 GT ISZERO JUMPDEST PUSH2 0x1201 JUMPI PUSH1 0x40 MLOAD PUSH32 0x8C379A000000000000000000000000000000000000000000000000000000000 DUP2 MSTORE PUSH1 0x4 ADD PUSH2 0x11F8 SWAP1 PUSH2 0x246D JUMP JUMPDEST PUSH1 0x40 MLOAD DUP1 SWAP2 SUB SWAP1 REVERT JUMPDEST PUSH0 PUSH1 0x2 PUSH0 DUP7 DUP2 MSTORE PUSH1 0x20 ADD SWAP1 DUP2 MSTORE PUSH1 0x20 ADD PUSH0 KECCAK256 SWAP1 POP PUSH0 DUP2 PUSH1 0x3 ADD DUP1 SLOAD SWAP1 POP SWAP1 POP DUP1 PUSH8 0xFFFFFFFFFFFFFFFF DUP2 GT ISZERO PUSH2 0x123A JUMPI PUSH2 0x1239 PUSH2 0x1536 JUMP JUMPDEST JUMPDEST PUSH1 0x40 MLOAD SWAP1 DUP1 DUP3 MSTORE DUP1 PUSH1 0x20 MUL PUSH1 0x20 ADD DUP3 ADD PUSH1 0x40 MSTORE DUP1 ISZERO PUSH2 0x126D JUMPI DUP2 PUSH1 0x20 ADD JUMPDEST PUSH1 0x60 DUP2 MSTORE PUSH1 0x20 ADD SWAP1 PUSH1 0x1 SWAP1 SUB SWAP1 DUP2 PUSH2 0x1258 JUMPI SWAP1 POP JUMPDEST POP SWAP5 POP DUP1 PUSH8 0xFFFFFFFFFFFFFFFF DUP2 GT ISZERO PUSH2 0x128A JUMPI PUSH2 0x1289 PUSH2 0x1536 JUMP JUMPDEST JUMPDEST PUSH1 0x40 MLOAD SWAP1 DUP1 DUP3 MSTORE DUP1 PUSH1 0x20 MUL PUSH1 0x20 ADD DUP3 ADD PUSH1 0x40 MSTORE DUP1 ISZERO PUSH2 0x12B8 JUMPI DUP2 PUSH1 0x20 ADD PUSH1 0x20 DUP3 MUL DUP1 CALLDATASIZE DUP4 CALLDATACOPY DUP1 DUP3 ADD SWAP2 POP POP SWAP1 POP JUMPDEST POP SWAP4 POP PUSH0 PUSH0 SWAP1 POP JUMPDEST DUP2 DUP2 LT ISZERO PUSH2 0x13E3 JUMPI DUP3 PUSH1 0x3 ADD DUP2 DUP2 SLOAD DUP2 LT PUSH2 0x12DE JUMPI PUSH2 0x12DD PUSH2 0x2360 JUMP JUMPDEST JUMPDEST SWAP1 PUSH0 MSTORE PUSH1 0x20 PUSH0 KECCAK256 SWAP1 PUSH1 0x2 MUL ADD PUSH0 ADD DUP1 SLOAD PUSH2 0x12F7 SWAP1 PUSH2 0x203C JUMP JUMPDEST DUP1 PUSH1 0x1F ADD PUSH1 0x20 DUP1 SWAP2 DIV MUL PUSH1 0x20 ADD PUSH1 0x40 MLOAD SWAP1 DUP2 ADD PUSH1 0x40 MSTORE DUP1 SWAP3 SWAP2 SWAP1 DUP2 DUP2 MSTORE PUSH1 0x20 ADD DUP3 DUP1 SLOAD PUSH2 0x1323 SWAP1 PUSH2 0x203C JUMP JUMPDEST DUP1 ISZERO PUSH2 0x136E JUMPI DUP1 PUSH1 0x1F LT PUSH2 0x1345 JUMPI PUSH2 0x100 DUP1 DUP4 SLOAD DIV MUL DUP4 MSTORE SWAP2 PUSH1 0x20 ADD SWAP2 PUSH2 0x136E JUMP JUMPDEST DUP3 ADD SWAP2 SWAP1 PUSH0 MSTORE PUSH1 0x20 PUSH0 KECCAK256 SWAP1 JUMPDEST DUP2 SLOAD DUP2 MSTORE SWAP1 PUSH1 0x1 ADD SWAP1 PUSH1 0x20 ADD DUP1 DUP4 GT PUSH2 0x1351 JUMPI DUP3 SWAP1 SUB PUSH1 0x1F AND DUP3 ADD SWAP2 JUMPDEST POP POP POP POP POP DUP7 DUP3 DUP2 MLOAD DUP2 LT PUSH2 0x1386 JUMPI PUSH2 0x1385 PUSH2 0x2360 JUMP JUMPDEST JUMPDEST PUSH1 0x20 MUL PUSH1 0x20 ADD ADD DUP2 SWAP1 MSTORE POP DUP3 PUSH1 0x3 ADD DUP2 DUP2 SLOAD DUP2 LT PUSH2 0x13A7 JUMPI PUSH2 0x13A6 PUSH2 0x2360 JUMP JUMPDEST JUMPDEST SWAP1 PUSH0 MSTORE PUSH1 0x20 PUSH0 KECCAK256 SWAP1 PUSH1 0x2 MUL ADD PUSH1 0x1 ADD SLOAD DUP6 DUP3 DUP2 MLOAD DUP2 LT PUSH2 0x13CA JUMPI PUSH2 0x13C9 PUSH2 0x2360 JUMP JUMPDEST JUMPDEST PUSH1 0x20 MUL PUSH1 0x20 ADD ADD DUP2 DUP2 MSTORE POP POP DUP1 DUP1 PUSH1 0x1 ADD SWAP2 POP POP PUSH2 0x12C0 JUMP JUMPDEST POP POP POP POP SWAP2 POP SWAP2 JUMP JUMPDEST PUSH0 PUSH0 PUSH0 PUSH1 0x2 PUSH0 DUP6 DUP2 MSTORE PUSH1 0x20 ADD SWAP1 DUP2 MSTORE PUSH1 0x20 ADD PUSH0 KECCAK256 SWAP1 POP PUSH0 SWAP2 POP PUSH0 SWAP3 POP PUSH0 PUSH0 SWAP1 POP JUMPDEST DUP2 PUSH1 0x3 ADD DUP1 SLOAD SWAP1 POP DUP2 LT ISZERO PUSH2 0x1482 JUMPI DUP3 DUP3 PUSH1 0x3 ADD DUP3 DUP2 SLOAD DUP2 LT PUSH2 0x1433 JUMPI PUSH2 0x1432 PUSH2 0x2360 JUMP JUMPDEST JUMPDEST SWAP1 PUSH0 MSTORE PUSH1 0x20 PUSH0 KECCAK256 SWAP1 PUSH1 0x2 MUL ADD PUSH1 0x1 ADD SLOAD GT ISZERO PUSH2 0x1475 JUMPI DUP2 PUSH1 0x3 ADD DUP2 DUP2 SLOAD DUP2 LT PUSH2 0x145F JUMPI PUSH2 0x145E PUSH2 0x2360 JUMP JUMPDEST JUMPDEST SWAP1 PUSH0 MSTORE PUSH1 0x20 PUSH0 KECCAK256 SWAP1 PUSH1 0x2 MUL ADD PUSH1 0x1 ADD SLOAD SWAP3 POP DUP1 SWAP4 POP JUMPDEST DUP1 DUP1 PUSH1 0x1 ADD SWAP2 POP POP PUSH2 0x140D JUMP JUMPDEST POP POP SWAP2 POP SWAP2 JUMP JUMPDEST PUSH0 PUSH0 PUSH1 0x2 PUSH0 DUP6 DUP2 MSTORE PUSH1 0x20 ADD SWAP1 DUP2 MSTORE PUSH1 0x20 ADD PUSH0 KECCAK256 SWAP1 POP PUSH0 PUSH0 SWAP1 POP PUSH0 PUSH0 SWAP1 POP JUMPDEST DUP3 PUSH1 0x3 ADD DUP1 SLOAD SWAP1 POP DUP2 LT ISZERO PUSH2 0x14FE JUMPI DUP5 DUP4 PUSH1 0x3 ADD DUP3 DUP2 SLOAD DUP2 LT PUSH2 0x14CD JUMPI PUSH2 0x14CC PUSH2 0x2360 JUMP JUMPDEST JUMPDEST SWAP1 PUSH0 MSTORE PUSH1 0x20 PUSH0 KECCAK256 SWAP1 PUSH1 0x2 MUL ADD PUSH1 0x1 ADD SLOAD SUB PUSH2 0x14F1 JUMPI DUP2 DUP1 PUSH2 0x14ED SWAP1 PUSH2 0x1FC8 JUMP JUMPDEST SWAP3 POP POP JUMPDEST DUP1 DUP1 PUSH1 0x1 ADD SWAP2 POP POP PUSH2 0x14A7 JUMP JUMPDEST POP PUSH1 0x1 DUP2 GT SWAP3 POP POP POP SWAP3 SWAP2 POP POP JUMP JUMPDEST PUSH0 PUSH1 0x40 MLOAD SWAP1 POP SWAP1 JUMP JUMPDEST PUSH0 PUSH0 REVERT JUMPDEST PUSH0 PUSH0 REVERT JUMPDEST PUSH0 PUSH0 REVERT JUMPDEST PUSH0 PUSH0 REVERT JUMPDEST PUSH0 PUSH1 0x1F NOT PUSH1 0x1F DUP4 ADD AND SWAP1 POP SWAP2 SWAP1 POP JUMP JUMPDEST PUSH32 0x4E487B7100000000000000000000000000000000000000000000000000000000 PUSH0 MSTORE PUSH1 0x41 PUSH1 0x4 MSTORE PUSH1 0x24 PUSH0 REVERT JUMPDEST PUSH2 0x156C DUP3 PUSH2 0x1526 JUMP JUMPDEST DUP2 ADD DUP2 DUP2 LT PUSH8 0xFFFFFFFFFFFFFFFF DUP3 GT OR ISZERO PUSH2 0x158B JUMPI PUSH2 0x158A PUSH2 0x1536 JUMP JUMPDEST JUMPDEST DUP1 PUSH1 0x40 MSTORE POP POP POP JUMP JUMPDEST PUSH0 PUSH2 0x159D PUSH2 0x150D JUMP JUMPDEST SWAP1 POP PUSH2 0x15A9 DUP3 DUP3 PUSH2 0x1563 JUMP JUMPDEST SWAP2 SWAP1 POP JUMP JUMPDEST PUSH0 PUSH8 0xFFFFFFFFFFFFFFFF DUP3 GT ISZERO PUSH2 0x15C8 JUMPI PUSH2 0x15C7 PUSH2 0x1536 JUMP JUMPDEST JUMPDEST PUSH2 0x15D1 DUP3 PUSH2 0x1526 JUMP JUMPDEST SWAP1 POP PUSH1 0x20 DUP2 ADD SWAP1 POP SWAP2 SWAP1 POP JUMP JUMPDEST DUP3 DUP2 DUP4 CALLDATACOPY PUSH0 DUP4 DUP4 ADD MSTORE POP POP POP JUMP JUMPDEST PUSH0 PUSH2 0x15FE PUSH2 0x15F9 DUP5 PUSH2 0x15AE JUMP JUMPDEST PUSH2 0x1594 JUMP JUMPDEST SWAP1 POP DUP3 DUP2 MSTORE PUSH1 0x20 DUP2 ADD DUP5 DUP5 DUP5 ADD GT ISZERO PUSH2 0x161A JUMPI PUSH2 0x1619 PUSH2 0x1522 JUMP JUMPDEST JUMPDEST PUSH2 0x1625 DUP5 DUP3 DUP6 PUSH2 0x15DE JUMP JUMPDEST POP SWAP4 SWAP3 POP POP POP JUMP JUMPDEST PUSH0 DUP3 PUSH1 0x1F DUP4 ADD SLT PUSH2 0x1641 JUMPI PUSH2 0x1640 PUSH2 0x151E JUMP JUMPDEST JUMPDEST DUP2 CALLDATALOAD PUSH2 0x1651 DUP5 DUP3 PUSH1 0x20 DUP7 ADD PUSH2 0x15EC JUMP JUMPDEST SWAP2 POP POP SWAP3 SWAP2 POP POP JUMP JUMPDEST PUSH0 PUSH8 0xFFFFFFFFFFFFFFFF DUP3 GT ISZERO PUSH2 0x1674 JUMPI PUSH2 0x1673 PUSH2 0x1536 JUMP JUMPDEST JUMPDEST PUSH1 0x20 DUP3 MUL SWAP1 POP PUSH1 0x20 DUP2 ADD SWAP1 POP SWAP2 SWAP1 POP JUMP JUMPDEST PUSH0 PUSH0 REVERT JUMPDEST PUSH0 PUSH2 0x169B PUSH2 0x1696 DUP5 PUSH2 0x165A JUMP JUMPDEST PUSH2 0x1594 JUMP JUMPDEST SWAP1 POP DUP1 DUP4 DUP3 MSTORE PUSH1 0x20 DUP3 ADD SWAP1 POP PUSH1 0x20 DUP5 MUL DUP4 ADD DUP6 DUP2 GT ISZERO PUSH2 0x16BE JUMPI PUSH2 0x16BD PUSH2 0x1685 JUMP JUMPDEST JUMPDEST DUP4 JUMPDEST DUP2 DUP2 LT ISZERO PUSH2 0x1705 JUMPI DUP1 CALLDATALOAD PUSH8 0xFFFFFFFFFFFFFFFF DUP2 GT ISZERO PUSH2 0x16E3 JUMPI PUSH2 0x16E2 PUSH2 0x151E JUMP JUMPDEST JUMPDEST DUP1 DUP7 ADD PUSH2 0x16F0 DUP10 DUP3 PUSH2 0x162D JUMP JUMPDEST DUP6 MSTORE PUSH1 0x20 DUP6 ADD SWAP5 POP POP POP PUSH1 0x20 DUP2 ADD SWAP1 POP PUSH2 0x16C0 JUMP JUMPDEST POP POP POP SWAP4 SWAP3 POP POP POP JUMP JUMPDEST PUSH0 DUP3 PUSH1 0x1F DUP4 ADD SLT PUSH2 0x1723 JUMPI PUSH2 0x1722 PUSH2 0x151E JUMP JUMPDEST JUMPDEST DUP2 CALLDATALOAD PUSH2 0x1733 DUP5 DUP3 PUSH1 0x20 DUP7 ADD PUSH2 0x1689 JUMP JUMPDEST SWAP2 POP POP SWAP3 SWAP2 POP POP JUMP JUMPDEST PUSH0 DUP2 SWAP1 POP SWAP2 SWAP1 POP JUMP JUMPDEST PUSH2 0x174E DUP2 PUSH2 0x173C JUMP JUMPDEST DUP2 EQ PUSH2 0x1758 JUMPI PUSH0 PUSH0 REVERT JUMPDEST POP JUMP JUMPDEST PUSH0 DUP2 CALLDATALOAD SWAP1 POP PUSH2 0x1769 DUP2 PUSH2 0x1745 JUMP JUMPDEST SWAP3 SWAP2 POP POP JUMP JUMPDEST PUSH0 PUSH0 PUSH0 PUSH0 PUSH1 0x80 DUP6 DUP8 SUB SLT ISZERO PUSH2 0x1787 JUMPI PUSH2 0x1786 PUSH2 0x1516 JUMP JUMPDEST JUMPDEST PUSH0 DUP6 ADD CALLDATALOAD PUSH8 0xFFFFFFFFFFFFFFFF DUP2 GT ISZERO PUSH2 0x17A4 JUMPI PUSH2 0x17A3 PUSH2 0x151A JUMP JUMPDEST JUMPDEST PUSH2 0x17B0 DUP8 DUP3 DUP9 ADD PUSH2 0x162D JUMP JUMPDEST SWAP5 POP POP PUSH1 0x20 DUP6 ADD CALLDATALOAD PUSH8 0xFFFFFFFFFFFFFFFF DUP2 GT ISZERO PUSH2 0x17D1 JUMPI PUSH2 0x17D0 PUSH2 0x151A JUMP JUMPDEST JUMPDEST PUSH2 0x17DD DUP8 DUP3 DUP9 ADD PUSH2 0x162D JUMP JUMPDEST SWAP4 POP POP PUSH1 0x40 DUP6 ADD CALLDATALOAD PUSH8 0xFFFFFFFFFFFFFFFF DUP2 GT ISZERO PUSH2 0x17FE JUMPI PUSH2 0x17FD PUSH2 0x151A JUMP JUMPDEST JUMPDEST PUSH2 0x180A DUP8 DUP3 DUP9 ADD PUSH2 0x170F JUMP JUMPDEST SWAP3 POP POP PUSH1 0x60 PUSH2 0x181B DUP8 DUP3 DUP9 ADD PUSH2 0x175B JUMP JUMPDEST SWAP2 POP POP SWAP3 SWAP6 SWAP2 SWAP5 POP SWAP3 POP JUMP JUMPDEST PUSH2 0x1830 DUP2 PUSH2 0x173C JUMP JUMPDEST DUP3 MSTORE POP POP JUMP JUMPDEST PUSH0 PUSH1 0x20 DUP3 ADD SWAP1 POP PUSH2 0x1849 PUSH0 DUP4 ADD DUP5 PUSH2 0x1827 JUMP JUMPDEST SWAP3 SWAP2 POP POP JUMP JUMPDEST PUSH0 PUSH0 PUSH1 0x40 DUP4 DUP6 SUB SLT ISZERO PUSH2 0x1865 JUMPI PUSH2 0x1864 PUSH2 0x1516 JUMP JUMPDEST JUMPDEST PUSH0 PUSH2 0x1872 DUP6 DUP3 DUP7 ADD PUSH2 0x175B JUMP JUMPDEST SWAP3 POP POP PUSH1 0x20 PUSH2 0x1883 DUP6 DUP3 DUP7 ADD PUSH2 0x175B JUMP JUMPDEST SWAP2 POP POP SWAP3 POP SWAP3 SWAP1 POP JUMP JUMPDEST PUSH0 PUSH1 0x20 DUP3 DUP5 SUB SLT ISZERO PUSH2 0x18A2 JUMPI PUSH2 0x18A1 PUSH2 0x1516 JUMP JUMPDEST JUMPDEST PUSH0 PUSH2 0x18AF DUP5 DUP3 DUP6 ADD PUSH2 0x175B JUMP JUMPDEST SWAP2 POP POP SWAP3 SWAP2 POP POP JUMP JUMPDEST PUSH0 DUP2 MLOAD SWAP1 POP SWAP2 SWAP1 POP JUMP JUMPDEST PUSH0 DUP3 DUP3 MSTORE PUSH1 0x20 DUP3 ADD SWAP1 POP SWAP3 SWAP2 POP POP JUMP JUMPDEST DUP3 DUP2 DUP4 MCOPY PUSH0 DUP4 DUP4 ADD MSTORE POP POP POP JUMP JUMPDEST PUSH0 PUSH2 0x18EA DUP3 PUSH2 0x18B8 JUMP JUMPDEST PUSH2 0x18F4 DUP2 DUP6 PUSH2 0x18C2 JUMP JUMPDEST SWAP4 POP PUSH2 0x1904 DUP2 DUP6 PUSH1 0x20 DUP7 ADD PUSH2 0x18D2 JUMP JUMPDEST PUSH2 0x190D DUP2 PUSH2 0x1526 JUMP JUMPDEST DUP5 ADD SWAP2 POP POP SWAP3 SWAP2 POP POP JUMP JUMPDEST PUSH0 DUP2 ISZERO ISZERO SWAP1 POP SWAP2 SWAP1 POP JUMP JUMPDEST PUSH2 0x192C DUP2 PUSH2 0x1918 JUMP JUMPDEST DUP3 MSTORE POP POP JUMP JUMPDEST PUSH0 PUSH1 0xE0 DUP3 ADD SWAP1 POP DUP2 DUP2 SUB PUSH0 DUP4 ADD MSTORE PUSH2 0x194A DUP2 DUP11 PUSH2 0x18E0 JUMP JUMPDEST SWAP1 POP DUP2 DUP2 SUB PUSH1 0x20 DUP4 ADD MSTORE PUSH2 0x195E DUP2 DUP10 PUSH2 0x18E0 JUMP JUMPDEST SWAP1 POP PUSH2 0x196D PUSH1 0x40 DUP4 ADD DUP9 PUSH2 0x1923 JUMP JUMPDEST PUSH2 0x197A PUSH1 0x60 DUP4 ADD DUP8 PUSH2 0x1827 JUMP JUMPDEST PUSH2 0x1987 PUSH1 0x80 DUP4 ADD DUP7 PUSH2 0x1827 JUMP JUMPDEST PUSH2 0x1994 PUSH1 0xA0 DUP4 ADD DUP6 PUSH2 0x1827 JUMP JUMPDEST PUSH2 0x19A1 PUSH1 0xC0 DUP4 ADD DUP5 PUSH2 0x1827 JUMP JUMPDEST SWAP9 SWAP8 POP POP POP POP POP POP POP POP JUMP JUMPDEST PUSH0 DUP2 MLOAD SWAP1 POP SWAP2 SWAP1 POP JUMP JUMPDEST PUSH0 DUP3 DUP3 MSTORE PUSH1 0x20 DUP3 ADD SWAP1 POP SWAP3 SWAP2 POP POP JUMP JUMPDEST PUSH0 DUP2 SWAP1 POP PUSH1 0x20 DUP3 ADD SWAP1 POP SWAP2 SWAP1 POP JUMP JUMPDEST PUSH2 0x19DF DUP2 PUSH2 0x173C JUMP JUMPDEST DUP3 MSTORE POP POP JUMP JUMPDEST PUSH0 PUSH2 0x19F0 DUP4 DUP4 PUSH2 0x19D6 JUMP JUMPDEST PUSH1 0x20 DUP4 ADD SWAP1 POP SWAP3 SWAP2 POP POP JUMP JUMPDEST PUSH0 PUSH1 0x20 DUP3 ADD SWAP1 POP SWAP2 SWAP1 POP JUMP JUMPDEST PUSH0 PUSH2 0x1A12 DUP3 PUSH2 0x19AD JUMP JUMPDEST PUSH2 0x1A1C DUP2 DUP6 PUSH2 0x19B7 JUMP JUMPDEST SWAP4 POP PUSH2 0x1A27 DUP4 PUSH2 0x19C7 JUMP JUMPDEST DUP1 PUSH0 JUMPDEST DUP4 DUP2 LT ISZERO PUSH2 0x1A57 JUMPI DUP2 MLOAD PUSH2 0x1A3E DUP9 DUP3 PUSH2 0x19E5 JUMP JUMPDEST SWAP8 POP PUSH2 0x1A49 DUP4 PUSH2 0x19FC JUMP JUMPDEST SWAP3 POP POP PUSH1 0x1 DUP2 ADD SWAP1 POP PUSH2 0x1A2A JUMP JUMPDEST POP DUP6 SWAP4 POP POP POP POP SWAP3 SWAP2 POP POP JUMP JUMPDEST PUSH0 DUP2 MLOAD SWAP1 POP SWAP2 SWAP1 POP JUMP JUMPDEST PUSH0 DUP3 DUP3 MSTORE PUSH1 0x20 DUP3 ADD SWAP1 POP SWAP3 SWAP2 POP POP JUMP JUMPDEST PUSH0 DUP2 SWAP1 POP PUSH1 0x20 DUP3 ADD SWAP1 POP SWAP2 SWAP1 POP JUMP JUMPDEST PUSH0 DUP3 DUP3 MSTORE PUSH1 0x20 DUP3 ADD SWAP1 POP SWAP3 SWAP2 POP POP JUMP JUMPDEST PUSH0 PUSH2 0x1AA7 DUP3 PUSH2 0x18B8 JUMP JUMPDEST PUSH2 0x1AB1 DUP2 DUP6 PUSH2 0x1A8D JUMP JUMPDEST SWAP4 POP PUSH2 0x1AC1 DUP2 DUP6 PUSH1 0x20 DUP7 ADD PUSH2 0x18D2 JUMP JUMPDEST PUSH2 0x1ACA DUP2 PUSH2 0x1526 JUMP JUMPDEST DUP5 ADD SWAP2 POP POP SWAP3 SWAP2 POP POP JUMP JUMPDEST PUSH0 PUSH2 0x1AE0 DUP4 DUP4 PUSH2 0x1A9D JUMP JUMPDEST SWAP1 POP SWAP3 SWAP2 POP POP JUMP JUMPDEST PUSH0 PUSH1 0x20 DUP3 ADD SWAP1 POP SWAP2 SWAP1 POP JUMP JUMPDEST PUSH0 PUSH2 0x1AFE DUP3 PUSH2 0x1A64 JUMP JUMPDEST PUSH2 0x1B08 DUP2 DUP6 PUSH2 0x1A6E JUMP JUMPDEST SWAP4 POP DUP4 PUSH1 0x20 DUP3 MUL DUP6 ADD PUSH2 0x1B1A DUP6 PUSH2 0x1A7E JUMP JUMPDEST DUP1 PUSH0 JUMPDEST DUP6 DUP2 LT ISZERO PUSH2 0x1B55 JUMPI DUP5 DUP5 SUB DUP10 MSTORE DUP2 MLOAD PUSH2 0x1B36 DUP6 DUP3 PUSH2 0x1AD5 JUMP JUMPDEST SWAP5 POP PUSH2 0x1B41 DUP4 PUSH2 0x1AE8 JUMP JUMPDEST SWAP3 POP PUSH1 0x20 DUP11 ADD SWAP10 POP POP PUSH1 0x1 DUP2 ADD SWAP1 POP PUSH2 0x1B1D JUMP JUMPDEST POP DUP3 SWAP8 POP DUP8 SWAP6 POP POP POP POP POP POP SWAP3 SWAP2 POP POP JUMP JUMPDEST PUSH0 DUP2 MLOAD SWAP1 POP SWAP2 SWAP1 POP JUMP JUMPDEST PUSH0 DUP3 DUP3 MSTORE PUSH1 0x20 DUP3 ADD SWAP1 POP SWAP3 SWAP2 POP POP JUMP JUMPDEST PUSH0 DUP2 SWAP1 POP PUSH1 0x20 DUP3 ADD SWAP1 POP SWAP2 SWAP1 POP JUMP JUMPDEST PUSH2 0x1B99 DUP2 PUSH2 0x1918 JUMP JUMPDEST DUP3 MSTORE POP POP JUMP JUMPDEST PUSH0 PUSH2 0x1BAA DUP4 DUP4 PUSH2 0x1B90 JUMP JUMPDEST PUSH1 0x20 DUP4 ADD SWAP1 POP SWAP3 SWAP2 POP POP JUMP JUMPDEST PUSH0 PUSH1 0x20 DUP3 ADD SWAP1 POP SWAP2 SWAP1 POP JUMP JUMPDEST PUSH0 PUSH2 0x1BCC DUP3 PUSH2 0x1B67 JUMP JUMPDEST PUSH2 0x1BD6 DUP2 DUP6 PUSH2 0x1B71 JUMP JUMPDEST SWAP4 POP PUSH2 0x1BE1 DUP4 PUSH2 0x1B81 JUMP JUMPDEST DUP1 PUSH0 JUMPDEST DUP4 DUP2 LT ISZERO PUSH2 0x1C11 JUMPI DUP2 MLOAD PUSH2 0x1BF8 DUP9 DUP3 PUSH2 0x1B9F JUMP JUMPDEST SWAP8 POP PUSH2 0x1C03 DUP4 PUSH2 0x1BB6 JUMP JUMPDEST SWAP3 POP POP PUSH1 0x1 DUP2 ADD SWAP1 POP PUSH2 0x1BE4 JUMP JUMPDEST POP DUP6 SWAP4 POP POP POP POP SWAP3 SWAP2 POP POP JUMP JUMPDEST PUSH0 PUSH1 0x80 DUP3 ADD SWAP1 POP DUP2 DUP2 SUB PUSH0 DUP4 ADD MSTORE PUSH2 0x1C36 DUP2 DUP8 PUSH2 0x1A08 JUMP JUMPDEST SWAP1 POP DUP2 DUP2 SUB PUSH1 0x20 DUP4 ADD MSTORE PUSH2 0x1C4A DUP2 DUP7 PUSH2 0x1AF4 JUMP JUMPDEST SWAP1 POP DUP2 DUP2 SUB PUSH1 0x40 DUP4 ADD MSTORE PUSH2 0x1C5E DUP2 DUP6 PUSH2 0x1BC2 JUMP JUMPDEST SWAP1 POP DUP2 DUP2 SUB PUSH1 0x60 DUP4 ADD MSTORE PUSH2 0x1C72 DUP2 DUP5 PUSH2 0x1A08 JUMP JUMPDEST SWAP1 POP SWAP6 SWAP5 POP POP POP POP POP JUMP JUMPDEST PUSH0 PUSH20 0xFFFFFFFFFFFFFFFFFFFFFFFFFFFFFFFFFFFFFFFF DUP3 AND SWAP1 POP SWAP2 SWAP1 POP JUMP JUMPDEST PUSH0 PUSH2 0x1CA6 DUP3 PUSH2 0x1C7D JUMP JUMPDEST SWAP1 POP SWAP2 SWAP1 POP JUMP JUMPDEST PUSH2 0x1CB6 DUP2 PUSH2 0x1C9C JUMP JUMPDEST DUP3 MSTORE POP POP JUMP JUMPDEST PUSH0 PUSH1 0x20 DUP3 ADD SWAP1 POP PUSH2 0x1CCF PUSH0 DUP4 ADD DUP5 PUSH2 0x1CAD JUMP JUMPDEST SWAP3 SWAP2 POP POP JUMP JUMPDEST PUSH2 0x1CDE DUP2 PUSH2 0x1C9C JUMP JUMPDEST DUP2 EQ PUSH2 0x1CE8 JUMPI PUSH0 PUSH0 REVERT JUMPDEST POP JUMP JUMPDEST PUSH0 DUP2 CALLDATALOAD SWAP1 POP PUSH2 0x1CF9 DUP2 PUSH2 0x1CD5 JUMP JUMPDEST SWAP3 SWAP2 POP POP JUMP JUMPDEST PUSH0 PUSH0 PUSH1 0x40 DUP4 DUP6 SUB SLT ISZERO PUSH2 0x1D15 JUMPI PUSH2 0x1D14 PUSH2 0x1516 JUMP JUMPDEST JUMPDEST PUSH0 PUSH2 0x1D22 DUP6 DUP3 DUP7 ADD PUSH2 0x175B JUMP JUMPDEST SWAP3 POP POP PUSH1 0x20 PUSH2 0x1D33 DUP6 DUP3 DUP7 ADD PUSH2 0x1CEB JUMP JUMPDEST SWAP2 POP POP SWAP3 POP SWAP3 SWAP1 POP JUMP JUMPDEST PUSH0 PUSH1 0x20 DUP3 ADD SWAP1 POP PUSH2 0x1D50 PUSH0 DUP4 ADD DUP5 PUSH2 0x1923 JUMP JUMPDEST SWAP3 SWAP2 POP POP JUMP JUMPDEST PUSH0 PUSH1 0x80 DUP3 ADD SWAP1 POP PUSH2 0x1D69 PUSH0 DUP4 ADD DUP8 PUSH2 0x1827 JUMP JUMPDEST DUP2 DUP2 SUB PUSH1 0x20 DUP4 ADD MSTORE PUSH2 0x1D7B DUP2 DUP7 PUSH2 0x18E0 JUMP JUMPDEST SWAP1 POP PUSH2 0x1D8A PUSH1 0x40 DUP4 ADD DUP6 PUSH2 0x1827 JUMP JUMPDEST PUSH2 0x1D97 PUSH1 0x60 DUP4 ADD DUP5 PUSH2 0x1923 JUMP JUMPDEST SWAP6 SWAP5 POP POP POP POP POP JUMP JUMPDEST PUSH0 PUSH1 0x40 DUP3 ADD SWAP1 POP DUP2 DUP2 SUB PUSH0 DUP4 ADD MSTORE PUSH2 0x1DB8 DUP2 DUP6 PUSH2 0x1AF4 JUMP JUMPDEST SWAP1 POP DUP2 DUP2 SUB PUSH1 0x20 DUP4 ADD MSTORE PUSH2 0x1DCC DUP2 DUP5 PUSH2 0x1A08 JUMP JUMPDEST SWAP1 POP SWAP4 SWAP3 POP POP POP JUMP JUMPDEST PUSH32 0x48616E7961206F776E65722079616E672062697361206D656C616B756B616E20 PUSH0 DUP3 ADD MSTORE PUSH32 0x696E690000000000000000000000000000000000000000000000000000000000 PUSH1 0x20 DUP3 ADD MSTORE POP JUMP JUMPDEST PUSH0 PUSH2 0x1E2F PUSH1 0x23 DUP4 PUSH2 0x18C2 JUMP JUMPDEST SWAP2 POP PUSH2 0x1E3A DUP3 PUSH2 0x1DD5 JUMP JUMPDEST PUSH1 0x40 DUP3 ADD SWAP1 POP SWAP2 SWAP1 POP JUMP JUMPDEST PUSH0 PUSH1 0x20 DUP3 ADD SWAP1 POP DUP2 DUP2 SUB PUSH0 DUP4 ADD MSTORE PUSH2 0x1E5C DUP2 PUSH2 0x1E23 JUMP JUMPDEST SWAP1 POP SWAP2 SWAP1 POP JUMP JUMPDEST PUSH32 0x4A7564756C20746964616B20626F6C6568206B6F736F6E670000000000000000 PUSH0 DUP3 ADD MSTORE POP JUMP JUMPDEST PUSH0 PUSH2 0x1E97 PUSH1 0x18 DUP4 PUSH2 0x18C2 JUMP JUMPDEST SWAP2 POP PUSH2 0x1EA2 DUP3 PUSH2 0x1E63 JUMP JUMPDEST PUSH1 0x20 DUP3 ADD SWAP1 POP SWAP2 SWAP1 POP JUMP JUMPDEST PUSH0 PUSH1 0x20 DUP3 ADD SWAP1 POP DUP2 DUP2 SUB PUSH0 DUP4 ADD MSTORE PUSH2 0x1EC4 DUP2 PUSH2 0x1E8B JUMP JUMPDEST SWAP1 POP SWAP2 SWAP1 POP JUMP JUMPDEST PUSH32 0x4D696E696D616C20322070696C6968616E2064697065726C756B616E00000000 PUSH0 DUP3 ADD MSTORE POP JUMP JUMPDEST PUSH0 PUSH2 0x1EFF PUSH1 0x1C DUP4 PUSH2 0x18C2 JUMP JUMPDEST SWAP2 POP PUSH2 0x1F0A DUP3 PUSH2 0x1ECB JUMP JUMPDEST PUSH1 0x20 DUP3 ADD SWAP1 POP SWAP2 SWAP1 POP JUMP JUMPDEST PUSH0 PUSH1 0x20 DUP3 ADD SWAP1 POP DUP2 DUP2 SUB PUSH0 DUP4 ADD MSTORE PUSH2 0x1F2C DUP2 PUSH2 0x1EF3 JUMP JUMPDEST SWAP1 POP SWAP2 SWAP1 POP JUMP JUMPDEST PUSH32 0x4D616B73696D616C2031302070696C6968616E00000000000000000000000000 PUSH0 DUP3 ADD MSTORE POP JUMP JUMPDEST PUSH0 PUSH2 0x1F67 PUSH1 0x13 DUP4 PUSH2 0x18C2 JUMP JUMPDEST SWAP2 POP PUSH2 0x1F72 DUP3 PUSH2 0x1F33 JUMP JUMPDEST PUSH1 0x20 DUP3 ADD SWAP1 POP SWAP2 SWAP1 POP JUMP JUMPDEST PUSH0 PUSH1 0x20 DUP3 ADD SWAP1 POP DUP2 DUP2 SUB PUSH0 DUP4 ADD MSTORE PUSH2 0x1F94 DUP2 PUSH2 0x1F5B JUMP JUMPDEST SWAP1 POP SWAP2 SWAP1 POP JUMP JUMPDEST PUSH32 0x4E487B7100000000000000000000000000000000000000000000000000000000 PUSH0 MSTORE PUSH1 0x11 PUSH1 0x4 MSTORE PUSH1 0x24 PUSH0 REVERT JUMPDEST PUSH0 PUSH2 0x1FD2 DUP3 PUSH2 0x173C JUMP JUMPDEST SWAP2 POP PUSH32 0xFFFFFFFFFFFFFFFFFFFFFFFFFFFFFFFFFFFFFFFFFFFFFFFFFFFFFFFFFFFFFFFF DUP3 SUB PUSH2 0x2004 JUMPI PUSH2 0x2003 PUSH2 0x1F9B JUMP JUMPDEST JUMPDEST PUSH1 0x1 DUP3 ADD SWAP1 POP SWAP2 SWAP1 POP JUMP JUMPDEST PUSH32 0x4E487B7100000000000000000000000000000000000000000000000000000000 PUSH0 MSTORE PUSH1 0x22 PUSH1 0x4 MSTORE PUSH1 0x24 PUSH0 REVERT JUMPDEST PUSH0 PUSH1 0x2 DUP3 DIV SWAP1 POP PUSH1 0x1 DUP3 AND DUP1 PUSH2 0x2053 JUMPI PUSH1 0x7F DUP3 AND SWAP2 POP JUMPDEST PUSH1 0x20 DUP3 LT DUP2 SUB PUSH2 0x2066 JUMPI PUSH2 0x2065 PUSH2 0x200F JUMP JUMPDEST JUMPDEST POP SWAP2 SWAP1 POP JUMP JUMPDEST PUSH0 DUP2 SWAP1 POP DUP2 PUSH0 MSTORE PUSH1 0x20 PUSH0 KECCAK256 SWAP1 POP SWAP2 SWAP1 POP JUMP JUMPDEST PUSH0 PUSH1 0x20 PUSH1 0x1F DUP4 ADD DIV SWAP1 POP SWAP2 SWAP1 POP JUMP JUMPDEST PUSH0 DUP3 DUP3 SHL SWAP1 POP SWAP3 SWAP2 POP POP JUMP JUMPDEST PUSH0 PUSH1 0x8 DUP4 MUL PUSH2 0x20C8 PUSH32 0xFFFFFFFFFFFFFFFFFFFFFFFFFFFFFFFFFFFFFFFFFFFFFFFFFFFFFFFFFFFFFFFF DUP3 PUSH2 0x208D JUMP JUMPDEST PUSH2 0x20D2 DUP7 DUP4 PUSH2 0x208D JUMP JUMPDEST SWAP6 POP DUP1 NOT DUP5 AND SWAP4 POP DUP1 DUP7 AND DUP5 OR SWAP3 POP POP POP SWAP4 SWAP3 POP POP POP JUMP JUMPDEST PUSH0 DUP2 SWAP1 POP SWAP2 SWAP1 POP JUMP JUMPDEST PUSH0 PUSH2 0x210D PUSH2 0x2108 PUSH2 0x2103 DUP5 PUSH2 0x173C JUMP JUMPDEST PUSH2 0x20EA JUMP JUMPDEST PUSH2 0x173C JUMP JUMPDEST SWAP1 POP SWAP2 SWAP1 POP JUMP JUMPDEST PUSH0 DUP2 SWAP1 POP SWAP2 SWAP1 POP JUMP JUMPDEST PUSH2 0x2126 DUP4 PUSH2 0x20F3 JUMP JUMPDEST PUSH2 0x213A PUSH2 0x2132 DUP3 PUSH2 0x2114 JUMP JUMPDEST DUP5 DUP5 SLOAD PUSH2 0x2099 JUMP JUMPDEST DUP3 SSTORE POP POP POP POP JUMP JUMPDEST PUSH0 PUSH0 SWAP1 POP SWAP1 JUMP JUMPDEST PUSH2 0x2151 PUSH2 0x2142 JUMP JUMPDEST PUSH2 0x215C DUP2 DUP5 DUP5 PUSH2 0x211D JUMP JUMPDEST POP POP POP JUMP JUMPDEST PUSH0 JUMPDEST DUP3 DUP2 LT ISZERO PUSH2 0x2182 JUMPI PUSH2 0x2177 PUSH0 DUP3 DUP5 ADD PUSH2 0x2149 JUMP JUMPDEST PUSH1 0x1 DUP2 ADD SWAP1 POP PUSH2 0x2163 JUMP JUMPDEST POP POP POP JUMP JUMPDEST PUSH1 0x1F DUP3 GT ISZERO PUSH2 0x21D5 JUMPI DUP3 DUP3 GT ISZERO PUSH2 0x21D4 JUMPI PUSH2 0x21A1 DUP2 PUSH2 0x206C JUMP JUMPDEST PUSH2 0x21AA DUP4 PUSH2 0x207E JUMP JUMPDEST PUSH2 0x21B3 DUP6 PUSH2 0x207E JUMP JUMPDEST PUSH1 0x20 DUP7 LT ISZERO PUSH2 0x21C0 JUMPI PUSH0 SWAP1 POP JUMPDEST DUP1 DUP4 ADD PUSH2 0x21CF DUP3 DUP5 SUB DUP3 PUSH2 0x2161 JUMP JUMPDEST POP POP POP POP JUMPDEST JUMPDEST POP POP POP JUMP JUMPDEST PUSH0 DUP3 DUP3 SHR SWAP1 POP SWAP3 SWAP2 POP POP JUMP JUMPDEST PUSH0 PUSH2 0x21F5 PUSH0 NOT DUP5 PUSH1 0x8 MUL PUSH2 0x21DA JUMP JUMPDEST NOT DUP1 DUP4 AND SWAP2 POP POP SWAP3 SWAP2 POP POP JUMP JUMPDEST PUSH0 PUSH2 0x220D DUP4 DUP4 PUSH2 0x21E6 JUMP JUMPDEST SWAP2 POP DUP3 PUSH1 0x2 MUL DUP3 OR SWAP1 POP SWAP3 SWAP2 POP POP JUMP JUMPDEST PUSH2 0x2226 DUP3 PUSH2 0x18B8 JUMP JUMPDEST PUSH8 0xFFFFFFFFFFFFFFFF DUP2 GT ISZERO PUSH2 0x223F JUMPI PUSH2 0x223E PUSH2 0x1536 JUMP JUMPDEST JUMPDEST PUSH2 0x2249 DUP3 SLOAD PUSH2 0x203C JUMP JUMPDEST PUSH2 0x2254 DUP3 DUP3 DUP6 PUSH2 0x2187 JUMP JUMPDEST PUSH0 PUSH1 0x20 SWAP1 POP PUSH1 0x1F DUP4 GT PUSH1 0x1 DUP2 EQ PUSH2 0x2285 JUMPI PUSH0 DUP5 ISZERO PUSH2 0x2273 JUMPI DUP3 DUP8 ADD MLOAD SWAP1 POP JUMPDEST PUSH2 0x227D DUP6 DUP3 PUSH2 0x2202 JUMP JUMPDEST DUP7 SSTORE POP PUSH2 0x22E4 JUMP JUMPDEST PUSH1 0x1F NOT DUP5 AND PUSH2 0x2293 DUP7 PUSH2 0x206C JUMP JUMPDEST PUSH0 JUMPDEST DUP3 DUP2 LT ISZERO PUSH2 0x22BA JUMPI DUP5 DUP10 ADD MLOAD DUP3 SSTORE PUSH1 0x1 DUP3 ADD SWAP2 POP PUSH1 0x20 DUP6 ADD SWAP5 POP PUSH1 0x20 DUP2 ADD SWAP1 POP PUSH2 0x2295 JUMP JUMPDEST DUP7 DUP4 LT ISZERO PUSH2 0x22D7 JUMPI DUP5 DUP10 ADD MLOAD PUSH2 0x22D3 PUSH1 0x1F DUP10 AND DUP3 PUSH2 0x21E6 JUMP JUMPDEST DUP4 SSTORE POP JUMPDEST PUSH1 0x1 PUSH1 0x2 DUP9 MUL ADD DUP9 SSTORE POP POP POP JUMPDEST POP POP POP POP POP POP JUMP JUMPDEST PUSH0 PUSH2 0x22F6 DUP3 PUSH2 0x173C JUMP JUMPDEST SWAP2 POP PUSH2 0x2301 DUP4 PUSH2 0x173C JUMP JUMPDEST SWAP3 POP DUP3 DUP3 MUL PUSH2 0x230F DUP2 PUSH2 0x173C JUMP JUMPDEST SWAP2 POP DUP3 DUP3 DIV DUP5 EQ DUP4 ISZERO OR PUSH2 0x2326 JUMPI PUSH2 0x2325 PUSH2 0x1F9B JUMP JUMPDEST JUMPDEST POP SWAP3 SWAP2 POP POP JUMP JUMPDEST PUSH0 PUSH2 0x2337 DUP3 PUSH2 0x173C JUMP JUMPDEST SWAP2 POP PUSH2 0x2342 DUP4 PUSH2 0x173C JUMP JUMPDEST SWAP3 POP DUP3 DUP3 ADD SWAP1 POP DUP1 DUP3 GT ISZERO PUSH2 0x235A JUMPI PUSH2 0x2359 PUSH2 0x1F9B JUMP JUMPDEST JUMPDEST SWAP3 SWAP2 POP POP JUMP JUMPDEST PUSH32 0x4E487B7100000000000000000000000000000000000000000000000000000000 PUSH0 MSTORE PUSH1 0x32 PUSH1 0x4 MSTORE PUSH1 0x24 PUSH0 REVERT JUMPDEST PUSH32 0x4E616D612070696C6968616E20746964616B20626F6C6568206B6F736F6E6700 PUSH0 DUP3 ADD MSTORE POP JUMP JUMPDEST PUSH0 PUSH2 0x23C1 PUSH1 0x1F DUP4 PUSH2 0x18C2 JUMP JUMPDEST SWAP2 POP PUSH2 0x23CC DUP3 PUSH2 0x238D JUMP JUMPDEST PUSH1 0x20 DUP3 ADD SWAP1 POP SWAP2 SWAP1 POP JUMP JUMPDEST PUSH0 PUSH1 0x20 DUP3 ADD SWAP1 POP DUP2 DUP2 SUB PUSH0 DUP4 ADD MSTORE PUSH2 0x23EE DUP2 PUSH2 0x23B5 JUMP JUMPDEST SWAP1 POP SWAP2 SWAP1 POP JUMP JUMPDEST PUSH0 PUSH1 0x40 DUP3 ADD SWAP1 POP DUP2 DUP2 SUB PUSH0 DUP4 ADD MSTORE PUSH2 0x240D DUP2 DUP6 PUSH2 0x18E0 JUMP JUMPDEST SWAP1 POP PUSH2 0x241C PUSH1 0x20 DUP4 ADD DUP5 PUSH2 0x1827 JUMP JUMPDEST SWAP4 SWAP3 POP POP POP JUMP JUMPDEST PUSH32 0x494420766F74696E6720746964616B2076616C69640000000000000000000000 PUSH0 DUP3 ADD MSTORE POP JUMP JUMPDEST PUSH0 PUSH2 0x2457 PUSH1 0x15 DUP4 PUSH2 0x18C2 JUMP JUMPDEST SWAP2 POP PUSH2 0x2462 DUP3 PUSH2 0x2423 JUMP JUMPDEST PUSH1 0x20 DUP3 ADD SWAP1 POP SWAP2 SWAP1 POP JUMP JUMPDEST PUSH0 PUSH1 0x20 DUP3 ADD SWAP1 POP DUP2 DUP2 SUB PUSH0 DUP4 ADD MSTORE PUSH2 0x2484 DUP2 PUSH2 0x244B JUMP JUMPDEST SWAP1 POP SWAP2 SWAP1 POP JUMP JUMPDEST PUSH32 0x566F74696E672073756461682064697475747570000000000000000000000000 PUSH0 DUP3 ADD MSTORE POP JUMP JUMPDEST PUSH0 PUSH2 0x24BF PUSH1 0x14 DUP4 PUSH2 0x18C2 JUMP JUMPDEST SWAP2 POP PUSH2 0x24CA DUP3 PUSH2 0x248B JUMP JUMPDEST PUSH1 0x20 DUP3 ADD SWAP1 POP SWAP2 SWAP1 POP JUMP JUMPDEST PUSH0 PUSH1 0x20 DUP3 ADD SWAP1 POP DUP2 DUP2 SUB PUSH0 DUP4 ADD MSTORE PUSH2 0x24EC DUP2 PUSH2 0x24B3 JUMP JUMPDEST SWAP1 POP SWAP2 SWAP1 POP JUMP JUMPDEST PUSH32 0x57616B747520766F74696E672073756461682068616269730000000000000000 PUSH0 DUP3 ADD MSTORE POP JUMP JUMPDEST PUSH0 PUSH2 0x2527 PUSH1 0x18 DUP4 PUSH2 0x18C2 JUMP JUMPDEST SWAP2 POP PUSH2 0x2532 DUP3 PUSH2 0x24F3 JUMP JUMPDEST PUSH1 0x20 DUP3 ADD SWAP1 POP SWAP2 SWAP1 POP JUMP JUMPDEST PUSH0 PUSH1 0x20 DUP3 ADD SWAP1 POP DUP2 DUP2 SUB PUSH0 DUP4 ADD MSTORE PUSH2 0x2554 DUP2 PUSH2 0x251B JUMP JUMPDEST SWAP1 POP SWAP2 SWAP1 POP JUMP JUMPDEST PUSH32 0x416E6461207375646168206D656D626572696B616E2073756172612070616461 PUSH0 DUP3 ADD MSTORE PUSH32 0x20766F74696E6720696E69000000000000000000000000000000000000000000 PUSH1 0x20 DUP3 ADD MSTORE POP JUMP JUMPDEST PUSH0 PUSH2 0x25B5 PUSH1 0x2B DUP4 PUSH2 0x18C2 JUMP JUMPDEST SWAP2 POP PUSH2 0x25C0 DUP3 PUSH2 0x255B JUMP JUMPDEST PUSH1 0x40 DUP3 ADD SWAP1 POP SWAP2 SWAP1 POP JUMP JUMPDEST PUSH0 PUSH1 0x20 DUP3 ADD SWAP1 POP DUP2 DUP2 SUB PUSH0 DUP4 ADD MSTORE PUSH2 0x25E2 DUP2 PUSH2 0x25A9 JUMP JUMPDEST SWAP1 POP SWAP2 SWAP1 POP JUMP JUMPDEST PUSH32 0x49442070696C6968616E20746964616B2076616C696400000000000000000000 PUSH0 DUP3 ADD MSTORE POP JUMP JUMPDEST PUSH0 PUSH2 0x261D PUSH1 0x16 DUP4 PUSH2 0x18C2 JUMP JUMPDEST SWAP2 POP PUSH2 0x2628 DUP3 PUSH2 0x25E9 JUMP JUMPDEST PUSH1 0x20 DUP3 ADD SWAP1 POP SWAP2 SWAP1 POP JUMP JUMPDEST PUSH0 PUSH1 0x20 DUP3 ADD SWAP1 POP DUP2 DUP2 SUB PUSH0 DUP4 ADD MSTORE PUSH2 0x264A DUP2 PUSH2 0x2611 JUMP JUMPDEST SWAP1 POP SWAP2 SWAP1 POP JUMP JUMPDEST PUSH0 DUP2 SLOAD PUSH2 0x265D DUP2 PUSH2 0x203C JUMP JUMPDEST PUSH2 0x2667 DUP2 DUP7 PUSH2 0x18C2 JUMP JUMPDEST SWAP5 POP PUSH1 0x1 DUP3 AND PUSH0 DUP2 EQ PUSH2 0x2681 JUMPI PUSH1 0x1 DUP2 EQ PUSH2 0x2697 JUMPI PUSH2 0x26C9 JUMP JUMPDEST PUSH1 0xFF NOT DUP4 AND DUP7 MSTORE DUP2 ISZERO ISZERO PUSH1 0x20 MUL DUP7 ADD SWAP4 POP PUSH2 0x26C9 JUMP JUMPDEST PUSH2 0x26A0 DUP6 PUSH2 0x206C JUMP JUMPDEST PUSH0 JUMPDEST DUP4 DUP2 LT ISZERO PUSH2 0x26C1 JUMPI DUP2 SLOAD DUP2 DUP10 ADD MSTORE PUSH1 0x1 DUP3 ADD SWAP2 POP PUSH1 0x20 DUP2 ADD SWAP1 POP PUSH2 0x26A2 JUMP JUMPDEST DUP1 DUP9 ADD SWAP6 POP POP POP JUMPDEST POP POP POP SWAP3 SWAP2 POP POP JUMP JUMPDEST PUSH0 PUSH1 0x20 DUP3 ADD SWAP1 POP DUP2 DUP2 SUB PUSH0 DUP4 ADD MSTORE PUSH2 0x26EA DUP2 DUP5 PUSH2 0x2651 JUMP JUMPDEST SWAP1 POP SWAP3 SWAP2 POP POP JUMP JUMPDEST PUSH0 PUSH2 0x26FC DUP3 PUSH2 0x173C JUMP JUMPDEST SWAP2 POP PUSH2 0x2707 DUP4 PUSH2 0x173C JUMP JUMPDEST SWAP3 POP DUP3 DUP3 SUB SWAP1 POP DUP2 DUP2 GT ISZERO PUSH2 0x271F JUMPI PUSH2 0x271E PUSH2 0x1F9B JUMP JUMPDEST JUMPDEST SWAP3 SWAP2 POP POP JUMP JUMPDEST PUSH32 0x566F74696E67207375646168206469747574757020736562656C756D6E796100 PUSH0 DUP3 ADD MSTORE POP JUMP JUMPDEST PUSH0 PUSH2 0x2759 PUSH1 0x1F DUP4 PUSH2 0x18C2 JUMP JUMPDEST SWAP2 POP PUSH2 0x2764 DUP3 PUSH2 0x2725 JUMP JUMPDEST PUSH1 0x20 DUP3 ADD SWAP1 POP SWAP2 SWAP1 POP JUMP JUMPDEST PUSH0 PUSH1 0x20 DUP3 ADD SWAP1 POP DUP2 DUP2 SUB PUSH0 DUP4 ADD MSTORE PUSH2 0x2786 DUP2 PUSH2 0x274D JUMP JUMPDEST SWAP1 POP SWAP2 SWAP1 POP JUMP JUMPDEST PUSH0 PUSH1 0x40 DUP3 ADD SWAP1 POP DUP2 DUP2 SUB PUSH0 DUP4 ADD MSTORE PUSH2 0x27A5 DUP2 DUP6 PUSH2 0x2651 JUMP JUMPDEST SWAP1 POP PUSH2 0x27B4 PUSH1 0x20 DUP4 ADD DUP5 PUSH2 0x1827 JUMP JUMPDEST SWAP4 SWAP3 POP POP POP JUMP JUMPDEST PUSH0 PUSH1 0x60 DUP3 ADD SWAP1 POP PUSH2 0x27CE PUSH0 DUP4 ADD DUP7 PUSH2 0x1827 JUMP JUMPDEST DUP2 DUP2 SUB PUSH1 0x20 DUP4 ADD MSTORE PUSH2 0x27E0 DUP2 DUP6 PUSH2 0x2651 JUMP JUMPDEST SWAP1 POP PUSH2 0x27EF PUSH1 0x40 DUP4 ADD DUP5 PUSH2 0x1827 JUMP JUMPDEST SWAP5 SWAP4 POP POP POP POP JUMP JUMPDEST PUSH32 0x42656C756D206164612073756172612079616E67206D6173756B000000000000 PUSH0 DUP3 ADD MSTORE POP JUMP JUMPDEST PUSH0 PUSH2 0x282B PUSH1 0x1A DUP4 PUSH2 0x18C2 JUMP JUMPDEST SWAP2 POP PUSH2 0x2836 DUP3 PUSH2 0x27F7 JUMP JUMPDEST PUSH1 0x20 DUP3 ADD SWAP1 POP SWAP2 SWAP1 POP JUMP JUMPDEST PUSH0 PUSH1 0x20 DUP3 ADD SWAP1 POP DUP2 DUP2 SUB PUSH0 DUP4 ADD MSTORE PUSH2 0x2858 DUP2 PUSH2 0x281F JUMP JUMPDEST SWAP1 POP SWAP2 SWAP1 POP JUMP INVALID LOG2 PUSH5 0x6970667358 0x22 SLT KECCAK256 CALLVALUE 0xB8 DUP13 DATALOADN 0xB1A CALL EXTCODESIZE JUMPF 0x536C 0x2D 0x26 0xB6 PUSH0 MSTORE 0xD5 SWAP12 CODESIZE DELEGATECALL SWAP7 0xC0 CHAINID 0xC2 BYTE 0x4E 0xEB SWAP9 CALLDATACOPY 0x2D GASPRICE 0xB7 PUSH5 0x736F6C6343 STOP ADDMOD 0x22 STOP CALLER "
		},
		"gasEstimates": {
			"creation": {
				"codeDepositCost": "2077800",
				"executionCost": "26469",
				"totalCost": "2104269"
			},
			"external": {
				"berikanSuara(uint256,uint256)": "infinite",
				"buatVoting(string,string,string[],uint256)": "infinite",
				"daftarSemuaVoting()": "infinite",
				"infoVoting(uint256)": "infinite",
				"jumlahVoting()": "2448",
				"lihatHasil(uint256)": "infinite",
				"owner()": "2529",
				"pemenangSementara(uint256)": "infinite",
				"sudahVoting(uint256,address)": "5327",
				"tutupVoting(uint256)": "infinite"
			},
			"internal": {
				"_cariPemenang(uint256)": "infinite",
				"_cekSeri(uint256,uint256)": "infinite"
			}
		},
		"methodIdentifiers": {
			"berikanSuara(uint256,uint256)": "3b4b375a",
			"buatVoting(string,string,string[],uint256)": "1ba2ff0a",
			"daftarSemuaVoting()": "5c7f1b3f",
			"infoVoting(uint256)": "503c6124",
			"jumlahVoting()": "2189083e",
			"lihatHasil(uint256)": "f87e56b2",
			"owner()": "8da5cb5b",
			"pemenangSementara(uint256)": "a3c5e01c",
			"sudahVoting(uint256,address)": "905775f3",
			"tutupVoting(uint256)": "6b2e5374"
		}
	},
	"abi": [
		{
			"inputs": [],
			"stateMutability": "nonpayable",
			"type": "constructor"
		},
		{
			"anonymous": false,
			"inputs": [
				{
					"indexed": true,
					"internalType": "uint256",
					"name": "votingId",
					"type": "uint256"
				},
				{
					"indexed": false,
					"internalType": "uint256",
					"name": "pilihanId",
					"type": "uint256"
				},
				{
					"indexed": false,
					"internalType": "string",
					"name": "namaPemenang",
					"type": "string"
				},
				{
					"indexed": false,
					"internalType": "uint256",
					"name": "jumlahSuara",
					"type": "uint256"
				}
			],
			"name": "PemenangTerpilih",
			"type": "event"
		},
		{
			"anonymous": false,
			"inputs": [
				{
					"indexed": true,
					"internalType": "uint256",
					"name": "votingId",
					"type": "uint256"
				},
				{
					"indexed": true,
					"internalType": "address",
					"name": "pemilih",
					"type": "address"
				},
				{
					"indexed": true,
					"internalType": "uint256",
					"name": "pilihanId",
					"type": "uint256"
				},
				{
					"indexed": false,
					"internalType": "string",
					"name": "namaPilihan",
					"type": "string"
				}
			],
			"name": "SuaraDiberikan",
			"type": "event"
		},
		{
			"anonymous": false,
			"inputs": [
				{
					"indexed": true,
					"internalType": "uint256",
					"name": "votingId",
					"type": "uint256"
				},
				{
					"indexed": false,
					"internalType": "string",
					"name": "judul",
					"type": "string"
				},
				{
					"indexed": false,
					"internalType": "uint256",
					"name": "waktuMulai",
					"type": "uint256"
				}
			],
			"name": "VotingDibuat",
			"type": "event"
		},
		{
			"anonymous": false,
			"inputs": [
				{
					"indexed": true,
					"internalType": "uint256",
					"name": "votingId",
					"type": "uint256"
				},
				{
					"indexed": false,
					"internalType": "string",
					"name": "judul",
					"type": "string"
				},
				{
					"indexed": false,
					"internalType": "uint256",
					"name": "totalSuara",
					"type": "uint256"
				}
			],
			"name": "VotingDitutup",
			"type": "event"
		},
		{
			"inputs": [
				{
					"internalType": "uint256",
					"name": "_votingId",
					"type": "uint256"
				},
				{
					"internalType": "uint256",
					"name": "_pilihanId",
					"type": "uint256"
				}
			],
			"name": "berikanSuara",
			"outputs": [],
			"stateMutability": "nonpayable",
			"type": "function"
		},
		{
			"inputs": [
				{
					"internalType": "string",
					"name": "_judul",
					"type": "string"
				},
				{
					"internalType": "string",
					"name": "_deskripsi",
					"type": "string"
				},
				{
					"internalType": "string[]",
					"name": "_pilihan",
					"type": "string[]"
				},
				{
					"internalType": "uint256",
					"name": "_durasiJam",
					"type": "uint256"
				}
			],
			"name": "buatVoting",
			"outputs": [],
			"stateMutability": "nonpayable",
			"type": "function"
		},
		{
			"inputs": [],
			"name": "daftarSemuaVoting",
			"outputs": [
				{
					"internalType": "uint256[]",
					"name": "ids",
					"type": "uint256[]"
				},
				{
					"internalType": "string[]",
					"name": "juduls",
					"type": "string[]"
				},
				{
					"internalType": "bool[]",
					"name": "statusAktif",
					"type": "bool[]"
				},
				{
					"internalType": "uint256[]",
					"name": "totalSuaras",
					"type": "uint256[]"
				}
			],
			"stateMutability": "view",
			"type": "function"
		},
		{
			"inputs": [
				{
					"internalType": "uint256",
					"name": "_votingId",
					"type": "uint256"
				}
			],
			"name": "infoVoting",
			"outputs": [
				{
					"internalType": "string",
					"name": "judul",
					"type": "string"
				},
				{
					"internalType": "string",
					"name": "deskripsi",
					"type": "string"
				},
				{
					"internalType": "bool",
					"name": "aktif",
					"type": "bool"
				},
				{
					"internalType": "uint256",
					"name": "totalSuara",
					"type": "uint256"
				},
				{
					"internalType": "uint256",
					"name": "waktuMulai",
					"type": "uint256"
				},
				{
					"internalType": "uint256",
					"name": "waktuSelesai",
					"type": "uint256"
				},
				{
					"internalType": "uint256",
					"name": "jumlahPilihan",
					"type": "uint256"
				}
			],
			"stateMutability": "view",
			"type": "function"
		},
		{
			"inputs": [],
			"name": "jumlahVoting",
			"outputs": [
				{
					"internalType": "uint256",
					"name": "",
					"type": "uint256"
				}
			],
			"stateMutability": "view",
			"type": "function"
		},
		{
			"inputs": [
				{
					"internalType": "uint256",
					"name": "_votingId",
					"type": "uint256"
				}
			],
			"name": "lihatHasil",
			"outputs": [
				{
					"internalType": "string[]",
					"name": "namaPilihan",
					"type": "string[]"
				},
				{
					"internalType": "uint256[]",
					"name": "jumlahSuaraPerPilihan",
					"type": "uint256[]"
				}
			],
			"stateMutability": "view",
			"type": "function"
		},
		{
			"inputs": [],
			"name": "owner",
			"outputs": [
				{
					"internalType": "address",
					"name": "",
					"type": "address"
				}
			],
			"stateMutability": "view",
			"type": "function"
		},
		{
			"inputs": [
				{
					"internalType": "uint256",
					"name": "_votingId",
					"type": "uint256"
				}
			],
			"name": "pemenangSementara",
			"outputs": [
				{
					"internalType": "uint256",
					"name": "pilihanId",
					"type": "uint256"
				},
				{
					"internalType": "string",
					"name": "namaPemenang",
					"type": "string"
				},
				{
					"internalType": "uint256",
					"name": "jumlahSuara",
					"type": "uint256"
				},
				{
					"internalType": "bool",
					"name": "adaSeri",
					"type": "bool"
				}
			],
			"stateMutability": "view",
			"type": "function"
		},
		{
			"inputs": [
				{
					"internalType": "uint256",
					"name": "_votingId",
					"type": "uint256"
				},
				{
					"internalType": "address",
					"name": "_alamat",
					"type": "address"
				}
			],
			"name": "sudahVoting",
			"outputs": [
				{
					"internalType": "bool",
					"name": "",
					"type": "bool"
				}
			],
			"stateMutability": "view",
			"type": "function"
		},
		{
			"inputs": [
				{
					"internalType": "uint256",
					"name": "_votingId",
					"type": "uint256"
				}
			],
			"name": "tutupVoting",
			"outputs": [],
			"stateMutability": "nonpayable",
			"type": "function"
		}
	]
}